{
  "_format": "hh-sol-artifact-1",
  "contractName": "PatientIdentity",
  "sourceName": "contracts/PatientDataManagement.sol",
  "abi": [
    {
      "inputs": [
        {
          "internalType": "address",
          "name": "useraddress",
          "type": "address"
        }
      ],
      "name": "ConnectedAccountType",
      "outputs": [
        {
          "internalType": "uint256",
          "name": "",
          "type": "uint256"
        }
      ],
      "stateMutability": "view",
      "type": "function"
    },
    {
      "inputs": [
        {
          "internalType": "address",
          "name": "",
          "type": "address"
        }
      ],
      "name": "accounts",
      "outputs": [
        {
          "internalType": "uint256",
          "name": "",
          "type": "uint256"
        }
      ],
      "stateMutability": "view",
      "type": "function"
    },
    {
      "inputs": [
        {
          "internalType": "address",
          "name": "_user",
          "type": "address"
        },
        {
          "internalType": "string[]",
          "name": "url",
          "type": "string[]"
        }
      ],
      "name": "addPrescription",
      "outputs": [],
      "stateMutability": "nonpayable",
      "type": "function"
    },
    {
      "inputs": [
        {
          "internalType": "string",
          "name": "url",
          "type": "string"
        }
      ],
      "name": "addProfilePic",
      "outputs": [],
      "stateMutability": "nonpayable",
      "type": "function"
    },
    {
      "inputs": [
        {
          "internalType": "string",
          "name": "medichine",
          "type": "string"
        }
      ],
      "name": "addTopMedichine",
      "outputs": [],
      "stateMutability": "nonpayable",
      "type": "function"
    },
    {
      "inputs": [],
      "name": "autoRevokeAccessData",
      "outputs": [],
      "stateMutability": "nonpayable",
      "type": "function"
    },
    {
      "inputs": [],
      "name": "cancelSubscription",
      "outputs": [],
      "stateMutability": "nonpayable",
      "type": "function"
    },
    {
      "inputs": [
        {
          "internalType": "address",
          "name": "",
          "type": "address"
        }
      ],
      "name": "dataExpiration",
      "outputs": [
        {
          "internalType": "uint256",
          "name": "",
          "type": "uint256"
        }
      ],
      "stateMutability": "view",
      "type": "function"
    },
    {
      "inputs": [
        {
          "internalType": "uint256",
          "name": "index",
          "type": "uint256"
        },
        {
          "internalType": "address",
          "name": "_user",
          "type": "address"
        }
      ],
      "name": "deletePrecription",
      "outputs": [],
      "stateMutability": "nonpayable",
      "type": "function"
    },
    {
      "inputs": [
        {
          "internalType": "address",
          "name": "_adminAddress",
          "type": "address"
        }
      ],
      "name": "getAdmin",
      "outputs": [
        {
          "components": [
            {
              "internalType": "address",
              "name": "AdminAddress",
              "type": "address"
            },
            {
              "internalType": "uint256",
              "name": "adminID",
              "type": "uint256"
            },
            {
              "internalType": "bytes32",
              "name": "name",
              "type": "bytes32"
            },
            {
              "internalType": "bytes32",
              "name": "gender",
              "type": "bytes32"
            },
            {
              "internalType": "string",
              "name": "profilePic",
              "type": "string"
            },
            {
              "internalType": "bool",
              "name": "isAdded",
              "type": "bool"
            }
          ],
          "internalType": "struct PatientIdentity.Admin",
          "name": "",
          "type": "tuple"
        }
      ],
      "stateMutability": "view",
      "type": "function"
    },
    {
      "inputs": [],
      "name": "getAdminData",
      "outputs": [
        {
          "components": [
            {
              "internalType": "uint8",
              "name": "totalNumberOfPatient",
              "type": "uint8"
            },
            {
              "internalType": "uint8",
              "name": "totalNumberOfDoctor",
              "type": "uint8"
            },
            {
              "internalType": "uint8",
              "name": "totalNumberOfPathologist",
              "type": "uint8"
            },
            {
              "internalType": "uint8",
              "name": "totalNumberOfPharmacyCompany",
              "type": "uint8"
            },
            {
              "internalType": "uint8",
              "name": "totalNumberOfMedicalResearchLab",
              "type": "uint8"
            },
            {
              "internalType": "uint8",
              "name": "totalNumberOfPremiumPatient",
              "type": "uint8"
            },
            {
              "internalType": "uint8",
              "name": "totalNumberOfPremiumDoctor",
              "type": "uint8"
            },
            {
              "internalType": "uint8",
              "name": "totalNumberOfPremiumPathologist",
              "type": "uint8"
            },
            {
              "internalType": "uint8",
              "name": "totalNumberOfPremiumPharmacyCompany",
              "type": "uint8"
            },
            {
              "internalType": "uint8",
              "name": "totalNumberOfPremiumMedicalResearchLab",
              "type": "uint8"
            }
          ],
          "internalType": "struct PatientIdentity.AdminData",
          "name": "",
          "type": "tuple"
        }
      ],
      "stateMutability": "view",
      "type": "function"
    },
    {
      "inputs": [
        {
          "internalType": "address",
          "name": "userAddress",
          "type": "address"
        }
      ],
      "name": "getAlluserTypeData",
      "outputs": [
        {
          "components": [
            {
              "internalType": "bytes32",
              "name": "userType",
              "type": "bytes32"
            },
            {
              "internalType": "address",
              "name": "userAddress",
              "type": "address"
            },
            {
              "internalType": "uint256",
              "name": "userID",
              "type": "uint256"
            },
            {
              "internalType": "bytes32",
              "name": "username",
              "type": "bytes32"
            },
            {
              "internalType": "bytes32",
              "name": "emailAddress",
              "type": "bytes32"
            }
          ],
          "internalType": "struct PatientIdentity.commonData",
          "name": "userData",
          "type": "tuple"
        }
      ],
      "stateMutability": "view",
      "type": "function"
    },
    {
      "inputs": [
        {
          "internalType": "address",
          "name": "_doctorAddress",
          "type": "address"
        }
      ],
      "name": "getDoctor",
      "outputs": [
        {
          "internalType": "address",
          "name": "doctorAddress",
          "type": "address"
        },
        {
          "internalType": "uint256",
          "name": "doctorID",
          "type": "uint256"
        },
        {
          "internalType": "bytes32",
          "name": "name",
          "type": "bytes32"
        },
        {
          "internalType": "bytes32",
          "name": "specialty",
          "type": "bytes32"
        },
        {
          "internalType": "uint256",
          "name": "consultationFee",
          "type": "uint256"
        },
        {
          "internalType": "uint256",
          "name": "BMDCNumber",
          "type": "uint256"
        },
        {
          "internalType": "uint256",
          "name": "yearOfExperience",
          "type": "uint256"
        },
        {
          "internalType": "bytes32",
          "name": "userType",
          "type": "bytes32"
        },
        {
          "internalType": "string",
          "name": "profilePic",
          "type": "string"
        },
        {
          "internalType": "bytes32",
          "name": "birthday",
          "type": "bytes32"
        },
        {
          "internalType": "bytes32",
          "name": "emailAddress",
          "type": "bytes32"
        }
      ],
      "stateMutability": "view",
      "type": "function"
    },
    {
      "inputs": [
        {
          "internalType": "address",
          "name": "_doctorAddress",
          "type": "address"
        }
      ],
      "name": "getDoctorAnotherData",
      "outputs": [
        {
          "internalType": "address[]",
          "name": "PatientToDoctor",
          "type": "address[]"
        },
        {
          "internalType": "string[]",
          "name": "patientTest",
          "type": "string[]"
        },
        {
          "internalType": "address[]",
          "name": "TreatedPatient",
          "type": "address[]"
        },
        {
          "internalType": "address[]",
          "name": "pathologist",
          "type": "address[]"
        }
      ],
      "stateMutability": "view",
      "type": "function"
    },
    {
      "inputs": [
        {
          "internalType": "address",
          "name": "_pathoAddress",
          "type": "address"
        },
        {
          "internalType": "address",
          "name": "_doctorAddress",
          "type": "address"
        }
      ],
      "name": "getDoctorDataFromPathologist",
      "outputs": [
        {
          "internalType": "string[]",
          "name": "",
          "type": "string[]"
        }
      ],
      "stateMutability": "view",
      "type": "function"
    },
    {
      "inputs": [
        {
          "internalType": "address",
          "name": "_labAddress",
          "type": "address"
        }
      ],
      "name": "getMedicalResearchLab",
      "outputs": [
        {
          "components": [
            {
              "internalType": "address",
              "name": "labAddress",
              "type": "address"
            },
            {
              "internalType": "uint256",
              "name": "labID",
              "type": "uint256"
            },
            {
              "internalType": "bytes32",
              "name": "name",
              "type": "bytes32"
            },
            {
              "internalType": "uint256",
              "name": "licenseID",
              "type": "uint256"
            },
            {
              "internalType": "bytes32",
              "name": "researchArea",
              "type": "bytes32"
            },
            {
              "internalType": "uint256",
              "name": "labRating",
              "type": "uint256"
            },
            {
              "internalType": "bool",
              "name": "isAdded",
              "type": "bool"
            },
            {
              "internalType": "string[]",
              "name": "imgUrl",
              "type": "string[]"
            },
            {
              "internalType": "bytes32",
              "name": "userType",
              "type": "bytes32"
            },
            {
              "internalType": "string",
              "name": "profilePic",
              "type": "string"
            },
            {
              "internalType": "bytes32",
              "name": "emailAddress",
              "type": "bytes32"
            }
          ],
          "internalType": "struct PatientIdentity.MedicalResearchLab",
          "name": "",
          "type": "tuple"
        }
      ],
      "stateMutability": "view",
      "type": "function"
    },
    {
      "inputs": [
        {
          "internalType": "address",
          "name": "_pathologistAddress",
          "type": "address"
        }
      ],
      "name": "getPathologist",
      "outputs": [
        {
          "internalType": "address",
          "name": "pathologistAddress",
          "type": "address"
        },
        {
          "internalType": "uint256",
          "name": "pathologistID",
          "type": "uint256"
        },
        {
          "internalType": "bytes32",
          "name": "name",
          "type": "bytes32"
        },
        {
          "internalType": "uint256",
          "name": "licenseNumber",
          "type": "uint256"
        },
        {
          "internalType": "bytes32",
          "name": "specializationArea",
          "type": "bytes32"
        },
        {
          "internalType": "uint256",
          "name": "totalExperience",
          "type": "uint256"
        },
        {
          "internalType": "address[]",
          "name": "patientToPathologist",
          "type": "address[]"
        },
        {
          "internalType": "string[]",
          "name": "pathologistTest",
          "type": "string[]"
        },
        {
          "internalType": "bytes32",
          "name": "userType",
          "type": "bytes32"
        },
        {
          "internalType": "string",
          "name": "profilePic",
          "type": "string"
        },
        {
          "internalType": "bytes32",
          "name": "birthday",
          "type": "bytes32"
        },
        {
          "internalType": "address[]",
          "name": "allDoctor",
          "type": "address[]"
        }
      ],
      "stateMutability": "view",
      "type": "function"
    },
    {
      "inputs": [
        {
          "internalType": "address",
          "name": "_doctorAddress",
          "type": "address"
        },
        {
          "internalType": "address",
          "name": "pathoAddress",
          "type": "address"
        }
      ],
      "name": "getPathologistDataFromDoctor",
      "outputs": [
        {
          "internalType": "string[]",
          "name": "",
          "type": "string[]"
        }
      ],
      "stateMutability": "view",
      "type": "function"
    },
    {
      "inputs": [
        {
          "internalType": "address",
          "name": "_patientAddress",
          "type": "address"
        }
      ],
      "name": "getPatient",
      "outputs": [
        {
          "components": [
            {
              "internalType": "address",
              "name": "patientAddress",
              "type": "address"
            },
            {
              "internalType": "uint256",
              "name": "patientID",
              "type": "uint256"
            },
            {
              "internalType": "bytes32",
              "name": "name",
              "type": "bytes32"
            },
            {
              "internalType": "bytes32",
              "name": "gender",
              "type": "bytes32"
            },
            {
              "internalType": "uint256",
              "name": "age",
              "type": "uint256"
            },
            {
              "internalType": "bytes32",
              "name": "location",
              "type": "bytes32"
            },
            {
              "internalType": "bool",
              "name": "isAdded",
              "type": "bool"
            },
            {
              "internalType": "bytes32",
              "name": "userType",
              "type": "bytes32"
            },
            {
              "internalType": "string[]",
              "name": "imgUrl",
              "type": "string[]"
            },
            {
              "components": [
                {
                  "internalType": "bytes32",
                  "name": "height",
                  "type": "bytes32"
                },
                {
                  "internalType": "bytes32",
                  "name": "Blood",
                  "type": "bytes32"
                },
                {
                  "internalType": "bytes32",
                  "name": "PreviousDiseases",
                  "type": "bytes32"
                },
                {
                  "internalType": "bytes32",
                  "name": "Medicinedrugs",
                  "type": "bytes32"
                },
                {
                  "internalType": "bytes32",
                  "name": "BadHabits",
                  "type": "bytes32"
                },
                {
                  "internalType": "bytes32",
                  "name": "ChronicDiseases",
                  "type": "bytes32"
                },
                {
                  "internalType": "bytes32",
                  "name": "HealthAllergies",
                  "type": "bytes32"
                },
                {
                  "internalType": "bytes32",
                  "name": "BirthDefects",
                  "type": "bytes32"
                }
              ],
              "internalType": "struct PatientIdentity.PatientPersonalData",
              "name": "patientPersonalData",
              "type": "tuple"
            },
            {
              "internalType": "string",
              "name": "profilePic",
              "type": "string"
            },
            {
              "internalType": "bytes32",
              "name": "birthday",
              "type": "bytes32"
            },
            {
              "internalType": "bytes32",
              "name": "emailAddress",
              "type": "bytes32"
            }
          ],
          "internalType": "struct PatientIdentity.Patient",
          "name": "",
          "type": "tuple"
        }
      ],
      "stateMutability": "view",
      "type": "function"
    },
    {
      "inputs": [
        {
          "internalType": "address",
          "name": "_doctorAddress",
          "type": "address"
        },
        {
          "internalType": "address",
          "name": "_patientAddress",
          "type": "address"
        }
      ],
      "name": "getPatientDataFromDoctor",
      "outputs": [
        {
          "internalType": "string[]",
          "name": "",
          "type": "string[]"
        }
      ],
      "stateMutability": "view",
      "type": "function"
    },
    {
      "inputs": [
        {
          "internalType": "address",
          "name": "userAddress",
          "type": "address"
        }
      ],
      "name": "getPatientToAdmin",
      "outputs": [
        {
          "internalType": "address[]",
          "name": "",
          "type": "address[]"
        }
      ],
      "stateMutability": "view",
      "type": "function"
    },
    {
      "inputs": [],
      "name": "getPatientToPharmacy",
      "outputs": [
        {
          "internalType": "address[]",
          "name": "",
          "type": "address[]"
        }
      ],
      "stateMutability": "view",
      "type": "function"
    },
    {
      "inputs": [],
      "name": "getPersonalDoctor",
      "outputs": [
        {
          "internalType": "address[]",
          "name": "",
          "type": "address[]"
        }
      ],
      "stateMutability": "view",
      "type": "function"
    },
    {
      "inputs": [
        {
          "internalType": "address",
          "name": "_pharmacyCompanyAddress",
          "type": "address"
        }
      ],
      "name": "getPharmacyCompany",
      "outputs": [
        {
          "components": [
            {
              "internalType": "address",
              "name": "pharmacyCompanyAddress",
              "type": "address"
            },
            {
              "internalType": "uint256",
              "name": "companyID",
              "type": "uint256"
            },
            {
              "internalType": "bytes32",
              "name": "name",
              "type": "bytes32"
            },
            {
              "internalType": "uint256",
              "name": "licenseID",
              "type": "uint256"
            },
            {
              "internalType": "bytes32",
              "name": "productInformation",
              "type": "bytes32"
            },
            {
              "internalType": "uint256",
              "name": "pharmacyRating",
              "type": "uint256"
            },
            {
              "internalType": "bool",
              "name": "isAdded",
              "type": "bool"
            },
            {
              "internalType": "bytes32",
              "name": "userType",
              "type": "bytes32"
            },
            {
              "internalType": "string[]",
              "name": "TopMedichine",
              "type": "string[]"
            },
            {
              "internalType": "string",
              "name": "profilePic",
              "type": "string"
            },
            {
              "internalType": "bytes32",
              "name": "emailAddress",
              "type": "bytes32"
            }
          ],
          "internalType": "struct PatientIdentity.PharmacyCompany",
          "name": "",
          "type": "tuple"
        }
      ],
      "stateMutability": "view",
      "type": "function"
    },
    {
      "inputs": [
        {
          "internalType": "address",
          "name": "subscriber",
          "type": "address"
        }
      ],
      "name": "getSubscriptionStatus",
      "outputs": [
        {
          "internalType": "bool",
          "name": "isSubscription",
          "type": "bool"
        },
        {
          "internalType": "uint256",
          "name": "expiration",
          "type": "uint256"
        },
        {
          "internalType": "uint256",
          "name": "daysLeft",
          "type": "uint256"
        }
      ],
      "stateMutability": "view",
      "type": "function"
    },
    {
      "inputs": [],
      "name": "getadminToMedRcLab",
      "outputs": [
        {
          "internalType": "address[]",
          "name": "",
          "type": "address[]"
        }
      ],
      "stateMutability": "view",
      "type": "function"
    },
    {
      "inputs": [],
      "name": "getsharedAllDoctorAddress",
      "outputs": [
        {
          "internalType": "address[]",
          "name": "",
          "type": "address[]"
        }
      ],
      "stateMutability": "view",
      "type": "function"
    },
    {
      "inputs": [],
      "name": "getsharedAllUsersAddress",
      "outputs": [
        {
          "internalType": "address[]",
          "name": "",
          "type": "address[]"
        }
      ],
      "stateMutability": "view",
      "type": "function"
    },
    {
      "inputs": [
        {
          "internalType": "address",
          "name": "userAddress",
          "type": "address"
        }
      ],
      "name": "revokeAccessData",
      "outputs": [],
      "stateMutability": "nonpayable",
      "type": "function"
    },
    {
      "inputs": [
        {
          "internalType": "uint256",
          "name": "adminID",
          "type": "uint256"
        },
        {
          "internalType": "bytes32",
          "name": "name",
          "type": "bytes32"
        },
        {
          "internalType": "bytes32",
          "name": "gender",
          "type": "bytes32"
        }
      ],
      "name": "setAdmin",
      "outputs": [],
      "stateMutability": "nonpayable",
      "type": "function"
    },
    {
      "inputs": [
        {
          "internalType": "uint256",
          "name": "doctorID",
          "type": "uint256"
        },
        {
          "internalType": "bytes32",
          "name": "name",
          "type": "bytes32"
        },
        {
          "internalType": "bytes32",
          "name": "specialty",
          "type": "bytes32"
        },
        {
          "internalType": "uint256",
          "name": "consultationFee",
          "type": "uint256"
        },
        {
          "internalType": "uint256",
          "name": "BMDCNumber",
          "type": "uint256"
        },
        {
          "internalType": "uint256",
          "name": "yearOfExperience",
          "type": "uint256"
        },
        {
          "internalType": "bytes32",
          "name": "birthday",
          "type": "bytes32"
        }
      ],
      "name": "setDoctor",
      "outputs": [],
      "stateMutability": "nonpayable",
      "type": "function"
    },
    {
      "inputs": [
        {
          "internalType": "uint256",
          "name": "labID",
          "type": "uint256"
        },
        {
          "internalType": "bytes32",
          "name": "name",
          "type": "bytes32"
        },
        {
          "internalType": "uint256",
          "name": "licenseID",
          "type": "uint256"
        },
        {
          "internalType": "bytes32",
          "name": "researchArea",
          "type": "bytes32"
        },
        {
          "internalType": "uint256",
          "name": "labRating",
          "type": "uint256"
        }
      ],
      "name": "setMedicalResearchLab",
      "outputs": [],
      "stateMutability": "nonpayable",
      "type": "function"
    },
    {
      "inputs": [
        {
          "internalType": "uint256",
          "name": "pathologistID",
          "type": "uint256"
        },
        {
          "internalType": "bytes32",
          "name": "name",
          "type": "bytes32"
        },
        {
          "internalType": "uint256",
          "name": "licenseNumber",
          "type": "uint256"
        },
        {
          "internalType": "bytes32",
          "name": "specializationArea",
          "type": "bytes32"
        },
        {
          "internalType": "uint256",
          "name": "totalExperience",
          "type": "uint256"
        },
        {
          "internalType": "bytes32",
          "name": "birthday",
          "type": "bytes32"
        },
        {
          "internalType": "bytes32",
          "name": "emailAddress",
          "type": "bytes32"
        }
      ],
      "name": "setPathologist",
      "outputs": [],
      "stateMutability": "nonpayable",
      "type": "function"
    },
    {
      "inputs": [
        {
          "internalType": "uint256",
          "name": "patientID",
          "type": "uint256"
        },
        {
          "internalType": "bytes32",
          "name": "name",
          "type": "bytes32"
        },
        {
          "internalType": "bytes32",
          "name": "gender",
          "type": "bytes32"
        },
        {
          "internalType": "uint256",
          "name": "age",
          "type": "uint256"
        },
        {
          "internalType": "bytes32",
          "name": "location",
          "type": "bytes32"
        },
        {
          "internalType": "bytes32",
          "name": "birthday",
          "type": "bytes32"
        },
        {
          "internalType": "bytes32",
          "name": "emailAddress",
          "type": "bytes32"
        }
      ],
      "name": "setPatient",
      "outputs": [],
      "stateMutability": "nonpayable",
      "type": "function"
    },
    {
      "inputs": [
        {
          "internalType": "bytes32",
          "name": "height",
          "type": "bytes32"
        },
        {
          "internalType": "bytes32",
          "name": "blood",
          "type": "bytes32"
        },
        {
          "internalType": "bytes32",
          "name": "previousDiseases",
          "type": "bytes32"
        },
        {
          "internalType": "bytes32",
          "name": "medicineDrugs",
          "type": "bytes32"
        },
        {
          "internalType": "bytes32",
          "name": "badHabits",
          "type": "bytes32"
        },
        {
          "internalType": "bytes32",
          "name": "chronicDiseases",
          "type": "bytes32"
        },
        {
          "internalType": "bytes32",
          "name": "healthAllergies",
          "type": "bytes32"
        },
        {
          "internalType": "bytes32",
          "name": "birthDefects",
          "type": "bytes32"
        }
      ],
      "name": "setPatientPersonalData",
      "outputs": [],
      "stateMutability": "nonpayable",
      "type": "function"
    },
    {
      "inputs": [
        {
          "internalType": "uint256",
          "name": "companyID",
          "type": "uint256"
        },
        {
          "internalType": "bytes32",
          "name": "name",
          "type": "bytes32"
        },
        {
          "internalType": "uint256",
          "name": "licenseID",
          "type": "uint256"
        },
        {
          "internalType": "bytes32",
          "name": "productInformation",
          "type": "bytes32"
        },
        {
          "internalType": "uint256",
          "name": "pharmacyRating",
          "type": "uint256"
        }
      ],
      "name": "setPharmacyCompany",
      "outputs": [],
      "stateMutability": "nonpayable",
      "type": "function"
    },
    {
      "inputs": [
        {
          "internalType": "address",
          "name": "useraddress",
          "type": "address"
        }
      ],
      "name": "shareData",
      "outputs": [],
      "stateMutability": "nonpayable",
      "type": "function"
    },
    {
      "inputs": [
        {
          "internalType": "address",
          "name": "patientAddress",
          "type": "address"
        }
      ],
      "name": "showSharedPrescription",
      "outputs": [
        {
          "internalType": "string[]",
          "name": "imageUrl",
          "type": "string[]"
        }
      ],
      "stateMutability": "view",
      "type": "function"
    },
    {
      "inputs": [],
      "name": "subscription",
      "outputs": [],
      "stateMutability": "nonpayable",
      "type": "function"
    },
    {
      "inputs": [
        {
          "internalType": "address",
          "name": "",
          "type": "address"
        }
      ],
      "name": "subscriptionExpiration",
      "outputs": [
        {
          "internalType": "uint256",
          "name": "",
          "type": "uint256"
        }
      ],
      "stateMutability": "view",
      "type": "function"
    }
  ],
  "bytecode": "0x608060405234801561001057600080fd5b50614397806100206000396000f3fe608060405234801561001057600080fd5b50600436106102485760003560e01c80637e3399681161013b578063abb4d51f116100b8578063d680288b1161007c578063d680288b14610711578063da025c1214610719578063ea8c9e0414610721578063f7332c0314610741578063ff9ffc071461074957600080fd5b8063abb4d51f1461065f578063b12e2e8414610672578063b5368e20146106cb578063b5593251146106eb578063d3701a7b146106fe57600080fd5b80638d3f876b116100ff5780638d3f876b146104f25780638f7a844b146105125780639059229b146106145780639824a07a146106345780639c0f1c7c1461063c57600080fd5b80637e3399681461045b5780638043ce001461046357806380f1310a14610476578063887f6f8d146104895780638bb115b71461049c57600080fd5b80632a1ebd01116101c95780635842e6e51161018d5780635842e6e5146103e05780635e5c06e2146103f557806360c61d0c1461041557806364efb22b146104285780636bc071a51461044857600080fd5b80632a1ebd011461035a5780632f04e0641461037b57806344387cc2146103a557806355bf3b33146103ad57806355da65f4146103cd57600080fd5b80631ddda9b6116102105780631ddda9b6146102dc5780632138ba841461030c57806324e9edb01461031f57806327ccc00e146103345780632856d1e81461034757600080fd5b806307eda2cc1461024d578063080bc2b1146102625780630b916f141461028b57806316ecfa841461029e5780631a5aa676146102c9575b600080fd5b61026061025b366004613691565b61075c565b005b6102756102703660046136ac565b610872565b604051610282919061377f565b60405180910390f35b6102756102993660046136ac565b610973565b6102b16102ac366004613691565b610a67565b6040516102829c9b9a999897969594939291906137d7565b6102606102d736600461392d565b610cc0565b6102ef6102ea366004613691565b610e4d565b604080519315158452602084019290925290820152606001610282565b61026061031a36600461396a565b610ec0565b61026033600090815260096020526040812055565b61026061034236600461398d565b611197565b6102606103553660046139b9565b611218565b61036d610368366004613691565b611310565b604051908152602001610282565b61038e610389366004613691565b6113cc565b6040516102829b9a999897969594939291906139f4565b610260611536565b61036d6103bb366004613691565b60096020526000908152604090205481565b6102606103db3660046139b9565b6116d0565b6103e861179e565b6040516102829190613a5e565b61036d610403366004613691565b600a6020526000908152604090205481565b610260610423366004613a71565b6117be565b61043b610436366004613691565b611d8f565b6040516102829190613b47565b61026061045636600461392d565b611ee3565b6103e8611f0f565b6102756104713660046136ac565b611f2a565b610260610484366004613bab565b61201e565b610275610497366004613691565b61210e565b6102606104aa366004613bf7565b336000908152600b602081905260409091206009810199909955600a89019790975595870194909455600c860192909255600d850155600e840155600f830155601090910155565b61036d610500366004613691565b60086020526000908152604090205481565b6106076040805161014081018252600080825260208201819052918101829052606081018290526080810182905260a0810182905260c0810182905260e08101829052610100810182905261012081019190915250604080516101408101825260005460ff8082168352610100808304821660208501526201000083048216948401949094526301000000820481166060840152640100000000820481166080840152650100000000008204811660a084015266010000000000008204811660c0840152600160381b8204811660e0840152600160401b8204811693830193909352600160481b900490911661012082015290565b6040516102829190613c4c565b610627610622366004613691565b612200565b6040516102829190613d5e565b6103e861246e565b61064f61064a366004613691565b612489565b6040516102829493929190613e1c565b61026061066d366004613bab565b6125fc565b610685610680366004613691565b612705565b6040516102829190815181526020808301516001600160a01b03169082015260408083015190820152606080830151908201526080918201519181019190915260a00190565b6106de6106d9366004613691565b612876565b6040516102829190613e74565b6102606106f9366004613bab565b612ba2565b61026061070c366004613691565b612c7b565b6103e8613080565b61026061309b565b61073461072f366004613691565b6131df565b6040516102829190613f9d565b6103e86133b9565b6103e8610757366004613691565b6133c5565b6005336000908152600a6020526040902054036107d75733600090815260036020526040902061078c90826133e9565b5060016001600160a01b0382166000908152600a6020526040902054036107d4576001600160a01b0381166000908152600c602052604090206107d290600701336133e9565b505b50565b6006336000908152600a6020526040902054036107d45760036001600160a01b0382166000908152600a602052604090205403610830576001600160a01b03811660009081526006602052604090206107d290336133e9565b60046001600160a01b0382166000908152600a6020526040902054036107d4576001600160a01b03811660009081526007602052604090206107d290336133e9565b6001600160a01b038083166000908152600c60209081526040808320938516835260109093018152828220805484518184028101840190955280855260609493919290919084015b828210156109665783829060005260206000200180546108d99061404c565b80601f01602080910402602001604051908101604052809291908181526020018280546109059061404c565b80156109525780601f1061092757610100808354040283529160200191610952565b820191906000526020600020905b81548152906001019060200180831161093557829003601f168201915b5050505050815260200190600101906108ba565b5050505090505b92915050565b6001600160a01b038083166000908152600c60209081526040808320938516835260109093018152828220805484518184028101840190955280855260609493919290919084015b828210156109665783829060005260206000200180546109da9061404c565b80601f0160208091040260200160405190810160405280929190818152602001828054610a069061404c565b8015610a535780601f10610a2857610100808354040283529160200191610a53565b820191906000526020600020905b815481529060010190602001808311610a3657829003601f168201915b5050505050815260200190600101906109bb565b6001600160a01b0381166000908152600f60205260408120600681015482918291829182918291606091829184918391839183919060ff16610ae85760405162461bcd60e51b815260206004820152601560248201527414185d1a1bdb1bd9da5cdd081b9bdd08199bdd5b99605a1b60448201526064015b60405180910390fd5b8054600182015460028301546003840154600485015460058601546001600160a01b0390951694610b1b60078801613405565b8760090188600a015489600b018a600c0154610b398c600e01613405565b84805480602002602001604051908101604052809291908181526020016000905b82821015610c06578382906000526020600020018054610b799061404c565b80601f0160208091040260200160405190810160405280929190818152602001828054610ba59061404c565b8015610bf25780601f10610bc757610100808354040283529160200191610bf2565b820191906000526020600020905b815481529060010190602001808311610bd557829003601f168201915b505050505081526020019060010190610b5a565b505050509450828054610c189061404c565b80601f0160208091040260200160405190810160405280929190818152602001828054610c449061404c565b8015610c915780601f10610c6657610100808354040283529160200191610c91565b820191906000526020600020905b815481529060010190602001808311610c7457829003601f168201915b505050505092509c509c509c509c509c509c509c509c509c509c509c509c505091939597999b5091939597999b565b6001336000908152600a602052604090205403610cf357336000908152600c60205260409020600e016107d282826140d0565b6002336000908152600a602052604090205403610d2657336000908152600f60205260409020600b016107d282826140d0565b6005336000908152600a602052604090205403610d5957336000908152600b602052604090206011016107d282826140d0565b6004336000908152600a602052604090205403610d8c573360009081526011602052604090206009016107d282826140d0565b6003336000908152600a602052604090205403610dbf573360009081526010602052604090206009016107d282826140d0565b6006336000908152600a602052604090205403610df257336000908152600e602052604090206004016107d282826140d0565b60405162461bcd60e51b815260206004820152602a60248201527f596f7520646f6e2774206164642070726f66696c652070696320696e20746869604482015269039901032b73a34ba3c960b51b6064820152608401610adf565b6001600160a01b03811660009081526009602052604081205481908190421015610eaf576001600160a01b038416600090815260096020526040902054915062015180610e9a42846141a6565b610ea491906141b9565b905060019250610eb9565b5060009150819050805b9193909250565b6005336000908152600a602052604090205403610fa557336000908152600b602052604090206008018054610ef7906001906141a6565b81548110610f0757610f076141db565b90600052602060002001600b6000336001600160a01b03166001600160a01b031681526020019081526020016000206008018381548110610f4a57610f4a6141db565b906000526020600020019081610f6091906141f1565b50336000908152600b60205260409020600801805480610f8257610f826142cc565b600190038181906000526020600020016000610f9e9190613627565b90556107d2565b6001336000908152600a60205260409020540361108d57336000908152600c602090815260408083206001600160a01b038516845260100190915290208054610ff0906001906141a6565b81548110611000576110006141db565b60009182526020808320338452600c825260408085206001600160a01b038716865260100190925292208054929091019184908110611041576110416141db565b90600052602060002001908161105791906141f1565b50336000908152600c602090815260408083206001600160a01b03851684526010019091529020805480610f8257610f826142cc565b6002336000908152600a6020526040902054036107d257336000908152600c602090815260408083206001600160a01b0385168452601001909152902080546110d8906001906141a6565b815481106110e8576110e86141db565b60009182526020808320338452600f825260408085206001600160a01b0387168652600d0190925292208054929091019184908110611129576111296141db565b90600052602060002001908161113f91906141f1565b50336000908152600f602090815260408083206001600160a01b0385168452600d019091529020805480611175576111756142cc565b6001900381819060005260206000200160006111919190613627565b90555050565b336000818152600e602052604090206005015460ff16156111ca5760405162461bcd60e51b8152600401610adf906142e2565b6001600160a01b03166000818152600e6020526040902080546001600160a01b031916909117815560018082019490945560028101929092556003820155600501805460ff19169091179055565b3360008181526010602052604090206006015460ff161561124b5760405162461bcd60e51b8152600401610adf906142e2565b6001600160a01b038116600081815260106020908152604080832080546001600160a01b031916909417845560018085018b9055600285018a905560038086018a905560048087018a90556005870189905560068701805460ff1916909317909255600a909352908320919091557326b2b234b1b0b6102932b9b2b0b931b4102630b160611b60088401558154640100000000900460ff1691906112ee83614319565b91906101000a81548160ff021916908360ff1602179055505050505050505050565b6001600160a01b0381166000908152600a6020526040812054806113345792915050565b600181036113425792915050565b600581036113505792915050565b6002810361135e5792915050565b6003810361136c5792915050565b6004810361137a5792915050565b600681036113885792915050565b60405162461bcd60e51b815260206004820152601360248201527224b73b30b4b6321029ba30b5b2b437b63232b960691b6044820152606401610adf565b50919050565b6001600160a01b0381166000908152600c60205260408120600a81015482918291829182918291829182916060918391829160ff166114405760405162461bcd60e51b815260206004820152601060248201526f111bd8dd1bdc881b9bdd08199bdd5b9960821b6044820152606401610adf565b8054600182015460028301546003840154600485015460058601546006870154600d880154600f89015460138a0154600e8b0180546001600160a01b03909b169a9092919083906114909061404c565b80601f01602080910402602001604051908101604052809291908181526020018280546114bc9061404c565b80156115095780601f106114de57610100808354040283529160200191611509565b820191906000526020600020905b8154815290600101906020018083116114ec57829003601f168201915b505050505092509b509b509b509b509b509b509b509b509b509b509b505091939597999b90929496989a50565b6002336000908152600a6020526040902054036115855760008054600160381b900460ff1690600761156783614319565b91906101000a81548160ff021916908360ff16021790555050611668565b6001336000908152600a6020526040902054036115b957600080546601000000000000900460ff1690600661156783614319565b6005336000908152600a6020526040902054036115ec576000805465010000000000900460ff1690600561156783614319565b6003336000908152600a60205260409020540361161d5760008054600160481b900460ff1690600961156783614319565b6004336000908152600a6020526040902054036116685760008054600160401b900460ff1690600861164e83614319565b91906101000a81548160ff021916908360ff160217905550505b3360009081526009602052604090205442908110156116af5733600090815260096020526040812080546301e1338092906116a4908490614338565b909155506107d49050565b6116bd816301e13380614338565b3360009081526009602052604090205550565b3360008181526011602052604090206006015460ff16156117035760405162461bcd60e51b8152600401610adf906142e2565b6001600160a01b038116600081815260116020908152604080832080546001600160a01b031916909417845560018085018b9055600285018a905560038086018a905560048087018a90556005870189905560068701805460ff1916909317909255600a909352908320556f506861726d61637920436f6d70616e7960801b600784015581546301000000900460ff1691906112ee83614319565b3360009081526006602052604090206060906117b990613405565b905090565b6001336000908152600a602052604090205403611aa157336000908152600c60205260409020600a015460ff1661182e5760405162461bcd60e51b8152602060048201526014602482015273111bd8dd1bdc88191bd95cdb89dd08195e1a5cdd60621b6044820152606401610adf565b60026001600160a01b0383166000908152600a60205260409020540361193b5760005b81518110156118c657336000908152600c602090815260408083206001600160a01b038716845260100190915290208251839083908110611894576118946141db565b602090810291909101810151825460018101845560009384529190922001906118bd90826140d0565b50600101611851565b50336000908152600c602052604081206118e39060110184613412565b156118ec575060015b8061193557336000908152600c6020526040902061190d9060110184613434565b506001600160a01b0383166000908152600f6020526040902061193390600e0133613434565b505b506107d2565b60056001600160a01b0383166000908152600a602052604090205403611a465760005b81518110156119d357336000908152600c602090815260408083206001600160a01b0387168452601001909152902082518390839081106119a1576119a16141db565b602090810291909101810151825460018101845560009384529190922001906119ca90826140d0565b5060010161195e565b50336000908152600c60205260408120906119f1600b830185613412565b156119fa575060015b8061193357336000908152600c60205260409020611a1b90600b0185613434565b506001600160a01b0384166000908152600260205260409020611a3e9033613434565b5050506107d2565b60405162461bcd60e51b815260206004820152602a60248201527f596f752063616e27742061646420707265736372697074696f6e20666f72207460448201526968697320656e7469747960b01b6064820152608401610adf565b6005336000908152600a602052604090205403611b7957336000908152600b602052604090206006015460ff16611b125760405162461bcd60e51b815260206004820152601560248201527414185d1a595b9d08191bd95cdb89dd08195e1a5cdd605a1b6044820152606401610adf565b60005b815181101561193557336000908152600b602052604090208251600890910190839083908110611b4757611b476141db565b60209081029190910181015182546001810184556000938452919092200190611b7090826140d0565b50600101611b15565b6002336000908152600a602052604090205403611cf757336000908152600f602052604090206006015460ff16611bf25760405162461bcd60e51b815260206004820152601960248201527f506174686f6c6f6769737420646f65736e2774206578697374000000000000006044820152606401610adf565b60016001600160a01b0383166000908152600a602052604090205403611a465760005b8151811015611c8a57336000908152600f602090815260408083206001600160a01b0387168452600d0190915290208251839083908110611c5857611c586141db565b60209081029190910181015182546001810184556000938452919092200190611c8190826140d0565b50600101611c15565b50336000908152600f60205260408120611ca790600e0184613412565b15611cb0575060015b80611935576001600160a01b0383166000908152600c60205260409020611cda9060110133613434565b50336000908152600f6020526040902061193390600e0184613434565b60036001600160a01b0383166000908152600a602052604090205403611a465760005b81518110156119355760106000846001600160a01b03166001600160a01b03168152602001908152602001600020600701828281518110611d5d57611d5d6141db565b60209081029190910181015182546001810184556000938452919092200190611d8690826140d0565b50600101611d1a565b6040805160c081018252600080825260208083018290528284018290526060808401839052608084015260a083018290526001600160a01b0385168252600e9052919091206005015460ff16611de757611de761434b565b6001600160a01b038083166000908152600e6020908152604091829020825160c0810184528154909416845260018101549184019190915260028101549183019190915260038101546060830152600481018054608084019190611e4a9061404c565b80601f0160208091040260200160405190810160405280929190818152602001828054611e769061404c565b8015611ec35780601f10611e9857610100808354040283529160200191611ec3565b820191906000526020600020905b815481529060010190602001808311611ea657829003601f168201915b50505091835250506005919091015460ff16151560209091015292915050565b336000908152601160209081526040822060080180546001810182559083529120016107d282826140d0565b3360009081526007602052604090206060906117b990613405565b6001600160a01b038083166000908152600f602090815260408083209385168352600d9093018152828220805484518184028101840190955280855260609493919290919084015b82821015610966578382906000526020600020018054611f919061404c565b80601f0160208091040260200160405190810160405280929190818152602001828054611fbd9061404c565b801561200a5780601f10611fdf5761010080835404028352916020019161200a565b820191906000526020600020905b815481529060010190602001808311611fed57829003601f168201915b505050505081526020019060010190611f72565b336000818152600c60205260409020600a015460ff16156120515760405162461bcd60e51b8152600401610adf906142e2565b6001600160a01b0381166000818152600c6020908152604080832080546001600160a01b031916909417845560018085018d9055600285018c9055600385018b9055600485018a90556005850189905560068501889055652237b1ba37b960d11b600d860155600a808601805460ff1916831790559092528220819055600f83018590558154610100900460ff1691906120ea83614319565b91906101000a81548160ff021916908360ff16021790555050505050505050505050565b6001600160a01b0381166000908152600b60209081526040808320600801805482518185028101850190935280835260609492939192909184015b828210156121f55783829060005260206000200180546121689061404c565b80601f01602080910402602001604051908101604052809291908181526020018280546121949061404c565b80156121e15780601f106121b6576101008083540402835291602001916121e1565b820191906000526020600020905b8154815290600101906020018083116121c457829003601f168201915b505050505081526020019060010190612149565b505050509050919050565b60408051610160810182526000808252602080830182905282840182905260608084018390526080840183905260a0840183905260c0840183905260e08401839052610100840181905261012084015261014083018290526001600160a01b038516825260119052919091206006015460ff1661227f5761227f61434b565b6001600160a01b038083166000908152601160209081526040808320815161016081018352815490951685526001810154858401526002810154858301526003810154606086015260048101546080860152600581015460a0860152600681015460ff16151560c0860152600781015460e0860152600881018054835181860281018601909452808452919461010087019491929184015b828210156123c35783829060005260206000200180546123369061404c565b80601f01602080910402602001604051908101604052809291908181526020018280546123629061404c565b80156123af5780601f10612384576101008083540402835291602001916123af565b820191906000526020600020905b81548152906001019060200180831161239257829003601f168201915b505050505081526020019060010190612317565b5050505081526020016009820180546123db9061404c565b80601f01602080910402602001604051908101604052809291908181526020018280546124079061404c565b80156124545780601f1061242957610100808354040283529160200191612454565b820191906000526020600020905b81548152906001019060200180831161243757829003601f168201915b50505050508152602001600a820154815250509050919050565b3360009081526002602052604090206060906117b990613405565b6001600160a01b0381166000908152600c60205260409020600a81015460609182918291829160ff166124f15760405162461bcd60e51b815260206004820152601060248201526f111bd8dd1bdc881b9bdd08199bdd5b9960821b6044820152606401610adf565b6124fd81600701613405565b8160090161250d83600b01613405565b61251984601101613405565b82805480602002602001604051908101604052809291908181526020016000905b828210156125e65783829060005260206000200180546125599061404c565b80601f01602080910402602001604051908101604052809291908181526020018280546125859061404c565b80156125d25780601f106125a7576101008083540402835291602001916125d2565b820191906000526020600020905b8154815290600101906020018083116125b557829003601f168201915b50505050508152602001906001019061253a565b5050505092509450945094509450509193509193565b336000818152600b602052604090206006015460ff161561266d5760405162461bcd60e51b815260206004820152602560248201527f596f75206861766520616c7265616479206372656174656420796f75722070726044820152646f66696c6560d81b6064820152608401610adf565b6001600160a01b0381166000818152600b6020908152604080832080546001600160a01b031916909417845560018085018d9055600285018c9055600385018b9055600485018a9055600a9092528220600590819055830187905560068301805460ff191690911790556614185d1a595b9d60ca1b60078301556012820185905560138201849055805460ff1690806120ea83614319565b6040805160a0810182526000808252602080830182905282840182905260608301829052608083018290526001600160a01b0385168252600a9052919091205460001981016127ac576001600160a01b038084166000908152600c6020908152604091829020825160a081018452600d82015481528154909416918401919091526001810154918301919091526002810154606083015260130154608082015291506113c6565b60038103612812576001600160a01b03808416600090815260106020908152604091829020825160a0810184526008820154815281549094169184019190915260018101549183019190915260028101546060830152600a0154608082015291506113c6565b600481036113c65750506001600160a01b03908116600090815260116020908152604091829020825160a0810184526007820154815281549094169184019190915260018101549183019190915260028101546060830152600a0154608082015290565b612919604080516101a081018252600080825260208083018290528284018290526060808401839052608080850184905260a080860185905260c080870186905260e080880187905261010080890186905289519081018a52878152958601879052978501869052928401859052908301849052820183905281018290529283015290610120820190815260606020820181905260006040830181905291015290565b6001600160a01b0382166000908152600b602052604090206006015460ff166129445761294461434b565b6001600160a01b038083166000908152600b6020908152604080832081516101a081018352815490951685526001810154858401526002810154858301526003810154606086015260048101546080860152600581015460a0860152600681015460ff16151560c0860152600781015460e0860152600881018054835181860281018601909452808452919461010087019491929184015b82821015612a885783829060005260206000200180546129fb9061404c565b80601f0160208091040260200160405190810160405280929190818152602001828054612a279061404c565b8015612a745780601f10612a4957610100808354040283529160200191612a74565b820191906000526020600020905b815481529060010190602001808311612a5757829003601f168201915b5050505050815260200190600101906129dc565b5050505081526020016009820160405180610100016040529081600082015481526020016001820154815260200160028201548152602001600382015481526020016004820154815260200160058201548152602001600682015481526020016007820154815250508152602001601182018054612b059061404c565b80601f0160208091040260200160405190810160405280929190818152602001828054612b319061404c565b8015612b7e5780601f10612b5357610100808354040283529160200191612b7e565b820191906000526020600020905b815481529060010190602001808311612b6157829003601f168201915b50505050508152602001601282015481526020016013820154815250509050919050565b336000818152600f602052604090206006015460ff1615612bd55760405162461bcd60e51b8152600401610adf906142e2565b6001600160a01b0381166000818152600f6020908152604080832080546001600160a01b031916909417845560018085018d905560028086018d9055600386018c9055600486018b9055600586018a9055600a9384905291842082905560068501805460ff191690911790556a14185d1a1bdb1bd9da5cdd60aa1b91840191909155600c830186905560108301859055815462010000900460ff1691906120ea83614319565b6005336000908152600a602052604090205403612eb55760016001600160a01b0382166000908152600a602052604090205403612d97576001600160a01b0381166000908152600c6020526040812090612cd86007830133613412565b15612ce1575060015b8015612d495760405162461bcd60e51b815260206004820152603160248201527f4461746120616c726561647920736861726564202077697468207468697320646044820152706f63746f7220666f72203220686f75727360781b6064820152608401610adf565b612d5542611c20614338565b33600081815260086020526040902091909155612d76906007840190613434565b50336000908152600360205260409020612d909084613434565b505b505050565b60066001600160a01b0382166000908152600a602052604090205403612e5e576001600160a01b0381166000908152600160205260408120612dd99033613412565b15612de2575060015b8015612e3c5760405162461bcd60e51b815260206004820152602360248201527f4461746120616c7265616479207368617265642077697468207468697320616460448201526236b4b760e91b6064820152608401610adf565b6001600160a01b0382166000908152600160205260409020612d929033613434565b60405162461bcd60e51b815260206004820152602660248201527f496e76616c696420656e74697479206f72207472616e73666572206e6f7420616044820152651b1b1bddd95960d21b6064820152608401610adf565b6006336000908152600a6020526040902054036107d45760036001600160a01b0382166000908152600a602052604090205403612fae576001600160a01b0381166000908152600660205260408120612f0e9033613412565b15612f17575060015b8015612f805760405162461bcd60e51b815260206004820152603260248201527f4461746120616c72656164792073686172656420776974682074686973206d656044820152713234b1b0b6103932b9b2b0b931b4103630b160711b6064820152608401610adf565b6001600160a01b0382166000908152600660205260409020612fa29033613434565b50612d92600483613434565b60046001600160a01b0382166000908152600a602052604090205403612e5e576001600160a01b0381166000908152600760205260408120612ff09033613412565b15612ff9575060015b801561305e5760405162461bcd60e51b815260206004820152602e60248201527f4461746120616c7265616479207368617265642077697468207468697320706860448201526d61726d61637920636f6d70616e7960901b6064820152608401610adf565b6001600160a01b0382166000908152600760205260409020612fa29033613434565b3360009081526003602052604090206060906117b990613405565b6005336000908152600a6020526040902054036131dd5760005b3360009081526003602052604090206130cd90613449565b8110156107d45733600090815260036020526040812042916008916130f29085613453565b6001600160a01b03166001600160a01b0316815260200190815260200160002054116131d55733600090815260036020526040902061314a906131359083613453565b336000908152600360205260409020906133e9565b506001336000908152600360205260408120600a919061316a9085613453565b6001600160a01b03166001600160a01b0316815260200190815260200160002054036131d5573360008181526003602052604081206131d39291600c916131b19086613453565b6001600160a01b031681526020810191909152604001600020600701906133e9565b505b6001016130b5565b565b60408051610160810182526000808252602080830182905282840182905260608084018390526080840183905260a0840183905260c0840183905260e08401819052610100840183905261012084015261014083018290526001600160a01b038516825260109052919091206006015460ff1661325e5761325e61434b565b6001600160a01b038083166000908152601060209081526040808320815161016081018352815490951685526001810154858401526002810154858301526003810154606086015260048101546080860152600581015460a0860152600681015460ff16151560c0860152600781018054835181860281018601909452808452919460e087019491929184015b8282101561339757838290600052602060002001805461330a9061404c565b80601f01602080910402602001604051908101604052809291908181526020018280546133369061404c565b80156133835780601f1061335857610100808354040283529160200191613383565b820191906000526020600020905b81548152906001019060200180831161336657829003601f168201915b5050505050815260200190600101906132eb565b505050508152602001600882015481526020016009820180546123db9061404c565b60606117b96004613405565b6001600160a01b038116600090815260016020526040902060609061096d90613405565b60006133fe836001600160a01b03841661345f565b9392505050565b606060006133fe83613552565b6001600160a01b038116600090815260018301602052604081205415156133fe565b60006133fe836001600160a01b0384166135ae565b600061096d825490565b60006133fe83836135fd565b600081815260018301602052604081205480156135485760006134836001836141a6565b8554909150600090613497906001906141a6565b90508082146134fc5760008660000182815481106134b7576134b76141db565b90600052602060002001549050808760000184815481106134da576134da6141db565b6000918252602080832090910192909255918252600188019052604090208390555b855486908061350d5761350d6142cc565b60019003818190600052602060002001600090559055856001016000868152602001908152602001600020600090556001935050505061096d565b600091505061096d565b6060816000018054806020026020016040519081016040528092919081815260200182805480156135a257602002820191906000526020600020905b81548152602001906001019080831161358e575b50505050509050919050565b60008181526001830160205260408120546135f55750815460018181018455600084815260208082209093018490558454848252828601909352604090209190915561096d565b50600061096d565b6000826000018281548110613614576136146141db565b9060005260206000200154905092915050565b5080546136339061404c565b6000825580601f10613643575050565b601f0160209004906000526020600020908101906107d491905b80821115613671576000815560010161365d565b5090565b80356001600160a01b038116811461368c57600080fd5b919050565b6000602082840312156136a357600080fd5b6133fe82613675565b600080604083850312156136bf57600080fd5b6136c883613675565b91506136d660208401613675565b90509250929050565b6000815180845260005b81811015613705576020818501810151868301820152016136e9565b506000602082860101526020601f19601f83011685010191505092915050565b60008282518085526020808601955060208260051b8401016020860160005b8481101561377257601f198684030189526137608383516136df565b98840198925090830190600101613744565b5090979650505050505050565b6020815260006133fe6020830184613725565b60008151808452602080850194506020840160005b838110156137cc5781516001600160a01b0316875295820195908201906001016137a7565b509495945050505050565b600061018060018060a01b038f1683528d60208401528c60408401528b60608401528a60808401528960a08401528060c08401526138178184018a613792565b905082810360e084015261382b8189613725565b90508661010084015282810361012084015261384781876136df565b9050846101408401528281036101608401526138638185613792565b9f9e505050505050505050505050505050565b634e487b7160e01b600052604160045260246000fd5b604051601f8201601f1916810167ffffffffffffffff811182821017156138b5576138b5613876565b604052919050565b600082601f8301126138ce57600080fd5b813567ffffffffffffffff8111156138e8576138e8613876565b6138fb601f8201601f191660200161388c565b81815284602083860101111561391057600080fd5b816020850160208301376000918101602001919091529392505050565b60006020828403121561393f57600080fd5b813567ffffffffffffffff81111561395657600080fd5b613962848285016138bd565b949350505050565b6000806040838503121561397d57600080fd5b823591506136d660208401613675565b6000806000606084860312156139a257600080fd5b505081359360208301359350604090920135919050565b600080600080600060a086880312156139d157600080fd5b505083359560208501359550604085013594606081013594506080013592509050565b600061016060018060a01b038e1683528c60208401528b60408401528a60608401528960808401528860a08401528760c08401528660e084015280610100840152613a41818401876136df565b610120840195909552505061014001529998505050505050505050565b6020815260006133fe6020830184613792565b60008060408385031215613a8457600080fd5b613a8d83613675565b915060208084013567ffffffffffffffff80821115613aab57600080fd5b818601915086601f830112613abf57600080fd5b813581811115613ad157613ad1613876565b8060051b613ae085820161388c565b918252838101850191858101908a841115613afa57600080fd5b86860192505b83831015613b3657823585811115613b185760008081fd5b613b268c89838a01016138bd565b8352509186019190860190613b00565b809750505050505050509250929050565b6020815260018060a01b0382511660208201526020820151604082015260408201516060820152606082015160808201526000608083015160c060a0840152613b9360e08401826136df565b905060a0840151151560c08401528091505092915050565b600080600080600080600060e0888a031215613bc657600080fd5b505085359760208701359750604087013596606081013596506080810135955060a0810135945060c0013592509050565b600080600080600080600080610100898b031215613c1457600080fd5b505086359860208801359850604088013597606081013597506080810135965060a0810135955060c0810135945060e0013592509050565b815160ff16815261014081016020830151613c6c602084018260ff169052565b506040830151613c81604084018260ff169052565b506060830151613c96606084018260ff169052565b506080830151613cab608084018260ff169052565b5060a0830151613cc060a084018260ff169052565b5060c0830151613cd560c084018260ff169052565b5060e0830151613cea60e084018260ff169052565b506101008381015160ff908116918401919091526101209384015116929091019190915290565b60008282518085526020808601955060208260051b8401016020860160005b8481101561377257601f19868403018952613d4c8383516136df565b98840198925090830190600101613d30565b60208152613d786020820183516001600160a01b03169052565b602082015160408201526040820151606082015260608201516080820152608082015160a082015260a082015160c0820152600060c0830151613dbf60e084018215159052565b5060e083015161010083810191909152830151610160610120808501829052613dec610180860184613d11565b9250808601519050610140601f198685030181870152613e0c84836136df565b9601519190940152509192915050565b608081526000613e2f6080830187613792565b8281036020840152613e418187613725565b90508281036040840152613e558186613792565b90508281036060840152613e698185613792565b979650505050505050565b60208152613e8e6020820183516001600160a01b03169052565b602082015160408201526040820151606082015260608201516080820152608082015160a082015260a082015160c0820152600060c0830151613ed560e084018215159052565b5060e083015161010083810191909152830151610280610120808501829052613f026102a0860184613d11565b90860151909250610140613f6186820183805182526020810151602083015260408101516040830152606081015160608301526080810151608083015260a081015160a083015260c081015160c083015260e081015160e08301525050565b860151858403601f19016102408701529050613f7d83826136df565b610160870151610260870152610180909601519190940152509192915050565b60208152613fb76020820183516001600160a01b03169052565b602082015160408201526040820151606082015260608201516080820152608082015160a082015260a082015160c0820152600060c0830151613ffe60e084018215159052565b5060e0830151610160610100818186015261401d610180860184613d11565b9250808601519050610120818187015280870151915050610140601f198685030181870152613e0c84836136df565b600181811c9082168061406057607f821691505b6020821081036113c657634e487b7160e01b600052602260045260246000fd5b601f821115612d92576000816000526020600020601f850160051c810160208610156140a95750805b601f850160051c820191505b818110156140c8578281556001016140b5565b505050505050565b815167ffffffffffffffff8111156140ea576140ea613876565b6140fe816140f8845461404c565b84614080565b602080601f831160018114614133576000841561411b5750858301515b600019600386901b1c1916600185901b1785556140c8565b600085815260208120601f198616915b8281101561416257888601518255948401946001909101908401614143565b50858210156141805787850151600019600388901b60f8161c191681555b5050505050600190811b01905550565b634e487b7160e01b600052601160045260246000fd5b8181038181111561096d5761096d614190565b6000826141d657634e487b7160e01b600052601260045260246000fd5b500490565b634e487b7160e01b600052603260045260246000fd5b8181036141fc575050565b614206825461404c565b67ffffffffffffffff81111561421e5761421e613876565b61422c816140f8845461404c565b6000601f82116001811461426057600083156142485750848201545b600019600385901b1c1916600184901b1784556142c5565b600085815260209020601f19841690600086815260209020845b8381101561429a578286015482556001958601959091019060200161427a565b50858310156142b85781850154600019600388901b60f8161c191681555b50505060018360011b0184555b5050505050565b634e487b7160e01b600052603160045260246000fd5b6020808252601f908201527f596f7520616c72656164792063726561746520796f75722070726f66696c6500604082015260600190565b600060ff821660ff810361432f5761432f614190565b60010192915050565b8082018082111561096d5761096d614190565b634e487b7160e01b600052600160045260246000fdfea26469706673582212204775b33f412d28076fb6f3462b5ddb8682c9cb5baaf15be025ed8ffc513596c264736f6c63430008180033",
  "linkReferences": {},
  "deployedLinkReferences": {}
}