{
  "_format": "hh-sol-artifact-1",
  "contractName": "PatientIdentity",
  "sourceName": "contracts/PatientDataManagement.sol",
  "abi": [
    {
      "inputs": [
        {
          "internalType": "address",
          "name": "_user",
          "type": "address"
        },
        {
          "internalType": "string[]",
          "name": "url",
          "type": "string[]"
        }
      ],
      "name": "addPrescription",
      "outputs": [],
      "stateMutability": "nonpayable",
      "type": "function"
    },
    {
      "inputs": [
        {
          "internalType": "string",
          "name": "url",
          "type": "string"
        }
      ],
      "name": "addProfilePic",
      "outputs": [],
      "stateMutability": "nonpayable",
      "type": "function"
    },
    {
      "inputs": [
        {
          "internalType": "string",
          "name": "medichine",
          "type": "string"
        }
      ],
      "name": "addTopMedichine",
      "outputs": [],
      "stateMutability": "nonpayable",
      "type": "function"
    },
    {
      "inputs": [],
      "name": "cancelSubscription",
      "outputs": [],
      "stateMutability": "nonpayable",
      "type": "function"
    },
    {
      "inputs": [
        {
          "internalType": "uint256",
          "name": "index",
          "type": "uint256"
        },
        {
          "internalType": "address",
          "name": "_user",
          "type": "address"
        }
      ],
      "name": "deletePrecription",
      "outputs": [],
      "stateMutability": "nonpayable",
      "type": "function"
    },
    {
      "inputs": [
        {
          "internalType": "address",
          "name": "user",
          "type": "address"
        }
      ],
      "name": "giveConfirmation",
      "outputs": [],
      "stateMutability": "nonpayable",
      "type": "function"
    },
    {
      "inputs": [
        {
          "internalType": "address",
          "name": "userAddress",
          "type": "address"
        }
      ],
      "name": "revokeAccessData",
      "outputs": [],
      "stateMutability": "nonpayable",
      "type": "function"
    },
    {
      "inputs": [
        {
          "internalType": "uint256",
          "name": "adminID",
          "type": "uint256"
        },
        {
          "internalType": "bytes32",
          "name": "name",
          "type": "bytes32"
        },
        {
          "internalType": "bytes32",
          "name": "gender",
          "type": "bytes32"
        },
        {
          "internalType": "bytes32",
          "name": "birthday",
          "type": "bytes32"
        },
        {
          "internalType": "bytes32",
          "name": "emailAddress",
          "type": "bytes32"
        },
        {
          "internalType": "uint256",
          "name": "age",
          "type": "uint256"
        },
        {
          "internalType": "bytes32",
          "name": "location",
          "type": "bytes32"
        }
      ],
      "name": "setAdmin",
      "outputs": [],
      "stateMutability": "nonpayable",
      "type": "function"
    },
    {
      "inputs": [
        {
          "internalType": "uint256",
          "name": "doctorID",
          "type": "uint256"
        },
        {
          "internalType": "bytes32",
          "name": "name",
          "type": "bytes32"
        },
        {
          "internalType": "bytes32",
          "name": "specialty",
          "type": "bytes32"
        },
        {
          "internalType": "uint256",
          "name": "consultationFee",
          "type": "uint256"
        },
        {
          "internalType": "uint256",
          "name": "BMDCNumber",
          "type": "uint256"
        },
        {
          "internalType": "uint256",
          "name": "yearOfExperience",
          "type": "uint256"
        },
        {
          "internalType": "bytes32",
          "name": "birthday",
          "type": "bytes32"
        }
      ],
      "name": "setDoctor",
      "outputs": [],
      "stateMutability": "nonpayable",
      "type": "function"
    },
    {
      "inputs": [
        {
          "internalType": "uint256",
          "name": "labID",
          "type": "uint256"
        },
        {
          "internalType": "bytes32",
          "name": "name",
          "type": "bytes32"
        },
        {
          "internalType": "uint256",
          "name": "licenseID",
          "type": "uint256"
        },
        {
          "internalType": "bytes32",
          "name": "researchArea",
          "type": "bytes32"
        },
        {
          "internalType": "uint256",
          "name": "labRating",
          "type": "uint256"
        }
      ],
      "name": "setMedicalResearchLab",
      "outputs": [],
      "stateMutability": "nonpayable",
      "type": "function"
    },
    {
      "inputs": [
        {
          "internalType": "uint256",
          "name": "pathologistID",
          "type": "uint256"
        },
        {
          "internalType": "bytes32",
          "name": "name",
          "type": "bytes32"
        },
        {
          "internalType": "uint256",
          "name": "licenseNumber",
          "type": "uint256"
        },
        {
          "internalType": "bytes32",
          "name": "specializationArea",
          "type": "bytes32"
        },
        {
          "internalType": "uint256",
          "name": "totalExperience",
          "type": "uint256"
        },
        {
          "internalType": "bytes32",
          "name": "birthday",
          "type": "bytes32"
        },
        {
          "internalType": "bytes32",
          "name": "emailAddress",
          "type": "bytes32"
        }
      ],
      "name": "setPathologist",
      "outputs": [],
      "stateMutability": "nonpayable",
      "type": "function"
    },
    {
      "inputs": [
        {
          "internalType": "uint256",
          "name": "patientID",
          "type": "uint256"
        },
        {
          "internalType": "bytes32",
          "name": "name",
          "type": "bytes32"
        },
        {
          "internalType": "bytes32",
          "name": "gender",
          "type": "bytes32"
        },
        {
          "internalType": "uint256",
          "name": "age",
          "type": "uint256"
        },
        {
          "internalType": "bytes32",
          "name": "location",
          "type": "bytes32"
        },
        {
          "internalType": "bytes32",
          "name": "birthday",
          "type": "bytes32"
        },
        {
          "internalType": "bytes32",
          "name": "emailAddress",
          "type": "bytes32"
        }
      ],
      "name": "setPatient",
      "outputs": [],
      "stateMutability": "nonpayable",
      "type": "function"
    },
    {
      "inputs": [
        {
          "internalType": "bytes32",
          "name": "height",
          "type": "bytes32"
        },
        {
          "internalType": "bytes32",
          "name": "blood",
          "type": "bytes32"
        },
        {
          "internalType": "bytes32",
          "name": "previousDiseases",
          "type": "bytes32"
        },
        {
          "internalType": "bytes32",
          "name": "medicineDrugs",
          "type": "bytes32"
        },
        {
          "internalType": "bytes32",
          "name": "badHabits",
          "type": "bytes32"
        },
        {
          "internalType": "bytes32",
          "name": "chronicDiseases",
          "type": "bytes32"
        },
        {
          "internalType": "bytes32",
          "name": "healthAllergies",
          "type": "bytes32"
        },
        {
          "internalType": "bytes32",
          "name": "birthDefects",
          "type": "bytes32"
        }
      ],
      "name": "setPatientPersonalData",
      "outputs": [],
      "stateMutability": "nonpayable",
      "type": "function"
    },
    {
      "inputs": [
        {
          "internalType": "uint256",
          "name": "companyID",
          "type": "uint256"
        },
        {
          "internalType": "bytes32",
          "name": "name",
          "type": "bytes32"
        },
        {
          "internalType": "uint256",
          "name": "licenseID",
          "type": "uint256"
        },
        {
          "internalType": "bytes32",
          "name": "productInformation",
          "type": "bytes32"
        },
        {
          "internalType": "uint256",
          "name": "pharmacyRating",
          "type": "uint256"
        }
      ],
      "name": "setPharmacyCompany",
      "outputs": [],
      "stateMutability": "nonpayable",
      "type": "function"
    },
    {
      "inputs": [
        {
          "internalType": "address",
          "name": "useraddress",
          "type": "address"
        }
      ],
      "name": "shareData",
      "outputs": [],
      "stateMutability": "nonpayable",
      "type": "function"
    },
    {
      "inputs": [
        {
          "internalType": "string",
          "name": "TX",
          "type": "string"
        }
      ],
      "name": "subscription",
      "outputs": [],
      "stateMutability": "nonpayable",
      "type": "function"
    },
    {
      "inputs": [],
      "stateMutability": "nonpayable",
      "type": "constructor"
    },
    {
      "inputs": [
        {
          "internalType": "address",
          "name": "",
          "type": "address"
        }
      ],
      "name": "accounts",
      "outputs": [
        {
          "internalType": "uint256",
          "name": "",
          "type": "uint256"
        }
      ],
      "stateMutability": "view",
      "type": "function"
    },
    {
      "inputs": [
        {
          "internalType": "address",
          "name": "useraddress",
          "type": "address"
        }
      ],
      "name": "ConnectedAccountType",
      "outputs": [
        {
          "internalType": "uint256",
          "name": "",
          "type": "uint256"
        }
      ],
      "stateMutability": "view",
      "type": "function"
    },
    {
      "inputs": [
        {
          "internalType": "address",
          "name": "_adminAddress",
          "type": "address"
        }
      ],
      "name": "getAdmin",
      "outputs": [
        {
          "components": [
            {
              "internalType": "address",
              "name": "AdminAddress",
              "type": "address"
            },
            {
              "internalType": "uint256",
              "name": "adminID",
              "type": "uint256"
            },
            {
              "internalType": "bytes32",
              "name": "name",
              "type": "bytes32"
            },
            {
              "internalType": "bytes32",
              "name": "gender",
              "type": "bytes32"
            },
            {
              "internalType": "string",
              "name": "profilePic",
              "type": "string"
            },
            {
              "internalType": "string[]",
              "name": "allPrescription",
              "type": "string[]"
            },
            {
              "internalType": "bool",
              "name": "isAdded",
              "type": "bool"
            },
            {
              "internalType": "bytes32",
              "name": "userType",
              "type": "bytes32"
            },
            {
              "internalType": "bytes32",
              "name": "birthday",
              "type": "bytes32"
            },
            {
              "internalType": "bytes32",
              "name": "emailAddress",
              "type": "bytes32"
            },
            {
              "internalType": "uint256",
              "name": "age",
              "type": "uint256"
            },
            {
              "internalType": "bytes32",
              "name": "location",
              "type": "bytes32"
            }
          ],
          "internalType": "struct PatientIdentity.AdminView",
          "name": "",
          "type": "tuple"
        }
      ],
      "stateMutability": "view",
      "type": "function"
    },
    {
      "inputs": [],
      "name": "getAdminData",
      "outputs": [
        {
          "components": [
            {
              "internalType": "uint8",
              "name": "totalNumberOfPatient",
              "type": "uint8"
            },
            {
              "internalType": "uint8",
              "name": "totalNumberOfDoctor",
              "type": "uint8"
            },
            {
              "internalType": "uint8",
              "name": "totalNumberOfPathologist",
              "type": "uint8"
            },
            {
              "internalType": "uint8",
              "name": "totalNumberOfPharmacyCompany",
              "type": "uint8"
            },
            {
              "internalType": "uint8",
              "name": "totalNumberOfMedicalResearchLab",
              "type": "uint8"
            },
            {
              "internalType": "uint8",
              "name": "totalNumberOfPremiumPatient",
              "type": "uint8"
            },
            {
              "internalType": "uint8",
              "name": "totalNumberOfPremiumDoctor",
              "type": "uint8"
            },
            {
              "internalType": "uint8",
              "name": "totalNumberOfPremiumPathologist",
              "type": "uint8"
            },
            {
              "internalType": "uint8",
              "name": "totalNumberOfPremiumPharmacyCompany",
              "type": "uint8"
            },
            {
              "internalType": "uint8",
              "name": "totalNumberOfPremiumMedicalResearchLab",
              "type": "uint8"
            }
          ],
          "internalType": "struct PatientIdentity.AdminData",
          "name": "",
          "type": "tuple"
        }
      ],
      "stateMutability": "view",
      "type": "function"
    },
    {
      "inputs": [
        {
          "internalType": "address",
          "name": "userAddress",
          "type": "address"
        }
      ],
      "name": "getadminToMedRcLab",
      "outputs": [
        {
          "internalType": "address[]",
          "name": "",
          "type": "address[]"
        }
      ],
      "stateMutability": "view",
      "type": "function"
    },
    {
      "inputs": [
        {
          "internalType": "address",
          "name": "userAddress",
          "type": "address"
        }
      ],
      "name": "getAdminToPharmacy",
      "outputs": [
        {
          "internalType": "address[]",
          "name": "",
          "type": "address[]"
        }
      ],
      "stateMutability": "view",
      "type": "function"
    },
    {
      "inputs": [
        {
          "internalType": "address",
          "name": "userAddress",
          "type": "address"
        }
      ],
      "name": "getAlluserTypeData",
      "outputs": [
        {
          "components": [
            {
              "internalType": "bytes32",
              "name": "userType",
              "type": "bytes32"
            },
            {
              "internalType": "address",
              "name": "userAddress",
              "type": "address"
            },
            {
              "internalType": "uint256",
              "name": "userID",
              "type": "uint256"
            },
            {
              "internalType": "bytes32",
              "name": "username",
              "type": "bytes32"
            },
            {
              "internalType": "bytes32",
              "name": "emailAddress",
              "type": "bytes32"
            }
          ],
          "internalType": "struct PatientIdentity.commonData",
          "name": "userData",
          "type": "tuple"
        }
      ],
      "stateMutability": "view",
      "type": "function"
    },
    {
      "inputs": [
        {
          "internalType": "address",
          "name": "_doctorAddress",
          "type": "address"
        }
      ],
      "name": "getDoctor",
      "outputs": [
        {
          "internalType": "address",
          "name": "doctorAddress",
          "type": "address"
        },
        {
          "internalType": "uint256",
          "name": "doctorID",
          "type": "uint256"
        },
        {
          "internalType": "bytes32",
          "name": "name",
          "type": "bytes32"
        },
        {
          "internalType": "bytes32",
          "name": "specialty",
          "type": "bytes32"
        },
        {
          "internalType": "uint256",
          "name": "consultationFee",
          "type": "uint256"
        },
        {
          "internalType": "uint256",
          "name": "BMDCNumber",
          "type": "uint256"
        },
        {
          "internalType": "uint256",
          "name": "yearOfExperience",
          "type": "uint256"
        },
        {
          "internalType": "bytes32",
          "name": "userType",
          "type": "bytes32"
        },
        {
          "internalType": "string",
          "name": "profilePic",
          "type": "string"
        },
        {
          "internalType": "bytes32",
          "name": "birthday",
          "type": "bytes32"
        },
        {
          "internalType": "bytes32",
          "name": "emailAddress",
          "type": "bytes32"
        }
      ],
      "stateMutability": "view",
      "type": "function"
    },
    {
      "inputs": [
        {
          "internalType": "address",
          "name": "_doctorAddress",
          "type": "address"
        }
      ],
      "name": "getDoctorAnotherData",
      "outputs": [
        {
          "internalType": "address[]",
          "name": "PatientToDoctor",
          "type": "address[]"
        },
        {
          "internalType": "string[]",
          "name": "patientTest",
          "type": "string[]"
        },
        {
          "internalType": "address[]",
          "name": "TreatedPatient",
          "type": "address[]"
        },
        {
          "internalType": "address[]",
          "name": "senderPathologist",
          "type": "address[]"
        },
        {
          "internalType": "address[]",
          "name": "receiverPathologist",
          "type": "address[]"
        }
      ],
      "stateMutability": "view",
      "type": "function"
    },
    {
      "inputs": [
        {
          "internalType": "address",
          "name": "_pathoAddress",
          "type": "address"
        },
        {
          "internalType": "address",
          "name": "_doctorAddress",
          "type": "address"
        }
      ],
      "name": "getDoctorDataFromPathologist",
      "outputs": [
        {
          "internalType": "string[]",
          "name": "",
          "type": "string[]"
        }
      ],
      "stateMutability": "view",
      "type": "function"
    },
    {
      "inputs": [
        {
          "internalType": "address",
          "name": "_labAddress",
          "type": "address"
        }
      ],
      "name": "getMedicalResearchLab",
      "outputs": [
        {
          "components": [
            {
              "internalType": "address",
              "name": "labAddress",
              "type": "address"
            },
            {
              "internalType": "uint256",
              "name": "labID",
              "type": "uint256"
            },
            {
              "internalType": "bytes32",
              "name": "name",
              "type": "bytes32"
            },
            {
              "internalType": "uint256",
              "name": "licenseID",
              "type": "uint256"
            },
            {
              "internalType": "bytes32",
              "name": "researchArea",
              "type": "bytes32"
            },
            {
              "internalType": "uint256",
              "name": "labRating",
              "type": "uint256"
            },
            {
              "internalType": "bool",
              "name": "isAdded",
              "type": "bool"
            },
            {
              "internalType": "string[]",
              "name": "imgUrl",
              "type": "string[]"
            },
            {
              "internalType": "bytes32",
              "name": "userType",
              "type": "bytes32"
            },
            {
              "internalType": "string",
              "name": "profilePic",
              "type": "string"
            },
            {
              "internalType": "bytes32",
              "name": "emailAddress",
              "type": "bytes32"
            }
          ],
          "internalType": "struct PatientIdentity.MedicalResearchLabView",
          "name": "",
          "type": "tuple"
        }
      ],
      "stateMutability": "view",
      "type": "function"
    },
    {
      "inputs": [
        {
          "internalType": "address",
          "name": "_pathologistAddress",
          "type": "address"
        }
      ],
      "name": "getPathologist",
      "outputs": [
        {
          "internalType": "address",
          "name": "pathologistAddress",
          "type": "address"
        },
        {
          "internalType": "uint256",
          "name": "pathologistID",
          "type": "uint256"
        },
        {
          "internalType": "bytes32",
          "name": "name",
          "type": "bytes32"
        },
        {
          "internalType": "uint256",
          "name": "licenseNumber",
          "type": "uint256"
        },
        {
          "internalType": "bytes32",
          "name": "specializationArea",
          "type": "bytes32"
        },
        {
          "internalType": "uint256",
          "name": "totalExperience",
          "type": "uint256"
        },
        {
          "internalType": "address[]",
          "name": "patientToPathologist",
          "type": "address[]"
        },
        {
          "internalType": "address[]",
          "name": "receiverDoctor",
          "type": "address[]"
        },
        {
          "internalType": "bytes32",
          "name": "userType",
          "type": "bytes32"
        },
        {
          "internalType": "string",
          "name": "profilePic",
          "type": "string"
        },
        {
          "internalType": "bytes32",
          "name": "birthday",
          "type": "bytes32"
        },
        {
          "internalType": "address[]",
          "name": "senderDoctor",
          "type": "address[]"
        }
      ],
      "stateMutability": "view",
      "type": "function"
    },
    {
      "inputs": [
        {
          "internalType": "address",
          "name": "_doctorAddress",
          "type": "address"
        },
        {
          "internalType": "address",
          "name": "pathoAddress",
          "type": "address"
        }
      ],
      "name": "getPathologistDataFromDoctor",
      "outputs": [
        {
          "internalType": "string[]",
          "name": "",
          "type": "string[]"
        }
      ],
      "stateMutability": "view",
      "type": "function"
    },
    {
      "inputs": [
        {
          "internalType": "address",
          "name": "_patientAddress",
          "type": "address"
        }
      ],
      "name": "getPatient",
      "outputs": [
        {
          "components": [
            {
              "internalType": "address",
              "name": "patientAddress",
              "type": "address"
            },
            {
              "internalType": "uint256",
              "name": "patientID",
              "type": "uint256"
            },
            {
              "internalType": "bytes32",
              "name": "name",
              "type": "bytes32"
            },
            {
              "internalType": "bytes32",
              "name": "gender",
              "type": "bytes32"
            },
            {
              "internalType": "uint256",
              "name": "age",
              "type": "uint256"
            },
            {
              "internalType": "bytes32",
              "name": "location",
              "type": "bytes32"
            },
            {
              "internalType": "bool",
              "name": "isAdded",
              "type": "bool"
            },
            {
              "internalType": "bytes32",
              "name": "userType",
              "type": "bytes32"
            },
            {
              "internalType": "string[]",
              "name": "imgUrl",
              "type": "string[]"
            },
            {
              "components": [
                {
                  "internalType": "bytes32",
                  "name": "height",
                  "type": "bytes32"
                },
                {
                  "internalType": "bytes32",
                  "name": "Blood",
                  "type": "bytes32"
                },
                {
                  "internalType": "bytes32",
                  "name": "PreviousDiseases",
                  "type": "bytes32"
                },
                {
                  "internalType": "bytes32",
                  "name": "Medicinedrugs",
                  "type": "bytes32"
                },
                {
                  "internalType": "bytes32",
                  "name": "BadHabits",
                  "type": "bytes32"
                },
                {
                  "internalType": "bytes32",
                  "name": "ChronicDiseases",
                  "type": "bytes32"
                },
                {
                  "internalType": "bytes32",
                  "name": "HealthAllergies",
                  "type": "bytes32"
                },
                {
                  "internalType": "bytes32",
                  "name": "BirthDefects",
                  "type": "bytes32"
                }
              ],
              "internalType": "struct PatientIdentity.PatientPersonalData",
              "name": "patientPersonalData",
              "type": "tuple"
            },
            {
              "internalType": "string",
              "name": "profilePic",
              "type": "string"
            },
            {
              "internalType": "bytes32",
              "name": "birthday",
              "type": "bytes32"
            },
            {
              "internalType": "bytes32",
              "name": "emailAddress",
              "type": "bytes32"
            }
          ],
          "internalType": "struct PatientIdentity.PatientView",
          "name": "",
          "type": "tuple"
        }
      ],
      "stateMutability": "view",
      "type": "function"
    },
    {
      "inputs": [
        {
          "internalType": "address",
          "name": "_doctorAddress",
          "type": "address"
        },
        {
          "internalType": "address",
          "name": "_patientAddress",
          "type": "address"
        }
      ],
      "name": "getPatientDataFromDoctor",
      "outputs": [
        {
          "internalType": "string[]",
          "name": "",
          "type": "string[]"
        }
      ],
      "stateMutability": "view",
      "type": "function"
    },
    {
      "inputs": [
        {
          "internalType": "address",
          "name": "userAddress",
          "type": "address"
        }
      ],
      "name": "getPatientToAdmin",
      "outputs": [
        {
          "internalType": "address[]",
          "name": "",
          "type": "address[]"
        }
      ],
      "stateMutability": "view",
      "type": "function"
    },
    {
      "inputs": [],
      "name": "getPendingUserAddess",
      "outputs": [
        {
          "internalType": "address[]",
          "name": "",
          "type": "address[]"
        }
      ],
      "stateMutability": "view",
      "type": "function"
    },
    {
      "inputs": [
        {
          "internalType": "address",
          "name": "userAddress",
          "type": "address"
        }
      ],
      "name": "getPersonalDoctor",
      "outputs": [
        {
          "internalType": "address[]",
          "name": "",
          "type": "address[]"
        }
      ],
      "stateMutability": "view",
      "type": "function"
    },
    {
      "inputs": [
        {
          "internalType": "address",
          "name": "_pharmacyCompanyAddress",
          "type": "address"
        }
      ],
      "name": "getPharmacyCompany",
      "outputs": [
        {
          "components": [
            {
              "internalType": "address",
              "name": "pharmacyCompanyAddress",
              "type": "address"
            },
            {
              "internalType": "uint256",
              "name": "companyID",
              "type": "uint256"
            },
            {
              "internalType": "bytes32",
              "name": "name",
              "type": "bytes32"
            },
            {
              "internalType": "uint256",
              "name": "licenseID",
              "type": "uint256"
            },
            {
              "internalType": "bytes32",
              "name": "productInformation",
              "type": "bytes32"
            },
            {
              "internalType": "uint256",
              "name": "pharmacyRating",
              "type": "uint256"
            },
            {
              "internalType": "bool",
              "name": "isAdded",
              "type": "bool"
            },
            {
              "internalType": "bytes32",
              "name": "userType",
              "type": "bytes32"
            },
            {
              "internalType": "string[]",
              "name": "TopMedichine",
              "type": "string[]"
            },
            {
              "internalType": "string",
              "name": "profilePic",
              "type": "string"
            },
            {
              "internalType": "bytes32",
              "name": "emailAddress",
              "type": "bytes32"
            }
          ],
          "internalType": "struct PatientIdentity.PharmacyCompanyView",
          "name": "",
          "type": "tuple"
        }
      ],
      "stateMutability": "view",
      "type": "function"
    },
    {
      "inputs": [
        {
          "internalType": "address",
          "name": "userAddress",
          "type": "address"
        }
      ],
      "name": "getsharedAllDoctorAddress",
      "outputs": [
        {
          "internalType": "address[]",
          "name": "",
          "type": "address[]"
        }
      ],
      "stateMutability": "view",
      "type": "function"
    },
    {
      "inputs": [],
      "name": "getsharedAllUsersAddress",
      "outputs": [
        {
          "internalType": "address[]",
          "name": "",
          "type": "address[]"
        }
      ],
      "stateMutability": "view",
      "type": "function"
    },
    {
      "inputs": [
        {
          "internalType": "address",
          "name": "subscriber",
          "type": "address"
        }
      ],
      "name": "getSubscriptionStatus",
      "outputs": [
        {
          "internalType": "bool",
          "name": "isSubscription",
          "type": "bool"
        },
        {
          "internalType": "uint256",
          "name": "total",
          "type": "uint256"
        },
        {
          "internalType": "uint256",
          "name": "daysLeft",
          "type": "uint256"
        }
      ],
      "stateMutability": "view",
      "type": "function"
    },
    {
      "inputs": [
        {
          "internalType": "address",
          "name": "user",
          "type": "address"
        }
      ],
      "name": "getSubscriptionTransactions",
      "outputs": [
        {
          "internalType": "string[]",
          "name": "",
          "type": "string[]"
        }
      ],
      "stateMutability": "view",
      "type": "function"
    },
    {
      "inputs": [
        {
          "internalType": "address",
          "name": "_address",
          "type": "address"
        }
      ],
      "name": "isAddressInAllAdmins",
      "outputs": [
        {
          "internalType": "bool",
          "name": "",
          "type": "bool"
        }
      ],
      "stateMutability": "view",
      "type": "function"
    },
    {
      "inputs": [
        {
          "internalType": "address",
          "name": "_address",
          "type": "address"
        }
      ],
      "name": "isAdmin",
      "outputs": [
        {
          "internalType": "bool",
          "name": "",
          "type": "bool"
        }
      ],
      "stateMutability": "view",
      "type": "function"
    },
    {
      "inputs": [
        {
          "internalType": "address",
          "name": "",
          "type": "address"
        },
        {
          "internalType": "address",
          "name": "",
          "type": "address"
        }
      ],
      "name": "isConfirmed",
      "outputs": [
        {
          "internalType": "bool",
          "name": "",
          "type": "bool"
        }
      ],
      "stateMutability": "view",
      "type": "function"
    },
    {
      "inputs": [],
      "name": "numberOfConfirmations",
      "outputs": [
        {
          "internalType": "uint256",
          "name": "",
          "type": "uint256"
        }
      ],
      "stateMutability": "view",
      "type": "function"
    },
    {
      "inputs": [],
      "name": "ownerAddress",
      "outputs": [
        {
          "internalType": "address",
          "name": "",
          "type": "address"
        }
      ],
      "stateMutability": "view",
      "type": "function"
    },
    {
      "inputs": [
        {
          "internalType": "address",
          "name": "patientAddress",
          "type": "address"
        }
      ],
      "name": "showSharedPrescription",
      "outputs": [
        {
          "internalType": "string[]",
          "name": "imageUrl",
          "type": "string[]"
        }
      ],
      "stateMutability": "view",
      "type": "function"
    },
    {
      "inputs": [
        {
          "internalType": "address",
          "name": "",
          "type": "address"
        }
      ],
      "name": "subscriptionExpiration",
      "outputs": [
        {
          "internalType": "uint256",
          "name": "",
          "type": "uint256"
        }
      ],
      "stateMutability": "view",
      "type": "function"
    },
    {
      "inputs": [
        {
          "internalType": "address",
          "name": "",
          "type": "address"
        }
      ],
      "name": "totalSubscription",
      "outputs": [
        {
          "internalType": "uint256",
          "name": "",
          "type": "uint256"
        }
      ],
      "stateMutability": "view",
      "type": "function"
    },
    {
      "inputs": [],
      "name": "transactionCount",
      "outputs": [
        {
          "internalType": "uint256",
          "name": "",
          "type": "uint256"
        }
      ],
      "stateMutability": "view",
      "type": "function"
    },
    {
      "inputs": [
        {
          "internalType": "address",
          "name": "",
          "type": "address"
        }
      ],
      "name": "transactions",
      "outputs": [
        {
          "internalType": "address",
          "name": "from",
          "type": "address"
        },
        {
          "internalType": "address",
          "name": "to",
          "type": "address"
        },
        {
          "internalType": "bool",
          "name": "executed",
          "type": "bool"
        },
        {
          "internalType": "uint256",
          "name": "confirmations",
          "type": "uint256"
        }
      ],
      "stateMutability": "view",
      "type": "function"
    }
  ],
  "bytecode": "0x608060405234801561001057600080fd5b50600080546001600160a01b0319167326d7d75d65c21f54ed897a800ef0d4d4767701a117905561487c806100466000396000f3fe608060405234801561001057600080fd5b506004361061027f5760003560e01c80638043ce001161015c578063b12e2e84116100ce578063d3701a7b11610087578063d3701a7b146107e3578063d680288b146107f6578063dc87eed5146107fe578063ea8c9e0414610811578063f7332c0314610831578063ff9ffc071461083957600080fd5b8063b12e2e8414610733578063b3e729081461078c578063b5368e2014610794578063b5593251146107b4578063b59a3120146107c7578063c40d6c5e146107d057600080fd5b80638f7a844b116101205780638f7a844b146105a75780638f84aa09146106a95780639059229b146106d45780639824a07a146106f45780639c0f1c7c146106fc578063abb4d51f1461072057600080fd5b80638043ce00146104ff57806380f1310a14610512578063887f6f8d146105255780638bb115b7146105385780638e80e0e01461059457600080fd5b80632a1ebd01116101f55780635842e6e5116101b95780635842e6e5146104715780635e5c06e21461048657806360c61d0c146104a657806364efb22b146104b957806368d057d1146104d95780636bc071a5146104ec57600080fd5b80632a1ebd01146103e05780632f04e06414610401578063509a5e131461042b57806355bf3b331461043e57806355da65f41461045e57600080fd5b80631a5aa676116102475780631a5aa676146103335780631ddda9b6146103465780632138ba841461037657806324d7806c1461038957806324e9edb0146103b85780632856d1e8146103cd57600080fd5b806307eda2cc14610284578063080bc2b1146102995780630b916f14146102c257806316ecfa84146102d557806318e4ac3514610300575b600080fd5b610297610292366004613b07565b61084c565b005b6102ac6102a7366004613b22565b610962565b6040516102b99190613bf5565b60405180910390f35b6102ac6102d0366004613b22565b610a62565b6102e86102e3366004613b07565b610b55565b6040516102b99c9b9a99989796959493929190613c4d565b61032361030e366004613b07565b60056020526000908152604090205460ff1681565b60405190151581526020016102b9565b610297610341366004613da3565b610ce3565b610359610354366004613b07565b610e70565b6040805193151584526020840192909252908201526060016102b9565b610297610384366004613de0565b610ee3565b610323610397366004613b07565b6001600160a01b031660009081526012602052604090206006015460ff1690565b610297336000908152600d6020526040812055565b6102976103db366004613e03565b6111b8565b6103f36103ee366004613b07565b6112ac565b6040519081526020016102b9565b61041461040f366004613b07565b611368565b6040516102b99b9a99989796959493929190613e3e565b6102ac610439366004613b07565b6114d2565b6103f361044c366004613b07565b600d6020526000908152604090205481565b61029761046c366004613e03565b6115c1565b610479611691565b6040516102b99190613ea8565b6103f3610494366004613b07565b600e6020526000908152604090205481565b6102976104b4366004613ebb565b6116b1565b6104cc6104c7366004613b07565b611c80565b6040516102b99190613fde565b6102976104e73660046140af565b611f0e565b6102976104fa366004613da3565b611fe2565b6102ac61050d366004613b22565b61200e565b6102976105203660046140af565b612102565b6102ac610533366004613b07565b6121f4565b6102976105463660046140fb565b336000908152600f602081905260409091206009810199909955600a890197909755600b880195909555600c870193909355600d860191909155600e85015591830191909155601090910155565b6102976105a2366004613da3565b6122db565b61069c6040805161014081018252600080825260208201819052918101829052606081018290526080810182905260a0810182905260c0810182905260e08101829052610100810182905261012081019190915250604080516101408101825260015460ff8082168352610100808304821660208501526201000083048216948401949094526301000000820481166060840152640100000000820481166080840152650100000000008204811660a084015266010000000000008204811660c0840152600160381b8204811660e0840152600160401b8204811693830193909352600160481b900490911661012082015290565b6040516102b99190614150565b6000546106bc906001600160a01b031681565b6040516001600160a01b0390911681526020016102b9565b6106e76106e2366004613b07565b6124a0565b6040516102b99190614215565b61047961270e565b61070f61070a366004613b07565b612729565b6040516102b99594939291906142d3565b61029761072e3660046140af565b6128ae565b610746610741366004613b07565b6129b5565b6040516102b99190815181526020808301516001600160a01b03169082015260408083015190820152606080830151908201526080918201519181019190915260a00190565b610479612b26565b6107a76107a2366004613b07565b612b41565b6040516102b99190614340565b6102976107c23660046140af565b612e6d565b6103f360045481565b6102976107de366004613b07565b612f41565b6102976107f1366004613b07565b6130fc565b6104796135f9565b61032361080c366004613b07565b613614565b61082461081f366004613b07565b613621565b6040516102b99190614469565b6104796137fb565b610479610847366004613b07565b613807565b6005336000908152600e6020526040902054036108c75733600090815260086020526040902061087c908261382b565b5060016001600160a01b0382166000908152600e6020526040902054036108c4576001600160a01b03811660009081526010602052604090206108c2906007013361382b565b505b50565b6006336000908152600e6020526040902054036108c45760036001600160a01b0382166000908152600e602052604090205403610920576001600160a01b0381166000908152600b602052604090206108c2903361382b565b60046001600160a01b0382166000908152600e6020526040902054036108c4576001600160a01b0381166000908152600c602052604090206108c2903361382b565b6001600160a01b0380831660009081526010602081815260408084209486168452939091018152828220805484518184028101840190955280855260609493919290919084015b82821015610a555783829060005260206000200180546109c890614518565b80601f01602080910402602001604051908101604052809291908181526020018280546109f490614518565b8015610a415780601f10610a1657610100808354040283529160200191610a41565b820191906000526020600020905b815481529060010190602001808311610a2457829003601f168201915b5050505050815260200190600101906109a9565b5050505090505b92915050565b6001600160a01b0380831660009081526010602081815260408084209486168452939091018152828220805484518184028101840190955280855260609493919290919084015b82821015610a55578382906000526020600020018054610ac890614518565b80601f0160208091040260200160405190810160405280929190818152602001828054610af490614518565b8015610b415780601f10610b1657610100808354040283529160200191610b41565b820191906000526020600020905b815481529060010190602001808311610b2457829003601f168201915b505050505081526020019060010190610aa9565b6001600160a01b0381166000908152601360205260408120600681015482918291829182918291606091829184918391839183919060ff16610bd65760405162461bcd60e51b815260206004820152601560248201527414185d1a1bdb1bd9da5cdd081b9bdd08199bdd5b99605a1b60448201526064015b60405180910390fd5b8054600182015460028301546003840154600485015460058601546001600160a01b0390951694610c0960078801613847565b610c1588600f01613847565b886009015489600a018a600b0154610c2f8c600d01613847565b828054610c3b90614518565b80601f0160208091040260200160405190810160405280929190818152602001828054610c6790614518565b8015610cb45780601f10610c8957610100808354040283529160200191610cb4565b820191906000526020600020905b815481529060010190602001808311610c9757829003601f168201915b505050505092509c509c509c509c509c509c509c509c509c509c509c509c505091939597999b5091939597999b565b6001336000908152600e602052604090205403610d1657336000908152601060205260409020600e016108c2828261459c565b6002336000908152600e602052604090205403610d4957336000908152601360205260409020600a016108c2828261459c565b6005336000908152600e602052604090205403610d7c57336000908152600f602052604090206011016108c2828261459c565b6004336000908152600e602052604090205403610daf573360009081526015602052604090206009016108c2828261459c565b6003336000908152600e602052604090205403610de2573360009081526014602052604090206009016108c2828261459c565b6006336000908152600e602052604090205403610e15573360009081526012602052604090206004016108c2828261459c565b60405162461bcd60e51b815260206004820152602a60248201527f596f7520646f6e2774206164642070726f66696c652070696320696e20746869604482015269039901032b73a34ba3c960b51b6064820152608401610bcd565b6001600160a01b0381166000908152600d602052604081205481908190421015610ed2576001600160a01b0384166000908152600d6020526040902054915062015180610ebd4284614672565b610ec79190614685565b905060019250610edc565b5060009150819050805b9193909250565b6005336000908152600e602052604090205403610fc857336000908152600f602052604090206008018054610f1a90600190614672565b81548110610f2a57610f2a6146a7565b90600052602060002001600f6000336001600160a01b03166001600160a01b031681526020019081526020016000206008018381548110610f6d57610f6d6146a7565b906000526020600020019081610f8391906146bd565b50336000908152600f60205260409020600801805480610fa557610fa5614798565b600190038181906000526020600020016000610fc19190613a29565b90556108c2565b6001336000908152600e6020526040902054036110af573360009081526010602081815260408084206001600160a01b038616855290920190529020805461101290600190614672565b81548110611022576110226146a7565b60009182526020808320338452601080835260408086206001600160a01b038816875290910190925292208054929091019184908110611064576110646146a7565b90600052602060002001908161107a91906146bd565b503360009081526010602081815260408084206001600160a01b038616855290920190529020805480610fa557610fa5614798565b6002336000908152600e6020526040902054036108c2573360009081526010602081815260408084206001600160a01b03861685529092019052902080546110f990600190614672565b81548110611109576111096146a7565b600091825260208083203384526013825260408085206001600160a01b0387168652600c019092529220805492909101918490811061114a5761114a6146a7565b90600052602060002001908161116091906146bd565b503360009081526013602090815260408083206001600160a01b0385168452600c01909152902080548061119657611196614798565b6001900381819060005260206000200160006111b29190613a29565b90555050565b3360008181526014602052604090206006015460ff16156111eb5760405162461bcd60e51b8152600401610bcd906147ae565b6001600160a01b038116600081815260146020908152604080832080546001600160a01b031916909417845560018085018b9055600285018a905560038086018a905560048087018a90556005870189905560068701805460ff191684179055600e90945291909320557326b2b234b1b0b6102932b9b2b0b931b4102630b160611b60088401558154640100000000900460ff16919061128a836147e5565b91906101000a81548160ff021916908360ff1602179055505050505050505050565b6001600160a01b0381166000908152600e6020526040812054806112d05792915050565b600181036112de5792915050565b600581036112ec5792915050565b600281036112fa5792915050565b600381036113085792915050565b600481036113165792915050565b600681036113245792915050565b60405162461bcd60e51b815260206004820152601360248201527224b73b30b4b6321029ba30b5b2b437b63232b960691b6044820152606401610bcd565b50919050565b6001600160a01b0381166000908152601060205260408120600a81015482918291829182918291829182916060918391829160ff166113dc5760405162461bcd60e51b815260206004820152601060248201526f111bd8dd1bdc881b9bdd08199bdd5b9960821b6044820152606401610bcd565b8054600182015460028301546003840154600485015460058601546006870154600d880154600f89015460158a0154600e8b0180546001600160a01b03909b169a90929190839061142c90614518565b80601f016020809104026020016040519081016040528092919081815260200182805461145890614518565b80156114a55780601f1061147a576101008083540402835291602001916114a5565b820191906000526020600020905b81548152906001019060200180831161148857829003601f168201915b505050505092509b509b509b509b509b509b509b509b509b509b509b505091939597999b90929496989a50565b6001600160a01b0381166000908152601660209081526040808320805482518185028101850190935280835260609492939192909184015b828210156115b657838290600052602060002001805461152990614518565b80601f016020809104026020016040519081016040528092919081815260200182805461155590614518565b80156115a25780601f10611577576101008083540402835291602001916115a2565b820191906000526020600020905b81548152906001019060200180831161158557829003601f168201915b50505050508152602001906001019061150a565b505050509050919050565b3360008181526015602052604090206006015460ff16156115f45760405162461bcd60e51b8152600401610bcd906147ae565b6001600160a01b038116600081815260156020908152604080832080546001600160a01b031916909417845560018085018b9055600285018a905560038086018a905560048087018a90556005870189905560068701805460ff191684179055600e90945291909320919091556f506861726d61637920436f6d70616e7960801b600784015581546301000000900460ff16919061128a836147e5565b336000908152600b602052604090206060906116ac90613847565b905090565b6001336000908152600e60205260409020540361199257336000908152601060205260409020600a015460ff166117215760405162461bcd60e51b8152602060048201526014602482015273111bd8dd1bdc88191bd95cdb89dd08195e1a5cdd60621b6044820152606401610bcd565b60026001600160a01b0383166000908152600e60205260409020540361182d5760005b81518110156117b8573360009081526010602081815260408084206001600160a01b0388168552909201905290208251839083908110611786576117866146a7565b602090810291909101810151825460018101845560009384529190922001906117af908261459c565b50600101611744565b503360009081526010602052604081206117d59060130184613854565b156117de575060015b80611827573360009081526010602052604090206117ff9060130184613876565b506001600160a01b038316600090815260136020526040902061182590600d0133613876565b505b506108c2565b60056001600160a01b0383166000908152600e6020526040902054036119375760005b81518110156118c4573360009081526010602081815260408084206001600160a01b0388168552909201905290208251839083908110611892576118926146a7565b602090810291909101810151825460018101845560009384529190922001906118bb908261459c565b50600101611850565b50336000908152601060205260408120906118e2600b830185613854565b156118eb575060015b806118255733600090815260106020526040902061190c90600b0185613876565b506001600160a01b038416600090815260076020526040902061192f9033613876565b5050506108c2565b60405162461bcd60e51b815260206004820152602a60248201527f596f752063616e27742061646420707265736372697074696f6e20666f72207460448201526968697320656e7469747960b01b6064820152608401610bcd565b6005336000908152600e602052604090205403611a6a57336000908152600f602052604090206006015460ff16611a035760405162461bcd60e51b815260206004820152601560248201527414185d1a595b9d08191bd95cdb89dd08195e1a5cdd605a1b6044820152606401610bcd565b60005b815181101561182757336000908152600f602052604090208251600890910190839083908110611a3857611a386146a7565b60209081029190910181015182546001810184556000938452919092200190611a61908261459c565b50600101611a06565b6002336000908152600e602052604090205403611be8573360009081526013602052604090206006015460ff16611ae35760405162461bcd60e51b815260206004820152601960248201527f506174686f6c6f6769737420646f65736e2774206578697374000000000000006044820152606401610bcd565b60016001600160a01b0383166000908152600e6020526040902054036119375760005b8151811015611b7b573360009081526013602090815260408083206001600160a01b0387168452600c0190915290208251839083908110611b4957611b496146a7565b60209081029190910181015182546001810184556000938452919092200190611b72908261459c565b50600101611b06565b50336000908152601360205260408120611b9890600f0184613854565b15611ba1575060015b80611827576001600160a01b0383166000908152601060205260409020611bcb9060110133613876565b5033600090815260136020526040902061182590600f0184613876565b60036001600160a01b0383166000908152600e6020526040902054036119375760005b81518110156118275760146000846001600160a01b03166001600160a01b03168152602001908152602001600020600701828281518110611c4e57611c4e6146a7565b60209081029190910181015182546001810184556000938452919092200190611c77908261459c565b50600101611c0b565b60408051610180810182526000808252602080830182905282840182905260608084018390526080840181905260a084015260c0830182905260e0830182905261010083018290526101208301829052610140830182905261016083018290526001600160a01b038516825260129052919091206006015460ff16611d0757611d07614804565b6001600160a01b038083166000908152601260209081526040918290208251610180810184528154909416845260018101549184019190915260028101549183019190915260038101546060830152600481018054608084019190611d6b90614518565b80601f0160208091040260200160405190810160405280929190818152602001828054611d9790614518565b8015611de45780601f10611db957610100808354040283529160200191611de4565b820191906000526020600020905b815481529060010190602001808311611dc757829003601f168201915b5050505050815260200160058201805480602002602001604051908101604052809291908181526020016000905b82821015611ebe578382906000526020600020018054611e3190614518565b80601f0160208091040260200160405190810160405280929190818152602001828054611e5d90614518565b8015611eaa5780601f10611e7f57610100808354040283529160200191611eaa565b820191906000526020600020905b815481529060010190602001808311611e8d57829003601f168201915b505050505081526020019060010190611e12565b50505090825250600682015460ff1615156020820152600782015460408201526008820154606082015260098201546080820152600a82015460a0820152600b9091015460c09091015292915050565b3360008181526012602052604090206006015460ff1615611f415760405162461bcd60e51b8152600401610bcd906147ae565b6001600160a01b038116600081815260126020818152604080842080546001600160a01b031916909517855560018086018e905560028087018e9055600387018d90556006808801805460ff1916909317909255600e84529190942093909355526420b236b4b760d91b60078301556008820187905560098201869055600a8201859055600b909101839055611fd79082613876565b505050505050505050565b336000908152601560209081526040822060080180546001810182559083529120016108c2828261459c565b6001600160a01b0380831660009081526013602090815260408083209385168352600c9093018152828220805484518184028101840190955280855260609493919290919084015b82821015610a5557838290600052602060002001805461207590614518565b80601f01602080910402602001604051908101604052809291908181526020018280546120a190614518565b80156120ee5780601f106120c3576101008083540402835291602001916120ee565b820191906000526020600020905b8154815290600101906020018083116120d157829003601f168201915b505050505081526020019060010190612056565b336000818152601060205260409020600a015460ff16156121355760405162461bcd60e51b8152600401610bcd906147ae565b6001600160a01b038116600081815260106020908152604080832080546001600160a01b031916909417845560018085018d9055600285018c9055600385018b9055600485018a90556005850189905560068501889055652237b1ba37b960d11b600d860155600a8501805460ff191682179055600e909252909120819055600f82018490558054610100900460ff1690806121d0836147e5565b91906101000a81548160ff021916908360ff16021790555050505050505050505050565b6001600160a01b0381166000908152600f60209081526040808320600801805482518185028101850190935280835260609492939192909184015b828210156115b657838290600052602060002001805461224e90614518565b80601f016020809104026020016040519081016040528092919081815260200182805461227a90614518565b80156122c75780601f1061229c576101008083540402835291602001916122c7565b820191906000526020600020905b8154815290600101906020018083116122aa57829003601f168201915b50505050508152602001906001019061222f565b6002336000908152600e60205260409020540361232a5760018054600160381b900460ff1690600761230c836147e5565b91906101000a81548160ff021916908360ff1602179055505061240d565b6001336000908152600e60205260409020540361235e57600180546601000000000000900460ff1690600661230c836147e5565b6005336000908152600e602052604090205403612391576001805465010000000000900460ff1690600561230c836147e5565b6003336000908152600e6020526040902054036123c25760018054600160481b900460ff1690600961230c836147e5565b6004336000908152600e60205260409020540361240d5760018054600160401b900460ff169060086123f3836147e5565b91906101000a81548160ff021916908360ff160217905550505b336000908152601660209081526040822080546001810182559083529120429101612438838261459c565b50336000908152600d602052604090205481101561247e57336000908152600d6020526040812080546301e13380929061247390849061481a565b909155506108c29050565b61248c816301e1338061481a565b336000908152600d60205260409020555050565b60408051610160810182526000808252602080830182905282840182905260608084018390526080840183905260a0840183905260c0840183905260e08401839052610100840181905261012084015261014083018290526001600160a01b038516825260159052919091206006015460ff1661251f5761251f614804565b6001600160a01b038083166000908152601560209081526040808320815161016081018352815490951685526001810154858401526002810154858301526003810154606086015260048101546080860152600581015460a0860152600681015460ff16151560c0860152600781015460e0860152600881018054835181860281018601909452808452919461010087019491929184015b828210156126635783829060005260206000200180546125d690614518565b80601f016020809104026020016040519081016040528092919081815260200182805461260290614518565b801561264f5780601f106126245761010080835404028352916020019161264f565b820191906000526020600020905b81548152906001019060200180831161263257829003601f168201915b5050505050815260200190600101906125b7565b50505050815260200160098201805461267b90614518565b80601f01602080910402602001604051908101604052809291908181526020018280546126a790614518565b80156126f45780601f106126c9576101008083540402835291602001916126f4565b820191906000526020600020905b8154815290600101906020018083116126d757829003601f168201915b50505050508152602001600a820154815250509050919050565b3360009081526007602052604090206060906116ac90613847565b6001600160a01b0381166000908152601060205260409020600a81015460609182918291829182919060ff166127945760405162461bcd60e51b815260206004820152601060248201526f111bd8dd1bdc881b9bdd08199bdd5b9960821b6044820152606401610bcd565b6127a081600701613847565b816009016127b083600b01613847565b6127bc84601101613847565b6127c885601301613847565b83805480602002602001604051908101604052809291908181526020016000905b8282101561289557838290600052602060002001805461280890614518565b80601f016020809104026020016040519081016040528092919081815260200182805461283490614518565b80156128815780601f1061285657610100808354040283529160200191612881565b820191906000526020600020905b81548152906001019060200180831161286457829003601f168201915b5050505050815260200190600101906127e9565b50979f929e50949c50929a509098509650505050505050565b336000818152600f602052604090206006015460ff161561291f5760405162461bcd60e51b815260206004820152602560248201527f596f75206861766520616c7265616479206372656174656420796f75722070726044820152646f66696c6560d81b6064820152608401610bcd565b6001600160a01b0381166000818152600f6020908152604080832080546001600160a01b031916909417845560018085018d9055600285018c9055600385018b9055600485018a9055600e9092528220600590819055830187905560068301805460ff1916821790556614185d1a595b9d60ca1b60078401556012830186905560138301859055805460ff16916121d0836147e5565b6040805160a0810182526000808252602080830182905282840182905260608301829052608083018290526001600160a01b0385168252600e905291909120546000198101612a5c576001600160a01b03808416600090815260106020908152604091829020825160a081018452600d8201548152815490941691840191909152600181015491830191909152600281015460608301526015015460808201529150611362565b60038103612ac2576001600160a01b03808416600090815260146020908152604091829020825160a0810184526008820154815281549094169184019190915260018101549183019190915260028101546060830152600a015460808201529150611362565b600481036113625750506001600160a01b03908116600090815260156020908152604091829020825160a0810184526007820154815281549094169184019190915260018101549183019190915260028101546060830152600a0154608082015290565b336000908152600c602052604090206060906116ac90613847565b612be4604080516101a081018252600080825260208083018290528284018290526060808401839052608080850184905260a080860185905260c080870186905260e080880187905261010080890186905289519081018a52878152958601879052978501869052928401859052908301849052820183905281018290529283015290610120820190815260606020820181905260006040830181905291015290565b6001600160a01b0382166000908152600f602052604090206006015460ff16612c0f57612c0f614804565b6001600160a01b038083166000908152600f6020908152604080832081516101a081018352815490951685526001810154858401526002810154858301526003810154606086015260048101546080860152600581015460a0860152600681015460ff16151560c0860152600781015460e0860152600881018054835181860281018601909452808452919461010087019491929184015b82821015612d53578382906000526020600020018054612cc690614518565b80601f0160208091040260200160405190810160405280929190818152602001828054612cf290614518565b8015612d3f5780601f10612d1457610100808354040283529160200191612d3f565b820191906000526020600020905b815481529060010190602001808311612d2257829003601f168201915b505050505081526020019060010190612ca7565b5050505081526020016009820160405180610100016040529081600082015481526020016001820154815260200160028201548152602001600382015481526020016004820154815260200160058201548152602001600682015481526020016007820154815250508152602001601182018054612dd090614518565b80601f0160208091040260200160405190810160405280929190818152602001828054612dfc90614518565b8015612e495780601f10612e1e57610100808354040283529160200191612e49565b820191906000526020600020905b815481529060010190602001808311612e2c57829003601f168201915b50505050508152602001601282015481526020016013820154815250509050919050565b3360008181526013602052604090206006015460ff1615612ea05760405162461bcd60e51b8152600401610bcd906147ae565b6001600160a01b038116600081815260136020908152604080832080546001600160a01b031916909417845560018085018d905560028086018d9055600386018c9055600486018b9055600586018a9055600e909352922081905560068301805460ff1916831790556a14185d1a1bdb1bd9da5cdd60aa1b6009840155600b830186905560118301859055815462010000900460ff1691906121d0836147e5565b3360009081526012602052604090206006015460ff16612f9a5760405162461bcd60e51b81526020600482015260146024820152732cb7ba9036bab9ba1031329030b71030b236b4b760611b6044820152606401610bcd565b6001600160a01b03811660009081526012602052604090206006015460ff166130055760405162461bcd60e51b815260206004820152601760248201527f41646472657373206973206e6f7420616e2061646d696e0000000000000000006044820152606401610bcd565b61300e81613614565b61305a5760405162461bcd60e51b815260206004820152601b60248201527f41646472657373206973206e6f7420696e20616c6c41646d696e7300000000006044820152606401610bcd565b6001600160a01b03811660009081526005602052604090205460ff16156130c35760405162461bcd60e51b815260206004820152601c60248201527f4164647265737320697320616c726561647920636f6e6669726d6564000000006044820152606401610bcd565b6001600160a01b0381166000908152600560205260408120805460ff1916600117905560048054916130f48361482d565b919050555050565b6005336000908152600e60205260409020540361342e5760016001600160a01b0382166000908152600e6020526040902054036131ec576001600160a01b0381166000908152601060205260408120906131596007830133613854565b15613162575060015b80156131be5760405162461bcd60e51b815260206004820152602560248201527f4461746120616c7265616479207368617265642020776974682074686973206460448201526437b1ba37b960d91b6064820152608401610bcd565b6131cb6007830133613876565b503360009081526008602052604090206131e59084613876565b505b505050565b6006600080546001600160a01b03168152600e6020526040902054036133d757600080546001600160a01b0316815260066020526040812061322e9033613854565b15613237575060015b80156132915760405162461bcd60e51b815260206004820152602360248201527f4461746120616c7265616479207368617265642077697468207468697320616460448201526236b4b760e91b6064820152608401610bcd565b600080546001600160a01b031681526006602052604090206132b39033613876565b50336000908152600f6020908152604080832083546001600160a01b0316845260129092528220600501546008909101910361336a57805467ffffffffffffffff81111561330357613303613cec565b60405190808252806020026020018201604052801561333657816020015b60608152602001906001900390816133215790505b50600080546001600160a01b031681526012602090815260409091208251613368936005909201929190910190613a63565b505b60005b81548110156131e557600080546001600160a01b0316815260126020526040902082546005909101908390839081106133a8576133a86146a7565b6000918252602080832084546001810186559484529220909201916133ce9101826146bd565b5060010161336d565b60405162461bcd60e51b815260206004820152602660248201527f496e76616c696420656e74697479206f72207472616e73666572206e6f7420616044820152651b1b1bddd95960d21b6064820152608401610bcd565b6006336000908152600e6020526040902054036108c45760036001600160a01b0382166000908152600e602052604090205403613527576001600160a01b0381166000908152600b602052604081206134879033613854565b15613490575060015b80156134f95760405162461bcd60e51b815260206004820152603260248201527f4461746120616c72656164792073686172656420776974682074686973206d656044820152713234b1b0b6103932b9b2b0b931b4103630b160711b6064820152608401610bcd565b6001600160a01b0382166000908152600b6020526040902061351b9033613876565b506131e7600983613876565b60046001600160a01b0382166000908152600e6020526040902054036133d7576001600160a01b0381166000908152600c602052604081206135699033613854565b15613572575060015b80156135d75760405162461bcd60e51b815260206004820152602e60248201527f4461746120616c7265616479207368617265642077697468207468697320706860448201526d61726d61637920636f6d70616e7960901b6064820152608401610bcd565b6001600160a01b0382166000908152600c6020526040902061351b9033613876565b3360009081526008602052604090206060906116ac90613847565b6000610a5c600283613854565b60408051610160810182526000808252602080830182905282840182905260608084018390526080840183905260a0840183905260c0840183905260e08401819052610100840183905261012084015261014083018290526001600160a01b038516825260149052919091206006015460ff166136a0576136a0614804565b6001600160a01b038083166000908152601460209081526040808320815161016081018352815490951685526001810154858401526002810154858301526003810154606086015260048101546080860152600581015460a0860152600681015460ff16151560c0860152600781018054835181860281018601909452808452919460e087019491929184015b828210156137d957838290600052602060002001805461374c90614518565b80601f016020809104026020016040519081016040528092919081815260200182805461377890614518565b80156137c55780601f1061379a576101008083540402835291602001916137c5565b820191906000526020600020905b8154815290600101906020018083116137a857829003601f168201915b50505050508152602001906001019061372d565b5050505081526020016008820154815260200160098201805461267b90614518565b60606116ac6009613847565b6001600160a01b0381166000908152600660205260409020606090610a5c90613847565b6000613840836001600160a01b03841661388b565b9392505050565b606060006138408361397e565b6001600160a01b03811660009081526001830160205260408120541515613840565b6000613840836001600160a01b0384166139da565b600081815260018301602052604081205480156139745760006138af600183614672565b85549091506000906138c390600190614672565b90508082146139285760008660000182815481106138e3576138e36146a7565b9060005260206000200154905080876000018481548110613906576139066146a7565b6000918252602080832090910192909255918252600188019052604090208390555b855486908061393957613939614798565b600190038181906000526020600020016000905590558560010160008681526020019081526020016000206000905560019350505050610a5c565b6000915050610a5c565b6060816000018054806020026020016040519081016040528092919081815260200182805480156139ce57602002820191906000526020600020905b8154815260200190600101908083116139ba575b50505050509050919050565b6000818152600183016020526040812054613a2157508154600181810184556000848152602080822090930184905584548482528286019093526040902091909155610a5c565b506000610a5c565b508054613a3590614518565b6000825580601f10613a45575050565b601f0160209004906000526020600020908101906108c49190613ab9565b828054828255906000526020600020908101928215613aa9579160200282015b82811115613aa95782518290613a99908261459c565b5091602001919060010190613a83565b50613ab5929150613ace565b5090565b5b80821115613ab55760008155600101613aba565b80821115613ab5576000613ae28282613a29565b50600101613ace565b80356001600160a01b0381168114613b0257600080fd5b919050565b600060208284031215613b1957600080fd5b61384082613aeb565b60008060408385031215613b3557600080fd5b613b3e83613aeb565b9150613b4c60208401613aeb565b90509250929050565b6000815180845260005b81811015613b7b57602081850181015186830182015201613b5f565b506000602082860101526020601f19601f83011685010191505092915050565b60008282518085526020808601955060208260051b8401016020860160005b84811015613be857601f19868403018952613bd6838351613b55565b98840198925090830190600101613bba565b5090979650505050505050565b6020815260006138406020830184613b9b565b60008151808452602080850194506020840160005b83811015613c425781516001600160a01b031687529582019590820190600101613c1d565b509495945050505050565b600061018060018060a01b038f1683528d60208401528c60408401528b60608401528a60808401528960a08401528060c0840152613c8d8184018a613c08565b905082810360e0840152613ca18189613c08565b905086610100840152828103610120840152613cbd8187613b55565b905084610140840152828103610160840152613cd98185613c08565b9f9e505050505050505050505050505050565b634e487b7160e01b600052604160045260246000fd5b604051601f8201601f1916810167ffffffffffffffff81118282101715613d2b57613d2b613cec565b604052919050565b600082601f830112613d4457600080fd5b813567ffffffffffffffff811115613d5e57613d5e613cec565b613d71601f8201601f1916602001613d02565b818152846020838601011115613d8657600080fd5b816020850160208301376000918101602001919091529392505050565b600060208284031215613db557600080fd5b813567ffffffffffffffff811115613dcc57600080fd5b613dd884828501613d33565b949350505050565b60008060408385031215613df357600080fd5b82359150613b4c60208401613aeb565b600080600080600060a08688031215613e1b57600080fd5b505083359560208501359550604085013594606081013594506080013592509050565b600061016060018060a01b038e1683528c60208401528b60408401528a60608401528960808401528860a08401528760c08401528660e084015280610100840152613e8b81840187613b55565b610120840195909552505061014001529998505050505050505050565b6020815260006138406020830184613c08565b60008060408385031215613ece57600080fd5b613ed783613aeb565b915060208084013567ffffffffffffffff80821115613ef557600080fd5b818601915086601f830112613f0957600080fd5b813581811115613f1b57613f1b613cec565b8060051b613f2a858201613d02565b918252838101850191858101908a841115613f4457600080fd5b86860192505b83831015613f8057823585811115613f625760008081fd5b613f708c89838a0101613d33565b8352509186019190860190613f4a565b809750505050505050509250929050565b60008282518085526020808601955060208260051b8401016020860160005b84811015613be857601f19868403018952613fcc838351613b55565b98840198925090830190600101613fb0565b60208152613ff86020820183516001600160a01b03169052565b602082015160408201526040820151606082015260608201516080820152600060808301516101808060a08501526140346101a0850183613b55565b915060a0850151601f198584030160c08601526140518382613f91565b92505060c085015161406760e086018215159052565b5060e085015161010085810191909152850151610120808601919091528501516101408086019190915285015161016080860191909152909401519390920192909252919050565b600080600080600080600060e0888a0312156140ca57600080fd5b505085359760208701359750604087013596606081013596506080810135955060a0810135945060c0013592509050565b600080600080600080600080610100898b03121561411857600080fd5b505086359860208801359850604088013597606081013597506080810135965060a0810135955060c0810135945060e0013592509050565b815160ff16815261014081016020830151614170602084018260ff169052565b506040830151614185604084018260ff169052565b50606083015161419a606084018260ff169052565b5060808301516141af608084018260ff169052565b5060a08301516141c460a084018260ff169052565b5060c08301516141d960c084018260ff169052565b5060e08301516141ee60e084018260ff169052565b506101008381015160ff908116918401919091526101209384015116929091019190915290565b6020815261422f6020820183516001600160a01b03169052565b602082015160408201526040820151606082015260608201516080820152608082015160a082015260a082015160c0820152600060c083015161427660e084018215159052565b5060e0830151610100838101919091528301516101606101208085018290526142a3610180860184613f91565b9250808601519050610140601f1986850301818701526142c38483613b55565b9601519190940152509192915050565b60a0815260006142e660a0830188613c08565b82810360208401526142f88188613b9b565b9050828103604084015261430c8187613c08565b905082810360608401526143208186613c08565b905082810360808401526143348185613c08565b98975050505050505050565b6020815261435a6020820183516001600160a01b03169052565b602082015160408201526040820151606082015260608201516080820152608082015160a082015260a082015160c0820152600060c08301516143a160e084018215159052565b5060e0830151610100838101919091528301516102806101208085018290526143ce6102a0860184613f91565b9086015190925061014061442d86820183805182526020810151602083015260408101516040830152606081015160608301526080810151608083015260a081015160a083015260c081015160c083015260e081015160e08301525050565b860151858403601f190161024087015290506144498382613b55565b610160870151610260870152610180909601519190940152509192915050565b602081526144836020820183516001600160a01b03169052565b602082015160408201526040820151606082015260608201516080820152608082015160a082015260a082015160c0820152600060c08301516144ca60e084018215159052565b5060e083015161016061010081818601526144e9610180860184613f91565b9250808601519050610120818187015280870151915050610140601f1986850301818701526142c38483613b55565b600181811c9082168061452c57607f821691505b60208210810361136257634e487b7160e01b600052602260045260246000fd5b601f8211156131e7576000816000526020600020601f850160051c810160208610156145755750805b601f850160051c820191505b8181101561459457828155600101614581565b505050505050565b815167ffffffffffffffff8111156145b6576145b6613cec565b6145ca816145c48454614518565b8461454c565b602080601f8311600181146145ff57600084156145e75750858301515b600019600386901b1c1916600185901b178555614594565b600085815260208120601f198616915b8281101561462e5788860151825594840194600190910190840161460f565b508582101561464c5787850151600019600388901b60f8161c191681555b5050505050600190811b01905550565b634e487b7160e01b600052601160045260246000fd5b81810381811115610a5c57610a5c61465c565b6000826146a257634e487b7160e01b600052601260045260246000fd5b500490565b634e487b7160e01b600052603260045260246000fd5b8181036146c8575050565b6146d28254614518565b67ffffffffffffffff8111156146ea576146ea613cec565b6146f8816145c48454614518565b6000601f82116001811461472c57600083156147145750848201545b600019600385901b1c1916600184901b178455614791565b600085815260209020601f19841690600086815260209020845b838110156147665782860154825560019586019590910190602001614746565b50858310156147845781850154600019600388901b60f8161c191681555b50505060018360011b0184555b5050505050565b634e487b7160e01b600052603160045260246000fd5b6020808252601f908201527f596f7520616c72656164792063726561746520796f75722070726f66696c6500604082015260600190565b600060ff821660ff81036147fb576147fb61465c565b60010192915050565b634e487b7160e01b600052600160045260246000fd5b80820180821115610a5c57610a5c61465c565b60006001820161483f5761483f61465c565b506001019056fea2646970667358221220770a09f9252dce1dd56a7099b6f2ace1be20f6573955bf2ba3239d566655999f64736f6c63430008180033",
  "linkReferences": {},
  "deployedLinkReferences": {}
}