{
  "_format": "hh-sol-artifact-1",
  "contractName": "PatientIdentity",
  "sourceName": "contracts/PatientDataManagement.sol",
  "abi": [
    {
      "inputs": [
        {
          "internalType": "address",
          "name": "useraddress",
          "type": "address"
        }
      ],
      "name": "ConnectedAccountType",
      "outputs": [
        {
          "internalType": "uint256",
          "name": "",
          "type": "uint256"
        }
      ],
      "stateMutability": "view",
      "type": "function"
    },
    {
      "inputs": [
        {
          "internalType": "address",
          "name": "",
          "type": "address"
        }
      ],
      "name": "accounts",
      "outputs": [
        {
          "internalType": "uint256",
          "name": "",
          "type": "uint256"
        }
      ],
      "stateMutability": "view",
      "type": "function"
    },
    {
      "inputs": [
        {
          "internalType": "address",
          "name": "_user",
          "type": "address"
        },
        {
          "internalType": "string[]",
          "name": "url",
          "type": "string[]"
        }
      ],
      "name": "addPrescription",
      "outputs": [],
      "stateMutability": "nonpayable",
      "type": "function"
    },
    {
      "inputs": [
        {
          "internalType": "string",
          "name": "url",
          "type": "string"
        }
      ],
      "name": "addProfilePic",
      "outputs": [],
      "stateMutability": "nonpayable",
      "type": "function"
    },
    {
      "inputs": [
        {
          "internalType": "string",
          "name": "medichine",
          "type": "string"
        }
      ],
      "name": "addTopMedichine",
      "outputs": [],
      "stateMutability": "nonpayable",
      "type": "function"
    },
    {
      "inputs": [],
      "name": "autoRevokeAccessData",
      "outputs": [],
      "stateMutability": "nonpayable",
      "type": "function"
    },
    {
      "inputs": [],
      "name": "cancelSubscription",
      "outputs": [],
      "stateMutability": "nonpayable",
      "type": "function"
    },
    {
      "inputs": [
        {
          "internalType": "address",
          "name": "",
          "type": "address"
        }
      ],
      "name": "dataExpiration",
      "outputs": [
        {
          "internalType": "uint256",
          "name": "",
          "type": "uint256"
        }
      ],
      "stateMutability": "view",
      "type": "function"
    },
    {
      "inputs": [
        {
          "internalType": "uint256",
          "name": "index",
          "type": "uint256"
        },
        {
          "internalType": "address",
          "name": "_user",
          "type": "address"
        }
      ],
      "name": "deletePrecription",
      "outputs": [],
      "stateMutability": "nonpayable",
      "type": "function"
    },
    {
      "inputs": [
        {
          "internalType": "address",
          "name": "_adminAddress",
          "type": "address"
        }
      ],
      "name": "getAdmin",
      "outputs": [
        {
          "components": [
            {
              "internalType": "address",
              "name": "AdminAddress",
              "type": "address"
            },
            {
              "internalType": "uint256",
              "name": "adminID",
              "type": "uint256"
            },
            {
              "internalType": "bytes32",
              "name": "name",
              "type": "bytes32"
            },
            {
              "internalType": "bytes32",
              "name": "gender",
              "type": "bytes32"
            },
            {
              "internalType": "string",
              "name": "profilePic",
              "type": "string"
            },
            {
              "internalType": "bool",
              "name": "isAdded",
              "type": "bool"
            }
          ],
          "internalType": "struct PatientIdentity.Admin",
          "name": "",
          "type": "tuple"
        }
      ],
      "stateMutability": "view",
      "type": "function"
    },
    {
      "inputs": [],
      "name": "getAdminData",
      "outputs": [
        {
          "components": [
            {
              "internalType": "uint8",
              "name": "totalNumberOfPatient",
              "type": "uint8"
            },
            {
              "internalType": "uint8",
              "name": "totalNumberOfDoctor",
              "type": "uint8"
            },
            {
              "internalType": "uint8",
              "name": "totalNumberOfPathologist",
              "type": "uint8"
            },
            {
              "internalType": "uint8",
              "name": "totalNumberOfPharmacyCompany",
              "type": "uint8"
            },
            {
              "internalType": "uint8",
              "name": "totalNumberOfMedicalResearchLab",
              "type": "uint8"
            },
            {
              "internalType": "uint8",
              "name": "totalNumberOfPremiumPatient",
              "type": "uint8"
            },
            {
              "internalType": "uint8",
              "name": "totalNumberOfPremiumDoctor",
              "type": "uint8"
            },
            {
              "internalType": "uint8",
              "name": "totalNumberOfPremiumPathologist",
              "type": "uint8"
            },
            {
              "internalType": "uint8",
              "name": "totalNumberOfPremiumPharmacyCompany",
              "type": "uint8"
            },
            {
              "internalType": "uint8",
              "name": "totalNumberOfPremiumMedicalResearchLab",
              "type": "uint8"
            }
          ],
          "internalType": "struct PatientIdentity.AdminData",
          "name": "",
          "type": "tuple"
        }
      ],
      "stateMutability": "view",
      "type": "function"
    },
    {
      "inputs": [
        {
          "internalType": "address",
          "name": "userAddress",
          "type": "address"
        }
      ],
      "name": "getAlluserTypeData",
      "outputs": [
        {
          "components": [
            {
              "internalType": "bytes32",
              "name": "userType",
              "type": "bytes32"
            },
            {
              "internalType": "address",
              "name": "userAddress",
              "type": "address"
            },
            {
              "internalType": "uint256",
              "name": "userID",
              "type": "uint256"
            },
            {
              "internalType": "bytes32",
              "name": "username",
              "type": "bytes32"
            },
            {
              "internalType": "bytes32",
              "name": "emailAddress",
              "type": "bytes32"
            }
          ],
          "internalType": "struct PatientIdentity.commonData",
          "name": "userData",
          "type": "tuple"
        }
      ],
      "stateMutability": "view",
      "type": "function"
    },
    {
      "inputs": [
        {
          "internalType": "address",
          "name": "_doctorAddress",
          "type": "address"
        }
      ],
      "name": "getDoctor",
      "outputs": [
        {
          "internalType": "address",
          "name": "doctorAddress",
          "type": "address"
        },
        {
          "internalType": "uint256",
          "name": "doctorID",
          "type": "uint256"
        },
        {
          "internalType": "bytes32",
          "name": "name",
          "type": "bytes32"
        },
        {
          "internalType": "bytes32",
          "name": "specialty",
          "type": "bytes32"
        },
        {
          "internalType": "uint256",
          "name": "consultationFee",
          "type": "uint256"
        },
        {
          "internalType": "uint256",
          "name": "BMDCNumber",
          "type": "uint256"
        },
        {
          "internalType": "uint256",
          "name": "yearOfExperience",
          "type": "uint256"
        },
        {
          "internalType": "bytes32",
          "name": "userType",
          "type": "bytes32"
        },
        {
          "internalType": "string",
          "name": "profilePic",
          "type": "string"
        },
        {
          "internalType": "bytes32",
          "name": "birthday",
          "type": "bytes32"
        },
        {
          "internalType": "bytes32",
          "name": "emailAddress",
          "type": "bytes32"
        }
      ],
      "stateMutability": "view",
      "type": "function"
    },
    {
      "inputs": [
        {
          "internalType": "address",
          "name": "_doctorAddress",
          "type": "address"
        }
      ],
      "name": "getDoctorAnotherData",
      "outputs": [
        {
          "internalType": "address[]",
          "name": "PatientToDoctor",
          "type": "address[]"
        },
        {
          "internalType": "string[]",
          "name": "patientTest",
          "type": "string[]"
        },
        {
          "internalType": "address[]",
          "name": "TreatedPatient",
          "type": "address[]"
        },
        {
          "internalType": "address[]",
          "name": "pathologist",
          "type": "address[]"
        }
      ],
      "stateMutability": "view",
      "type": "function"
    },
    {
      "inputs": [
        {
          "internalType": "address",
          "name": "_pathoAddress",
          "type": "address"
        },
        {
          "internalType": "address",
          "name": "_doctorAddress",
          "type": "address"
        }
      ],
      "name": "getDoctorDataFromPathologist",
      "outputs": [
        {
          "internalType": "string[]",
          "name": "",
          "type": "string[]"
        }
      ],
      "stateMutability": "view",
      "type": "function"
    },
    {
      "inputs": [
        {
          "internalType": "address",
          "name": "_labAddress",
          "type": "address"
        }
      ],
      "name": "getMedicalResearchLab",
      "outputs": [
        {
          "components": [
            {
              "internalType": "address",
              "name": "labAddress",
              "type": "address"
            },
            {
              "internalType": "uint256",
              "name": "labID",
              "type": "uint256"
            },
            {
              "internalType": "bytes32",
              "name": "name",
              "type": "bytes32"
            },
            {
              "internalType": "uint256",
              "name": "licenseID",
              "type": "uint256"
            },
            {
              "internalType": "bytes32",
              "name": "researchArea",
              "type": "bytes32"
            },
            {
              "internalType": "uint256",
              "name": "labRating",
              "type": "uint256"
            },
            {
              "internalType": "bool",
              "name": "isAdded",
              "type": "bool"
            },
            {
              "internalType": "string[]",
              "name": "imgUrl",
              "type": "string[]"
            },
            {
              "internalType": "bytes32",
              "name": "userType",
              "type": "bytes32"
            },
            {
              "internalType": "string",
              "name": "profilePic",
              "type": "string"
            },
            {
              "internalType": "bytes32",
              "name": "emailAddress",
              "type": "bytes32"
            }
          ],
          "internalType": "struct PatientIdentity.MedicalResearchLab",
          "name": "",
          "type": "tuple"
        }
      ],
      "stateMutability": "view",
      "type": "function"
    },
    {
      "inputs": [
        {
          "internalType": "address",
          "name": "_pathologistAddress",
          "type": "address"
        }
      ],
      "name": "getPathologist",
      "outputs": [
        {
          "internalType": "address",
          "name": "pathologistAddress",
          "type": "address"
        },
        {
          "internalType": "uint256",
          "name": "pathologistID",
          "type": "uint256"
        },
        {
          "internalType": "bytes32",
          "name": "name",
          "type": "bytes32"
        },
        {
          "internalType": "uint256",
          "name": "licenseNumber",
          "type": "uint256"
        },
        {
          "internalType": "bytes32",
          "name": "specializationArea",
          "type": "bytes32"
        },
        {
          "internalType": "uint256",
          "name": "totalExperience",
          "type": "uint256"
        },
        {
          "internalType": "address[]",
          "name": "patientToPathologist",
          "type": "address[]"
        },
        {
          "internalType": "string[]",
          "name": "pathologistTest",
          "type": "string[]"
        },
        {
          "internalType": "bytes32",
          "name": "userType",
          "type": "bytes32"
        },
        {
          "internalType": "string",
          "name": "profilePic",
          "type": "string"
        },
        {
          "internalType": "bytes32",
          "name": "birthday",
          "type": "bytes32"
        },
        {
          "internalType": "address[]",
          "name": "allDoctor",
          "type": "address[]"
        }
      ],
      "stateMutability": "view",
      "type": "function"
    },
    {
      "inputs": [
        {
          "internalType": "address",
          "name": "_doctorAddress",
          "type": "address"
        },
        {
          "internalType": "address",
          "name": "pathoAddress",
          "type": "address"
        }
      ],
      "name": "getPathologistDataFromDoctor",
      "outputs": [
        {
          "internalType": "string[]",
          "name": "",
          "type": "string[]"
        }
      ],
      "stateMutability": "view",
      "type": "function"
    },
    {
      "inputs": [
        {
          "internalType": "address",
          "name": "_patientAddress",
          "type": "address"
        }
      ],
      "name": "getPatient",
      "outputs": [
        {
          "components": [
            {
              "internalType": "address",
              "name": "patientAddress",
              "type": "address"
            },
            {
              "internalType": "uint256",
              "name": "patientID",
              "type": "uint256"
            },
            {
              "internalType": "bytes32",
              "name": "name",
              "type": "bytes32"
            },
            {
              "internalType": "bytes32",
              "name": "gender",
              "type": "bytes32"
            },
            {
              "internalType": "uint256",
              "name": "age",
              "type": "uint256"
            },
            {
              "internalType": "bytes32",
              "name": "location",
              "type": "bytes32"
            },
            {
              "internalType": "bool",
              "name": "isAdded",
              "type": "bool"
            },
            {
              "internalType": "bytes32",
              "name": "userType",
              "type": "bytes32"
            },
            {
              "internalType": "string[]",
              "name": "imgUrl",
              "type": "string[]"
            },
            {
              "components": [
                {
                  "internalType": "bytes32",
                  "name": "height",
                  "type": "bytes32"
                },
                {
                  "internalType": "bytes32",
                  "name": "Blood",
                  "type": "bytes32"
                },
                {
                  "internalType": "bytes32",
                  "name": "PreviousDiseases",
                  "type": "bytes32"
                },
                {
                  "internalType": "bytes32",
                  "name": "Medicinedrugs",
                  "type": "bytes32"
                },
                {
                  "internalType": "bytes32",
                  "name": "BadHabits",
                  "type": "bytes32"
                },
                {
                  "internalType": "bytes32",
                  "name": "ChronicDiseases",
                  "type": "bytes32"
                },
                {
                  "internalType": "bytes32",
                  "name": "HealthAllergies",
                  "type": "bytes32"
                },
                {
                  "internalType": "bytes32",
                  "name": "BirthDefects",
                  "type": "bytes32"
                }
              ],
              "internalType": "struct PatientIdentity.PatientPersonalData",
              "name": "patientPersonalData",
              "type": "tuple"
            },
            {
              "internalType": "string",
              "name": "profilePic",
              "type": "string"
            },
            {
              "internalType": "bytes32",
              "name": "birthday",
              "type": "bytes32"
            },
            {
              "internalType": "bytes32",
              "name": "emailAddress",
              "type": "bytes32"
            }
          ],
          "internalType": "struct PatientIdentity.Patient",
          "name": "",
          "type": "tuple"
        }
      ],
      "stateMutability": "view",
      "type": "function"
    },
    {
      "inputs": [
        {
          "internalType": "address",
          "name": "_doctorAddress",
          "type": "address"
        },
        {
          "internalType": "address",
          "name": "_patientAddress",
          "type": "address"
        }
      ],
      "name": "getPatientDataFromDoctor",
      "outputs": [
        {
          "internalType": "string[]",
          "name": "",
          "type": "string[]"
        }
      ],
      "stateMutability": "view",
      "type": "function"
    },
    {
      "inputs": [
        {
          "internalType": "address",
          "name": "userAddress",
          "type": "address"
        }
      ],
      "name": "getPatientToAdmin",
      "outputs": [
        {
          "internalType": "address[]",
          "name": "",
          "type": "address[]"
        }
      ],
      "stateMutability": "view",
      "type": "function"
    },
    {
      "inputs": [],
      "name": "getPatientToPharmacy",
      "outputs": [
        {
          "internalType": "address[]",
          "name": "",
          "type": "address[]"
        }
      ],
      "stateMutability": "view",
      "type": "function"
    },
    {
      "inputs": [],
      "name": "getPersonalDoctor",
      "outputs": [
        {
          "internalType": "address[]",
          "name": "",
          "type": "address[]"
        }
      ],
      "stateMutability": "view",
      "type": "function"
    },
    {
      "inputs": [
        {
          "internalType": "address",
          "name": "_pharmacyCompanyAddress",
          "type": "address"
        }
      ],
      "name": "getPharmacyCompany",
      "outputs": [
        {
          "components": [
            {
              "internalType": "address",
              "name": "pharmacyCompanyAddress",
              "type": "address"
            },
            {
              "internalType": "uint256",
              "name": "companyID",
              "type": "uint256"
            },
            {
              "internalType": "bytes32",
              "name": "name",
              "type": "bytes32"
            },
            {
              "internalType": "uint256",
              "name": "licenseID",
              "type": "uint256"
            },
            {
              "internalType": "bytes32",
              "name": "productInformation",
              "type": "bytes32"
            },
            {
              "internalType": "uint256",
              "name": "pharmacyRating",
              "type": "uint256"
            },
            {
              "internalType": "bool",
              "name": "isAdded",
              "type": "bool"
            },
            {
              "internalType": "bytes32",
              "name": "userType",
              "type": "bytes32"
            },
            {
              "internalType": "string[]",
              "name": "TopMedichine",
              "type": "string[]"
            },
            {
              "internalType": "string",
              "name": "profilePic",
              "type": "string"
            },
            {
              "internalType": "bytes32",
              "name": "emailAddress",
              "type": "bytes32"
            }
          ],
          "internalType": "struct PatientIdentity.PharmacyCompany",
          "name": "",
          "type": "tuple"
        }
      ],
      "stateMutability": "view",
      "type": "function"
    },
    {
      "inputs": [
        {
          "internalType": "address",
          "name": "subscriber",
          "type": "address"
        }
      ],
      "name": "getSubscriptionStatus",
      "outputs": [
        {
          "internalType": "bool",
          "name": "isSubscription",
          "type": "bool"
        },
        {
          "internalType": "uint256",
          "name": "expiration",
          "type": "uint256"
        },
        {
          "internalType": "uint256",
          "name": "daysLeft",
          "type": "uint256"
        }
      ],
      "stateMutability": "view",
      "type": "function"
    },
    {
      "inputs": [],
      "name": "getadminToMedRcLab",
      "outputs": [
        {
          "internalType": "address[]",
          "name": "",
          "type": "address[]"
        }
      ],
      "stateMutability": "view",
      "type": "function"
    },
    {
      "inputs": [],
      "name": "getsharedAllDoctorAddress",
      "outputs": [
        {
          "internalType": "address[]",
          "name": "",
          "type": "address[]"
        }
      ],
      "stateMutability": "view",
      "type": "function"
    },
    {
      "inputs": [],
      "name": "getsharedAllUsersAddress",
      "outputs": [
        {
          "internalType": "address[]",
          "name": "",
          "type": "address[]"
        }
      ],
      "stateMutability": "view",
      "type": "function"
    },
    {
      "inputs": [
        {
          "internalType": "address",
          "name": "userAddress",
          "type": "address"
        }
      ],
      "name": "revokeAccessData",
      "outputs": [],
      "stateMutability": "nonpayable",
      "type": "function"
    },
    {
      "inputs": [
        {
          "internalType": "uint256",
          "name": "adminID",
          "type": "uint256"
        },
        {
          "internalType": "bytes32",
          "name": "name",
          "type": "bytes32"
        },
        {
          "internalType": "bytes32",
          "name": "gender",
          "type": "bytes32"
        }
      ],
      "name": "setAdmin",
      "outputs": [],
      "stateMutability": "nonpayable",
      "type": "function"
    },
    {
      "inputs": [
        {
          "internalType": "uint256",
          "name": "doctorID",
          "type": "uint256"
        },
        {
          "internalType": "bytes32",
          "name": "name",
          "type": "bytes32"
        },
        {
          "internalType": "bytes32",
          "name": "specialty",
          "type": "bytes32"
        },
        {
          "internalType": "uint256",
          "name": "consultationFee",
          "type": "uint256"
        },
        {
          "internalType": "uint256",
          "name": "BMDCNumber",
          "type": "uint256"
        },
        {
          "internalType": "uint256",
          "name": "yearOfExperience",
          "type": "uint256"
        },
        {
          "internalType": "bytes32",
          "name": "birthday",
          "type": "bytes32"
        }
      ],
      "name": "setDoctor",
      "outputs": [],
      "stateMutability": "nonpayable",
      "type": "function"
    },
    {
      "inputs": [
        {
          "internalType": "uint256",
          "name": "labID",
          "type": "uint256"
        },
        {
          "internalType": "bytes32",
          "name": "name",
          "type": "bytes32"
        },
        {
          "internalType": "uint256",
          "name": "licenseID",
          "type": "uint256"
        },
        {
          "internalType": "bytes32",
          "name": "researchArea",
          "type": "bytes32"
        },
        {
          "internalType": "uint256",
          "name": "labRating",
          "type": "uint256"
        }
      ],
      "name": "setMedicalResearchLab",
      "outputs": [],
      "stateMutability": "nonpayable",
      "type": "function"
    },
    {
      "inputs": [
        {
          "internalType": "uint256",
          "name": "pathologistID",
          "type": "uint256"
        },
        {
          "internalType": "bytes32",
          "name": "name",
          "type": "bytes32"
        },
        {
          "internalType": "uint256",
          "name": "licenseNumber",
          "type": "uint256"
        },
        {
          "internalType": "bytes32",
          "name": "specializationArea",
          "type": "bytes32"
        },
        {
          "internalType": "uint256",
          "name": "totalExperience",
          "type": "uint256"
        },
        {
          "internalType": "bytes32",
          "name": "birthday",
          "type": "bytes32"
        },
        {
          "internalType": "bytes32",
          "name": "emailAddress",
          "type": "bytes32"
        }
      ],
      "name": "setPathologist",
      "outputs": [],
      "stateMutability": "nonpayable",
      "type": "function"
    },
    {
      "inputs": [
        {
          "internalType": "uint256",
          "name": "patientID",
          "type": "uint256"
        },
        {
          "internalType": "bytes32",
          "name": "name",
          "type": "bytes32"
        },
        {
          "internalType": "bytes32",
          "name": "gender",
          "type": "bytes32"
        },
        {
          "internalType": "uint256",
          "name": "age",
          "type": "uint256"
        },
        {
          "internalType": "bytes32",
          "name": "location",
          "type": "bytes32"
        },
        {
          "internalType": "bytes32",
          "name": "birthday",
          "type": "bytes32"
        },
        {
          "internalType": "bytes32",
          "name": "emailAddress",
          "type": "bytes32"
        }
      ],
      "name": "setPatient",
      "outputs": [],
      "stateMutability": "nonpayable",
      "type": "function"
    },
    {
      "inputs": [
        {
          "internalType": "bytes32",
          "name": "height",
          "type": "bytes32"
        },
        {
          "internalType": "bytes32",
          "name": "blood",
          "type": "bytes32"
        },
        {
          "internalType": "bytes32",
          "name": "previousDiseases",
          "type": "bytes32"
        },
        {
          "internalType": "bytes32",
          "name": "medicineDrugs",
          "type": "bytes32"
        },
        {
          "internalType": "bytes32",
          "name": "badHabits",
          "type": "bytes32"
        },
        {
          "internalType": "bytes32",
          "name": "chronicDiseases",
          "type": "bytes32"
        },
        {
          "internalType": "bytes32",
          "name": "healthAllergies",
          "type": "bytes32"
        },
        {
          "internalType": "bytes32",
          "name": "birthDefects",
          "type": "bytes32"
        }
      ],
      "name": "setPatientPersonalData",
      "outputs": [],
      "stateMutability": "nonpayable",
      "type": "function"
    },
    {
      "inputs": [
        {
          "internalType": "uint256",
          "name": "companyID",
          "type": "uint256"
        },
        {
          "internalType": "bytes32",
          "name": "name",
          "type": "bytes32"
        },
        {
          "internalType": "uint256",
          "name": "licenseID",
          "type": "uint256"
        },
        {
          "internalType": "bytes32",
          "name": "productInformation",
          "type": "bytes32"
        },
        {
          "internalType": "uint256",
          "name": "pharmacyRating",
          "type": "uint256"
        }
      ],
      "name": "setPharmacyCompany",
      "outputs": [],
      "stateMutability": "nonpayable",
      "type": "function"
    },
    {
      "inputs": [
        {
          "internalType": "address",
          "name": "useraddress",
          "type": "address"
        }
      ],
      "name": "shareData",
      "outputs": [],
      "stateMutability": "nonpayable",
      "type": "function"
    },
    {
      "inputs": [
        {
          "internalType": "address",
          "name": "patientAddress",
          "type": "address"
        }
      ],
      "name": "showSharedPrescription",
      "outputs": [
        {
          "internalType": "string[]",
          "name": "imageUrl",
          "type": "string[]"
        }
      ],
      "stateMutability": "view",
      "type": "function"
    },
    {
      "inputs": [],
      "name": "subscription",
      "outputs": [],
      "stateMutability": "nonpayable",
      "type": "function"
    },
    {
      "inputs": [
        {
          "internalType": "address",
          "name": "",
          "type": "address"
        }
      ],
      "name": "subscriptionExpiration",
      "outputs": [
        {
          "internalType": "uint256",
          "name": "",
          "type": "uint256"
        }
      ],
      "stateMutability": "view",
      "type": "function"
    }
  ],
  "bytecode": "0x608060405234801561001057600080fd5b506143aa806100206000396000f3fe608060405234801561001057600080fd5b50600436106102485760003560e01c80637e3399681161013b578063abb4d51f116100b8578063d680288b1161007c578063d680288b14610711578063da025c1214610719578063ea8c9e0414610721578063f7332c0314610741578063ff9ffc071461074957600080fd5b8063abb4d51f1461065f578063b12e2e8414610672578063b5368e20146106cb578063b5593251146106eb578063d3701a7b146106fe57600080fd5b80638d3f876b116100ff5780638d3f876b146104f25780638f7a844b146105125780639059229b146106145780639824a07a146106345780639c0f1c7c1461063c57600080fd5b80637e3399681461045b5780638043ce001461046357806380f1310a14610476578063887f6f8d146104895780638bb115b71461049c57600080fd5b80632a1ebd01116101c95780635842e6e51161018d5780635842e6e5146103e05780635e5c06e2146103f557806360c61d0c1461041557806364efb22b146104285780636bc071a51461044857600080fd5b80632a1ebd011461035a5780632f04e0641461037b57806344387cc2146103a557806355bf3b33146103ad57806355da65f4146103cd57600080fd5b80631ddda9b6116102105780631ddda9b6146102dc5780632138ba841461030c57806324e9edb01461031f57806327ccc00e146103345780632856d1e81461034757600080fd5b806307eda2cc1461024d578063080bc2b1146102625780630b916f141461028b57806316ecfa841461029e5780631a5aa676146102c9575b600080fd5b61026061025b3660046136a4565b61075c565b005b6102756102703660046136bf565b610872565b6040516102829190613792565b60405180910390f35b6102756102993660046136bf565b610973565b6102b16102ac3660046136a4565b610a67565b6040516102829c9b9a999897969594939291906137ea565b6102606102d7366004613940565b610cc0565b6102ef6102ea3660046136a4565b610e4d565b604080519315158452602084019290925290820152606001610282565b61026061031a36600461397d565b610ec0565b61026033600090815260096020526040812055565b6102606103423660046139a0565b611197565b6102606103553660046139cc565b61122b565b61036d6103683660046136a4565b611323565b604051908152602001610282565b61038e6103893660046136a4565b6113df565b6040516102829b9a99989796959493929190613a07565b610260611549565b61036d6103bb3660046136a4565b60096020526000908152604090205481565b6102606103db3660046139cc565b6116e3565b6103e86117b1565b6040516102829190613a71565b61036d6104033660046136a4565b600a6020526000908152604090205481565b610260610423366004613a84565b6117d1565b61043b6104363660046136a4565b611da2565b6040516102829190613b5a565b610260610456366004613940565b611ef6565b6103e8611f22565b6102756104713660046136bf565b611f3d565b610260610484366004613bbe565b612031565b6102756104973660046136a4565b612121565b6102606104aa366004613c0a565b336000908152600b602081905260409091206009810199909955600a89019790975595870194909455600c860192909255600d850155600e840155600f830155601090910155565b61036d6105003660046136a4565b60086020526000908152604090205481565b6106076040805161014081018252600080825260208201819052918101829052606081018290526080810182905260a0810182905260c0810182905260e08101829052610100810182905261012081019190915250604080516101408101825260005460ff8082168352610100808304821660208501526201000083048216948401949094526301000000820481166060840152640100000000820481166080840152650100000000008204811660a084015266010000000000008204811660c0840152600160381b8204811660e0840152600160401b8204811693830193909352600160481b900490911661012082015290565b6040516102829190613c5f565b6106276106223660046136a4565b612213565b6040516102829190613d71565b6103e8612481565b61064f61064a3660046136a4565b61249c565b6040516102829493929190613e2f565b61026061066d366004613bbe565b61260f565b6106856106803660046136a4565b612718565b6040516102829190815181526020808301516001600160a01b03169082015260408083015190820152606080830151908201526080918201519181019190915260a00190565b6106de6106d93660046136a4565b612889565b6040516102829190613e87565b6102606106f9366004613bbe565b612bb5565b61026061070c3660046136a4565b612c8e565b6103e8613093565b6102606130ae565b61073461072f3660046136a4565b6131f2565b6040516102829190613fb0565b6103e86133cc565b6103e86107573660046136a4565b6133d8565b6005336000908152600a6020526040902054036107d75733600090815260036020526040902061078c90826133fc565b5060016001600160a01b0382166000908152600a6020526040902054036107d4576001600160a01b0381166000908152600c602052604090206107d290600701336133fc565b505b50565b6006336000908152600a6020526040902054036107d45760036001600160a01b0382166000908152600a602052604090205403610830576001600160a01b03811660009081526006602052604090206107d290336133fc565b60046001600160a01b0382166000908152600a6020526040902054036107d4576001600160a01b03811660009081526007602052604090206107d290336133fc565b6001600160a01b038083166000908152600c60209081526040808320938516835260109093018152828220805484518184028101840190955280855260609493919290919084015b828210156109665783829060005260206000200180546108d99061405f565b80601f01602080910402602001604051908101604052809291908181526020018280546109059061405f565b80156109525780601f1061092757610100808354040283529160200191610952565b820191906000526020600020905b81548152906001019060200180831161093557829003601f168201915b5050505050815260200190600101906108ba565b5050505090505b92915050565b6001600160a01b038083166000908152600c60209081526040808320938516835260109093018152828220805484518184028101840190955280855260609493919290919084015b828210156109665783829060005260206000200180546109da9061405f565b80601f0160208091040260200160405190810160405280929190818152602001828054610a069061405f565b8015610a535780601f10610a2857610100808354040283529160200191610a53565b820191906000526020600020905b815481529060010190602001808311610a3657829003601f168201915b5050505050815260200190600101906109bb565b6001600160a01b0381166000908152600f60205260408120600681015482918291829182918291606091829184918391839183919060ff16610ae85760405162461bcd60e51b815260206004820152601560248201527414185d1a1bdb1bd9da5cdd081b9bdd08199bdd5b99605a1b60448201526064015b60405180910390fd5b8054600182015460028301546003840154600485015460058601546001600160a01b0390951694610b1b60078801613418565b8760090188600a015489600b018a600c0154610b398c600e01613418565b84805480602002602001604051908101604052809291908181526020016000905b82821015610c06578382906000526020600020018054610b799061405f565b80601f0160208091040260200160405190810160405280929190818152602001828054610ba59061405f565b8015610bf25780601f10610bc757610100808354040283529160200191610bf2565b820191906000526020600020905b815481529060010190602001808311610bd557829003601f168201915b505050505081526020019060010190610b5a565b505050509450828054610c189061405f565b80601f0160208091040260200160405190810160405280929190818152602001828054610c449061405f565b8015610c915780601f10610c6657610100808354040283529160200191610c91565b820191906000526020600020905b815481529060010190602001808311610c7457829003601f168201915b505050505092509c509c509c509c509c509c509c509c509c509c509c509c505091939597999b5091939597999b565b6001336000908152600a602052604090205403610cf357336000908152600c60205260409020600e016107d282826140e3565b6002336000908152600a602052604090205403610d2657336000908152600f60205260409020600b016107d282826140e3565b6005336000908152600a602052604090205403610d5957336000908152600b602052604090206011016107d282826140e3565b6004336000908152600a602052604090205403610d8c573360009081526011602052604090206009016107d282826140e3565b6003336000908152600a602052604090205403610dbf573360009081526010602052604090206009016107d282826140e3565b6006336000908152600a602052604090205403610df257336000908152600e602052604090206004016107d282826140e3565b60405162461bcd60e51b815260206004820152602a60248201527f596f7520646f6e2774206164642070726f66696c652070696320696e20746869604482015269039901032b73a34ba3c960b51b6064820152608401610adf565b6001600160a01b03811660009081526009602052604081205481908190421015610eaf576001600160a01b038416600090815260096020526040902054915062015180610e9a42846141b9565b610ea491906141cc565b905060019250610eb9565b5060009150819050805b9193909250565b6005336000908152600a602052604090205403610fa557336000908152600b602052604090206008018054610ef7906001906141b9565b81548110610f0757610f076141ee565b90600052602060002001600b6000336001600160a01b03166001600160a01b031681526020019081526020016000206008018381548110610f4a57610f4a6141ee565b906000526020600020019081610f609190614204565b50336000908152600b60205260409020600801805480610f8257610f826142df565b600190038181906000526020600020016000610f9e919061363a565b90556107d2565b6001336000908152600a60205260409020540361108d57336000908152600c602090815260408083206001600160a01b038516845260100190915290208054610ff0906001906141b9565b81548110611000576110006141ee565b60009182526020808320338452600c825260408085206001600160a01b038716865260100190925292208054929091019184908110611041576110416141ee565b9060005260206000200190816110579190614204565b50336000908152600c602090815260408083206001600160a01b03851684526010019091529020805480610f8257610f826142df565b6002336000908152600a6020526040902054036107d257336000908152600c602090815260408083206001600160a01b0385168452601001909152902080546110d8906001906141b9565b815481106110e8576110e86141ee565b60009182526020808320338452600f825260408085206001600160a01b0387168652600d0190925292208054929091019184908110611129576111296141ee565b90600052602060002001908161113f9190614204565b50336000908152600f602090815260408083206001600160a01b0385168452600d019091529020805480611175576111756142df565b600190038181906000526020600020016000611191919061363a565b90555050565b336000818152600e602052604090206005015460ff16156111ca5760405162461bcd60e51b8152600401610adf906142f5565b6001600160a01b03166000818152600e6020908152604080832080546001600160a01b0319169094178455600180850197909755600284019590955560038301939093556005909101805460ff1916909417909355600a9052902060069055565b3360008181526010602052604090206006015460ff161561125e5760405162461bcd60e51b8152600401610adf906142f5565b6001600160a01b038116600081815260106020908152604080832080546001600160a01b031916909417845560018085018b9055600285018a905560038086018a905560048087018a90556005870189905560068701805460ff1916909317909255600a909352908320919091557326b2b234b1b0b6102932b9b2b0b931b4102630b160611b60088401558154640100000000900460ff1691906113018361432c565b91906101000a81548160ff021916908360ff1602179055505050505050505050565b6001600160a01b0381166000908152600a6020526040812054806113475792915050565b600181036113555792915050565b600581036113635792915050565b600281036113715792915050565b6003810361137f5792915050565b6004810361138d5792915050565b6006810361139b5792915050565b60405162461bcd60e51b815260206004820152601360248201527224b73b30b4b6321029ba30b5b2b437b63232b960691b6044820152606401610adf565b50919050565b6001600160a01b0381166000908152600c60205260408120600a81015482918291829182918291829182916060918391829160ff166114535760405162461bcd60e51b815260206004820152601060248201526f111bd8dd1bdc881b9bdd08199bdd5b9960821b6044820152606401610adf565b8054600182015460028301546003840154600485015460058601546006870154600d880154600f89015460138a0154600e8b0180546001600160a01b03909b169a9092919083906114a39061405f565b80601f01602080910402602001604051908101604052809291908181526020018280546114cf9061405f565b801561151c5780601f106114f15761010080835404028352916020019161151c565b820191906000526020600020905b8154815290600101906020018083116114ff57829003601f168201915b505050505092509b509b509b509b509b509b509b509b509b509b509b505091939597999b90929496989a50565b6002336000908152600a6020526040902054036115985760008054600160381b900460ff1690600761157a8361432c565b91906101000a81548160ff021916908360ff1602179055505061167b565b6001336000908152600a6020526040902054036115cc57600080546601000000000000900460ff1690600661157a8361432c565b6005336000908152600a6020526040902054036115ff576000805465010000000000900460ff1690600561157a8361432c565b6003336000908152600a6020526040902054036116305760008054600160481b900460ff1690600961157a8361432c565b6004336000908152600a60205260409020540361167b5760008054600160401b900460ff169060086116618361432c565b91906101000a81548160ff021916908360ff160217905550505b3360009081526009602052604090205442908110156116c25733600090815260096020526040812080546301e1338092906116b790849061434b565b909155506107d49050565b6116d0816301e1338061434b565b3360009081526009602052604090205550565b3360008181526011602052604090206006015460ff16156117165760405162461bcd60e51b8152600401610adf906142f5565b6001600160a01b038116600081815260116020908152604080832080546001600160a01b031916909417845560018085018b9055600285018a905560038086018a905560048087018a90556005870189905560068701805460ff1916909317909255600a909352908320556f506861726d61637920436f6d70616e7960801b600784015581546301000000900460ff1691906113018361432c565b3360009081526006602052604090206060906117cc90613418565b905090565b6001336000908152600a602052604090205403611ab457336000908152600c60205260409020600a015460ff166118415760405162461bcd60e51b8152602060048201526014602482015273111bd8dd1bdc88191bd95cdb89dd08195e1a5cdd60621b6044820152606401610adf565b60026001600160a01b0383166000908152600a60205260409020540361194e5760005b81518110156118d957336000908152600c602090815260408083206001600160a01b0387168452601001909152902082518390839081106118a7576118a76141ee565b602090810291909101810151825460018101845560009384529190922001906118d090826140e3565b50600101611864565b50336000908152600c602052604081206118f69060110184613425565b156118ff575060015b8061194857336000908152600c602052604090206119209060110184613447565b506001600160a01b0383166000908152600f6020526040902061194690600e0133613447565b505b506107d2565b60056001600160a01b0383166000908152600a602052604090205403611a595760005b81518110156119e657336000908152600c602090815260408083206001600160a01b0387168452601001909152902082518390839081106119b4576119b46141ee565b602090810291909101810151825460018101845560009384529190922001906119dd90826140e3565b50600101611971565b50336000908152600c6020526040812090611a04600b830185613425565b15611a0d575060015b8061194657336000908152600c60205260409020611a2e90600b0185613447565b506001600160a01b0384166000908152600260205260409020611a519033613447565b5050506107d2565b60405162461bcd60e51b815260206004820152602a60248201527f596f752063616e27742061646420707265736372697074696f6e20666f72207460448201526968697320656e7469747960b01b6064820152608401610adf565b6005336000908152600a602052604090205403611b8c57336000908152600b602052604090206006015460ff16611b255760405162461bcd60e51b815260206004820152601560248201527414185d1a595b9d08191bd95cdb89dd08195e1a5cdd605a1b6044820152606401610adf565b60005b815181101561194857336000908152600b602052604090208251600890910190839083908110611b5a57611b5a6141ee565b60209081029190910181015182546001810184556000938452919092200190611b8390826140e3565b50600101611b28565b6002336000908152600a602052604090205403611d0a57336000908152600f602052604090206006015460ff16611c055760405162461bcd60e51b815260206004820152601960248201527f506174686f6c6f6769737420646f65736e2774206578697374000000000000006044820152606401610adf565b60016001600160a01b0383166000908152600a602052604090205403611a595760005b8151811015611c9d57336000908152600f602090815260408083206001600160a01b0387168452600d0190915290208251839083908110611c6b57611c6b6141ee565b60209081029190910181015182546001810184556000938452919092200190611c9490826140e3565b50600101611c28565b50336000908152600f60205260408120611cba90600e0184613425565b15611cc3575060015b80611948576001600160a01b0383166000908152600c60205260409020611ced9060110133613447565b50336000908152600f6020526040902061194690600e0184613447565b60036001600160a01b0383166000908152600a602052604090205403611a595760005b81518110156119485760106000846001600160a01b03166001600160a01b03168152602001908152602001600020600701828281518110611d7057611d706141ee565b60209081029190910181015182546001810184556000938452919092200190611d9990826140e3565b50600101611d2d565b6040805160c081018252600080825260208083018290528284018290526060808401839052608084015260a083018290526001600160a01b0385168252600e9052919091206005015460ff16611dfa57611dfa61435e565b6001600160a01b038083166000908152600e6020908152604091829020825160c0810184528154909416845260018101549184019190915260028101549183019190915260038101546060830152600481018054608084019190611e5d9061405f565b80601f0160208091040260200160405190810160405280929190818152602001828054611e899061405f565b8015611ed65780601f10611eab57610100808354040283529160200191611ed6565b820191906000526020600020905b815481529060010190602001808311611eb957829003601f168201915b50505091835250506005919091015460ff16151560209091015292915050565b336000908152601160209081526040822060080180546001810182559083529120016107d282826140e3565b3360009081526007602052604090206060906117cc90613418565b6001600160a01b038083166000908152600f602090815260408083209385168352600d9093018152828220805484518184028101840190955280855260609493919290919084015b82821015610966578382906000526020600020018054611fa49061405f565b80601f0160208091040260200160405190810160405280929190818152602001828054611fd09061405f565b801561201d5780601f10611ff25761010080835404028352916020019161201d565b820191906000526020600020905b81548152906001019060200180831161200057829003601f168201915b505050505081526020019060010190611f85565b336000818152600c60205260409020600a015460ff16156120645760405162461bcd60e51b8152600401610adf906142f5565b6001600160a01b0381166000818152600c6020908152604080832080546001600160a01b031916909417845560018085018d9055600285018c9055600385018b9055600485018a90556005850189905560068501889055652237b1ba37b960d11b600d860155600a808601805460ff1916831790559092528220819055600f83018590558154610100900460ff1691906120fd8361432c565b91906101000a81548160ff021916908360ff16021790555050505050505050505050565b6001600160a01b0381166000908152600b60209081526040808320600801805482518185028101850190935280835260609492939192909184015b8282101561220857838290600052602060002001805461217b9061405f565b80601f01602080910402602001604051908101604052809291908181526020018280546121a79061405f565b80156121f45780601f106121c9576101008083540402835291602001916121f4565b820191906000526020600020905b8154815290600101906020018083116121d757829003601f168201915b50505050508152602001906001019061215c565b505050509050919050565b60408051610160810182526000808252602080830182905282840182905260608084018390526080840183905260a0840183905260c0840183905260e08401839052610100840181905261012084015261014083018290526001600160a01b038516825260119052919091206006015460ff166122925761229261435e565b6001600160a01b038083166000908152601160209081526040808320815161016081018352815490951685526001810154858401526002810154858301526003810154606086015260048101546080860152600581015460a0860152600681015460ff16151560c0860152600781015460e0860152600881018054835181860281018601909452808452919461010087019491929184015b828210156123d65783829060005260206000200180546123499061405f565b80601f01602080910402602001604051908101604052809291908181526020018280546123759061405f565b80156123c25780601f10612397576101008083540402835291602001916123c2565b820191906000526020600020905b8154815290600101906020018083116123a557829003601f168201915b50505050508152602001906001019061232a565b5050505081526020016009820180546123ee9061405f565b80601f016020809104026020016040519081016040528092919081815260200182805461241a9061405f565b80156124675780601f1061243c57610100808354040283529160200191612467565b820191906000526020600020905b81548152906001019060200180831161244a57829003601f168201915b50505050508152602001600a820154815250509050919050565b3360009081526002602052604090206060906117cc90613418565b6001600160a01b0381166000908152600c60205260409020600a81015460609182918291829160ff166125045760405162461bcd60e51b815260206004820152601060248201526f111bd8dd1bdc881b9bdd08199bdd5b9960821b6044820152606401610adf565b61251081600701613418565b8160090161252083600b01613418565b61252c84601101613418565b82805480602002602001604051908101604052809291908181526020016000905b828210156125f957838290600052602060002001805461256c9061405f565b80601f01602080910402602001604051908101604052809291908181526020018280546125989061405f565b80156125e55780601f106125ba576101008083540402835291602001916125e5565b820191906000526020600020905b8154815290600101906020018083116125c857829003601f168201915b50505050508152602001906001019061254d565b5050505092509450945094509450509193509193565b336000818152600b602052604090206006015460ff16156126805760405162461bcd60e51b815260206004820152602560248201527f596f75206861766520616c7265616479206372656174656420796f75722070726044820152646f66696c6560d81b6064820152608401610adf565b6001600160a01b0381166000818152600b6020908152604080832080546001600160a01b031916909417845560018085018d9055600285018c9055600385018b9055600485018a9055600a9092528220600590819055830187905560068301805460ff191690911790556614185d1a595b9d60ca1b60078301556012820185905560138201849055805460ff1690806120fd8361432c565b6040805160a0810182526000808252602080830182905282840182905260608301829052608083018290526001600160a01b0385168252600a9052919091205460001981016127bf576001600160a01b038084166000908152600c6020908152604091829020825160a081018452600d82015481528154909416918401919091526001810154918301919091526002810154606083015260130154608082015291506113d9565b60038103612825576001600160a01b03808416600090815260106020908152604091829020825160a0810184526008820154815281549094169184019190915260018101549183019190915260028101546060830152600a0154608082015291506113d9565b600481036113d95750506001600160a01b03908116600090815260116020908152604091829020825160a0810184526007820154815281549094169184019190915260018101549183019190915260028101546060830152600a0154608082015290565b61292c604080516101a081018252600080825260208083018290528284018290526060808401839052608080850184905260a080860185905260c080870186905260e080880187905261010080890186905289519081018a52878152958601879052978501869052928401859052908301849052820183905281018290529283015290610120820190815260606020820181905260006040830181905291015290565b6001600160a01b0382166000908152600b602052604090206006015460ff166129575761295761435e565b6001600160a01b038083166000908152600b6020908152604080832081516101a081018352815490951685526001810154858401526002810154858301526003810154606086015260048101546080860152600581015460a0860152600681015460ff16151560c0860152600781015460e0860152600881018054835181860281018601909452808452919461010087019491929184015b82821015612a9b578382906000526020600020018054612a0e9061405f565b80601f0160208091040260200160405190810160405280929190818152602001828054612a3a9061405f565b8015612a875780601f10612a5c57610100808354040283529160200191612a87565b820191906000526020600020905b815481529060010190602001808311612a6a57829003601f168201915b5050505050815260200190600101906129ef565b5050505081526020016009820160405180610100016040529081600082015481526020016001820154815260200160028201548152602001600382015481526020016004820154815260200160058201548152602001600682015481526020016007820154815250508152602001601182018054612b189061405f565b80601f0160208091040260200160405190810160405280929190818152602001828054612b449061405f565b8015612b915780601f10612b6657610100808354040283529160200191612b91565b820191906000526020600020905b815481529060010190602001808311612b7457829003601f168201915b50505050508152602001601282015481526020016013820154815250509050919050565b336000818152600f602052604090206006015460ff1615612be85760405162461bcd60e51b8152600401610adf906142f5565b6001600160a01b0381166000818152600f6020908152604080832080546001600160a01b031916909417845560018085018d905560028086018d9055600386018c9055600486018b9055600586018a9055600a9384905291842082905560068501805460ff191690911790556a14185d1a1bdb1bd9da5cdd60aa1b91840191909155600c830186905560108301859055815462010000900460ff1691906120fd8361432c565b6005336000908152600a602052604090205403612ec85760016001600160a01b0382166000908152600a602052604090205403612daa576001600160a01b0381166000908152600c6020526040812090612ceb6007830133613425565b15612cf4575060015b8015612d5c5760405162461bcd60e51b815260206004820152603160248201527f4461746120616c726561647920736861726564202077697468207468697320646044820152706f63746f7220666f72203220686f75727360781b6064820152608401610adf565b612d6842611c2061434b565b33600081815260086020526040902091909155612d89906007840190613447565b50336000908152600360205260409020612da39084613447565b505b505050565b60066001600160a01b0382166000908152600a602052604090205403612e71576001600160a01b0381166000908152600160205260408120612dec9033613425565b15612df5575060015b8015612e4f5760405162461bcd60e51b815260206004820152602360248201527f4461746120616c7265616479207368617265642077697468207468697320616460448201526236b4b760e91b6064820152608401610adf565b6001600160a01b0382166000908152600160205260409020612da59033613447565b60405162461bcd60e51b815260206004820152602660248201527f496e76616c696420656e74697479206f72207472616e73666572206e6f7420616044820152651b1b1bddd95960d21b6064820152608401610adf565b6006336000908152600a6020526040902054036107d45760036001600160a01b0382166000908152600a602052604090205403612fc1576001600160a01b0381166000908152600660205260408120612f219033613425565b15612f2a575060015b8015612f935760405162461bcd60e51b815260206004820152603260248201527f4461746120616c72656164792073686172656420776974682074686973206d656044820152713234b1b0b6103932b9b2b0b931b4103630b160711b6064820152608401610adf565b6001600160a01b0382166000908152600660205260409020612fb59033613447565b50612da5600483613447565b60046001600160a01b0382166000908152600a602052604090205403612e71576001600160a01b03811660009081526007602052604081206130039033613425565b1561300c575060015b80156130715760405162461bcd60e51b815260206004820152602e60248201527f4461746120616c7265616479207368617265642077697468207468697320706860448201526d61726d61637920636f6d70616e7960901b6064820152608401610adf565b6001600160a01b0382166000908152600760205260409020612fb59033613447565b3360009081526003602052604090206060906117cc90613418565b6005336000908152600a6020526040902054036131f05760005b3360009081526003602052604090206130e09061345c565b8110156107d45733600090815260036020526040812042916008916131059085613466565b6001600160a01b03166001600160a01b0316815260200190815260200160002054116131e85733600090815260036020526040902061315d906131489083613466565b336000908152600360205260409020906133fc565b506001336000908152600360205260408120600a919061317d9085613466565b6001600160a01b03166001600160a01b0316815260200190815260200160002054036131e8573360008181526003602052604081206131e69291600c916131c49086613466565b6001600160a01b031681526020810191909152604001600020600701906133fc565b505b6001016130c8565b565b60408051610160810182526000808252602080830182905282840182905260608084018390526080840183905260a0840183905260c0840183905260e08401819052610100840183905261012084015261014083018290526001600160a01b038516825260109052919091206006015460ff166132715761327161435e565b6001600160a01b038083166000908152601060209081526040808320815161016081018352815490951685526001810154858401526002810154858301526003810154606086015260048101546080860152600581015460a0860152600681015460ff16151560c0860152600781018054835181860281018601909452808452919460e087019491929184015b828210156133aa57838290600052602060002001805461331d9061405f565b80601f01602080910402602001604051908101604052809291908181526020018280546133499061405f565b80156133965780601f1061336b57610100808354040283529160200191613396565b820191906000526020600020905b81548152906001019060200180831161337957829003601f168201915b5050505050815260200190600101906132fe565b505050508152602001600882015481526020016009820180546123ee9061405f565b60606117cc6004613418565b6001600160a01b038116600090815260016020526040902060609061096d90613418565b6000613411836001600160a01b038416613472565b9392505050565b6060600061341183613565565b6001600160a01b03811660009081526001830160205260408120541515613411565b6000613411836001600160a01b0384166135c1565b600061096d825490565b60006134118383613610565b6000818152600183016020526040812054801561355b5760006134966001836141b9565b85549091506000906134aa906001906141b9565b905080821461350f5760008660000182815481106134ca576134ca6141ee565b90600052602060002001549050808760000184815481106134ed576134ed6141ee565b6000918252602080832090910192909255918252600188019052604090208390555b8554869080613520576135206142df565b60019003818190600052602060002001600090559055856001016000868152602001908152602001600020600090556001935050505061096d565b600091505061096d565b6060816000018054806020026020016040519081016040528092919081815260200182805480156135b557602002820191906000526020600020905b8154815260200190600101908083116135a1575b50505050509050919050565b60008181526001830160205260408120546136085750815460018181018455600084815260208082209093018490558454848252828601909352604090209190915561096d565b50600061096d565b6000826000018281548110613627576136276141ee565b9060005260206000200154905092915050565b5080546136469061405f565b6000825580601f10613656575050565b601f0160209004906000526020600020908101906107d491905b808211156136845760008155600101613670565b5090565b80356001600160a01b038116811461369f57600080fd5b919050565b6000602082840312156136b657600080fd5b61341182613688565b600080604083850312156136d257600080fd5b6136db83613688565b91506136e960208401613688565b90509250929050565b6000815180845260005b81811015613718576020818501810151868301820152016136fc565b506000602082860101526020601f19601f83011685010191505092915050565b60008282518085526020808601955060208260051b8401016020860160005b8481101561378557601f198684030189526137738383516136f2565b98840198925090830190600101613757565b5090979650505050505050565b6020815260006134116020830184613738565b60008151808452602080850194506020840160005b838110156137df5781516001600160a01b0316875295820195908201906001016137ba565b509495945050505050565b600061018060018060a01b038f1683528d60208401528c60408401528b60608401528a60808401528960a08401528060c084015261382a8184018a6137a5565b905082810360e084015261383e8189613738565b90508661010084015282810361012084015261385a81876136f2565b90508461014084015282810361016084015261387681856137a5565b9f9e505050505050505050505050505050565b634e487b7160e01b600052604160045260246000fd5b604051601f8201601f1916810167ffffffffffffffff811182821017156138c8576138c8613889565b604052919050565b600082601f8301126138e157600080fd5b813567ffffffffffffffff8111156138fb576138fb613889565b61390e601f8201601f191660200161389f565b81815284602083860101111561392357600080fd5b816020850160208301376000918101602001919091529392505050565b60006020828403121561395257600080fd5b813567ffffffffffffffff81111561396957600080fd5b613975848285016138d0565b949350505050565b6000806040838503121561399057600080fd5b823591506136e960208401613688565b6000806000606084860312156139b557600080fd5b505081359360208301359350604090920135919050565b600080600080600060a086880312156139e457600080fd5b505083359560208501359550604085013594606081013594506080013592509050565b600061016060018060a01b038e1683528c60208401528b60408401528a60608401528960808401528860a08401528760c08401528660e084015280610100840152613a54818401876136f2565b610120840195909552505061014001529998505050505050505050565b60208152600061341160208301846137a5565b60008060408385031215613a9757600080fd5b613aa083613688565b915060208084013567ffffffffffffffff80821115613abe57600080fd5b818601915086601f830112613ad257600080fd5b813581811115613ae457613ae4613889565b8060051b613af385820161389f565b918252838101850191858101908a841115613b0d57600080fd5b86860192505b83831015613b4957823585811115613b2b5760008081fd5b613b398c89838a01016138d0565b8352509186019190860190613b13565b809750505050505050509250929050565b6020815260018060a01b0382511660208201526020820151604082015260408201516060820152606082015160808201526000608083015160c060a0840152613ba660e08401826136f2565b905060a0840151151560c08401528091505092915050565b600080600080600080600060e0888a031215613bd957600080fd5b505085359760208701359750604087013596606081013596506080810135955060a0810135945060c0013592509050565b600080600080600080600080610100898b031215613c2757600080fd5b505086359860208801359850604088013597606081013597506080810135965060a0810135955060c0810135945060e0013592509050565b815160ff16815261014081016020830151613c7f602084018260ff169052565b506040830151613c94604084018260ff169052565b506060830151613ca9606084018260ff169052565b506080830151613cbe608084018260ff169052565b5060a0830151613cd360a084018260ff169052565b5060c0830151613ce860c084018260ff169052565b5060e0830151613cfd60e084018260ff169052565b506101008381015160ff908116918401919091526101209384015116929091019190915290565b60008282518085526020808601955060208260051b8401016020860160005b8481101561378557601f19868403018952613d5f8383516136f2565b98840198925090830190600101613d43565b60208152613d8b6020820183516001600160a01b03169052565b602082015160408201526040820151606082015260608201516080820152608082015160a082015260a082015160c0820152600060c0830151613dd260e084018215159052565b5060e083015161010083810191909152830151610160610120808501829052613dff610180860184613d24565b9250808601519050610140601f198685030181870152613e1f84836136f2565b9601519190940152509192915050565b608081526000613e4260808301876137a5565b8281036020840152613e548187613738565b90508281036040840152613e6881866137a5565b90508281036060840152613e7c81856137a5565b979650505050505050565b60208152613ea16020820183516001600160a01b03169052565b602082015160408201526040820151606082015260608201516080820152608082015160a082015260a082015160c0820152600060c0830151613ee860e084018215159052565b5060e083015161010083810191909152830151610280610120808501829052613f156102a0860184613d24565b90860151909250610140613f7486820183805182526020810151602083015260408101516040830152606081015160608301526080810151608083015260a081015160a083015260c081015160c083015260e081015160e08301525050565b860151858403601f19016102408701529050613f9083826136f2565b610160870151610260870152610180909601519190940152509192915050565b60208152613fca6020820183516001600160a01b03169052565b602082015160408201526040820151606082015260608201516080820152608082015160a082015260a082015160c0820152600060c083015161401160e084018215159052565b5060e08301516101606101008181860152614030610180860184613d24565b9250808601519050610120818187015280870151915050610140601f198685030181870152613e1f84836136f2565b600181811c9082168061407357607f821691505b6020821081036113d957634e487b7160e01b600052602260045260246000fd5b601f821115612da5576000816000526020600020601f850160051c810160208610156140bc5750805b601f850160051c820191505b818110156140db578281556001016140c8565b505050505050565b815167ffffffffffffffff8111156140fd576140fd613889565b6141118161410b845461405f565b84614093565b602080601f831160018114614146576000841561412e5750858301515b600019600386901b1c1916600185901b1785556140db565b600085815260208120601f198616915b8281101561417557888601518255948401946001909101908401614156565b50858210156141935787850151600019600388901b60f8161c191681555b5050505050600190811b01905550565b634e487b7160e01b600052601160045260246000fd5b8181038181111561096d5761096d6141a3565b6000826141e957634e487b7160e01b600052601260045260246000fd5b500490565b634e487b7160e01b600052603260045260246000fd5b81810361420f575050565b614219825461405f565b67ffffffffffffffff81111561423157614231613889565b61423f8161410b845461405f565b6000601f821160018114614273576000831561425b5750848201545b600019600385901b1c1916600184901b1784556142d8565b600085815260209020601f19841690600086815260209020845b838110156142ad578286015482556001958601959091019060200161428d565b50858310156142cb5781850154600019600388901b60f8161c191681555b50505060018360011b0184555b5050505050565b634e487b7160e01b600052603160045260246000fd5b6020808252601f908201527f596f7520616c72656164792063726561746520796f75722070726f66696c6500604082015260600190565b600060ff821660ff8103614342576143426141a3565b60010192915050565b8082018082111561096d5761096d6141a3565b634e487b7160e01b600052600160045260246000fdfea264697066735822122094c2f2bd25d40dbf575baedf5e323a7467b3369588bb2eb9c83603a6fe46c4e664736f6c63430008180033",
  "linkReferences": {},
  "deployedLinkReferences": {}
}