{
  "contracts/PatientDataManagement.sol": {
    "PatientIdentity": {
      "abi": [
        {
          "inputs": [
            {
              "internalType": "address",
              "name": "useraddress",
              "type": "address"
            }
          ],
          "name": "ConnectedAccountType",
          "outputs": [
            {
              "internalType": "uint256",
              "name": "",
              "type": "uint256"
            }
          ],
          "stateMutability": "view",
          "type": "function"
        },
        {
          "inputs": [
            {
              "internalType": "address",
              "name": "",
              "type": "address"
            }
          ],
          "name": "accounts",
          "outputs": [
            {
              "internalType": "uint256",
              "name": "",
              "type": "uint256"
            }
          ],
          "stateMutability": "view",
          "type": "function"
        },
        {
          "inputs": [
            {
              "internalType": "address",
              "name": "_user",
              "type": "address"
            },
            {
              "internalType": "string[]",
              "name": "url",
              "type": "string[]"
            }
          ],
          "name": "addPrescription",
          "outputs": [],
          "stateMutability": "nonpayable",
          "type": "function"
        },
        {
          "inputs": [
            {
              "internalType": "string",
              "name": "url",
              "type": "string"
            }
          ],
          "name": "addProfilePic",
          "outputs": [],
          "stateMutability": "nonpayable",
          "type": "function"
        },
        {
          "inputs": [
            {
              "internalType": "string",
              "name": "medichine",
              "type": "string"
            }
          ],
          "name": "addTopMedichine",
          "outputs": [],
          "stateMutability": "nonpayable",
          "type": "function"
        },
        {
          "inputs": [],
          "name": "cancelSubscription",
          "outputs": [],
          "stateMutability": "nonpayable",
          "type": "function"
        },
        {
          "inputs": [
            {
              "internalType": "uint256",
              "name": "index",
              "type": "uint256"
            },
            {
              "internalType": "address",
              "name": "_user",
              "type": "address"
            }
          ],
          "name": "deletePrecription",
          "outputs": [],
          "stateMutability": "nonpayable",
          "type": "function"
        },
        {
          "inputs": [
            {
              "internalType": "address",
              "name": "_adminAddress",
              "type": "address"
            }
          ],
          "name": "getAdmin",
          "outputs": [
            {
              "components": [
                {
                  "internalType": "address",
                  "name": "AdminAddress",
                  "type": "address"
                },
                {
                  "internalType": "uint256",
                  "name": "adminID",
                  "type": "uint256"
                },
                {
                  "internalType": "bytes32",
                  "name": "name",
                  "type": "bytes32"
                },
                {
                  "internalType": "bytes32",
                  "name": "gender",
                  "type": "bytes32"
                },
                {
                  "internalType": "string",
                  "name": "profilePic",
                  "type": "string"
                },
                {
                  "internalType": "string[]",
                  "name": "allPrescription",
                  "type": "string[]"
                },
                {
                  "internalType": "bool",
                  "name": "isAdded",
                  "type": "bool"
                }
              ],
              "internalType": "struct PatientIdentity.Admin",
              "name": "",
              "type": "tuple"
            }
          ],
          "stateMutability": "view",
          "type": "function"
        },
        {
          "inputs": [],
          "name": "getAdminData",
          "outputs": [
            {
              "components": [
                {
                  "internalType": "uint8",
                  "name": "totalNumberOfPatient",
                  "type": "uint8"
                },
                {
                  "internalType": "uint8",
                  "name": "totalNumberOfDoctor",
                  "type": "uint8"
                },
                {
                  "internalType": "uint8",
                  "name": "totalNumberOfPathologist",
                  "type": "uint8"
                },
                {
                  "internalType": "uint8",
                  "name": "totalNumberOfPharmacyCompany",
                  "type": "uint8"
                },
                {
                  "internalType": "uint8",
                  "name": "totalNumberOfMedicalResearchLab",
                  "type": "uint8"
                },
                {
                  "internalType": "uint8",
                  "name": "totalNumberOfPremiumPatient",
                  "type": "uint8"
                },
                {
                  "internalType": "uint8",
                  "name": "totalNumberOfPremiumDoctor",
                  "type": "uint8"
                },
                {
                  "internalType": "uint8",
                  "name": "totalNumberOfPremiumPathologist",
                  "type": "uint8"
                },
                {
                  "internalType": "uint8",
                  "name": "totalNumberOfPremiumPharmacyCompany",
                  "type": "uint8"
                },
                {
                  "internalType": "uint8",
                  "name": "totalNumberOfPremiumMedicalResearchLab",
                  "type": "uint8"
                }
              ],
              "internalType": "struct PatientIdentity.AdminData",
              "name": "",
              "type": "tuple"
            }
          ],
          "stateMutability": "view",
          "type": "function"
        },
        {
          "inputs": [
            {
              "internalType": "address",
              "name": "userAddress",
              "type": "address"
            }
          ],
          "name": "getAlluserTypeData",
          "outputs": [
            {
              "components": [
                {
                  "internalType": "bytes32",
                  "name": "userType",
                  "type": "bytes32"
                },
                {
                  "internalType": "address",
                  "name": "userAddress",
                  "type": "address"
                },
                {
                  "internalType": "uint256",
                  "name": "userID",
                  "type": "uint256"
                },
                {
                  "internalType": "bytes32",
                  "name": "username",
                  "type": "bytes32"
                },
                {
                  "internalType": "bytes32",
                  "name": "emailAddress",
                  "type": "bytes32"
                }
              ],
              "internalType": "struct PatientIdentity.commonData",
              "name": "userData",
              "type": "tuple"
            }
          ],
          "stateMutability": "view",
          "type": "function"
        },
        {
          "inputs": [
            {
              "internalType": "address",
              "name": "_doctorAddress",
              "type": "address"
            }
          ],
          "name": "getDoctor",
          "outputs": [
            {
              "internalType": "address",
              "name": "doctorAddress",
              "type": "address"
            },
            {
              "internalType": "uint256",
              "name": "doctorID",
              "type": "uint256"
            },
            {
              "internalType": "bytes32",
              "name": "name",
              "type": "bytes32"
            },
            {
              "internalType": "bytes32",
              "name": "specialty",
              "type": "bytes32"
            },
            {
              "internalType": "uint256",
              "name": "consultationFee",
              "type": "uint256"
            },
            {
              "internalType": "uint256",
              "name": "BMDCNumber",
              "type": "uint256"
            },
            {
              "internalType": "uint256",
              "name": "yearOfExperience",
              "type": "uint256"
            },
            {
              "internalType": "bytes32",
              "name": "userType",
              "type": "bytes32"
            },
            {
              "internalType": "string",
              "name": "profilePic",
              "type": "string"
            },
            {
              "internalType": "bytes32",
              "name": "birthday",
              "type": "bytes32"
            },
            {
              "internalType": "bytes32",
              "name": "emailAddress",
              "type": "bytes32"
            }
          ],
          "stateMutability": "view",
          "type": "function"
        },
        {
          "inputs": [
            {
              "internalType": "address",
              "name": "_doctorAddress",
              "type": "address"
            }
          ],
          "name": "getDoctorAnotherData",
          "outputs": [
            {
              "internalType": "address[]",
              "name": "PatientToDoctor",
              "type": "address[]"
            },
            {
              "internalType": "string[]",
              "name": "patientTest",
              "type": "string[]"
            },
            {
              "internalType": "address[]",
              "name": "TreatedPatient",
              "type": "address[]"
            },
            {
              "internalType": "address[]",
              "name": "pathologist",
              "type": "address[]"
            }
          ],
          "stateMutability": "view",
          "type": "function"
        },
        {
          "inputs": [
            {
              "internalType": "address",
              "name": "_pathoAddress",
              "type": "address"
            },
            {
              "internalType": "address",
              "name": "_doctorAddress",
              "type": "address"
            }
          ],
          "name": "getDoctorDataFromPathologist",
          "outputs": [
            {
              "internalType": "string[]",
              "name": "",
              "type": "string[]"
            }
          ],
          "stateMutability": "view",
          "type": "function"
        },
        {
          "inputs": [
            {
              "internalType": "address",
              "name": "_labAddress",
              "type": "address"
            }
          ],
          "name": "getMedicalResearchLab",
          "outputs": [
            {
              "components": [
                {
                  "internalType": "address",
                  "name": "labAddress",
                  "type": "address"
                },
                {
                  "internalType": "uint256",
                  "name": "labID",
                  "type": "uint256"
                },
                {
                  "internalType": "bytes32",
                  "name": "name",
                  "type": "bytes32"
                },
                {
                  "internalType": "uint256",
                  "name": "licenseID",
                  "type": "uint256"
                },
                {
                  "internalType": "bytes32",
                  "name": "researchArea",
                  "type": "bytes32"
                },
                {
                  "internalType": "uint256",
                  "name": "labRating",
                  "type": "uint256"
                },
                {
                  "internalType": "bool",
                  "name": "isAdded",
                  "type": "bool"
                },
                {
                  "internalType": "string[]",
                  "name": "imgUrl",
                  "type": "string[]"
                },
                {
                  "internalType": "bytes32",
                  "name": "userType",
                  "type": "bytes32"
                },
                {
                  "internalType": "string",
                  "name": "profilePic",
                  "type": "string"
                },
                {
                  "internalType": "bytes32",
                  "name": "emailAddress",
                  "type": "bytes32"
                }
              ],
              "internalType": "struct PatientIdentity.MedicalResearchLab",
              "name": "",
              "type": "tuple"
            }
          ],
          "stateMutability": "view",
          "type": "function"
        },
        {
          "inputs": [
            {
              "internalType": "address",
              "name": "_pathologistAddress",
              "type": "address"
            }
          ],
          "name": "getPathologist",
          "outputs": [
            {
              "internalType": "address",
              "name": "pathologistAddress",
              "type": "address"
            },
            {
              "internalType": "uint256",
              "name": "pathologistID",
              "type": "uint256"
            },
            {
              "internalType": "bytes32",
              "name": "name",
              "type": "bytes32"
            },
            {
              "internalType": "uint256",
              "name": "licenseNumber",
              "type": "uint256"
            },
            {
              "internalType": "bytes32",
              "name": "specializationArea",
              "type": "bytes32"
            },
            {
              "internalType": "uint256",
              "name": "totalExperience",
              "type": "uint256"
            },
            {
              "internalType": "address[]",
              "name": "patientToPathologist",
              "type": "address[]"
            },
            {
              "internalType": "string[]",
              "name": "pathologistTest",
              "type": "string[]"
            },
            {
              "internalType": "bytes32",
              "name": "userType",
              "type": "bytes32"
            },
            {
              "internalType": "string",
              "name": "profilePic",
              "type": "string"
            },
            {
              "internalType": "bytes32",
              "name": "birthday",
              "type": "bytes32"
            },
            {
              "internalType": "address[]",
              "name": "allDoctor",
              "type": "address[]"
            }
          ],
          "stateMutability": "view",
          "type": "function"
        },
        {
          "inputs": [
            {
              "internalType": "address",
              "name": "_doctorAddress",
              "type": "address"
            },
            {
              "internalType": "address",
              "name": "pathoAddress",
              "type": "address"
            }
          ],
          "name": "getPathologistDataFromDoctor",
          "outputs": [
            {
              "internalType": "string[]",
              "name": "",
              "type": "string[]"
            }
          ],
          "stateMutability": "view",
          "type": "function"
        },
        {
          "inputs": [
            {
              "internalType": "address",
              "name": "_patientAddress",
              "type": "address"
            }
          ],
          "name": "getPatient",
          "outputs": [
            {
              "components": [
                {
                  "internalType": "address",
                  "name": "patientAddress",
                  "type": "address"
                },
                {
                  "internalType": "uint256",
                  "name": "patientID",
                  "type": "uint256"
                },
                {
                  "internalType": "bytes32",
                  "name": "name",
                  "type": "bytes32"
                },
                {
                  "internalType": "bytes32",
                  "name": "gender",
                  "type": "bytes32"
                },
                {
                  "internalType": "uint256",
                  "name": "age",
                  "type": "uint256"
                },
                {
                  "internalType": "bytes32",
                  "name": "location",
                  "type": "bytes32"
                },
                {
                  "internalType": "bool",
                  "name": "isAdded",
                  "type": "bool"
                },
                {
                  "internalType": "bytes32",
                  "name": "userType",
                  "type": "bytes32"
                },
                {
                  "internalType": "string[]",
                  "name": "imgUrl",
                  "type": "string[]"
                },
                {
                  "components": [
                    {
                      "internalType": "bytes32",
                      "name": "height",
                      "type": "bytes32"
                    },
                    {
                      "internalType": "bytes32",
                      "name": "Blood",
                      "type": "bytes32"
                    },
                    {
                      "internalType": "bytes32",
                      "name": "PreviousDiseases",
                      "type": "bytes32"
                    },
                    {
                      "internalType": "bytes32",
                      "name": "Medicinedrugs",
                      "type": "bytes32"
                    },
                    {
                      "internalType": "bytes32",
                      "name": "BadHabits",
                      "type": "bytes32"
                    },
                    {
                      "internalType": "bytes32",
                      "name": "ChronicDiseases",
                      "type": "bytes32"
                    },
                    {
                      "internalType": "bytes32",
                      "name": "HealthAllergies",
                      "type": "bytes32"
                    },
                    {
                      "internalType": "bytes32",
                      "name": "BirthDefects",
                      "type": "bytes32"
                    }
                  ],
                  "internalType": "struct PatientIdentity.PatientPersonalData",
                  "name": "patientPersonalData",
                  "type": "tuple"
                },
                {
                  "internalType": "string",
                  "name": "profilePic",
                  "type": "string"
                },
                {
                  "internalType": "bytes32",
                  "name": "birthday",
                  "type": "bytes32"
                },
                {
                  "internalType": "bytes32",
                  "name": "emailAddress",
                  "type": "bytes32"
                }
              ],
              "internalType": "struct PatientIdentity.Patient",
              "name": "",
              "type": "tuple"
            }
          ],
          "stateMutability": "view",
          "type": "function"
        },
        {
          "inputs": [
            {
              "internalType": "address",
              "name": "_doctorAddress",
              "type": "address"
            },
            {
              "internalType": "address",
              "name": "_patientAddress",
              "type": "address"
            }
          ],
          "name": "getPatientDataFromDoctor",
          "outputs": [
            {
              "internalType": "string[]",
              "name": "",
              "type": "string[]"
            }
          ],
          "stateMutability": "view",
          "type": "function"
        },
        {
          "inputs": [
            {
              "internalType": "address",
              "name": "userAddress",
              "type": "address"
            }
          ],
          "name": "getPatientToAdmin",
          "outputs": [
            {
              "internalType": "address[]",
              "name": "",
              "type": "address[]"
            }
          ],
          "stateMutability": "view",
          "type": "function"
        },
        {
          "inputs": [],
          "name": "getPatientToPharmacy",
          "outputs": [
            {
              "internalType": "address[]",
              "name": "",
              "type": "address[]"
            }
          ],
          "stateMutability": "view",
          "type": "function"
        },
        {
          "inputs": [],
          "name": "getPersonalDoctor",
          "outputs": [
            {
              "internalType": "address[]",
              "name": "",
              "type": "address[]"
            }
          ],
          "stateMutability": "view",
          "type": "function"
        },
        {
          "inputs": [
            {
              "internalType": "address",
              "name": "_pharmacyCompanyAddress",
              "type": "address"
            }
          ],
          "name": "getPharmacyCompany",
          "outputs": [
            {
              "components": [
                {
                  "internalType": "address",
                  "name": "pharmacyCompanyAddress",
                  "type": "address"
                },
                {
                  "internalType": "uint256",
                  "name": "companyID",
                  "type": "uint256"
                },
                {
                  "internalType": "bytes32",
                  "name": "name",
                  "type": "bytes32"
                },
                {
                  "internalType": "uint256",
                  "name": "licenseID",
                  "type": "uint256"
                },
                {
                  "internalType": "bytes32",
                  "name": "productInformation",
                  "type": "bytes32"
                },
                {
                  "internalType": "uint256",
                  "name": "pharmacyRating",
                  "type": "uint256"
                },
                {
                  "internalType": "bool",
                  "name": "isAdded",
                  "type": "bool"
                },
                {
                  "internalType": "bytes32",
                  "name": "userType",
                  "type": "bytes32"
                },
                {
                  "internalType": "string[]",
                  "name": "TopMedichine",
                  "type": "string[]"
                },
                {
                  "internalType": "string",
                  "name": "profilePic",
                  "type": "string"
                },
                {
                  "internalType": "bytes32",
                  "name": "emailAddress",
                  "type": "bytes32"
                }
              ],
              "internalType": "struct PatientIdentity.PharmacyCompany",
              "name": "",
              "type": "tuple"
            }
          ],
          "stateMutability": "view",
          "type": "function"
        },
        {
          "inputs": [
            {
              "internalType": "address",
              "name": "subscriber",
              "type": "address"
            }
          ],
          "name": "getSubscriptionStatus",
          "outputs": [
            {
              "internalType": "bool",
              "name": "isSubscription",
              "type": "bool"
            },
            {
              "internalType": "uint256",
              "name": "expiration",
              "type": "uint256"
            },
            {
              "internalType": "uint256",
              "name": "daysLeft",
              "type": "uint256"
            }
          ],
          "stateMutability": "view",
          "type": "function"
        },
        {
          "inputs": [
            {
              "internalType": "address",
              "name": "user",
              "type": "address"
            }
          ],
          "name": "getSubscriptionTransactions",
          "outputs": [
            {
              "internalType": "string[]",
              "name": "",
              "type": "string[]"
            }
          ],
          "stateMutability": "view",
          "type": "function"
        },
        {
          "inputs": [],
          "name": "getadminToMedRcLab",
          "outputs": [
            {
              "internalType": "address[]",
              "name": "",
              "type": "address[]"
            }
          ],
          "stateMutability": "view",
          "type": "function"
        },
        {
          "inputs": [],
          "name": "getsharedAllDoctorAddress",
          "outputs": [
            {
              "internalType": "address[]",
              "name": "",
              "type": "address[]"
            }
          ],
          "stateMutability": "view",
          "type": "function"
        },
        {
          "inputs": [],
          "name": "getsharedAllUsersAddress",
          "outputs": [
            {
              "internalType": "address[]",
              "name": "",
              "type": "address[]"
            }
          ],
          "stateMutability": "view",
          "type": "function"
        },
        {
          "inputs": [
            {
              "internalType": "address",
              "name": "userAddress",
              "type": "address"
            }
          ],
          "name": "revokeAccessData",
          "outputs": [],
          "stateMutability": "nonpayable",
          "type": "function"
        },
        {
          "inputs": [
            {
              "internalType": "uint256",
              "name": "adminID",
              "type": "uint256"
            },
            {
              "internalType": "bytes32",
              "name": "name",
              "type": "bytes32"
            },
            {
              "internalType": "bytes32",
              "name": "gender",
              "type": "bytes32"
            }
          ],
          "name": "setAdmin",
          "outputs": [],
          "stateMutability": "nonpayable",
          "type": "function"
        },
        {
          "inputs": [
            {
              "internalType": "uint256",
              "name": "doctorID",
              "type": "uint256"
            },
            {
              "internalType": "bytes32",
              "name": "name",
              "type": "bytes32"
            },
            {
              "internalType": "bytes32",
              "name": "specialty",
              "type": "bytes32"
            },
            {
              "internalType": "uint256",
              "name": "consultationFee",
              "type": "uint256"
            },
            {
              "internalType": "uint256",
              "name": "BMDCNumber",
              "type": "uint256"
            },
            {
              "internalType": "uint256",
              "name": "yearOfExperience",
              "type": "uint256"
            },
            {
              "internalType": "bytes32",
              "name": "birthday",
              "type": "bytes32"
            }
          ],
          "name": "setDoctor",
          "outputs": [],
          "stateMutability": "nonpayable",
          "type": "function"
        },
        {
          "inputs": [
            {
              "internalType": "uint256",
              "name": "labID",
              "type": "uint256"
            },
            {
              "internalType": "bytes32",
              "name": "name",
              "type": "bytes32"
            },
            {
              "internalType": "uint256",
              "name": "licenseID",
              "type": "uint256"
            },
            {
              "internalType": "bytes32",
              "name": "researchArea",
              "type": "bytes32"
            },
            {
              "internalType": "uint256",
              "name": "labRating",
              "type": "uint256"
            }
          ],
          "name": "setMedicalResearchLab",
          "outputs": [],
          "stateMutability": "nonpayable",
          "type": "function"
        },
        {
          "inputs": [
            {
              "internalType": "uint256",
              "name": "pathologistID",
              "type": "uint256"
            },
            {
              "internalType": "bytes32",
              "name": "name",
              "type": "bytes32"
            },
            {
              "internalType": "uint256",
              "name": "licenseNumber",
              "type": "uint256"
            },
            {
              "internalType": "bytes32",
              "name": "specializationArea",
              "type": "bytes32"
            },
            {
              "internalType": "uint256",
              "name": "totalExperience",
              "type": "uint256"
            },
            {
              "internalType": "bytes32",
              "name": "birthday",
              "type": "bytes32"
            },
            {
              "internalType": "bytes32",
              "name": "emailAddress",
              "type": "bytes32"
            }
          ],
          "name": "setPathologist",
          "outputs": [],
          "stateMutability": "nonpayable",
          "type": "function"
        },
        {
          "inputs": [
            {
              "internalType": "uint256",
              "name": "patientID",
              "type": "uint256"
            },
            {
              "internalType": "bytes32",
              "name": "name",
              "type": "bytes32"
            },
            {
              "internalType": "bytes32",
              "name": "gender",
              "type": "bytes32"
            },
            {
              "internalType": "uint256",
              "name": "age",
              "type": "uint256"
            },
            {
              "internalType": "bytes32",
              "name": "location",
              "type": "bytes32"
            },
            {
              "internalType": "bytes32",
              "name": "birthday",
              "type": "bytes32"
            },
            {
              "internalType": "bytes32",
              "name": "emailAddress",
              "type": "bytes32"
            }
          ],
          "name": "setPatient",
          "outputs": [],
          "stateMutability": "nonpayable",
          "type": "function"
        },
        {
          "inputs": [
            {
              "internalType": "bytes32",
              "name": "height",
              "type": "bytes32"
            },
            {
              "internalType": "bytes32",
              "name": "blood",
              "type": "bytes32"
            },
            {
              "internalType": "bytes32",
              "name": "previousDiseases",
              "type": "bytes32"
            },
            {
              "internalType": "bytes32",
              "name": "medicineDrugs",
              "type": "bytes32"
            },
            {
              "internalType": "bytes32",
              "name": "badHabits",
              "type": "bytes32"
            },
            {
              "internalType": "bytes32",
              "name": "chronicDiseases",
              "type": "bytes32"
            },
            {
              "internalType": "bytes32",
              "name": "healthAllergies",
              "type": "bytes32"
            },
            {
              "internalType": "bytes32",
              "name": "birthDefects",
              "type": "bytes32"
            }
          ],
          "name": "setPatientPersonalData",
          "outputs": [],
          "stateMutability": "nonpayable",
          "type": "function"
        },
        {
          "inputs": [
            {
              "internalType": "uint256",
              "name": "companyID",
              "type": "uint256"
            },
            {
              "internalType": "bytes32",
              "name": "name",
              "type": "bytes32"
            },
            {
              "internalType": "uint256",
              "name": "licenseID",
              "type": "uint256"
            },
            {
              "internalType": "bytes32",
              "name": "productInformation",
              "type": "bytes32"
            },
            {
              "internalType": "uint256",
              "name": "pharmacyRating",
              "type": "uint256"
            }
          ],
          "name": "setPharmacyCompany",
          "outputs": [],
          "stateMutability": "nonpayable",
          "type": "function"
        },
        {
          "inputs": [
            {
              "internalType": "address",
              "name": "useraddress",
              "type": "address"
            }
          ],
          "name": "shareData",
          "outputs": [],
          "stateMutability": "nonpayable",
          "type": "function"
        },
        {
          "inputs": [
            {
              "internalType": "address",
              "name": "patientAddress",
              "type": "address"
            }
          ],
          "name": "showSharedPrescription",
          "outputs": [
            {
              "internalType": "string[]",
              "name": "imageUrl",
              "type": "string[]"
            }
          ],
          "stateMutability": "view",
          "type": "function"
        },
        {
          "inputs": [
            {
              "internalType": "string",
              "name": "TX",
              "type": "string"
            }
          ],
          "name": "subscription",
          "outputs": [],
          "stateMutability": "nonpayable",
          "type": "function"
        },
        {
          "inputs": [
            {
              "internalType": "address",
              "name": "",
              "type": "address"
            }
          ],
          "name": "subscriptionExpiration",
          "outputs": [
            {
              "internalType": "uint256",
              "name": "",
              "type": "uint256"
            }
          ],
          "stateMutability": "view",
          "type": "function"
        }
      ],
      "evm": {
        "bytecode": {
          "linkReferences": {},
          "object": "608060405234801561001057600080fd5b50614592806100206000396000f3fe608060405234801561001057600080fd5b506004361061023d5760003560e01c80636bc071a51161013b5780639c0f1c7c116100b8578063d3701a7b1161007c578063d3701a7b146106f0578063d680288b14610703578063ea8c9e041461070b578063f7332c031461072b578063ff9ffc071461073357600080fd5b80639c0f1c7c1461062e578063abb4d51f14610651578063b12e2e8414610664578063b5368e20146106bd578063b5593251146106dd57600080fd5b80638bb115b7116100ff5780638bb115b71461049c5780638e80e0e0146104f15780638f7a844b146105045780639059229b146106065780639824a07a1461062657600080fd5b80636bc071a5146104485780637e3399681461045b5780638043ce001461046357806380f1310a14610476578063887f6f8d1461048957600080fd5b80632856d1e8116101c957806355da65f41161018d57806355da65f4146103cd5780635842e6e5146103e05780635e5c06e2146103f557806360c61d0c1461041557806364efb22b1461042857600080fd5b80632856d1e81461033c5780632a1ebd011461034f5780632f04e06414610370578063509a5e131461039a57806355bf3b33146103ad57600080fd5b80631a5aa676116102105780631a5aa676146102be5780631ddda9b6146102d15780632138ba841461030157806324e9edb01461031457806327ccc00e1461032957600080fd5b806307eda2cc14610242578063080bc2b1146102575780630b916f141461028057806316ecfa8414610293575b600080fd5b61025561025036600461386d565b610746565b005b61026a610265366004613888565b61085c565b604051610277919061395b565b60405180910390f35b61026a61028e366004613888565b61095d565b6102a66102a136600461386d565b610a51565b6040516102779c9b9a999897969594939291906139b3565b6102556102cc366004613b09565b610caa565b6102e46102df36600461386d565b610e37565b604080519315158452602084019290925290820152606001610277565b61025561030f366004613b46565b610eaa565b61025533600090815260086020526040812055565b610255610337366004613b69565b611181565b61025561034a366004613b95565b611213565b61036261035d36600461386d565b61130b565b604051908152602001610277565b61038361037e36600461386d565b6113c7565b6040516102779b9a99989796959493929190613bd0565b61026a6103a836600461386d565b611531565b6103626103bb36600461386d565b60086020526000908152604090205481565b6102556103db366004613b95565b611620565b6103e86116ee565b6040516102779190613c3a565b61036261040336600461386d565b60096020526000908152604090205481565b610255610423366004613c4d565b61170e565b61043b61043636600461386d565b611ce4565b6040516102779190613d70565b610255610456366004613b09565b611f18565b6103e8611f44565b61026a610471366004613888565b611f5f565b610255610484366004613df3565b612053565b61026a61049736600461386d565b612144565b6102556104aa366004613e3f565b336000908152600a602081905260409091206009810199909955880196909655600b870194909455600c860192909255600d850155600e840155600f830155601090910155565b6102556104ff366004613b09565b61222b565b6105f96040805161014081018252600080825260208201819052918101829052606081018290526080810182905260a0810182905260c0810182905260e08101829052610100810182905261012081019190915250604080516101408101825260005460ff8082168352610100808304821660208501526201000083048216948401949094526301000000820481166060840152640100000000820481166080840152650100000000008204811660a084015266010000000000008204811660c0840152600160381b8204811660e0840152600160401b8204811693830193909352600160481b900490911661012082015290565b6040516102779190613e94565b61061961061436600461386d565b6123f0565b6040516102779190613f59565b6103e861265e565b61064161063c36600461386d565b612679565b6040516102779493929190614017565b61025561065f366004613df3565b6127ec565b61067761067236600461386d565b6128f5565b6040516102779190815181526020808301516001600160a01b03169082015260408083015190820152606080830151908201526080918201519181019190915260a00190565b6106d06106cb36600461386d565b612a66565b604051610277919061406f565b6102556106eb366004613df3565b612d92565b6102556106fe36600461386d565b612e68565b6103e861336c565b61071e61071936600461386d565b613387565b6040516102779190614198565b6103e8613561565b6103e861074136600461386d565b61356d565b600533600090815260096020526040902054036107c1573360009081526003602052604090206107769082613591565b5060016001600160a01b038216600090815260096020526040902054036107be576001600160a01b0381166000908152600b602052604090206107bc9060070133613591565b505b50565b600633600090815260096020526040902054036107be5760036001600160a01b0382166000908152600960205260409020540361081a576001600160a01b03811660009081526006602052604090206107bc9033613591565b60046001600160a01b038216600090815260096020526040902054036107be576001600160a01b03811660009081526007602052604090206107bc9033613591565b6001600160a01b038083166000908152600b60209081526040808320938516835260109093018152828220805484518184028101840190955280855260609493919290919084015b828210156109505783829060005260206000200180546108c390614247565b80601f01602080910402602001604051908101604052809291908181526020018280546108ef90614247565b801561093c5780601f106109115761010080835404028352916020019161093c565b820191906000526020600020905b81548152906001019060200180831161091f57829003601f168201915b5050505050815260200190600101906108a4565b5050505090505b92915050565b6001600160a01b038083166000908152600b60209081526040808320938516835260109093018152828220805484518184028101840190955280855260609493919290919084015b828210156109505783829060005260206000200180546109c490614247565b80601f01602080910402602001604051908101604052809291908181526020018280546109f090614247565b8015610a3d5780601f10610a1257610100808354040283529160200191610a3d565b820191906000526020600020905b815481529060010190602001808311610a2057829003601f168201915b5050505050815260200190600101906109a5565b6001600160a01b0381166000908152600e60205260408120600681015482918291829182918291606091829184918391839183919060ff16610ad25760405162461bcd60e51b815260206004820152601560248201527414185d1a1bdb1bd9da5cdd081b9bdd08199bdd5b99605a1b60448201526064015b60405180910390fd5b8054600182015460028301546003840154600485015460058601546001600160a01b0390951694610b05600788016135ad565b8760090188600a015489600b018a600c0154610b238c600e016135ad565b84805480602002602001604051908101604052809291908181526020016000905b82821015610bf0578382906000526020600020018054610b6390614247565b80601f0160208091040260200160405190810160405280929190818152602001828054610b8f90614247565b8015610bdc5780601f10610bb157610100808354040283529160200191610bdc565b820191906000526020600020905b815481529060010190602001808311610bbf57829003601f168201915b505050505081526020019060010190610b44565b505050509450828054610c0290614247565b80601f0160208091040260200160405190810160405280929190818152602001828054610c2e90614247565b8015610c7b5780601f10610c5057610100808354040283529160200191610c7b565b820191906000526020600020905b815481529060010190602001808311610c5e57829003601f168201915b505050505092509c509c509c509c509c509c509c509c509c509c509c509c505091939597999b5091939597999b565b60013360009081526009602052604090205403610cdd57336000908152600b60205260409020600e016107bc82826142cb565b60023360009081526009602052604090205403610d1057336000908152600e60205260409020600b016107bc82826142cb565b60053360009081526009602052604090205403610d4357336000908152600a602052604090206011016107bc82826142cb565b60043360009081526009602052604090205403610d76573360009081526010602052604090206009016107bc82826142cb565b60033360009081526009602052604090205403610da957336000908152600f602052604090206009016107bc82826142cb565b60063360009081526009602052604090205403610ddc57336000908152600d602052604090206004016107bc82826142cb565b60405162461bcd60e51b815260206004820152602a60248201527f596f7520646f6e2774206164642070726f66696c652070696320696e20746869604482015269039901032b73a34ba3c960b51b6064820152608401610ac9565b6001600160a01b03811660009081526008602052604081205481908190421015610e99576001600160a01b038416600090815260086020526040902054915062015180610e8442846143a1565b610e8e91906143b4565b905060019250610ea3565b5060009150819050805b9193909250565b60053360009081526009602052604090205403610f8f57336000908152600a602052604090206008018054610ee1906001906143a1565b81548110610ef157610ef16143d6565b90600052602060002001600a6000336001600160a01b03166001600160a01b031681526020019081526020016000206008018381548110610f3457610f346143d6565b906000526020600020019081610f4a91906143ec565b50336000908152600a60205260409020600801805480610f6c57610f6c6144c7565b600190038181906000526020600020016000610f88919061378f565b90556107bc565b6001336000908152600960205260409020540361107757336000908152600b602090815260408083206001600160a01b038516845260100190915290208054610fda906001906143a1565b81548110610fea57610fea6143d6565b60009182526020808320338452600b825260408085206001600160a01b03871686526010019092529220805492909101918490811061102b5761102b6143d6565b90600052602060002001908161104191906143ec565b50336000908152600b602090815260408083206001600160a01b03851684526010019091529020805480610f6c57610f6c6144c7565b600233600090815260096020526040902054036107bc57336000908152600b602090815260408083206001600160a01b0385168452601001909152902080546110c2906001906143a1565b815481106110d2576110d26143d6565b60009182526020808320338452600e825260408085206001600160a01b0387168652600d0190925292208054929091019184908110611113576111136143d6565b90600052602060002001908161112991906143ec565b50336000908152600e602090815260408083206001600160a01b0385168452600d01909152902080548061115f5761115f6144c7565b60019003818190600052602060002001600061117b919061378f565b90555050565b336000818152600d602052604090206006015460ff16156111b45760405162461bcd60e51b8152600401610ac9906144dd565b6001600160a01b03166000818152600d6020908152604080832080546001600160a01b0319169094178455600180850197909755600284019590955560038301939093556006918201805460ff19169095179094556009909152912055565b336000818152600f602052604090206006015460ff16156112465760405162461bcd60e51b8152600401610ac9906144dd565b6001600160a01b0381166000818152600f6020908152604080832080546001600160a01b031916909417845560018085018b9055600285018a905560038086018a905560048087018a90556005870189905560068701805460ff19169093179092556009909352908320919091557326b2b234b1b0b6102932b9b2b0b931b4102630b160611b60088401558154640100000000900460ff1691906112e983614514565b91906101000a81548160ff021916908360ff1602179055505050505050505050565b6001600160a01b0381166000908152600960205260408120548061132f5792915050565b6001810361133d5792915050565b6005810361134b5792915050565b600281036113595792915050565b600381036113675792915050565b600481036113755792915050565b600681036113835792915050565b60405162461bcd60e51b815260206004820152601360248201527224b73b30b4b6321029ba30b5b2b437b63232b960691b6044820152606401610ac9565b50919050565b6001600160a01b0381166000908152600b60205260408120600a81015482918291829182918291829182916060918391829160ff1661143b5760405162461bcd60e51b815260206004820152601060248201526f111bd8dd1bdc881b9bdd08199bdd5b9960821b6044820152606401610ac9565b8054600182015460028301546003840154600485015460058601546006870154600d880154600f89015460138a0154600e8b0180546001600160a01b03909b169a90929190839061148b90614247565b80601f01602080910402602001604051908101604052809291908181526020018280546114b790614247565b80156115045780601f106114d957610100808354040283529160200191611504565b820191906000526020600020905b8154815290600101906020018083116114e757829003601f168201915b505050505092509b509b509b509b509b509b509b509b509b509b509b505091939597999b90929496989a50565b6001600160a01b0381166000908152601160209081526040808320805482518185028101850190935280835260609492939192909184015b8282101561161557838290600052602060002001805461158890614247565b80601f01602080910402602001604051908101604052809291908181526020018280546115b490614247565b80156116015780601f106115d657610100808354040283529160200191611601565b820191906000526020600020905b8154815290600101906020018083116115e457829003601f168201915b505050505081526020019060010190611569565b505050509050919050565b3360008181526010602052604090206006015460ff16156116535760405162461bcd60e51b8152600401610ac9906144dd565b6001600160a01b038116600081815260106020908152604080832080546001600160a01b031916909417845560018085018b9055600285018a905560038086018a905560048087018a90556005870189905560068701805460ff19169093179092556009909352908320556f506861726d61637920436f6d70616e7960801b600784015581546301000000900460ff1691906112e983614514565b336000908152600660205260409020606090611709906135ad565b905090565b600133600090815260096020526040902054036119f557336000908152600b60205260409020600a015460ff1661177e5760405162461bcd60e51b8152602060048201526014602482015273111bd8dd1bdc88191bd95cdb89dd08195e1a5cdd60621b6044820152606401610ac9565b60026001600160a01b0383166000908152600960205260409020540361188c5760005b815181101561181657336000908152600b602090815260408083206001600160a01b0387168452601001909152902082518390839081106117e4576117e46143d6565b6020908102919091018101518254600181018455600093845291909220019061180d90826142cb565b506001016117a1565b50336000908152600b6020526040812061183390601101846135ba565b1561183c575060015b8061188657336000908152600b6020526040902061185d90601101846135dc565b506001600160a01b0383166000908152600e602081905260409091206118849101336135dc565b505b506107bc565b60056001600160a01b0383166000908152600960205260409020540361199a5760005b815181101561192457336000908152600b602090815260408083206001600160a01b0387168452601001909152902082518390839081106118f2576118f26143d6565b6020908102919091018101518254600181018455600093845291909220019061191b90826142cb565b506001016118af565b50336000908152600b6020819052604082209190611944908301856135ba565b1561194d575060015b8061188457336000908152600b6020819052604090912061196f9101856135dc565b506001600160a01b038416600090815260026020526040902061199290336135dc565b5050506107bc565b60405162461bcd60e51b815260206004820152602a60248201527f596f752063616e27742061646420707265736372697074696f6e20666f72207460448201526968697320656e7469747960b01b6064820152608401610ac9565b60053360009081526009602052604090205403611acd57336000908152600a602052604090206006015460ff16611a665760405162461bcd60e51b815260206004820152601560248201527414185d1a595b9d08191bd95cdb89dd08195e1a5cdd605a1b6044820152606401610ac9565b60005b815181101561188657336000908152600a602052604090208251600890910190839083908110611a9b57611a9b6143d6565b60209081029190910181015182546001810184556000938452919092200190611ac490826142cb565b50600101611a69565b60023360009081526009602052604090205403611c4c57336000908152600e602052604090206006015460ff16611b465760405162461bcd60e51b815260206004820152601960248201527f506174686f6c6f6769737420646f65736e2774206578697374000000000000006044820152606401610ac9565b60016001600160a01b0383166000908152600960205260409020540361199a5760005b8151811015611bde57336000908152600e602090815260408083206001600160a01b0387168452600d0190915290208251839083908110611bac57611bac6143d6565b60209081029190910181015182546001810184556000938452919092200190611bd590826142cb565b50600101611b69565b50336000908152600e602081905260408220611bfb9101846135ba565b15611c04575060015b80611886576001600160a01b0383166000908152600b60205260409020611c2e90601101336135dc565b50336000908152600e602081905260409091206118849101846135dc565b60036001600160a01b0383166000908152600960205260409020540361199a5760005b815181101561188657600f6000846001600160a01b03166001600160a01b03168152602001908152602001600020600701828281518110611cb257611cb26143d6565b60209081029190910181015182546001810184556000938452919092200190611cdb90826142cb565b50600101611c6f565b6040805160e0810182526000808252602080830182905282840182905260608084018390526080840181905260a084015260c083018290526001600160a01b0385168252600d9052919091206006015460ff16611d4357611d43614533565b6001600160a01b038083166000908152600d6020908152604091829020825160e0810184528154909416845260018101549184019190915260028101549183019190915260038101546060830152600481018054608084019190611da690614247565b80601f0160208091040260200160405190810160405280929190818152602001828054611dd290614247565b8015611e1f5780601f10611df457610100808354040283529160200191611e1f565b820191906000526020600020905b815481529060010190602001808311611e0257829003601f168201915b5050505050815260200160058201805480602002602001604051908101604052809291908181526020016000905b82821015611ef9578382906000526020600020018054611e6c90614247565b80601f0160208091040260200160405190810160405280929190818152602001828054611e9890614247565b8015611ee55780601f10611eba57610100808354040283529160200191611ee5565b820191906000526020600020905b815481529060010190602001808311611ec857829003601f168201915b505050505081526020019060010190611e4d565b505050908252506006919091015460ff16151560209091015292915050565b336000908152601060209081526040822060080180546001810182559083529120016107bc82826142cb565b336000908152600760205260409020606090611709906135ad565b6001600160a01b038083166000908152600e602090815260408083209385168352600d9093018152828220805484518184028101840190955280855260609493919290919084015b82821015610950578382906000526020600020018054611fc690614247565b80601f0160208091040260200160405190810160405280929190818152602001828054611ff290614247565b801561203f5780601f106120145761010080835404028352916020019161203f565b820191906000526020600020905b81548152906001019060200180831161202257829003601f168201915b505050505081526020019060010190611fa7565b336000818152600b60205260409020600a015460ff16156120865760405162461bcd60e51b8152600401610ac9906144dd565b6001600160a01b0381166000818152600b6020908152604080832080546001600160a01b031916909417845560018085018d9055600285018c9055600385018b9055600485018a90556005850189905560068501889055652237b1ba37b960d11b600d860155600a8501805460ff19168217905560099092528220819055600f83018590558154610100900460ff16919061212083614514565b91906101000a81548160ff021916908360ff16021790555050505050505050505050565b6001600160a01b0381166000908152600a60209081526040808320600801805482518185028101850190935280835260609492939192909184015b8282101561161557838290600052602060002001805461219e90614247565b80601f01602080910402602001604051908101604052809291908181526020018280546121ca90614247565b80156122175780601f106121ec57610100808354040283529160200191612217565b820191906000526020600020905b8154815290600101906020018083116121fa57829003601f168201915b50505050508152602001906001019061217f565b6002336000908152600960205260409020540361227a5760008054600160381b900460ff1690600761225c83614514565b91906101000a81548160ff021916908360ff1602179055505061235d565b600133600090815260096020526040902054036122ae57600080546601000000000000900460ff1690600661225c83614514565b600533600090815260096020526040902054036122e1576000805465010000000000900460ff1690600561225c83614514565b600333600090815260096020526040902054036123125760008054600160481b900460ff1690600961225c83614514565b6004336000908152600960205260409020540361235d5760008054600160401b900460ff1690600861234383614514565b91906101000a81548160ff021916908360ff160217905550505b33600090815260116020908152604082208054600181018255908352912042910161238883826142cb565b50336000908152600860205260409020548110156123ce5733600090815260086020526040812080546301e1338092906123c3908490614549565b909155506107bc9050565b6123dc816301e13380614549565b336000908152600860205260409020555050565b60408051610160810182526000808252602080830182905282840182905260608084018390526080840183905260a0840183905260c0840183905260e08401839052610100840181905261012084015261014083018290526001600160a01b038516825260109052919091206006015460ff1661246f5761246f614533565b6001600160a01b038083166000908152601060209081526040808320815161016081018352815490951685526001810154858401526002810154858301526003810154606086015260048101546080860152600581015460a0860152600681015460ff16151560c0860152600781015460e0860152600881018054835181860281018601909452808452919461010087019491929184015b828210156125b357838290600052602060002001805461252690614247565b80601f016020809104026020016040519081016040528092919081815260200182805461255290614247565b801561259f5780601f106125745761010080835404028352916020019161259f565b820191906000526020600020905b81548152906001019060200180831161258257829003601f168201915b505050505081526020019060010190612507565b5050505081526020016009820180546125cb90614247565b80601f01602080910402602001604051908101604052809291908181526020018280546125f790614247565b80156126445780601f1061261957610100808354040283529160200191612644565b820191906000526020600020905b81548152906001019060200180831161262757829003601f168201915b50505050508152602001600a820154815250509050919050565b336000908152600260205260409020606090611709906135ad565b6001600160a01b0381166000908152600b60205260409020600a81015460609182918291829160ff166126e15760405162461bcd60e51b815260206004820152601060248201526f111bd8dd1bdc881b9bdd08199bdd5b9960821b6044820152606401610ac9565b6126ed816007016135ad565b816009016126fd83600b016135ad565b612709846011016135ad565b82805480602002602001604051908101604052809291908181526020016000905b828210156127d657838290600052602060002001805461274990614247565b80601f016020809104026020016040519081016040528092919081815260200182805461277590614247565b80156127c25780601f10612797576101008083540402835291602001916127c2565b820191906000526020600020905b8154815290600101906020018083116127a557829003601f168201915b50505050508152602001906001019061272a565b5050505092509450945094509450509193509193565b336000818152600a602052604090206006015460ff161561285d5760405162461bcd60e51b815260206004820152602560248201527f596f75206861766520616c7265616479206372656174656420796f75722070726044820152646f66696c6560d81b6064820152608401610ac9565b6001600160a01b0381166000818152600a6020908152604080832080546001600160a01b031916909417845560018085018d9055600285018c9055600385018b9055600485018a905560099092528220600590819055830187905560068301805460ff191690911790556614185d1a595b9d60ca1b60078301556012820185905560138201849055805460ff16908061212083614514565b6040805160a0810182526000808252602080830182905282840182905260608301829052608083018290526001600160a01b0385168252600990529190912054600019810161299c576001600160a01b038084166000908152600b6020908152604091829020825160a081018452600d82015481528154909416918401919091526001810154918301919091526002810154606083015260130154608082015291506113c1565b60038103612a02576001600160a01b038084166000908152600f6020908152604091829020825160a0810184526008820154815281549094169184019190915260018101549183019190915260028101546060830152600a0154608082015291506113c1565b600481036113c15750506001600160a01b03908116600090815260106020908152604091829020825160a0810184526007820154815281549094169184019190915260018101549183019190915260028101546060830152600a0154608082015290565b612b09604080516101a081018252600080825260208083018290528284018290526060808401839052608080850184905260a080860185905260c080870186905260e080880187905261010080890186905289519081018a52878152958601879052978501869052928401859052908301849052820183905281018290529283015290610120820190815260606020820181905260006040830181905291015290565b6001600160a01b0382166000908152600a602052604090206006015460ff16612b3457612b34614533565b6001600160a01b038083166000908152600a6020908152604080832081516101a081018352815490951685526001810154858401526002810154858301526003810154606086015260048101546080860152600581015460a0860152600681015460ff16151560c0860152600781015460e0860152600881018054835181860281018601909452808452919461010087019491929184015b82821015612c78578382906000526020600020018054612beb90614247565b80601f0160208091040260200160405190810160405280929190818152602001828054612c1790614247565b8015612c645780601f10612c3957610100808354040283529160200191612c64565b820191906000526020600020905b815481529060010190602001808311612c4757829003601f168201915b505050505081526020019060010190612bcc565b5050505081526020016009820160405180610100016040529081600082015481526020016001820154815260200160028201548152602001600382015481526020016004820154815260200160058201548152602001600682015481526020016007820154815250508152602001601182018054612cf590614247565b80601f0160208091040260200160405190810160405280929190818152602001828054612d2190614247565b8015612d6e5780601f10612d4357610100808354040283529160200191612d6e565b820191906000526020600020905b815481529060010190602001808311612d5157829003601f168201915b50505050508152602001601282015481526020016013820154815250509050919050565b336000818152600e602052604090206006015460ff1615612dc55760405162461bcd60e51b8152600401610ac9906144dd565b6001600160a01b0381166000818152600e6020908152604080832080546001600160a01b031916909417845560018085018d905560028086018d9055600386018c9055600486018b9055600586018a9055600990935290832082905560068401805460ff191690911790556a14185d1a1bdb1bd9da5cdd60aa1b600a840155600c830186905560108301859055815462010000900460ff16919061212083614514565b600533600090815260096020526040902054036131a15760016001600160a01b03821660009081526009602052604090205403612f58576001600160a01b0381166000908152600b6020526040812090612ec560078301336135ba565b15612ece575060015b8015612f2a5760405162461bcd60e51b815260206004820152602560248201527f4461746120616c7265616479207368617265642020776974682074686973206460448201526437b1ba37b960d91b6064820152608401610ac9565b612f3760078301336135dc565b50336000908152600360205260409020612f5190846135dc565b505b505050565b60066001600160a01b0382166000908152600960205260409020540361314a576001600160a01b0381166000908152600160205260408120612f9a90336135ba565b15612fa3575060015b8015612ffd5760405162461bcd60e51b815260206004820152602360248201527f4461746120616c7265616479207368617265642077697468207468697320616460448201526236b4b760e91b6064820152608401610ac9565b6001600160a01b038216600090815260016020526040902061301f90336135dc565b50336000908152600a602090815260408083206001600160a01b0386168452600d909252822060050154600890910191036130d557805467ffffffffffffffff81111561306e5761306e613a52565b6040519080825280602002602001820160405280156130a157816020015b606081526020019060019003908161308c5790505b506001600160a01b0384166000908152600d6020908152604090912082516130d39360059092019291909101906137c9565b505b60005b8154811015612f5157600d6000856001600160a01b03166001600160a01b0316815260200190815260200160002060050182828154811061311b5761311b6143d6565b6000918252602080832084546001810186559484529220909201916131419101826143ec565b506001016130d8565b60405162461bcd60e51b815260206004820152602660248201527f496e76616c696420656e74697479206f72207472616e73666572206e6f7420616044820152651b1b1bddd95960d21b6064820152608401610ac9565b600633600090815260096020526040902054036107be5760036001600160a01b0382166000908152600960205260409020540361329a576001600160a01b03811660009081526006602052604081206131fa90336135ba565b15613203575060015b801561326c5760405162461bcd60e51b815260206004820152603260248201527f4461746120616c72656164792073686172656420776974682074686973206d656044820152713234b1b0b6103932b9b2b0b931b4103630b160711b6064820152608401610ac9565b6001600160a01b038216600090815260066020526040902061328e90336135dc565b50612f536004836135dc565b60046001600160a01b0382166000908152600960205260409020540361314a576001600160a01b03811660009081526007602052604081206132dc90336135ba565b156132e5575060015b801561334a5760405162461bcd60e51b815260206004820152602e60248201527f4461746120616c7265616479207368617265642077697468207468697320706860448201526d61726d61637920636f6d70616e7960901b6064820152608401610ac9565b6001600160a01b038216600090815260076020526040902061328e90336135dc565b336000908152600360205260409020606090611709906135ad565b60408051610160810182526000808252602080830182905282840182905260608084018390526080840183905260a0840183905260c0840183905260e08401819052610100840183905261012084015261014083018290526001600160a01b0385168252600f9052919091206006015460ff1661340657613406614533565b6001600160a01b038083166000908152600f60209081526040808320815161016081018352815490951685526001810154858401526002810154858301526003810154606086015260048101546080860152600581015460a0860152600681015460ff16151560c0860152600781018054835181860281018601909452808452919460e087019491929184015b8282101561353f5783829060005260206000200180546134b290614247565b80601f01602080910402602001604051908101604052809291908181526020018280546134de90614247565b801561352b5780601f106135005761010080835404028352916020019161352b565b820191906000526020600020905b81548152906001019060200180831161350e57829003601f168201915b505050505081526020019060010190613493565b505050508152602001600882015481526020016009820180546125cb90614247565b606061170960046135ad565b6001600160a01b0381166000908152600160205260409020606090610957906135ad565b60006135a6836001600160a01b0384166135f1565b9392505050565b606060006135a6836136e4565b6001600160a01b038116600090815260018301602052604081205415156135a6565b60006135a6836001600160a01b038416613740565b600081815260018301602052604081205480156136da5760006136156001836143a1565b8554909150600090613629906001906143a1565b905080821461368e576000866000018281548110613649576136496143d6565b906000526020600020015490508087600001848154811061366c5761366c6143d6565b6000918252602080832090910192909255918252600188019052604090208390555b855486908061369f5761369f6144c7565b600190038181906000526020600020016000905590558560010160008681526020019081526020016000206000905560019350505050610957565b6000915050610957565b60608160000180548060200260200160405190810160405280929190818152602001828054801561373457602002820191906000526020600020905b815481526020019060010190808311613720575b50505050509050919050565b600081815260018301602052604081205461378757508154600181810184556000848152602080822090930184905584548482528286019093526040902091909155610957565b506000610957565b50805461379b90614247565b6000825580601f106137ab575050565b601f0160209004906000526020600020908101906107be919061381f565b82805482825590600052602060002090810192821561380f579160200282015b8281111561380f57825182906137ff90826142cb565b50916020019190600101906137e9565b5061381b929150613834565b5090565b5b8082111561381b5760008155600101613820565b8082111561381b576000613848828261378f565b50600101613834565b80356001600160a01b038116811461386857600080fd5b919050565b60006020828403121561387f57600080fd5b6135a682613851565b6000806040838503121561389b57600080fd5b6138a483613851565b91506138b260208401613851565b90509250929050565b6000815180845260005b818110156138e1576020818501810151868301820152016138c5565b506000602082860101526020601f19601f83011685010191505092915050565b60008282518085526020808601955060208260051b8401016020860160005b8481101561394e57601f1986840301895261393c8383516138bb565b98840198925090830190600101613920565b5090979650505050505050565b6020815260006135a66020830184613901565b60008151808452602080850194506020840160005b838110156139a85781516001600160a01b031687529582019590820190600101613983565b509495945050505050565b600061018060018060a01b038f1683528d60208401528c60408401528b60608401528a60808401528960a08401528060c08401526139f38184018a61396e565b905082810360e0840152613a078189613901565b905086610100840152828103610120840152613a2381876138bb565b905084610140840152828103610160840152613a3f818561396e565b9f9e505050505050505050505050505050565b634e487b7160e01b600052604160045260246000fd5b604051601f8201601f1916810167ffffffffffffffff81118282101715613a9157613a91613a52565b604052919050565b600082601f830112613aaa57600080fd5b813567ffffffffffffffff811115613ac457613ac4613a52565b613ad7601f8201601f1916602001613a68565b818152846020838601011115613aec57600080fd5b816020850160208301376000918101602001919091529392505050565b600060208284031215613b1b57600080fd5b813567ffffffffffffffff811115613b3257600080fd5b613b3e84828501613a99565b949350505050565b60008060408385031215613b5957600080fd5b823591506138b260208401613851565b600080600060608486031215613b7e57600080fd5b505081359360208301359350604090920135919050565b600080600080600060a08688031215613bad57600080fd5b505083359560208501359550604085013594606081013594506080013592509050565b600061016060018060a01b038e1683528c60208401528b60408401528a60608401528960808401528860a08401528760c08401528660e084015280610100840152613c1d818401876138bb565b610120840195909552505061014001529998505050505050505050565b6020815260006135a6602083018461396e565b60008060408385031215613c6057600080fd5b613c6983613851565b915060208084013567ffffffffffffffff80821115613c8757600080fd5b818601915086601f830112613c9b57600080fd5b813581811115613cad57613cad613a52565b8060051b613cbc858201613a68565b918252838101850191858101908a841115613cd657600080fd5b86860192505b83831015613d1257823585811115613cf45760008081fd5b613d028c89838a0101613a99565b8352509186019190860190613cdc565b809750505050505050509250929050565b60008282518085526020808601955060208260051b8401016020860160005b8481101561394e57601f19868403018952613d5e8383516138bb565b98840198925090830190600101613d42565b6020815260018060a01b0382511660208201526020820151604082015260408201516060820152606082015160808201526000608083015160e060a0840152613dbd6101008401826138bb565b905060a0840151601f198483030160c0850152613dda8282613d23565b91505060c0840151151560e08401528091505092915050565b600080600080600080600060e0888a031215613e0e57600080fd5b505085359760208701359750604087013596606081013596506080810135955060a0810135945060c0013592509050565b600080600080600080600080610100898b031215613e5c57600080fd5b505086359860208801359850604088013597606081013597506080810135965060a0810135955060c0810135945060e0013592509050565b815160ff16815261014081016020830151613eb4602084018260ff169052565b506040830151613ec9604084018260ff169052565b506060830151613ede606084018260ff169052565b506080830151613ef3608084018260ff169052565b5060a0830151613f0860a084018260ff169052565b5060c0830151613f1d60c084018260ff169052565b5060e0830151613f3260e084018260ff169052565b506101008381015160ff908116918401919091526101209384015116929091019190915290565b60208152613f736020820183516001600160a01b03169052565b602082015160408201526040820151606082015260608201516080820152608082015160a082015260a082015160c0820152600060c0830151613fba60e084018215159052565b5060e083015161010083810191909152830151610160610120808501829052613fe7610180860184613d23565b9250808601519050610140601f19868503018187015261400784836138bb565b9601519190940152509192915050565b60808152600061402a608083018761396e565b828103602084015261403c8187613901565b90508281036040840152614050818661396e565b90508281036060840152614064818561396e565b979650505050505050565b602081526140896020820183516001600160a01b03169052565b602082015160408201526040820151606082015260608201516080820152608082015160a082015260a082015160c0820152600060c08301516140d060e084018215159052565b5060e0830151610100838101919091528301516102806101208085018290526140fd6102a0860184613d23565b9086015190925061014061415c86820183805182526020810151602083015260408101516040830152606081015160608301526080810151608083015260a081015160a083015260c081015160c083015260e081015160e08301525050565b860151858403601f1901610240870152905061417883826138bb565b610160870151610260870152610180909601519190940152509192915050565b602081526141b26020820183516001600160a01b03169052565b602082015160408201526040820151606082015260608201516080820152608082015160a082015260a082015160c0820152600060c08301516141f960e084018215159052565b5060e08301516101606101008181860152614218610180860184613d23565b9250808601519050610120818187015280870151915050610140601f19868503018187015261400784836138bb565b600181811c9082168061425b57607f821691505b6020821081036113c157634e487b7160e01b600052602260045260246000fd5b601f821115612f53576000816000526020600020601f850160051c810160208610156142a45750805b601f850160051c820191505b818110156142c3578281556001016142b0565b505050505050565b815167ffffffffffffffff8111156142e5576142e5613a52565b6142f9816142f38454614247565b8461427b565b602080601f83116001811461432e57600084156143165750858301515b600019600386901b1c1916600185901b1785556142c3565b600085815260208120601f198616915b8281101561435d5788860151825594840194600190910190840161433e565b508582101561437b5787850151600019600388901b60f8161c191681555b5050505050600190811b01905550565b634e487b7160e01b600052601160045260246000fd5b818103818111156109575761095761438b565b6000826143d157634e487b7160e01b600052601260045260246000fd5b500490565b634e487b7160e01b600052603260045260246000fd5b8181036143f7575050565b6144018254614247565b67ffffffffffffffff81111561441957614419613a52565b614427816142f38454614247565b6000601f82116001811461445b57600083156144435750848201545b600019600385901b1c1916600184901b1784556144c0565b600085815260209020601f19841690600086815260209020845b838110156144955782860154825560019586019590910190602001614475565b50858310156144b35781850154600019600388901b60f8161c191681555b50505060018360011b0184555b5050505050565b634e487b7160e01b600052603160045260246000fd5b6020808252601f908201527f596f7520616c72656164792063726561746520796f75722070726f66696c6500604082015260600190565b600060ff821660ff810361452a5761452a61438b565b60010192915050565b634e487b7160e01b600052600160045260246000fd5b808201808211156109575761095761438b56fea26469706673582212208aa642b64b723769c06f6447b4b75a505bd502591915d0080d259f147bd9952164736f6c63430008180033",
          "opcodes": "PUSH1 0x80 PUSH1 0x40 MSTORE CALLVALUE DUP1 ISZERO PUSH2 0x10 JUMPI PUSH1 0x0 DUP1 REVERT JUMPDEST POP PUSH2 0x4592 DUP1 PUSH2 0x20 PUSH1 0x0 CODECOPY PUSH1 0x0 RETURN INVALID PUSH1 0x80 PUSH1 0x40 MSTORE CALLVALUE DUP1 ISZERO PUSH2 0x10 JUMPI PUSH1 0x0 DUP1 REVERT JUMPDEST POP PUSH1 0x4 CALLDATASIZE LT PUSH2 0x23D JUMPI PUSH1 0x0 CALLDATALOAD PUSH1 0xE0 SHR DUP1 PUSH4 0x6BC071A5 GT PUSH2 0x13B JUMPI DUP1 PUSH4 0x9C0F1C7C GT PUSH2 0xB8 JUMPI DUP1 PUSH4 0xD3701A7B GT PUSH2 0x7C JUMPI DUP1 PUSH4 0xD3701A7B EQ PUSH2 0x6F0 JUMPI DUP1 PUSH4 0xD680288B EQ PUSH2 0x703 JUMPI DUP1 PUSH4 0xEA8C9E04 EQ PUSH2 0x70B JUMPI DUP1 PUSH4 0xF7332C03 EQ PUSH2 0x72B JUMPI DUP1 PUSH4 0xFF9FFC07 EQ PUSH2 0x733 JUMPI PUSH1 0x0 DUP1 REVERT JUMPDEST DUP1 PUSH4 0x9C0F1C7C EQ PUSH2 0x62E JUMPI DUP1 PUSH4 0xABB4D51F EQ PUSH2 0x651 JUMPI DUP1 PUSH4 0xB12E2E84 EQ PUSH2 0x664 JUMPI DUP1 PUSH4 0xB5368E20 EQ PUSH2 0x6BD JUMPI DUP1 PUSH4 0xB5593251 EQ PUSH2 0x6DD JUMPI PUSH1 0x0 DUP1 REVERT JUMPDEST DUP1 PUSH4 0x8BB115B7 GT PUSH2 0xFF JUMPI DUP1 PUSH4 0x8BB115B7 EQ PUSH2 0x49C JUMPI DUP1 PUSH4 0x8E80E0E0 EQ PUSH2 0x4F1 JUMPI DUP1 PUSH4 0x8F7A844B EQ PUSH2 0x504 JUMPI DUP1 PUSH4 0x9059229B EQ PUSH2 0x606 JUMPI DUP1 PUSH4 0x9824A07A EQ PUSH2 0x626 JUMPI PUSH1 0x0 DUP1 REVERT JUMPDEST DUP1 PUSH4 0x6BC071A5 EQ PUSH2 0x448 JUMPI DUP1 PUSH4 0x7E339968 EQ PUSH2 0x45B JUMPI DUP1 PUSH4 0x8043CE00 EQ PUSH2 0x463 JUMPI DUP1 PUSH4 0x80F1310A EQ PUSH2 0x476 JUMPI DUP1 PUSH4 0x887F6F8D EQ PUSH2 0x489 JUMPI PUSH1 0x0 DUP1 REVERT JUMPDEST DUP1 PUSH4 0x2856D1E8 GT PUSH2 0x1C9 JUMPI DUP1 PUSH4 0x55DA65F4 GT PUSH2 0x18D JUMPI DUP1 PUSH4 0x55DA65F4 EQ PUSH2 0x3CD JUMPI DUP1 PUSH4 0x5842E6E5 EQ PUSH2 0x3E0 JUMPI DUP1 PUSH4 0x5E5C06E2 EQ PUSH2 0x3F5 JUMPI DUP1 PUSH4 0x60C61D0C EQ PUSH2 0x415 JUMPI DUP1 PUSH4 0x64EFB22B EQ PUSH2 0x428 JUMPI PUSH1 0x0 DUP1 REVERT JUMPDEST DUP1 PUSH4 0x2856D1E8 EQ PUSH2 0x33C JUMPI DUP1 PUSH4 0x2A1EBD01 EQ PUSH2 0x34F JUMPI DUP1 PUSH4 0x2F04E064 EQ PUSH2 0x370 JUMPI DUP1 PUSH4 0x509A5E13 EQ PUSH2 0x39A JUMPI DUP1 PUSH4 0x55BF3B33 EQ PUSH2 0x3AD JUMPI PUSH1 0x0 DUP1 REVERT JUMPDEST DUP1 PUSH4 0x1A5AA676 GT PUSH2 0x210 JUMPI DUP1 PUSH4 0x1A5AA676 EQ PUSH2 0x2BE JUMPI DUP1 PUSH4 0x1DDDA9B6 EQ PUSH2 0x2D1 JUMPI DUP1 PUSH4 0x2138BA84 EQ PUSH2 0x301 JUMPI DUP1 PUSH4 0x24E9EDB0 EQ PUSH2 0x314 JUMPI DUP1 PUSH4 0x27CCC00E EQ PUSH2 0x329 JUMPI PUSH1 0x0 DUP1 REVERT JUMPDEST DUP1 PUSH4 0x7EDA2CC EQ PUSH2 0x242 JUMPI DUP1 PUSH4 0x80BC2B1 EQ PUSH2 0x257 JUMPI DUP1 PUSH4 0xB916F14 EQ PUSH2 0x280 JUMPI DUP1 PUSH4 0x16ECFA84 EQ PUSH2 0x293 JUMPI JUMPDEST PUSH1 0x0 DUP1 REVERT JUMPDEST PUSH2 0x255 PUSH2 0x250 CALLDATASIZE PUSH1 0x4 PUSH2 0x386D JUMP JUMPDEST PUSH2 0x746 JUMP JUMPDEST STOP JUMPDEST PUSH2 0x26A PUSH2 0x265 CALLDATASIZE PUSH1 0x4 PUSH2 0x3888 JUMP JUMPDEST PUSH2 0x85C JUMP JUMPDEST PUSH1 0x40 MLOAD PUSH2 0x277 SWAP2 SWAP1 PUSH2 0x395B JUMP JUMPDEST PUSH1 0x40 MLOAD DUP1 SWAP2 SUB SWAP1 RETURN JUMPDEST PUSH2 0x26A PUSH2 0x28E CALLDATASIZE PUSH1 0x4 PUSH2 0x3888 JUMP JUMPDEST PUSH2 0x95D JUMP JUMPDEST PUSH2 0x2A6 PUSH2 0x2A1 CALLDATASIZE PUSH1 0x4 PUSH2 0x386D JUMP JUMPDEST PUSH2 0xA51 JUMP JUMPDEST PUSH1 0x40 MLOAD PUSH2 0x277 SWAP13 SWAP12 SWAP11 SWAP10 SWAP9 SWAP8 SWAP7 SWAP6 SWAP5 SWAP4 SWAP3 SWAP2 SWAP1 PUSH2 0x39B3 JUMP JUMPDEST PUSH2 0x255 PUSH2 0x2CC CALLDATASIZE PUSH1 0x4 PUSH2 0x3B09 JUMP JUMPDEST PUSH2 0xCAA JUMP JUMPDEST PUSH2 0x2E4 PUSH2 0x2DF CALLDATASIZE PUSH1 0x4 PUSH2 0x386D JUMP JUMPDEST PUSH2 0xE37 JUMP JUMPDEST PUSH1 0x40 DUP1 MLOAD SWAP4 ISZERO ISZERO DUP5 MSTORE PUSH1 0x20 DUP5 ADD SWAP3 SWAP1 SWAP3 MSTORE SWAP1 DUP3 ADD MSTORE PUSH1 0x60 ADD PUSH2 0x277 JUMP JUMPDEST PUSH2 0x255 PUSH2 0x30F CALLDATASIZE PUSH1 0x4 PUSH2 0x3B46 JUMP JUMPDEST PUSH2 0xEAA JUMP JUMPDEST PUSH2 0x255 CALLER PUSH1 0x0 SWAP1 DUP2 MSTORE PUSH1 0x8 PUSH1 0x20 MSTORE PUSH1 0x40 DUP2 KECCAK256 SSTORE JUMP JUMPDEST PUSH2 0x255 PUSH2 0x337 CALLDATASIZE PUSH1 0x4 PUSH2 0x3B69 JUMP JUMPDEST PUSH2 0x1181 JUMP JUMPDEST PUSH2 0x255 PUSH2 0x34A CALLDATASIZE PUSH1 0x4 PUSH2 0x3B95 JUMP JUMPDEST PUSH2 0x1213 JUMP JUMPDEST PUSH2 0x362 PUSH2 0x35D CALLDATASIZE PUSH1 0x4 PUSH2 0x386D JUMP JUMPDEST PUSH2 0x130B JUMP JUMPDEST PUSH1 0x40 MLOAD SWAP1 DUP2 MSTORE PUSH1 0x20 ADD PUSH2 0x277 JUMP JUMPDEST PUSH2 0x383 PUSH2 0x37E CALLDATASIZE PUSH1 0x4 PUSH2 0x386D JUMP JUMPDEST PUSH2 0x13C7 JUMP JUMPDEST PUSH1 0x40 MLOAD PUSH2 0x277 SWAP12 SWAP11 SWAP10 SWAP9 SWAP8 SWAP7 SWAP6 SWAP5 SWAP4 SWAP3 SWAP2 SWAP1 PUSH2 0x3BD0 JUMP JUMPDEST PUSH2 0x26A PUSH2 0x3A8 CALLDATASIZE PUSH1 0x4 PUSH2 0x386D JUMP JUMPDEST PUSH2 0x1531 JUMP JUMPDEST PUSH2 0x362 PUSH2 0x3BB CALLDATASIZE PUSH1 0x4 PUSH2 0x386D JUMP JUMPDEST PUSH1 0x8 PUSH1 0x20 MSTORE PUSH1 0x0 SWAP1 DUP2 MSTORE PUSH1 0x40 SWAP1 KECCAK256 SLOAD DUP2 JUMP JUMPDEST PUSH2 0x255 PUSH2 0x3DB CALLDATASIZE PUSH1 0x4 PUSH2 0x3B95 JUMP JUMPDEST PUSH2 0x1620 JUMP JUMPDEST PUSH2 0x3E8 PUSH2 0x16EE JUMP JUMPDEST PUSH1 0x40 MLOAD PUSH2 0x277 SWAP2 SWAP1 PUSH2 0x3C3A JUMP JUMPDEST PUSH2 0x362 PUSH2 0x403 CALLDATASIZE PUSH1 0x4 PUSH2 0x386D JUMP JUMPDEST PUSH1 0x9 PUSH1 0x20 MSTORE PUSH1 0x0 SWAP1 DUP2 MSTORE PUSH1 0x40 SWAP1 KECCAK256 SLOAD DUP2 JUMP JUMPDEST PUSH2 0x255 PUSH2 0x423 CALLDATASIZE PUSH1 0x4 PUSH2 0x3C4D JUMP JUMPDEST PUSH2 0x170E JUMP JUMPDEST PUSH2 0x43B PUSH2 0x436 CALLDATASIZE PUSH1 0x4 PUSH2 0x386D JUMP JUMPDEST PUSH2 0x1CE4 JUMP JUMPDEST PUSH1 0x40 MLOAD PUSH2 0x277 SWAP2 SWAP1 PUSH2 0x3D70 JUMP JUMPDEST PUSH2 0x255 PUSH2 0x456 CALLDATASIZE PUSH1 0x4 PUSH2 0x3B09 JUMP JUMPDEST PUSH2 0x1F18 JUMP JUMPDEST PUSH2 0x3E8 PUSH2 0x1F44 JUMP JUMPDEST PUSH2 0x26A PUSH2 0x471 CALLDATASIZE PUSH1 0x4 PUSH2 0x3888 JUMP JUMPDEST PUSH2 0x1F5F JUMP JUMPDEST PUSH2 0x255 PUSH2 0x484 CALLDATASIZE PUSH1 0x4 PUSH2 0x3DF3 JUMP JUMPDEST PUSH2 0x2053 JUMP JUMPDEST PUSH2 0x26A PUSH2 0x497 CALLDATASIZE PUSH1 0x4 PUSH2 0x386D JUMP JUMPDEST PUSH2 0x2144 JUMP JUMPDEST PUSH2 0x255 PUSH2 0x4AA CALLDATASIZE PUSH1 0x4 PUSH2 0x3E3F JUMP JUMPDEST CALLER PUSH1 0x0 SWAP1 DUP2 MSTORE PUSH1 0xA PUSH1 0x20 DUP2 SWAP1 MSTORE PUSH1 0x40 SWAP1 SWAP2 KECCAK256 PUSH1 0x9 DUP2 ADD SWAP10 SWAP1 SWAP10 SSTORE DUP9 ADD SWAP7 SWAP1 SWAP7 SSTORE PUSH1 0xB DUP8 ADD SWAP5 SWAP1 SWAP5 SSTORE PUSH1 0xC DUP7 ADD SWAP3 SWAP1 SWAP3 SSTORE PUSH1 0xD DUP6 ADD SSTORE PUSH1 0xE DUP5 ADD SSTORE PUSH1 0xF DUP4 ADD SSTORE PUSH1 0x10 SWAP1 SWAP2 ADD SSTORE JUMP JUMPDEST PUSH2 0x255 PUSH2 0x4FF CALLDATASIZE PUSH1 0x4 PUSH2 0x3B09 JUMP JUMPDEST PUSH2 0x222B JUMP JUMPDEST PUSH2 0x5F9 PUSH1 0x40 DUP1 MLOAD PUSH2 0x140 DUP2 ADD DUP3 MSTORE PUSH1 0x0 DUP1 DUP3 MSTORE PUSH1 0x20 DUP3 ADD DUP2 SWAP1 MSTORE SWAP2 DUP2 ADD DUP3 SWAP1 MSTORE PUSH1 0x60 DUP2 ADD DUP3 SWAP1 MSTORE PUSH1 0x80 DUP2 ADD DUP3 SWAP1 MSTORE PUSH1 0xA0 DUP2 ADD DUP3 SWAP1 MSTORE PUSH1 0xC0 DUP2 ADD DUP3 SWAP1 MSTORE PUSH1 0xE0 DUP2 ADD DUP3 SWAP1 MSTORE PUSH2 0x100 DUP2 ADD DUP3 SWAP1 MSTORE PUSH2 0x120 DUP2 ADD SWAP2 SWAP1 SWAP2 MSTORE POP PUSH1 0x40 DUP1 MLOAD PUSH2 0x140 DUP2 ADD DUP3 MSTORE PUSH1 0x0 SLOAD PUSH1 0xFF DUP1 DUP3 AND DUP4 MSTORE PUSH2 0x100 DUP1 DUP4 DIV DUP3 AND PUSH1 0x20 DUP6 ADD MSTORE PUSH3 0x10000 DUP4 DIV DUP3 AND SWAP5 DUP5 ADD SWAP5 SWAP1 SWAP5 MSTORE PUSH4 0x1000000 DUP3 DIV DUP2 AND PUSH1 0x60 DUP5 ADD MSTORE PUSH5 0x100000000 DUP3 DIV DUP2 AND PUSH1 0x80 DUP5 ADD MSTORE PUSH6 0x10000000000 DUP3 DIV DUP2 AND PUSH1 0xA0 DUP5 ADD MSTORE PUSH7 0x1000000000000 DUP3 DIV DUP2 AND PUSH1 0xC0 DUP5 ADD MSTORE PUSH1 0x1 PUSH1 0x38 SHL DUP3 DIV DUP2 AND PUSH1 0xE0 DUP5 ADD MSTORE PUSH1 0x1 PUSH1 0x40 SHL DUP3 DIV DUP2 AND SWAP4 DUP4 ADD SWAP4 SWAP1 SWAP4 MSTORE PUSH1 0x1 PUSH1 0x48 SHL SWAP1 DIV SWAP1 SWAP2 AND PUSH2 0x120 DUP3 ADD MSTORE SWAP1 JUMP JUMPDEST PUSH1 0x40 MLOAD PUSH2 0x277 SWAP2 SWAP1 PUSH2 0x3E94 JUMP JUMPDEST PUSH2 0x619 PUSH2 0x614 CALLDATASIZE PUSH1 0x4 PUSH2 0x386D JUMP JUMPDEST PUSH2 0x23F0 JUMP JUMPDEST PUSH1 0x40 MLOAD PUSH2 0x277 SWAP2 SWAP1 PUSH2 0x3F59 JUMP JUMPDEST PUSH2 0x3E8 PUSH2 0x265E JUMP JUMPDEST PUSH2 0x641 PUSH2 0x63C CALLDATASIZE PUSH1 0x4 PUSH2 0x386D JUMP JUMPDEST PUSH2 0x2679 JUMP JUMPDEST PUSH1 0x40 MLOAD PUSH2 0x277 SWAP5 SWAP4 SWAP3 SWAP2 SWAP1 PUSH2 0x4017 JUMP JUMPDEST PUSH2 0x255 PUSH2 0x65F CALLDATASIZE PUSH1 0x4 PUSH2 0x3DF3 JUMP JUMPDEST PUSH2 0x27EC JUMP JUMPDEST PUSH2 0x677 PUSH2 0x672 CALLDATASIZE PUSH1 0x4 PUSH2 0x386D JUMP JUMPDEST PUSH2 0x28F5 JUMP JUMPDEST PUSH1 0x40 MLOAD PUSH2 0x277 SWAP2 SWAP1 DUP2 MLOAD DUP2 MSTORE PUSH1 0x20 DUP1 DUP4 ADD MLOAD PUSH1 0x1 PUSH1 0x1 PUSH1 0xA0 SHL SUB AND SWAP1 DUP3 ADD MSTORE PUSH1 0x40 DUP1 DUP4 ADD MLOAD SWAP1 DUP3 ADD MSTORE PUSH1 0x60 DUP1 DUP4 ADD MLOAD SWAP1 DUP3 ADD MSTORE PUSH1 0x80 SWAP2 DUP3 ADD MLOAD SWAP2 DUP2 ADD SWAP2 SWAP1 SWAP2 MSTORE PUSH1 0xA0 ADD SWAP1 JUMP JUMPDEST PUSH2 0x6D0 PUSH2 0x6CB CALLDATASIZE PUSH1 0x4 PUSH2 0x386D JUMP JUMPDEST PUSH2 0x2A66 JUMP JUMPDEST PUSH1 0x40 MLOAD PUSH2 0x277 SWAP2 SWAP1 PUSH2 0x406F JUMP JUMPDEST PUSH2 0x255 PUSH2 0x6EB CALLDATASIZE PUSH1 0x4 PUSH2 0x3DF3 JUMP JUMPDEST PUSH2 0x2D92 JUMP JUMPDEST PUSH2 0x255 PUSH2 0x6FE CALLDATASIZE PUSH1 0x4 PUSH2 0x386D JUMP JUMPDEST PUSH2 0x2E68 JUMP JUMPDEST PUSH2 0x3E8 PUSH2 0x336C JUMP JUMPDEST PUSH2 0x71E PUSH2 0x719 CALLDATASIZE PUSH1 0x4 PUSH2 0x386D JUMP JUMPDEST PUSH2 0x3387 JUMP JUMPDEST PUSH1 0x40 MLOAD PUSH2 0x277 SWAP2 SWAP1 PUSH2 0x4198 JUMP JUMPDEST PUSH2 0x3E8 PUSH2 0x3561 JUMP JUMPDEST PUSH2 0x3E8 PUSH2 0x741 CALLDATASIZE PUSH1 0x4 PUSH2 0x386D JUMP JUMPDEST PUSH2 0x356D JUMP JUMPDEST PUSH1 0x5 CALLER PUSH1 0x0 SWAP1 DUP2 MSTORE PUSH1 0x9 PUSH1 0x20 MSTORE PUSH1 0x40 SWAP1 KECCAK256 SLOAD SUB PUSH2 0x7C1 JUMPI CALLER PUSH1 0x0 SWAP1 DUP2 MSTORE PUSH1 0x3 PUSH1 0x20 MSTORE PUSH1 0x40 SWAP1 KECCAK256 PUSH2 0x776 SWAP1 DUP3 PUSH2 0x3591 JUMP JUMPDEST POP PUSH1 0x1 PUSH1 0x1 PUSH1 0x1 PUSH1 0xA0 SHL SUB DUP3 AND PUSH1 0x0 SWAP1 DUP2 MSTORE PUSH1 0x9 PUSH1 0x20 MSTORE PUSH1 0x40 SWAP1 KECCAK256 SLOAD SUB PUSH2 0x7BE JUMPI PUSH1 0x1 PUSH1 0x1 PUSH1 0xA0 SHL SUB DUP2 AND PUSH1 0x0 SWAP1 DUP2 MSTORE PUSH1 0xB PUSH1 0x20 MSTORE PUSH1 0x40 SWAP1 KECCAK256 PUSH2 0x7BC SWAP1 PUSH1 0x7 ADD CALLER PUSH2 0x3591 JUMP JUMPDEST POP JUMPDEST POP JUMP JUMPDEST PUSH1 0x6 CALLER PUSH1 0x0 SWAP1 DUP2 MSTORE PUSH1 0x9 PUSH1 0x20 MSTORE PUSH1 0x40 SWAP1 KECCAK256 SLOAD SUB PUSH2 0x7BE JUMPI PUSH1 0x3 PUSH1 0x1 PUSH1 0x1 PUSH1 0xA0 SHL SUB DUP3 AND PUSH1 0x0 SWAP1 DUP2 MSTORE PUSH1 0x9 PUSH1 0x20 MSTORE PUSH1 0x40 SWAP1 KECCAK256 SLOAD SUB PUSH2 0x81A JUMPI PUSH1 0x1 PUSH1 0x1 PUSH1 0xA0 SHL SUB DUP2 AND PUSH1 0x0 SWAP1 DUP2 MSTORE PUSH1 0x6 PUSH1 0x20 MSTORE PUSH1 0x40 SWAP1 KECCAK256 PUSH2 0x7BC SWAP1 CALLER PUSH2 0x3591 JUMP JUMPDEST PUSH1 0x4 PUSH1 0x1 PUSH1 0x1 PUSH1 0xA0 SHL SUB DUP3 AND PUSH1 0x0 SWAP1 DUP2 MSTORE PUSH1 0x9 PUSH1 0x20 MSTORE PUSH1 0x40 SWAP1 KECCAK256 SLOAD SUB PUSH2 0x7BE JUMPI PUSH1 0x1 PUSH1 0x1 PUSH1 0xA0 SHL SUB DUP2 AND PUSH1 0x0 SWAP1 DUP2 MSTORE PUSH1 0x7 PUSH1 0x20 MSTORE PUSH1 0x40 SWAP1 KECCAK256 PUSH2 0x7BC SWAP1 CALLER PUSH2 0x3591 JUMP JUMPDEST PUSH1 0x1 PUSH1 0x1 PUSH1 0xA0 SHL SUB DUP1 DUP4 AND PUSH1 0x0 SWAP1 DUP2 MSTORE PUSH1 0xB PUSH1 0x20 SWAP1 DUP2 MSTORE PUSH1 0x40 DUP1 DUP4 KECCAK256 SWAP4 DUP6 AND DUP4 MSTORE PUSH1 0x10 SWAP1 SWAP4 ADD DUP2 MSTORE DUP3 DUP3 KECCAK256 DUP1 SLOAD DUP5 MLOAD DUP2 DUP5 MUL DUP2 ADD DUP5 ADD SWAP1 SWAP6 MSTORE DUP1 DUP6 MSTORE PUSH1 0x60 SWAP5 SWAP4 SWAP2 SWAP3 SWAP1 SWAP2 SWAP1 DUP5 ADD JUMPDEST DUP3 DUP3 LT ISZERO PUSH2 0x950 JUMPI DUP4 DUP3 SWAP1 PUSH1 0x0 MSTORE PUSH1 0x20 PUSH1 0x0 KECCAK256 ADD DUP1 SLOAD PUSH2 0x8C3 SWAP1 PUSH2 0x4247 JUMP JUMPDEST DUP1 PUSH1 0x1F ADD PUSH1 0x20 DUP1 SWAP2 DIV MUL PUSH1 0x20 ADD PUSH1 0x40 MLOAD SWAP1 DUP2 ADD PUSH1 0x40 MSTORE DUP1 SWAP3 SWAP2 SWAP1 DUP2 DUP2 MSTORE PUSH1 0x20 ADD DUP3 DUP1 SLOAD PUSH2 0x8EF SWAP1 PUSH2 0x4247 JUMP JUMPDEST DUP1 ISZERO PUSH2 0x93C JUMPI DUP1 PUSH1 0x1F LT PUSH2 0x911 JUMPI PUSH2 0x100 DUP1 DUP4 SLOAD DIV MUL DUP4 MSTORE SWAP2 PUSH1 0x20 ADD SWAP2 PUSH2 0x93C JUMP JUMPDEST DUP3 ADD SWAP2 SWAP1 PUSH1 0x0 MSTORE PUSH1 0x20 PUSH1 0x0 KECCAK256 SWAP1 JUMPDEST DUP2 SLOAD DUP2 MSTORE SWAP1 PUSH1 0x1 ADD SWAP1 PUSH1 0x20 ADD DUP1 DUP4 GT PUSH2 0x91F JUMPI DUP3 SWAP1 SUB PUSH1 0x1F AND DUP3 ADD SWAP2 JUMPDEST POP POP POP POP POP DUP2 MSTORE PUSH1 0x20 ADD SWAP1 PUSH1 0x1 ADD SWAP1 PUSH2 0x8A4 JUMP JUMPDEST POP POP POP POP SWAP1 POP JUMPDEST SWAP3 SWAP2 POP POP JUMP JUMPDEST PUSH1 0x1 PUSH1 0x1 PUSH1 0xA0 SHL SUB DUP1 DUP4 AND PUSH1 0x0 SWAP1 DUP2 MSTORE PUSH1 0xB PUSH1 0x20 SWAP1 DUP2 MSTORE PUSH1 0x40 DUP1 DUP4 KECCAK256 SWAP4 DUP6 AND DUP4 MSTORE PUSH1 0x10 SWAP1 SWAP4 ADD DUP2 MSTORE DUP3 DUP3 KECCAK256 DUP1 SLOAD DUP5 MLOAD DUP2 DUP5 MUL DUP2 ADD DUP5 ADD SWAP1 SWAP6 MSTORE DUP1 DUP6 MSTORE PUSH1 0x60 SWAP5 SWAP4 SWAP2 SWAP3 SWAP1 SWAP2 SWAP1 DUP5 ADD JUMPDEST DUP3 DUP3 LT ISZERO PUSH2 0x950 JUMPI DUP4 DUP3 SWAP1 PUSH1 0x0 MSTORE PUSH1 0x20 PUSH1 0x0 KECCAK256 ADD DUP1 SLOAD PUSH2 0x9C4 SWAP1 PUSH2 0x4247 JUMP JUMPDEST DUP1 PUSH1 0x1F ADD PUSH1 0x20 DUP1 SWAP2 DIV MUL PUSH1 0x20 ADD PUSH1 0x40 MLOAD SWAP1 DUP2 ADD PUSH1 0x40 MSTORE DUP1 SWAP3 SWAP2 SWAP1 DUP2 DUP2 MSTORE PUSH1 0x20 ADD DUP3 DUP1 SLOAD PUSH2 0x9F0 SWAP1 PUSH2 0x4247 JUMP JUMPDEST DUP1 ISZERO PUSH2 0xA3D JUMPI DUP1 PUSH1 0x1F LT PUSH2 0xA12 JUMPI PUSH2 0x100 DUP1 DUP4 SLOAD DIV MUL DUP4 MSTORE SWAP2 PUSH1 0x20 ADD SWAP2 PUSH2 0xA3D JUMP JUMPDEST DUP3 ADD SWAP2 SWAP1 PUSH1 0x0 MSTORE PUSH1 0x20 PUSH1 0x0 KECCAK256 SWAP1 JUMPDEST DUP2 SLOAD DUP2 MSTORE SWAP1 PUSH1 0x1 ADD SWAP1 PUSH1 0x20 ADD DUP1 DUP4 GT PUSH2 0xA20 JUMPI DUP3 SWAP1 SUB PUSH1 0x1F AND DUP3 ADD SWAP2 JUMPDEST POP POP POP POP POP DUP2 MSTORE PUSH1 0x20 ADD SWAP1 PUSH1 0x1 ADD SWAP1 PUSH2 0x9A5 JUMP JUMPDEST PUSH1 0x1 PUSH1 0x1 PUSH1 0xA0 SHL SUB DUP2 AND PUSH1 0x0 SWAP1 DUP2 MSTORE PUSH1 0xE PUSH1 0x20 MSTORE PUSH1 0x40 DUP2 KECCAK256 PUSH1 0x6 DUP2 ADD SLOAD DUP3 SWAP2 DUP3 SWAP2 DUP3 SWAP2 DUP3 SWAP2 DUP3 SWAP2 PUSH1 0x60 SWAP2 DUP3 SWAP2 DUP5 SWAP2 DUP4 SWAP2 DUP4 SWAP2 DUP4 SWAP2 SWAP1 PUSH1 0xFF AND PUSH2 0xAD2 JUMPI PUSH1 0x40 MLOAD PUSH3 0x461BCD PUSH1 0xE5 SHL DUP2 MSTORE PUSH1 0x20 PUSH1 0x4 DUP3 ADD MSTORE PUSH1 0x15 PUSH1 0x24 DUP3 ADD MSTORE PUSH21 0x14185D1A1BDB1BD9DA5CDD081B9BDD08199BDD5B99 PUSH1 0x5A SHL PUSH1 0x44 DUP3 ADD MSTORE PUSH1 0x64 ADD JUMPDEST PUSH1 0x40 MLOAD DUP1 SWAP2 SUB SWAP1 REVERT JUMPDEST DUP1 SLOAD PUSH1 0x1 DUP3 ADD SLOAD PUSH1 0x2 DUP4 ADD SLOAD PUSH1 0x3 DUP5 ADD SLOAD PUSH1 0x4 DUP6 ADD SLOAD PUSH1 0x5 DUP7 ADD SLOAD PUSH1 0x1 PUSH1 0x1 PUSH1 0xA0 SHL SUB SWAP1 SWAP6 AND SWAP5 PUSH2 0xB05 PUSH1 0x7 DUP9 ADD PUSH2 0x35AD JUMP JUMPDEST DUP8 PUSH1 0x9 ADD DUP9 PUSH1 0xA ADD SLOAD DUP10 PUSH1 0xB ADD DUP11 PUSH1 0xC ADD SLOAD PUSH2 0xB23 DUP13 PUSH1 0xE ADD PUSH2 0x35AD JUMP JUMPDEST DUP5 DUP1 SLOAD DUP1 PUSH1 0x20 MUL PUSH1 0x20 ADD PUSH1 0x40 MLOAD SWAP1 DUP2 ADD PUSH1 0x40 MSTORE DUP1 SWAP3 SWAP2 SWAP1 DUP2 DUP2 MSTORE PUSH1 0x20 ADD PUSH1 0x0 SWAP1 JUMPDEST DUP3 DUP3 LT ISZERO PUSH2 0xBF0 JUMPI DUP4 DUP3 SWAP1 PUSH1 0x0 MSTORE PUSH1 0x20 PUSH1 0x0 KECCAK256 ADD DUP1 SLOAD PUSH2 0xB63 SWAP1 PUSH2 0x4247 JUMP JUMPDEST DUP1 PUSH1 0x1F ADD PUSH1 0x20 DUP1 SWAP2 DIV MUL PUSH1 0x20 ADD PUSH1 0x40 MLOAD SWAP1 DUP2 ADD PUSH1 0x40 MSTORE DUP1 SWAP3 SWAP2 SWAP1 DUP2 DUP2 MSTORE PUSH1 0x20 ADD DUP3 DUP1 SLOAD PUSH2 0xB8F SWAP1 PUSH2 0x4247 JUMP JUMPDEST DUP1 ISZERO PUSH2 0xBDC JUMPI DUP1 PUSH1 0x1F LT PUSH2 0xBB1 JUMPI PUSH2 0x100 DUP1 DUP4 SLOAD DIV MUL DUP4 MSTORE SWAP2 PUSH1 0x20 ADD SWAP2 PUSH2 0xBDC JUMP JUMPDEST DUP3 ADD SWAP2 SWAP1 PUSH1 0x0 MSTORE PUSH1 0x20 PUSH1 0x0 KECCAK256 SWAP1 JUMPDEST DUP2 SLOAD DUP2 MSTORE SWAP1 PUSH1 0x1 ADD SWAP1 PUSH1 0x20 ADD DUP1 DUP4 GT PUSH2 0xBBF JUMPI DUP3 SWAP1 SUB PUSH1 0x1F AND DUP3 ADD SWAP2 JUMPDEST POP POP POP POP POP DUP2 MSTORE PUSH1 0x20 ADD SWAP1 PUSH1 0x1 ADD SWAP1 PUSH2 0xB44 JUMP JUMPDEST POP POP POP POP SWAP5 POP DUP3 DUP1 SLOAD PUSH2 0xC02 SWAP1 PUSH2 0x4247 JUMP JUMPDEST DUP1 PUSH1 0x1F ADD PUSH1 0x20 DUP1 SWAP2 DIV MUL PUSH1 0x20 ADD PUSH1 0x40 MLOAD SWAP1 DUP2 ADD PUSH1 0x40 MSTORE DUP1 SWAP3 SWAP2 SWAP1 DUP2 DUP2 MSTORE PUSH1 0x20 ADD DUP3 DUP1 SLOAD PUSH2 0xC2E SWAP1 PUSH2 0x4247 JUMP JUMPDEST DUP1 ISZERO PUSH2 0xC7B JUMPI DUP1 PUSH1 0x1F LT PUSH2 0xC50 JUMPI PUSH2 0x100 DUP1 DUP4 SLOAD DIV MUL DUP4 MSTORE SWAP2 PUSH1 0x20 ADD SWAP2 PUSH2 0xC7B JUMP JUMPDEST DUP3 ADD SWAP2 SWAP1 PUSH1 0x0 MSTORE PUSH1 0x20 PUSH1 0x0 KECCAK256 SWAP1 JUMPDEST DUP2 SLOAD DUP2 MSTORE SWAP1 PUSH1 0x1 ADD SWAP1 PUSH1 0x20 ADD DUP1 DUP4 GT PUSH2 0xC5E JUMPI DUP3 SWAP1 SUB PUSH1 0x1F AND DUP3 ADD SWAP2 JUMPDEST POP POP POP POP POP SWAP3 POP SWAP13 POP SWAP13 POP SWAP13 POP SWAP13 POP SWAP13 POP SWAP13 POP SWAP13 POP SWAP13 POP SWAP13 POP SWAP13 POP SWAP13 POP SWAP13 POP POP SWAP2 SWAP4 SWAP6 SWAP8 SWAP10 SWAP12 POP SWAP2 SWAP4 SWAP6 SWAP8 SWAP10 SWAP12 JUMP JUMPDEST PUSH1 0x1 CALLER PUSH1 0x0 SWAP1 DUP2 MSTORE PUSH1 0x9 PUSH1 0x20 MSTORE PUSH1 0x40 SWAP1 KECCAK256 SLOAD SUB PUSH2 0xCDD JUMPI CALLER PUSH1 0x0 SWAP1 DUP2 MSTORE PUSH1 0xB PUSH1 0x20 MSTORE PUSH1 0x40 SWAP1 KECCAK256 PUSH1 0xE ADD PUSH2 0x7BC DUP3 DUP3 PUSH2 0x42CB JUMP JUMPDEST PUSH1 0x2 CALLER PUSH1 0x0 SWAP1 DUP2 MSTORE PUSH1 0x9 PUSH1 0x20 MSTORE PUSH1 0x40 SWAP1 KECCAK256 SLOAD SUB PUSH2 0xD10 JUMPI CALLER PUSH1 0x0 SWAP1 DUP2 MSTORE PUSH1 0xE PUSH1 0x20 MSTORE PUSH1 0x40 SWAP1 KECCAK256 PUSH1 0xB ADD PUSH2 0x7BC DUP3 DUP3 PUSH2 0x42CB JUMP JUMPDEST PUSH1 0x5 CALLER PUSH1 0x0 SWAP1 DUP2 MSTORE PUSH1 0x9 PUSH1 0x20 MSTORE PUSH1 0x40 SWAP1 KECCAK256 SLOAD SUB PUSH2 0xD43 JUMPI CALLER PUSH1 0x0 SWAP1 DUP2 MSTORE PUSH1 0xA PUSH1 0x20 MSTORE PUSH1 0x40 SWAP1 KECCAK256 PUSH1 0x11 ADD PUSH2 0x7BC DUP3 DUP3 PUSH2 0x42CB JUMP JUMPDEST PUSH1 0x4 CALLER PUSH1 0x0 SWAP1 DUP2 MSTORE PUSH1 0x9 PUSH1 0x20 MSTORE PUSH1 0x40 SWAP1 KECCAK256 SLOAD SUB PUSH2 0xD76 JUMPI CALLER PUSH1 0x0 SWAP1 DUP2 MSTORE PUSH1 0x10 PUSH1 0x20 MSTORE PUSH1 0x40 SWAP1 KECCAK256 PUSH1 0x9 ADD PUSH2 0x7BC DUP3 DUP3 PUSH2 0x42CB JUMP JUMPDEST PUSH1 0x3 CALLER PUSH1 0x0 SWAP1 DUP2 MSTORE PUSH1 0x9 PUSH1 0x20 MSTORE PUSH1 0x40 SWAP1 KECCAK256 SLOAD SUB PUSH2 0xDA9 JUMPI CALLER PUSH1 0x0 SWAP1 DUP2 MSTORE PUSH1 0xF PUSH1 0x20 MSTORE PUSH1 0x40 SWAP1 KECCAK256 PUSH1 0x9 ADD PUSH2 0x7BC DUP3 DUP3 PUSH2 0x42CB JUMP JUMPDEST PUSH1 0x6 CALLER PUSH1 0x0 SWAP1 DUP2 MSTORE PUSH1 0x9 PUSH1 0x20 MSTORE PUSH1 0x40 SWAP1 KECCAK256 SLOAD SUB PUSH2 0xDDC JUMPI CALLER PUSH1 0x0 SWAP1 DUP2 MSTORE PUSH1 0xD PUSH1 0x20 MSTORE PUSH1 0x40 SWAP1 KECCAK256 PUSH1 0x4 ADD PUSH2 0x7BC DUP3 DUP3 PUSH2 0x42CB JUMP JUMPDEST PUSH1 0x40 MLOAD PUSH3 0x461BCD PUSH1 0xE5 SHL DUP2 MSTORE PUSH1 0x20 PUSH1 0x4 DUP3 ADD MSTORE PUSH1 0x2A PUSH1 0x24 DUP3 ADD MSTORE PUSH32 0x596F7520646F6E2774206164642070726F66696C652070696320696E20746869 PUSH1 0x44 DUP3 ADD MSTORE PUSH10 0x39901032B73A34BA3C9 PUSH1 0xB5 SHL PUSH1 0x64 DUP3 ADD MSTORE PUSH1 0x84 ADD PUSH2 0xAC9 JUMP JUMPDEST PUSH1 0x1 PUSH1 0x1 PUSH1 0xA0 SHL SUB DUP2 AND PUSH1 0x0 SWAP1 DUP2 MSTORE PUSH1 0x8 PUSH1 0x20 MSTORE PUSH1 0x40 DUP2 KECCAK256 SLOAD DUP2 SWAP1 DUP2 SWAP1 TIMESTAMP LT ISZERO PUSH2 0xE99 JUMPI PUSH1 0x1 PUSH1 0x1 PUSH1 0xA0 SHL SUB DUP5 AND PUSH1 0x0 SWAP1 DUP2 MSTORE PUSH1 0x8 PUSH1 0x20 MSTORE PUSH1 0x40 SWAP1 KECCAK256 SLOAD SWAP2 POP PUSH3 0x15180 PUSH2 0xE84 TIMESTAMP DUP5 PUSH2 0x43A1 JUMP JUMPDEST PUSH2 0xE8E SWAP2 SWAP1 PUSH2 0x43B4 JUMP JUMPDEST SWAP1 POP PUSH1 0x1 SWAP3 POP PUSH2 0xEA3 JUMP JUMPDEST POP PUSH1 0x0 SWAP2 POP DUP2 SWAP1 POP DUP1 JUMPDEST SWAP2 SWAP4 SWAP1 SWAP3 POP JUMP JUMPDEST PUSH1 0x5 CALLER PUSH1 0x0 SWAP1 DUP2 MSTORE PUSH1 0x9 PUSH1 0x20 MSTORE PUSH1 0x40 SWAP1 KECCAK256 SLOAD SUB PUSH2 0xF8F JUMPI CALLER PUSH1 0x0 SWAP1 DUP2 MSTORE PUSH1 0xA PUSH1 0x20 MSTORE PUSH1 0x40 SWAP1 KECCAK256 PUSH1 0x8 ADD DUP1 SLOAD PUSH2 0xEE1 SWAP1 PUSH1 0x1 SWAP1 PUSH2 0x43A1 JUMP JUMPDEST DUP2 SLOAD DUP2 LT PUSH2 0xEF1 JUMPI PUSH2 0xEF1 PUSH2 0x43D6 JUMP JUMPDEST SWAP1 PUSH1 0x0 MSTORE PUSH1 0x20 PUSH1 0x0 KECCAK256 ADD PUSH1 0xA PUSH1 0x0 CALLER PUSH1 0x1 PUSH1 0x1 PUSH1 0xA0 SHL SUB AND PUSH1 0x1 PUSH1 0x1 PUSH1 0xA0 SHL SUB AND DUP2 MSTORE PUSH1 0x20 ADD SWAP1 DUP2 MSTORE PUSH1 0x20 ADD PUSH1 0x0 KECCAK256 PUSH1 0x8 ADD DUP4 DUP2 SLOAD DUP2 LT PUSH2 0xF34 JUMPI PUSH2 0xF34 PUSH2 0x43D6 JUMP JUMPDEST SWAP1 PUSH1 0x0 MSTORE PUSH1 0x20 PUSH1 0x0 KECCAK256 ADD SWAP1 DUP2 PUSH2 0xF4A SWAP2 SWAP1 PUSH2 0x43EC JUMP JUMPDEST POP CALLER PUSH1 0x0 SWAP1 DUP2 MSTORE PUSH1 0xA PUSH1 0x20 MSTORE PUSH1 0x40 SWAP1 KECCAK256 PUSH1 0x8 ADD DUP1 SLOAD DUP1 PUSH2 0xF6C JUMPI PUSH2 0xF6C PUSH2 0x44C7 JUMP JUMPDEST PUSH1 0x1 SWAP1 SUB DUP2 DUP2 SWAP1 PUSH1 0x0 MSTORE PUSH1 0x20 PUSH1 0x0 KECCAK256 ADD PUSH1 0x0 PUSH2 0xF88 SWAP2 SWAP1 PUSH2 0x378F JUMP JUMPDEST SWAP1 SSTORE PUSH2 0x7BC JUMP JUMPDEST PUSH1 0x1 CALLER PUSH1 0x0 SWAP1 DUP2 MSTORE PUSH1 0x9 PUSH1 0x20 MSTORE PUSH1 0x40 SWAP1 KECCAK256 SLOAD SUB PUSH2 0x1077 JUMPI CALLER PUSH1 0x0 SWAP1 DUP2 MSTORE PUSH1 0xB PUSH1 0x20 SWAP1 DUP2 MSTORE PUSH1 0x40 DUP1 DUP4 KECCAK256 PUSH1 0x1 PUSH1 0x1 PUSH1 0xA0 SHL SUB DUP6 AND DUP5 MSTORE PUSH1 0x10 ADD SWAP1 SWAP2 MSTORE SWAP1 KECCAK256 DUP1 SLOAD PUSH2 0xFDA SWAP1 PUSH1 0x1 SWAP1 PUSH2 0x43A1 JUMP JUMPDEST DUP2 SLOAD DUP2 LT PUSH2 0xFEA JUMPI PUSH2 0xFEA PUSH2 0x43D6 JUMP JUMPDEST PUSH1 0x0 SWAP2 DUP3 MSTORE PUSH1 0x20 DUP1 DUP4 KECCAK256 CALLER DUP5 MSTORE PUSH1 0xB DUP3 MSTORE PUSH1 0x40 DUP1 DUP6 KECCAK256 PUSH1 0x1 PUSH1 0x1 PUSH1 0xA0 SHL SUB DUP8 AND DUP7 MSTORE PUSH1 0x10 ADD SWAP1 SWAP3 MSTORE SWAP3 KECCAK256 DUP1 SLOAD SWAP3 SWAP1 SWAP2 ADD SWAP2 DUP5 SWAP1 DUP2 LT PUSH2 0x102B JUMPI PUSH2 0x102B PUSH2 0x43D6 JUMP JUMPDEST SWAP1 PUSH1 0x0 MSTORE PUSH1 0x20 PUSH1 0x0 KECCAK256 ADD SWAP1 DUP2 PUSH2 0x1041 SWAP2 SWAP1 PUSH2 0x43EC JUMP JUMPDEST POP CALLER PUSH1 0x0 SWAP1 DUP2 MSTORE PUSH1 0xB PUSH1 0x20 SWAP1 DUP2 MSTORE PUSH1 0x40 DUP1 DUP4 KECCAK256 PUSH1 0x1 PUSH1 0x1 PUSH1 0xA0 SHL SUB DUP6 AND DUP5 MSTORE PUSH1 0x10 ADD SWAP1 SWAP2 MSTORE SWAP1 KECCAK256 DUP1 SLOAD DUP1 PUSH2 0xF6C JUMPI PUSH2 0xF6C PUSH2 0x44C7 JUMP JUMPDEST PUSH1 0x2 CALLER PUSH1 0x0 SWAP1 DUP2 MSTORE PUSH1 0x9 PUSH1 0x20 MSTORE PUSH1 0x40 SWAP1 KECCAK256 SLOAD SUB PUSH2 0x7BC JUMPI CALLER PUSH1 0x0 SWAP1 DUP2 MSTORE PUSH1 0xB PUSH1 0x20 SWAP1 DUP2 MSTORE PUSH1 0x40 DUP1 DUP4 KECCAK256 PUSH1 0x1 PUSH1 0x1 PUSH1 0xA0 SHL SUB DUP6 AND DUP5 MSTORE PUSH1 0x10 ADD SWAP1 SWAP2 MSTORE SWAP1 KECCAK256 DUP1 SLOAD PUSH2 0x10C2 SWAP1 PUSH1 0x1 SWAP1 PUSH2 0x43A1 JUMP JUMPDEST DUP2 SLOAD DUP2 LT PUSH2 0x10D2 JUMPI PUSH2 0x10D2 PUSH2 0x43D6 JUMP JUMPDEST PUSH1 0x0 SWAP2 DUP3 MSTORE PUSH1 0x20 DUP1 DUP4 KECCAK256 CALLER DUP5 MSTORE PUSH1 0xE DUP3 MSTORE PUSH1 0x40 DUP1 DUP6 KECCAK256 PUSH1 0x1 PUSH1 0x1 PUSH1 0xA0 SHL SUB DUP8 AND DUP7 MSTORE PUSH1 0xD ADD SWAP1 SWAP3 MSTORE SWAP3 KECCAK256 DUP1 SLOAD SWAP3 SWAP1 SWAP2 ADD SWAP2 DUP5 SWAP1 DUP2 LT PUSH2 0x1113 JUMPI PUSH2 0x1113 PUSH2 0x43D6 JUMP JUMPDEST SWAP1 PUSH1 0x0 MSTORE PUSH1 0x20 PUSH1 0x0 KECCAK256 ADD SWAP1 DUP2 PUSH2 0x1129 SWAP2 SWAP1 PUSH2 0x43EC JUMP JUMPDEST POP CALLER PUSH1 0x0 SWAP1 DUP2 MSTORE PUSH1 0xE PUSH1 0x20 SWAP1 DUP2 MSTORE PUSH1 0x40 DUP1 DUP4 KECCAK256 PUSH1 0x1 PUSH1 0x1 PUSH1 0xA0 SHL SUB DUP6 AND DUP5 MSTORE PUSH1 0xD ADD SWAP1 SWAP2 MSTORE SWAP1 KECCAK256 DUP1 SLOAD DUP1 PUSH2 0x115F JUMPI PUSH2 0x115F PUSH2 0x44C7 JUMP JUMPDEST PUSH1 0x1 SWAP1 SUB DUP2 DUP2 SWAP1 PUSH1 0x0 MSTORE PUSH1 0x20 PUSH1 0x0 KECCAK256 ADD PUSH1 0x0 PUSH2 0x117B SWAP2 SWAP1 PUSH2 0x378F JUMP JUMPDEST SWAP1 SSTORE POP POP JUMP JUMPDEST CALLER PUSH1 0x0 DUP2 DUP2 MSTORE PUSH1 0xD PUSH1 0x20 MSTORE PUSH1 0x40 SWAP1 KECCAK256 PUSH1 0x6 ADD SLOAD PUSH1 0xFF AND ISZERO PUSH2 0x11B4 JUMPI PUSH1 0x40 MLOAD PUSH3 0x461BCD PUSH1 0xE5 SHL DUP2 MSTORE PUSH1 0x4 ADD PUSH2 0xAC9 SWAP1 PUSH2 0x44DD JUMP JUMPDEST PUSH1 0x1 PUSH1 0x1 PUSH1 0xA0 SHL SUB AND PUSH1 0x0 DUP2 DUP2 MSTORE PUSH1 0xD PUSH1 0x20 SWAP1 DUP2 MSTORE PUSH1 0x40 DUP1 DUP4 KECCAK256 DUP1 SLOAD PUSH1 0x1 PUSH1 0x1 PUSH1 0xA0 SHL SUB NOT AND SWAP1 SWAP5 OR DUP5 SSTORE PUSH1 0x1 DUP1 DUP6 ADD SWAP8 SWAP1 SWAP8 SSTORE PUSH1 0x2 DUP5 ADD SWAP6 SWAP1 SWAP6 SSTORE PUSH1 0x3 DUP4 ADD SWAP4 SWAP1 SWAP4 SSTORE PUSH1 0x6 SWAP2 DUP3 ADD DUP1 SLOAD PUSH1 0xFF NOT AND SWAP1 SWAP6 OR SWAP1 SWAP5 SSTORE PUSH1 0x9 SWAP1 SWAP2 MSTORE SWAP2 KECCAK256 SSTORE JUMP JUMPDEST CALLER PUSH1 0x0 DUP2 DUP2 MSTORE PUSH1 0xF PUSH1 0x20 MSTORE PUSH1 0x40 SWAP1 KECCAK256 PUSH1 0x6 ADD SLOAD PUSH1 0xFF AND ISZERO PUSH2 0x1246 JUMPI PUSH1 0x40 MLOAD PUSH3 0x461BCD PUSH1 0xE5 SHL DUP2 MSTORE PUSH1 0x4 ADD PUSH2 0xAC9 SWAP1 PUSH2 0x44DD JUMP JUMPDEST PUSH1 0x1 PUSH1 0x1 PUSH1 0xA0 SHL SUB DUP2 AND PUSH1 0x0 DUP2 DUP2 MSTORE PUSH1 0xF PUSH1 0x20 SWAP1 DUP2 MSTORE PUSH1 0x40 DUP1 DUP4 KECCAK256 DUP1 SLOAD PUSH1 0x1 PUSH1 0x1 PUSH1 0xA0 SHL SUB NOT AND SWAP1 SWAP5 OR DUP5 SSTORE PUSH1 0x1 DUP1 DUP6 ADD DUP12 SWAP1 SSTORE PUSH1 0x2 DUP6 ADD DUP11 SWAP1 SSTORE PUSH1 0x3 DUP1 DUP7 ADD DUP11 SWAP1 SSTORE PUSH1 0x4 DUP1 DUP8 ADD DUP11 SWAP1 SSTORE PUSH1 0x5 DUP8 ADD DUP10 SWAP1 SSTORE PUSH1 0x6 DUP8 ADD DUP1 SLOAD PUSH1 0xFF NOT AND SWAP1 SWAP4 OR SWAP1 SWAP3 SSTORE PUSH1 0x9 SWAP1 SWAP4 MSTORE SWAP1 DUP4 KECCAK256 SWAP2 SWAP1 SWAP2 SSTORE PUSH20 0x26B2B234B1B0B6102932B9B2B0B931B4102630B1 PUSH1 0x61 SHL PUSH1 0x8 DUP5 ADD SSTORE DUP2 SLOAD PUSH5 0x100000000 SWAP1 DIV PUSH1 0xFF AND SWAP2 SWAP1 PUSH2 0x12E9 DUP4 PUSH2 0x4514 JUMP JUMPDEST SWAP2 SWAP1 PUSH2 0x100 EXP DUP2 SLOAD DUP2 PUSH1 0xFF MUL NOT AND SWAP1 DUP4 PUSH1 0xFF AND MUL OR SWAP1 SSTORE POP POP POP POP POP POP POP POP POP JUMP JUMPDEST PUSH1 0x1 PUSH1 0x1 PUSH1 0xA0 SHL SUB DUP2 AND PUSH1 0x0 SWAP1 DUP2 MSTORE PUSH1 0x9 PUSH1 0x20 MSTORE PUSH1 0x40 DUP2 KECCAK256 SLOAD DUP1 PUSH2 0x132F JUMPI SWAP3 SWAP2 POP POP JUMP JUMPDEST PUSH1 0x1 DUP2 SUB PUSH2 0x133D JUMPI SWAP3 SWAP2 POP POP JUMP JUMPDEST PUSH1 0x5 DUP2 SUB PUSH2 0x134B JUMPI SWAP3 SWAP2 POP POP JUMP JUMPDEST PUSH1 0x2 DUP2 SUB PUSH2 0x1359 JUMPI SWAP3 SWAP2 POP POP JUMP JUMPDEST PUSH1 0x3 DUP2 SUB PUSH2 0x1367 JUMPI SWAP3 SWAP2 POP POP JUMP JUMPDEST PUSH1 0x4 DUP2 SUB PUSH2 0x1375 JUMPI SWAP3 SWAP2 POP POP JUMP JUMPDEST PUSH1 0x6 DUP2 SUB PUSH2 0x1383 JUMPI SWAP3 SWAP2 POP POP JUMP JUMPDEST PUSH1 0x40 MLOAD PUSH3 0x461BCD PUSH1 0xE5 SHL DUP2 MSTORE PUSH1 0x20 PUSH1 0x4 DUP3 ADD MSTORE PUSH1 0x13 PUSH1 0x24 DUP3 ADD MSTORE PUSH19 0x24B73B30B4B6321029BA30B5B2B437B63232B9 PUSH1 0x69 SHL PUSH1 0x44 DUP3 ADD MSTORE PUSH1 0x64 ADD PUSH2 0xAC9 JUMP JUMPDEST POP SWAP2 SWAP1 POP JUMP JUMPDEST PUSH1 0x1 PUSH1 0x1 PUSH1 0xA0 SHL SUB DUP2 AND PUSH1 0x0 SWAP1 DUP2 MSTORE PUSH1 0xB PUSH1 0x20 MSTORE PUSH1 0x40 DUP2 KECCAK256 PUSH1 0xA DUP2 ADD SLOAD DUP3 SWAP2 DUP3 SWAP2 DUP3 SWAP2 DUP3 SWAP2 DUP3 SWAP2 DUP3 SWAP2 DUP3 SWAP2 PUSH1 0x60 SWAP2 DUP4 SWAP2 DUP3 SWAP2 PUSH1 0xFF AND PUSH2 0x143B JUMPI PUSH1 0x40 MLOAD PUSH3 0x461BCD PUSH1 0xE5 SHL DUP2 MSTORE PUSH1 0x20 PUSH1 0x4 DUP3 ADD MSTORE PUSH1 0x10 PUSH1 0x24 DUP3 ADD MSTORE PUSH16 0x111BD8DD1BDC881B9BDD08199BDD5B99 PUSH1 0x82 SHL PUSH1 0x44 DUP3 ADD MSTORE PUSH1 0x64 ADD PUSH2 0xAC9 JUMP JUMPDEST DUP1 SLOAD PUSH1 0x1 DUP3 ADD SLOAD PUSH1 0x2 DUP4 ADD SLOAD PUSH1 0x3 DUP5 ADD SLOAD PUSH1 0x4 DUP6 ADD SLOAD PUSH1 0x5 DUP7 ADD SLOAD PUSH1 0x6 DUP8 ADD SLOAD PUSH1 0xD DUP9 ADD SLOAD PUSH1 0xF DUP10 ADD SLOAD PUSH1 0x13 DUP11 ADD SLOAD PUSH1 0xE DUP12 ADD DUP1 SLOAD PUSH1 0x1 PUSH1 0x1 PUSH1 0xA0 SHL SUB SWAP1 SWAP12 AND SWAP11 SWAP1 SWAP3 SWAP2 SWAP1 DUP4 SWAP1 PUSH2 0x148B SWAP1 PUSH2 0x4247 JUMP JUMPDEST DUP1 PUSH1 0x1F ADD PUSH1 0x20 DUP1 SWAP2 DIV MUL PUSH1 0x20 ADD PUSH1 0x40 MLOAD SWAP1 DUP2 ADD PUSH1 0x40 MSTORE DUP1 SWAP3 SWAP2 SWAP1 DUP2 DUP2 MSTORE PUSH1 0x20 ADD DUP3 DUP1 SLOAD PUSH2 0x14B7 SWAP1 PUSH2 0x4247 JUMP JUMPDEST DUP1 ISZERO PUSH2 0x1504 JUMPI DUP1 PUSH1 0x1F LT PUSH2 0x14D9 JUMPI PUSH2 0x100 DUP1 DUP4 SLOAD DIV MUL DUP4 MSTORE SWAP2 PUSH1 0x20 ADD SWAP2 PUSH2 0x1504 JUMP JUMPDEST DUP3 ADD SWAP2 SWAP1 PUSH1 0x0 MSTORE PUSH1 0x20 PUSH1 0x0 KECCAK256 SWAP1 JUMPDEST DUP2 SLOAD DUP2 MSTORE SWAP1 PUSH1 0x1 ADD SWAP1 PUSH1 0x20 ADD DUP1 DUP4 GT PUSH2 0x14E7 JUMPI DUP3 SWAP1 SUB PUSH1 0x1F AND DUP3 ADD SWAP2 JUMPDEST POP POP POP POP POP SWAP3 POP SWAP12 POP SWAP12 POP SWAP12 POP SWAP12 POP SWAP12 POP SWAP12 POP SWAP12 POP SWAP12 POP SWAP12 POP SWAP12 POP SWAP12 POP POP SWAP2 SWAP4 SWAP6 SWAP8 SWAP10 SWAP12 SWAP1 SWAP3 SWAP5 SWAP7 SWAP9 SWAP11 POP JUMP JUMPDEST PUSH1 0x1 PUSH1 0x1 PUSH1 0xA0 SHL SUB DUP2 AND PUSH1 0x0 SWAP1 DUP2 MSTORE PUSH1 0x11 PUSH1 0x20 SWAP1 DUP2 MSTORE PUSH1 0x40 DUP1 DUP4 KECCAK256 DUP1 SLOAD DUP3 MLOAD DUP2 DUP6 MUL DUP2 ADD DUP6 ADD SWAP1 SWAP4 MSTORE DUP1 DUP4 MSTORE PUSH1 0x60 SWAP5 SWAP3 SWAP4 SWAP2 SWAP3 SWAP1 SWAP2 DUP5 ADD JUMPDEST DUP3 DUP3 LT ISZERO PUSH2 0x1615 JUMPI DUP4 DUP3 SWAP1 PUSH1 0x0 MSTORE PUSH1 0x20 PUSH1 0x0 KECCAK256 ADD DUP1 SLOAD PUSH2 0x1588 SWAP1 PUSH2 0x4247 JUMP JUMPDEST DUP1 PUSH1 0x1F ADD PUSH1 0x20 DUP1 SWAP2 DIV MUL PUSH1 0x20 ADD PUSH1 0x40 MLOAD SWAP1 DUP2 ADD PUSH1 0x40 MSTORE DUP1 SWAP3 SWAP2 SWAP1 DUP2 DUP2 MSTORE PUSH1 0x20 ADD DUP3 DUP1 SLOAD PUSH2 0x15B4 SWAP1 PUSH2 0x4247 JUMP JUMPDEST DUP1 ISZERO PUSH2 0x1601 JUMPI DUP1 PUSH1 0x1F LT PUSH2 0x15D6 JUMPI PUSH2 0x100 DUP1 DUP4 SLOAD DIV MUL DUP4 MSTORE SWAP2 PUSH1 0x20 ADD SWAP2 PUSH2 0x1601 JUMP JUMPDEST DUP3 ADD SWAP2 SWAP1 PUSH1 0x0 MSTORE PUSH1 0x20 PUSH1 0x0 KECCAK256 SWAP1 JUMPDEST DUP2 SLOAD DUP2 MSTORE SWAP1 PUSH1 0x1 ADD SWAP1 PUSH1 0x20 ADD DUP1 DUP4 GT PUSH2 0x15E4 JUMPI DUP3 SWAP1 SUB PUSH1 0x1F AND DUP3 ADD SWAP2 JUMPDEST POP POP POP POP POP DUP2 MSTORE PUSH1 0x20 ADD SWAP1 PUSH1 0x1 ADD SWAP1 PUSH2 0x1569 JUMP JUMPDEST POP POP POP POP SWAP1 POP SWAP2 SWAP1 POP JUMP JUMPDEST CALLER PUSH1 0x0 DUP2 DUP2 MSTORE PUSH1 0x10 PUSH1 0x20 MSTORE PUSH1 0x40 SWAP1 KECCAK256 PUSH1 0x6 ADD SLOAD PUSH1 0xFF AND ISZERO PUSH2 0x1653 JUMPI PUSH1 0x40 MLOAD PUSH3 0x461BCD PUSH1 0xE5 SHL DUP2 MSTORE PUSH1 0x4 ADD PUSH2 0xAC9 SWAP1 PUSH2 0x44DD JUMP JUMPDEST PUSH1 0x1 PUSH1 0x1 PUSH1 0xA0 SHL SUB DUP2 AND PUSH1 0x0 DUP2 DUP2 MSTORE PUSH1 0x10 PUSH1 0x20 SWAP1 DUP2 MSTORE PUSH1 0x40 DUP1 DUP4 KECCAK256 DUP1 SLOAD PUSH1 0x1 PUSH1 0x1 PUSH1 0xA0 SHL SUB NOT AND SWAP1 SWAP5 OR DUP5 SSTORE PUSH1 0x1 DUP1 DUP6 ADD DUP12 SWAP1 SSTORE PUSH1 0x2 DUP6 ADD DUP11 SWAP1 SSTORE PUSH1 0x3 DUP1 DUP7 ADD DUP11 SWAP1 SSTORE PUSH1 0x4 DUP1 DUP8 ADD DUP11 SWAP1 SSTORE PUSH1 0x5 DUP8 ADD DUP10 SWAP1 SSTORE PUSH1 0x6 DUP8 ADD DUP1 SLOAD PUSH1 0xFF NOT AND SWAP1 SWAP4 OR SWAP1 SWAP3 SSTORE PUSH1 0x9 SWAP1 SWAP4 MSTORE SWAP1 DUP4 KECCAK256 SSTORE PUSH16 0x506861726D61637920436F6D70616E79 PUSH1 0x80 SHL PUSH1 0x7 DUP5 ADD SSTORE DUP2 SLOAD PUSH4 0x1000000 SWAP1 DIV PUSH1 0xFF AND SWAP2 SWAP1 PUSH2 0x12E9 DUP4 PUSH2 0x4514 JUMP JUMPDEST CALLER PUSH1 0x0 SWAP1 DUP2 MSTORE PUSH1 0x6 PUSH1 0x20 MSTORE PUSH1 0x40 SWAP1 KECCAK256 PUSH1 0x60 SWAP1 PUSH2 0x1709 SWAP1 PUSH2 0x35AD JUMP JUMPDEST SWAP1 POP SWAP1 JUMP JUMPDEST PUSH1 0x1 CALLER PUSH1 0x0 SWAP1 DUP2 MSTORE PUSH1 0x9 PUSH1 0x20 MSTORE PUSH1 0x40 SWAP1 KECCAK256 SLOAD SUB PUSH2 0x19F5 JUMPI CALLER PUSH1 0x0 SWAP1 DUP2 MSTORE PUSH1 0xB PUSH1 0x20 MSTORE PUSH1 0x40 SWAP1 KECCAK256 PUSH1 0xA ADD SLOAD PUSH1 0xFF AND PUSH2 0x177E JUMPI PUSH1 0x40 MLOAD PUSH3 0x461BCD PUSH1 0xE5 SHL DUP2 MSTORE PUSH1 0x20 PUSH1 0x4 DUP3 ADD MSTORE PUSH1 0x14 PUSH1 0x24 DUP3 ADD MSTORE PUSH20 0x111BD8DD1BDC88191BD95CDB89DD08195E1A5CDD PUSH1 0x62 SHL PUSH1 0x44 DUP3 ADD MSTORE PUSH1 0x64 ADD PUSH2 0xAC9 JUMP JUMPDEST PUSH1 0x2 PUSH1 0x1 PUSH1 0x1 PUSH1 0xA0 SHL SUB DUP4 AND PUSH1 0x0 SWAP1 DUP2 MSTORE PUSH1 0x9 PUSH1 0x20 MSTORE PUSH1 0x40 SWAP1 KECCAK256 SLOAD SUB PUSH2 0x188C JUMPI PUSH1 0x0 JUMPDEST DUP2 MLOAD DUP2 LT ISZERO PUSH2 0x1816 JUMPI CALLER PUSH1 0x0 SWAP1 DUP2 MSTORE PUSH1 0xB PUSH1 0x20 SWAP1 DUP2 MSTORE PUSH1 0x40 DUP1 DUP4 KECCAK256 PUSH1 0x1 PUSH1 0x1 PUSH1 0xA0 SHL SUB DUP8 AND DUP5 MSTORE PUSH1 0x10 ADD SWAP1 SWAP2 MSTORE SWAP1 KECCAK256 DUP3 MLOAD DUP4 SWAP1 DUP4 SWAP1 DUP2 LT PUSH2 0x17E4 JUMPI PUSH2 0x17E4 PUSH2 0x43D6 JUMP JUMPDEST PUSH1 0x20 SWAP1 DUP2 MUL SWAP2 SWAP1 SWAP2 ADD DUP2 ADD MLOAD DUP3 SLOAD PUSH1 0x1 DUP2 ADD DUP5 SSTORE PUSH1 0x0 SWAP4 DUP5 MSTORE SWAP2 SWAP1 SWAP3 KECCAK256 ADD SWAP1 PUSH2 0x180D SWAP1 DUP3 PUSH2 0x42CB JUMP JUMPDEST POP PUSH1 0x1 ADD PUSH2 0x17A1 JUMP JUMPDEST POP CALLER PUSH1 0x0 SWAP1 DUP2 MSTORE PUSH1 0xB PUSH1 0x20 MSTORE PUSH1 0x40 DUP2 KECCAK256 PUSH2 0x1833 SWAP1 PUSH1 0x11 ADD DUP5 PUSH2 0x35BA JUMP JUMPDEST ISZERO PUSH2 0x183C JUMPI POP PUSH1 0x1 JUMPDEST DUP1 PUSH2 0x1886 JUMPI CALLER PUSH1 0x0 SWAP1 DUP2 MSTORE PUSH1 0xB PUSH1 0x20 MSTORE PUSH1 0x40 SWAP1 KECCAK256 PUSH2 0x185D SWAP1 PUSH1 0x11 ADD DUP5 PUSH2 0x35DC JUMP JUMPDEST POP PUSH1 0x1 PUSH1 0x1 PUSH1 0xA0 SHL SUB DUP4 AND PUSH1 0x0 SWAP1 DUP2 MSTORE PUSH1 0xE PUSH1 0x20 DUP2 SWAP1 MSTORE PUSH1 0x40 SWAP1 SWAP2 KECCAK256 PUSH2 0x1884 SWAP2 ADD CALLER PUSH2 0x35DC JUMP JUMPDEST POP JUMPDEST POP PUSH2 0x7BC JUMP JUMPDEST PUSH1 0x5 PUSH1 0x1 PUSH1 0x1 PUSH1 0xA0 SHL SUB DUP4 AND PUSH1 0x0 SWAP1 DUP2 MSTORE PUSH1 0x9 PUSH1 0x20 MSTORE PUSH1 0x40 SWAP1 KECCAK256 SLOAD SUB PUSH2 0x199A JUMPI PUSH1 0x0 JUMPDEST DUP2 MLOAD DUP2 LT ISZERO PUSH2 0x1924 JUMPI CALLER PUSH1 0x0 SWAP1 DUP2 MSTORE PUSH1 0xB PUSH1 0x20 SWAP1 DUP2 MSTORE PUSH1 0x40 DUP1 DUP4 KECCAK256 PUSH1 0x1 PUSH1 0x1 PUSH1 0xA0 SHL SUB DUP8 AND DUP5 MSTORE PUSH1 0x10 ADD SWAP1 SWAP2 MSTORE SWAP1 KECCAK256 DUP3 MLOAD DUP4 SWAP1 DUP4 SWAP1 DUP2 LT PUSH2 0x18F2 JUMPI PUSH2 0x18F2 PUSH2 0x43D6 JUMP JUMPDEST PUSH1 0x20 SWAP1 DUP2 MUL SWAP2 SWAP1 SWAP2 ADD DUP2 ADD MLOAD DUP3 SLOAD PUSH1 0x1 DUP2 ADD DUP5 SSTORE PUSH1 0x0 SWAP4 DUP5 MSTORE SWAP2 SWAP1 SWAP3 KECCAK256 ADD SWAP1 PUSH2 0x191B SWAP1 DUP3 PUSH2 0x42CB JUMP JUMPDEST POP PUSH1 0x1 ADD PUSH2 0x18AF JUMP JUMPDEST POP CALLER PUSH1 0x0 SWAP1 DUP2 MSTORE PUSH1 0xB PUSH1 0x20 DUP2 SWAP1 MSTORE PUSH1 0x40 DUP3 KECCAK256 SWAP2 SWAP1 PUSH2 0x1944 SWAP1 DUP4 ADD DUP6 PUSH2 0x35BA JUMP JUMPDEST ISZERO PUSH2 0x194D JUMPI POP PUSH1 0x1 JUMPDEST DUP1 PUSH2 0x1884 JUMPI CALLER PUSH1 0x0 SWAP1 DUP2 MSTORE PUSH1 0xB PUSH1 0x20 DUP2 SWAP1 MSTORE PUSH1 0x40 SWAP1 SWAP2 KECCAK256 PUSH2 0x196F SWAP2 ADD DUP6 PUSH2 0x35DC JUMP JUMPDEST POP PUSH1 0x1 PUSH1 0x1 PUSH1 0xA0 SHL SUB DUP5 AND PUSH1 0x0 SWAP1 DUP2 MSTORE PUSH1 0x2 PUSH1 0x20 MSTORE PUSH1 0x40 SWAP1 KECCAK256 PUSH2 0x1992 SWAP1 CALLER PUSH2 0x35DC JUMP JUMPDEST POP POP POP PUSH2 0x7BC JUMP JUMPDEST PUSH1 0x40 MLOAD PUSH3 0x461BCD PUSH1 0xE5 SHL DUP2 MSTORE PUSH1 0x20 PUSH1 0x4 DUP3 ADD MSTORE PUSH1 0x2A PUSH1 0x24 DUP3 ADD MSTORE PUSH32 0x596F752063616E27742061646420707265736372697074696F6E20666F722074 PUSH1 0x44 DUP3 ADD MSTORE PUSH10 0x68697320656E74697479 PUSH1 0xB0 SHL PUSH1 0x64 DUP3 ADD MSTORE PUSH1 0x84 ADD PUSH2 0xAC9 JUMP JUMPDEST PUSH1 0x5 CALLER PUSH1 0x0 SWAP1 DUP2 MSTORE PUSH1 0x9 PUSH1 0x20 MSTORE PUSH1 0x40 SWAP1 KECCAK256 SLOAD SUB PUSH2 0x1ACD JUMPI CALLER PUSH1 0x0 SWAP1 DUP2 MSTORE PUSH1 0xA PUSH1 0x20 MSTORE PUSH1 0x40 SWAP1 KECCAK256 PUSH1 0x6 ADD SLOAD PUSH1 0xFF AND PUSH2 0x1A66 JUMPI PUSH1 0x40 MLOAD PUSH3 0x461BCD PUSH1 0xE5 SHL DUP2 MSTORE PUSH1 0x20 PUSH1 0x4 DUP3 ADD MSTORE PUSH1 0x15 PUSH1 0x24 DUP3 ADD MSTORE PUSH21 0x14185D1A595B9D08191BD95CDB89DD08195E1A5CDD PUSH1 0x5A SHL PUSH1 0x44 DUP3 ADD MSTORE PUSH1 0x64 ADD PUSH2 0xAC9 JUMP JUMPDEST PUSH1 0x0 JUMPDEST DUP2 MLOAD DUP2 LT ISZERO PUSH2 0x1886 JUMPI CALLER PUSH1 0x0 SWAP1 DUP2 MSTORE PUSH1 0xA PUSH1 0x20 MSTORE PUSH1 0x40 SWAP1 KECCAK256 DUP3 MLOAD PUSH1 0x8 SWAP1 SWAP2 ADD SWAP1 DUP4 SWAP1 DUP4 SWAP1 DUP2 LT PUSH2 0x1A9B JUMPI PUSH2 0x1A9B PUSH2 0x43D6 JUMP JUMPDEST PUSH1 0x20 SWAP1 DUP2 MUL SWAP2 SWAP1 SWAP2 ADD DUP2 ADD MLOAD DUP3 SLOAD PUSH1 0x1 DUP2 ADD DUP5 SSTORE PUSH1 0x0 SWAP4 DUP5 MSTORE SWAP2 SWAP1 SWAP3 KECCAK256 ADD SWAP1 PUSH2 0x1AC4 SWAP1 DUP3 PUSH2 0x42CB JUMP JUMPDEST POP PUSH1 0x1 ADD PUSH2 0x1A69 JUMP JUMPDEST PUSH1 0x2 CALLER PUSH1 0x0 SWAP1 DUP2 MSTORE PUSH1 0x9 PUSH1 0x20 MSTORE PUSH1 0x40 SWAP1 KECCAK256 SLOAD SUB PUSH2 0x1C4C JUMPI CALLER PUSH1 0x0 SWAP1 DUP2 MSTORE PUSH1 0xE PUSH1 0x20 MSTORE PUSH1 0x40 SWAP1 KECCAK256 PUSH1 0x6 ADD SLOAD PUSH1 0xFF AND PUSH2 0x1B46 JUMPI PUSH1 0x40 MLOAD PUSH3 0x461BCD PUSH1 0xE5 SHL DUP2 MSTORE PUSH1 0x20 PUSH1 0x4 DUP3 ADD MSTORE PUSH1 0x19 PUSH1 0x24 DUP3 ADD MSTORE PUSH32 0x506174686F6C6F6769737420646F65736E277420657869737400000000000000 PUSH1 0x44 DUP3 ADD MSTORE PUSH1 0x64 ADD PUSH2 0xAC9 JUMP JUMPDEST PUSH1 0x1 PUSH1 0x1 PUSH1 0x1 PUSH1 0xA0 SHL SUB DUP4 AND PUSH1 0x0 SWAP1 DUP2 MSTORE PUSH1 0x9 PUSH1 0x20 MSTORE PUSH1 0x40 SWAP1 KECCAK256 SLOAD SUB PUSH2 0x199A JUMPI PUSH1 0x0 JUMPDEST DUP2 MLOAD DUP2 LT ISZERO PUSH2 0x1BDE JUMPI CALLER PUSH1 0x0 SWAP1 DUP2 MSTORE PUSH1 0xE PUSH1 0x20 SWAP1 DUP2 MSTORE PUSH1 0x40 DUP1 DUP4 KECCAK256 PUSH1 0x1 PUSH1 0x1 PUSH1 0xA0 SHL SUB DUP8 AND DUP5 MSTORE PUSH1 0xD ADD SWAP1 SWAP2 MSTORE SWAP1 KECCAK256 DUP3 MLOAD DUP4 SWAP1 DUP4 SWAP1 DUP2 LT PUSH2 0x1BAC JUMPI PUSH2 0x1BAC PUSH2 0x43D6 JUMP JUMPDEST PUSH1 0x20 SWAP1 DUP2 MUL SWAP2 SWAP1 SWAP2 ADD DUP2 ADD MLOAD DUP3 SLOAD PUSH1 0x1 DUP2 ADD DUP5 SSTORE PUSH1 0x0 SWAP4 DUP5 MSTORE SWAP2 SWAP1 SWAP3 KECCAK256 ADD SWAP1 PUSH2 0x1BD5 SWAP1 DUP3 PUSH2 0x42CB JUMP JUMPDEST POP PUSH1 0x1 ADD PUSH2 0x1B69 JUMP JUMPDEST POP CALLER PUSH1 0x0 SWAP1 DUP2 MSTORE PUSH1 0xE PUSH1 0x20 DUP2 SWAP1 MSTORE PUSH1 0x40 DUP3 KECCAK256 PUSH2 0x1BFB SWAP2 ADD DUP5 PUSH2 0x35BA JUMP JUMPDEST ISZERO PUSH2 0x1C04 JUMPI POP PUSH1 0x1 JUMPDEST DUP1 PUSH2 0x1886 JUMPI PUSH1 0x1 PUSH1 0x1 PUSH1 0xA0 SHL SUB DUP4 AND PUSH1 0x0 SWAP1 DUP2 MSTORE PUSH1 0xB PUSH1 0x20 MSTORE PUSH1 0x40 SWAP1 KECCAK256 PUSH2 0x1C2E SWAP1 PUSH1 0x11 ADD CALLER PUSH2 0x35DC JUMP JUMPDEST POP CALLER PUSH1 0x0 SWAP1 DUP2 MSTORE PUSH1 0xE PUSH1 0x20 DUP2 SWAP1 MSTORE PUSH1 0x40 SWAP1 SWAP2 KECCAK256 PUSH2 0x1884 SWAP2 ADD DUP5 PUSH2 0x35DC JUMP JUMPDEST PUSH1 0x3 PUSH1 0x1 PUSH1 0x1 PUSH1 0xA0 SHL SUB DUP4 AND PUSH1 0x0 SWAP1 DUP2 MSTORE PUSH1 0x9 PUSH1 0x20 MSTORE PUSH1 0x40 SWAP1 KECCAK256 SLOAD SUB PUSH2 0x199A JUMPI PUSH1 0x0 JUMPDEST DUP2 MLOAD DUP2 LT ISZERO PUSH2 0x1886 JUMPI PUSH1 0xF PUSH1 0x0 DUP5 PUSH1 0x1 PUSH1 0x1 PUSH1 0xA0 SHL SUB AND PUSH1 0x1 PUSH1 0x1 PUSH1 0xA0 SHL SUB AND DUP2 MSTORE PUSH1 0x20 ADD SWAP1 DUP2 MSTORE PUSH1 0x20 ADD PUSH1 0x0 KECCAK256 PUSH1 0x7 ADD DUP3 DUP3 DUP2 MLOAD DUP2 LT PUSH2 0x1CB2 JUMPI PUSH2 0x1CB2 PUSH2 0x43D6 JUMP JUMPDEST PUSH1 0x20 SWAP1 DUP2 MUL SWAP2 SWAP1 SWAP2 ADD DUP2 ADD MLOAD DUP3 SLOAD PUSH1 0x1 DUP2 ADD DUP5 SSTORE PUSH1 0x0 SWAP4 DUP5 MSTORE SWAP2 SWAP1 SWAP3 KECCAK256 ADD SWAP1 PUSH2 0x1CDB SWAP1 DUP3 PUSH2 0x42CB JUMP JUMPDEST POP PUSH1 0x1 ADD PUSH2 0x1C6F JUMP JUMPDEST PUSH1 0x40 DUP1 MLOAD PUSH1 0xE0 DUP2 ADD DUP3 MSTORE PUSH1 0x0 DUP1 DUP3 MSTORE PUSH1 0x20 DUP1 DUP4 ADD DUP3 SWAP1 MSTORE DUP3 DUP5 ADD DUP3 SWAP1 MSTORE PUSH1 0x60 DUP1 DUP5 ADD DUP4 SWAP1 MSTORE PUSH1 0x80 DUP5 ADD DUP2 SWAP1 MSTORE PUSH1 0xA0 DUP5 ADD MSTORE PUSH1 0xC0 DUP4 ADD DUP3 SWAP1 MSTORE PUSH1 0x1 PUSH1 0x1 PUSH1 0xA0 SHL SUB DUP6 AND DUP3 MSTORE PUSH1 0xD SWAP1 MSTORE SWAP2 SWAP1 SWAP2 KECCAK256 PUSH1 0x6 ADD SLOAD PUSH1 0xFF AND PUSH2 0x1D43 JUMPI PUSH2 0x1D43 PUSH2 0x4533 JUMP JUMPDEST PUSH1 0x1 PUSH1 0x1 PUSH1 0xA0 SHL SUB DUP1 DUP4 AND PUSH1 0x0 SWAP1 DUP2 MSTORE PUSH1 0xD PUSH1 0x20 SWAP1 DUP2 MSTORE PUSH1 0x40 SWAP2 DUP3 SWAP1 KECCAK256 DUP3 MLOAD PUSH1 0xE0 DUP2 ADD DUP5 MSTORE DUP2 SLOAD SWAP1 SWAP5 AND DUP5 MSTORE PUSH1 0x1 DUP2 ADD SLOAD SWAP2 DUP5 ADD SWAP2 SWAP1 SWAP2 MSTORE PUSH1 0x2 DUP2 ADD SLOAD SWAP2 DUP4 ADD SWAP2 SWAP1 SWAP2 MSTORE PUSH1 0x3 DUP2 ADD SLOAD PUSH1 0x60 DUP4 ADD MSTORE PUSH1 0x4 DUP2 ADD DUP1 SLOAD PUSH1 0x80 DUP5 ADD SWAP2 SWAP1 PUSH2 0x1DA6 SWAP1 PUSH2 0x4247 JUMP JUMPDEST DUP1 PUSH1 0x1F ADD PUSH1 0x20 DUP1 SWAP2 DIV MUL PUSH1 0x20 ADD PUSH1 0x40 MLOAD SWAP1 DUP2 ADD PUSH1 0x40 MSTORE DUP1 SWAP3 SWAP2 SWAP1 DUP2 DUP2 MSTORE PUSH1 0x20 ADD DUP3 DUP1 SLOAD PUSH2 0x1DD2 SWAP1 PUSH2 0x4247 JUMP JUMPDEST DUP1 ISZERO PUSH2 0x1E1F JUMPI DUP1 PUSH1 0x1F LT PUSH2 0x1DF4 JUMPI PUSH2 0x100 DUP1 DUP4 SLOAD DIV MUL DUP4 MSTORE SWAP2 PUSH1 0x20 ADD SWAP2 PUSH2 0x1E1F JUMP JUMPDEST DUP3 ADD SWAP2 SWAP1 PUSH1 0x0 MSTORE PUSH1 0x20 PUSH1 0x0 KECCAK256 SWAP1 JUMPDEST DUP2 SLOAD DUP2 MSTORE SWAP1 PUSH1 0x1 ADD SWAP1 PUSH1 0x20 ADD DUP1 DUP4 GT PUSH2 0x1E02 JUMPI DUP3 SWAP1 SUB PUSH1 0x1F AND DUP3 ADD SWAP2 JUMPDEST POP POP POP POP POP DUP2 MSTORE PUSH1 0x20 ADD PUSH1 0x5 DUP3 ADD DUP1 SLOAD DUP1 PUSH1 0x20 MUL PUSH1 0x20 ADD PUSH1 0x40 MLOAD SWAP1 DUP2 ADD PUSH1 0x40 MSTORE DUP1 SWAP3 SWAP2 SWAP1 DUP2 DUP2 MSTORE PUSH1 0x20 ADD PUSH1 0x0 SWAP1 JUMPDEST DUP3 DUP3 LT ISZERO PUSH2 0x1EF9 JUMPI DUP4 DUP3 SWAP1 PUSH1 0x0 MSTORE PUSH1 0x20 PUSH1 0x0 KECCAK256 ADD DUP1 SLOAD PUSH2 0x1E6C SWAP1 PUSH2 0x4247 JUMP JUMPDEST DUP1 PUSH1 0x1F ADD PUSH1 0x20 DUP1 SWAP2 DIV MUL PUSH1 0x20 ADD PUSH1 0x40 MLOAD SWAP1 DUP2 ADD PUSH1 0x40 MSTORE DUP1 SWAP3 SWAP2 SWAP1 DUP2 DUP2 MSTORE PUSH1 0x20 ADD DUP3 DUP1 SLOAD PUSH2 0x1E98 SWAP1 PUSH2 0x4247 JUMP JUMPDEST DUP1 ISZERO PUSH2 0x1EE5 JUMPI DUP1 PUSH1 0x1F LT PUSH2 0x1EBA JUMPI PUSH2 0x100 DUP1 DUP4 SLOAD DIV MUL DUP4 MSTORE SWAP2 PUSH1 0x20 ADD SWAP2 PUSH2 0x1EE5 JUMP JUMPDEST DUP3 ADD SWAP2 SWAP1 PUSH1 0x0 MSTORE PUSH1 0x20 PUSH1 0x0 KECCAK256 SWAP1 JUMPDEST DUP2 SLOAD DUP2 MSTORE SWAP1 PUSH1 0x1 ADD SWAP1 PUSH1 0x20 ADD DUP1 DUP4 GT PUSH2 0x1EC8 JUMPI DUP3 SWAP1 SUB PUSH1 0x1F AND DUP3 ADD SWAP2 JUMPDEST POP POP POP POP POP DUP2 MSTORE PUSH1 0x20 ADD SWAP1 PUSH1 0x1 ADD SWAP1 PUSH2 0x1E4D JUMP JUMPDEST POP POP POP SWAP1 DUP3 MSTORE POP PUSH1 0x6 SWAP2 SWAP1 SWAP2 ADD SLOAD PUSH1 0xFF AND ISZERO ISZERO PUSH1 0x20 SWAP1 SWAP2 ADD MSTORE SWAP3 SWAP2 POP POP JUMP JUMPDEST CALLER PUSH1 0x0 SWAP1 DUP2 MSTORE PUSH1 0x10 PUSH1 0x20 SWAP1 DUP2 MSTORE PUSH1 0x40 DUP3 KECCAK256 PUSH1 0x8 ADD DUP1 SLOAD PUSH1 0x1 DUP2 ADD DUP3 SSTORE SWAP1 DUP4 MSTORE SWAP2 KECCAK256 ADD PUSH2 0x7BC DUP3 DUP3 PUSH2 0x42CB JUMP JUMPDEST CALLER PUSH1 0x0 SWAP1 DUP2 MSTORE PUSH1 0x7 PUSH1 0x20 MSTORE PUSH1 0x40 SWAP1 KECCAK256 PUSH1 0x60 SWAP1 PUSH2 0x1709 SWAP1 PUSH2 0x35AD JUMP JUMPDEST PUSH1 0x1 PUSH1 0x1 PUSH1 0xA0 SHL SUB DUP1 DUP4 AND PUSH1 0x0 SWAP1 DUP2 MSTORE PUSH1 0xE PUSH1 0x20 SWAP1 DUP2 MSTORE PUSH1 0x40 DUP1 DUP4 KECCAK256 SWAP4 DUP6 AND DUP4 MSTORE PUSH1 0xD SWAP1 SWAP4 ADD DUP2 MSTORE DUP3 DUP3 KECCAK256 DUP1 SLOAD DUP5 MLOAD DUP2 DUP5 MUL DUP2 ADD DUP5 ADD SWAP1 SWAP6 MSTORE DUP1 DUP6 MSTORE PUSH1 0x60 SWAP5 SWAP4 SWAP2 SWAP3 SWAP1 SWAP2 SWAP1 DUP5 ADD JUMPDEST DUP3 DUP3 LT ISZERO PUSH2 0x950 JUMPI DUP4 DUP3 SWAP1 PUSH1 0x0 MSTORE PUSH1 0x20 PUSH1 0x0 KECCAK256 ADD DUP1 SLOAD PUSH2 0x1FC6 SWAP1 PUSH2 0x4247 JUMP JUMPDEST DUP1 PUSH1 0x1F ADD PUSH1 0x20 DUP1 SWAP2 DIV MUL PUSH1 0x20 ADD PUSH1 0x40 MLOAD SWAP1 DUP2 ADD PUSH1 0x40 MSTORE DUP1 SWAP3 SWAP2 SWAP1 DUP2 DUP2 MSTORE PUSH1 0x20 ADD DUP3 DUP1 SLOAD PUSH2 0x1FF2 SWAP1 PUSH2 0x4247 JUMP JUMPDEST DUP1 ISZERO PUSH2 0x203F JUMPI DUP1 PUSH1 0x1F LT PUSH2 0x2014 JUMPI PUSH2 0x100 DUP1 DUP4 SLOAD DIV MUL DUP4 MSTORE SWAP2 PUSH1 0x20 ADD SWAP2 PUSH2 0x203F JUMP JUMPDEST DUP3 ADD SWAP2 SWAP1 PUSH1 0x0 MSTORE PUSH1 0x20 PUSH1 0x0 KECCAK256 SWAP1 JUMPDEST DUP2 SLOAD DUP2 MSTORE SWAP1 PUSH1 0x1 ADD SWAP1 PUSH1 0x20 ADD DUP1 DUP4 GT PUSH2 0x2022 JUMPI DUP3 SWAP1 SUB PUSH1 0x1F AND DUP3 ADD SWAP2 JUMPDEST POP POP POP POP POP DUP2 MSTORE PUSH1 0x20 ADD SWAP1 PUSH1 0x1 ADD SWAP1 PUSH2 0x1FA7 JUMP JUMPDEST CALLER PUSH1 0x0 DUP2 DUP2 MSTORE PUSH1 0xB PUSH1 0x20 MSTORE PUSH1 0x40 SWAP1 KECCAK256 PUSH1 0xA ADD SLOAD PUSH1 0xFF AND ISZERO PUSH2 0x2086 JUMPI PUSH1 0x40 MLOAD PUSH3 0x461BCD PUSH1 0xE5 SHL DUP2 MSTORE PUSH1 0x4 ADD PUSH2 0xAC9 SWAP1 PUSH2 0x44DD JUMP JUMPDEST PUSH1 0x1 PUSH1 0x1 PUSH1 0xA0 SHL SUB DUP2 AND PUSH1 0x0 DUP2 DUP2 MSTORE PUSH1 0xB PUSH1 0x20 SWAP1 DUP2 MSTORE PUSH1 0x40 DUP1 DUP4 KECCAK256 DUP1 SLOAD PUSH1 0x1 PUSH1 0x1 PUSH1 0xA0 SHL SUB NOT AND SWAP1 SWAP5 OR DUP5 SSTORE PUSH1 0x1 DUP1 DUP6 ADD DUP14 SWAP1 SSTORE PUSH1 0x2 DUP6 ADD DUP13 SWAP1 SSTORE PUSH1 0x3 DUP6 ADD DUP12 SWAP1 SSTORE PUSH1 0x4 DUP6 ADD DUP11 SWAP1 SSTORE PUSH1 0x5 DUP6 ADD DUP10 SWAP1 SSTORE PUSH1 0x6 DUP6 ADD DUP9 SWAP1 SSTORE PUSH6 0x2237B1BA37B9 PUSH1 0xD1 SHL PUSH1 0xD DUP7 ADD SSTORE PUSH1 0xA DUP6 ADD DUP1 SLOAD PUSH1 0xFF NOT AND DUP3 OR SWAP1 SSTORE PUSH1 0x9 SWAP1 SWAP3 MSTORE DUP3 KECCAK256 DUP2 SWAP1 SSTORE PUSH1 0xF DUP4 ADD DUP6 SWAP1 SSTORE DUP2 SLOAD PUSH2 0x100 SWAP1 DIV PUSH1 0xFF AND SWAP2 SWAP1 PUSH2 0x2120 DUP4 PUSH2 0x4514 JUMP JUMPDEST SWAP2 SWAP1 PUSH2 0x100 EXP DUP2 SLOAD DUP2 PUSH1 0xFF MUL NOT AND SWAP1 DUP4 PUSH1 0xFF AND MUL OR SWAP1 SSTORE POP POP POP POP POP POP POP POP POP POP POP JUMP JUMPDEST PUSH1 0x1 PUSH1 0x1 PUSH1 0xA0 SHL SUB DUP2 AND PUSH1 0x0 SWAP1 DUP2 MSTORE PUSH1 0xA PUSH1 0x20 SWAP1 DUP2 MSTORE PUSH1 0x40 DUP1 DUP4 KECCAK256 PUSH1 0x8 ADD DUP1 SLOAD DUP3 MLOAD DUP2 DUP6 MUL DUP2 ADD DUP6 ADD SWAP1 SWAP4 MSTORE DUP1 DUP4 MSTORE PUSH1 0x60 SWAP5 SWAP3 SWAP4 SWAP2 SWAP3 SWAP1 SWAP2 DUP5 ADD JUMPDEST DUP3 DUP3 LT ISZERO PUSH2 0x1615 JUMPI DUP4 DUP3 SWAP1 PUSH1 0x0 MSTORE PUSH1 0x20 PUSH1 0x0 KECCAK256 ADD DUP1 SLOAD PUSH2 0x219E SWAP1 PUSH2 0x4247 JUMP JUMPDEST DUP1 PUSH1 0x1F ADD PUSH1 0x20 DUP1 SWAP2 DIV MUL PUSH1 0x20 ADD PUSH1 0x40 MLOAD SWAP1 DUP2 ADD PUSH1 0x40 MSTORE DUP1 SWAP3 SWAP2 SWAP1 DUP2 DUP2 MSTORE PUSH1 0x20 ADD DUP3 DUP1 SLOAD PUSH2 0x21CA SWAP1 PUSH2 0x4247 JUMP JUMPDEST DUP1 ISZERO PUSH2 0x2217 JUMPI DUP1 PUSH1 0x1F LT PUSH2 0x21EC JUMPI PUSH2 0x100 DUP1 DUP4 SLOAD DIV MUL DUP4 MSTORE SWAP2 PUSH1 0x20 ADD SWAP2 PUSH2 0x2217 JUMP JUMPDEST DUP3 ADD SWAP2 SWAP1 PUSH1 0x0 MSTORE PUSH1 0x20 PUSH1 0x0 KECCAK256 SWAP1 JUMPDEST DUP2 SLOAD DUP2 MSTORE SWAP1 PUSH1 0x1 ADD SWAP1 PUSH1 0x20 ADD DUP1 DUP4 GT PUSH2 0x21FA JUMPI DUP3 SWAP1 SUB PUSH1 0x1F AND DUP3 ADD SWAP2 JUMPDEST POP POP POP POP POP DUP2 MSTORE PUSH1 0x20 ADD SWAP1 PUSH1 0x1 ADD SWAP1 PUSH2 0x217F JUMP JUMPDEST PUSH1 0x2 CALLER PUSH1 0x0 SWAP1 DUP2 MSTORE PUSH1 0x9 PUSH1 0x20 MSTORE PUSH1 0x40 SWAP1 KECCAK256 SLOAD SUB PUSH2 0x227A JUMPI PUSH1 0x0 DUP1 SLOAD PUSH1 0x1 PUSH1 0x38 SHL SWAP1 DIV PUSH1 0xFF AND SWAP1 PUSH1 0x7 PUSH2 0x225C DUP4 PUSH2 0x4514 JUMP JUMPDEST SWAP2 SWAP1 PUSH2 0x100 EXP DUP2 SLOAD DUP2 PUSH1 0xFF MUL NOT AND SWAP1 DUP4 PUSH1 0xFF AND MUL OR SWAP1 SSTORE POP POP PUSH2 0x235D JUMP JUMPDEST PUSH1 0x1 CALLER PUSH1 0x0 SWAP1 DUP2 MSTORE PUSH1 0x9 PUSH1 0x20 MSTORE PUSH1 0x40 SWAP1 KECCAK256 SLOAD SUB PUSH2 0x22AE JUMPI PUSH1 0x0 DUP1 SLOAD PUSH7 0x1000000000000 SWAP1 DIV PUSH1 0xFF AND SWAP1 PUSH1 0x6 PUSH2 0x225C DUP4 PUSH2 0x4514 JUMP JUMPDEST PUSH1 0x5 CALLER PUSH1 0x0 SWAP1 DUP2 MSTORE PUSH1 0x9 PUSH1 0x20 MSTORE PUSH1 0x40 SWAP1 KECCAK256 SLOAD SUB PUSH2 0x22E1 JUMPI PUSH1 0x0 DUP1 SLOAD PUSH6 0x10000000000 SWAP1 DIV PUSH1 0xFF AND SWAP1 PUSH1 0x5 PUSH2 0x225C DUP4 PUSH2 0x4514 JUMP JUMPDEST PUSH1 0x3 CALLER PUSH1 0x0 SWAP1 DUP2 MSTORE PUSH1 0x9 PUSH1 0x20 MSTORE PUSH1 0x40 SWAP1 KECCAK256 SLOAD SUB PUSH2 0x2312 JUMPI PUSH1 0x0 DUP1 SLOAD PUSH1 0x1 PUSH1 0x48 SHL SWAP1 DIV PUSH1 0xFF AND SWAP1 PUSH1 0x9 PUSH2 0x225C DUP4 PUSH2 0x4514 JUMP JUMPDEST PUSH1 0x4 CALLER PUSH1 0x0 SWAP1 DUP2 MSTORE PUSH1 0x9 PUSH1 0x20 MSTORE PUSH1 0x40 SWAP1 KECCAK256 SLOAD SUB PUSH2 0x235D JUMPI PUSH1 0x0 DUP1 SLOAD PUSH1 0x1 PUSH1 0x40 SHL SWAP1 DIV PUSH1 0xFF AND SWAP1 PUSH1 0x8 PUSH2 0x2343 DUP4 PUSH2 0x4514 JUMP JUMPDEST SWAP2 SWAP1 PUSH2 0x100 EXP DUP2 SLOAD DUP2 PUSH1 0xFF MUL NOT AND SWAP1 DUP4 PUSH1 0xFF AND MUL OR SWAP1 SSTORE POP POP JUMPDEST CALLER PUSH1 0x0 SWAP1 DUP2 MSTORE PUSH1 0x11 PUSH1 0x20 SWAP1 DUP2 MSTORE PUSH1 0x40 DUP3 KECCAK256 DUP1 SLOAD PUSH1 0x1 DUP2 ADD DUP3 SSTORE SWAP1 DUP4 MSTORE SWAP2 KECCAK256 TIMESTAMP SWAP2 ADD PUSH2 0x2388 DUP4 DUP3 PUSH2 0x42CB JUMP JUMPDEST POP CALLER PUSH1 0x0 SWAP1 DUP2 MSTORE PUSH1 0x8 PUSH1 0x20 MSTORE PUSH1 0x40 SWAP1 KECCAK256 SLOAD DUP2 LT ISZERO PUSH2 0x23CE JUMPI CALLER PUSH1 0x0 SWAP1 DUP2 MSTORE PUSH1 0x8 PUSH1 0x20 MSTORE PUSH1 0x40 DUP2 KECCAK256 DUP1 SLOAD PUSH4 0x1E13380 SWAP3 SWAP1 PUSH2 0x23C3 SWAP1 DUP5 SWAP1 PUSH2 0x4549 JUMP JUMPDEST SWAP1 SWAP2 SSTORE POP PUSH2 0x7BC SWAP1 POP JUMP JUMPDEST PUSH2 0x23DC DUP2 PUSH4 0x1E13380 PUSH2 0x4549 JUMP JUMPDEST CALLER PUSH1 0x0 SWAP1 DUP2 MSTORE PUSH1 0x8 PUSH1 0x20 MSTORE PUSH1 0x40 SWAP1 KECCAK256 SSTORE POP POP JUMP JUMPDEST PUSH1 0x40 DUP1 MLOAD PUSH2 0x160 DUP2 ADD DUP3 MSTORE PUSH1 0x0 DUP1 DUP3 MSTORE PUSH1 0x20 DUP1 DUP4 ADD DUP3 SWAP1 MSTORE DUP3 DUP5 ADD DUP3 SWAP1 MSTORE PUSH1 0x60 DUP1 DUP5 ADD DUP4 SWAP1 MSTORE PUSH1 0x80 DUP5 ADD DUP4 SWAP1 MSTORE PUSH1 0xA0 DUP5 ADD DUP4 SWAP1 MSTORE PUSH1 0xC0 DUP5 ADD DUP4 SWAP1 MSTORE PUSH1 0xE0 DUP5 ADD DUP4 SWAP1 MSTORE PUSH2 0x100 DUP5 ADD DUP2 SWAP1 MSTORE PUSH2 0x120 DUP5 ADD MSTORE PUSH2 0x140 DUP4 ADD DUP3 SWAP1 MSTORE PUSH1 0x1 PUSH1 0x1 PUSH1 0xA0 SHL SUB DUP6 AND DUP3 MSTORE PUSH1 0x10 SWAP1 MSTORE SWAP2 SWAP1 SWAP2 KECCAK256 PUSH1 0x6 ADD SLOAD PUSH1 0xFF AND PUSH2 0x246F JUMPI PUSH2 0x246F PUSH2 0x4533 JUMP JUMPDEST PUSH1 0x1 PUSH1 0x1 PUSH1 0xA0 SHL SUB DUP1 DUP4 AND PUSH1 0x0 SWAP1 DUP2 MSTORE PUSH1 0x10 PUSH1 0x20 SWAP1 DUP2 MSTORE PUSH1 0x40 DUP1 DUP4 KECCAK256 DUP2 MLOAD PUSH2 0x160 DUP2 ADD DUP4 MSTORE DUP2 SLOAD SWAP1 SWAP6 AND DUP6 MSTORE PUSH1 0x1 DUP2 ADD SLOAD DUP6 DUP5 ADD MSTORE PUSH1 0x2 DUP2 ADD SLOAD DUP6 DUP4 ADD MSTORE PUSH1 0x3 DUP2 ADD SLOAD PUSH1 0x60 DUP7 ADD MSTORE PUSH1 0x4 DUP2 ADD SLOAD PUSH1 0x80 DUP7 ADD MSTORE PUSH1 0x5 DUP2 ADD SLOAD PUSH1 0xA0 DUP7 ADD MSTORE PUSH1 0x6 DUP2 ADD SLOAD PUSH1 0xFF AND ISZERO ISZERO PUSH1 0xC0 DUP7 ADD MSTORE PUSH1 0x7 DUP2 ADD SLOAD PUSH1 0xE0 DUP7 ADD MSTORE PUSH1 0x8 DUP2 ADD DUP1 SLOAD DUP4 MLOAD DUP2 DUP7 MUL DUP2 ADD DUP7 ADD SWAP1 SWAP5 MSTORE DUP1 DUP5 MSTORE SWAP2 SWAP5 PUSH2 0x100 DUP8 ADD SWAP5 SWAP2 SWAP3 SWAP2 DUP5 ADD JUMPDEST DUP3 DUP3 LT ISZERO PUSH2 0x25B3 JUMPI DUP4 DUP3 SWAP1 PUSH1 0x0 MSTORE PUSH1 0x20 PUSH1 0x0 KECCAK256 ADD DUP1 SLOAD PUSH2 0x2526 SWAP1 PUSH2 0x4247 JUMP JUMPDEST DUP1 PUSH1 0x1F ADD PUSH1 0x20 DUP1 SWAP2 DIV MUL PUSH1 0x20 ADD PUSH1 0x40 MLOAD SWAP1 DUP2 ADD PUSH1 0x40 MSTORE DUP1 SWAP3 SWAP2 SWAP1 DUP2 DUP2 MSTORE PUSH1 0x20 ADD DUP3 DUP1 SLOAD PUSH2 0x2552 SWAP1 PUSH2 0x4247 JUMP JUMPDEST DUP1 ISZERO PUSH2 0x259F JUMPI DUP1 PUSH1 0x1F LT PUSH2 0x2574 JUMPI PUSH2 0x100 DUP1 DUP4 SLOAD DIV MUL DUP4 MSTORE SWAP2 PUSH1 0x20 ADD SWAP2 PUSH2 0x259F JUMP JUMPDEST DUP3 ADD SWAP2 SWAP1 PUSH1 0x0 MSTORE PUSH1 0x20 PUSH1 0x0 KECCAK256 SWAP1 JUMPDEST DUP2 SLOAD DUP2 MSTORE SWAP1 PUSH1 0x1 ADD SWAP1 PUSH1 0x20 ADD DUP1 DUP4 GT PUSH2 0x2582 JUMPI DUP3 SWAP1 SUB PUSH1 0x1F AND DUP3 ADD SWAP2 JUMPDEST POP POP POP POP POP DUP2 MSTORE PUSH1 0x20 ADD SWAP1 PUSH1 0x1 ADD SWAP1 PUSH2 0x2507 JUMP JUMPDEST POP POP POP POP DUP2 MSTORE PUSH1 0x20 ADD PUSH1 0x9 DUP3 ADD DUP1 SLOAD PUSH2 0x25CB SWAP1 PUSH2 0x4247 JUMP JUMPDEST DUP1 PUSH1 0x1F ADD PUSH1 0x20 DUP1 SWAP2 DIV MUL PUSH1 0x20 ADD PUSH1 0x40 MLOAD SWAP1 DUP2 ADD PUSH1 0x40 MSTORE DUP1 SWAP3 SWAP2 SWAP1 DUP2 DUP2 MSTORE PUSH1 0x20 ADD DUP3 DUP1 SLOAD PUSH2 0x25F7 SWAP1 PUSH2 0x4247 JUMP JUMPDEST DUP1 ISZERO PUSH2 0x2644 JUMPI DUP1 PUSH1 0x1F LT PUSH2 0x2619 JUMPI PUSH2 0x100 DUP1 DUP4 SLOAD DIV MUL DUP4 MSTORE SWAP2 PUSH1 0x20 ADD SWAP2 PUSH2 0x2644 JUMP JUMPDEST DUP3 ADD SWAP2 SWAP1 PUSH1 0x0 MSTORE PUSH1 0x20 PUSH1 0x0 KECCAK256 SWAP1 JUMPDEST DUP2 SLOAD DUP2 MSTORE SWAP1 PUSH1 0x1 ADD SWAP1 PUSH1 0x20 ADD DUP1 DUP4 GT PUSH2 0x2627 JUMPI DUP3 SWAP1 SUB PUSH1 0x1F AND DUP3 ADD SWAP2 JUMPDEST POP POP POP POP POP DUP2 MSTORE PUSH1 0x20 ADD PUSH1 0xA DUP3 ADD SLOAD DUP2 MSTORE POP POP SWAP1 POP SWAP2 SWAP1 POP JUMP JUMPDEST CALLER PUSH1 0x0 SWAP1 DUP2 MSTORE PUSH1 0x2 PUSH1 0x20 MSTORE PUSH1 0x40 SWAP1 KECCAK256 PUSH1 0x60 SWAP1 PUSH2 0x1709 SWAP1 PUSH2 0x35AD JUMP JUMPDEST PUSH1 0x1 PUSH1 0x1 PUSH1 0xA0 SHL SUB DUP2 AND PUSH1 0x0 SWAP1 DUP2 MSTORE PUSH1 0xB PUSH1 0x20 MSTORE PUSH1 0x40 SWAP1 KECCAK256 PUSH1 0xA DUP2 ADD SLOAD PUSH1 0x60 SWAP2 DUP3 SWAP2 DUP3 SWAP2 DUP3 SWAP2 PUSH1 0xFF AND PUSH2 0x26E1 JUMPI PUSH1 0x40 MLOAD PUSH3 0x461BCD PUSH1 0xE5 SHL DUP2 MSTORE PUSH1 0x20 PUSH1 0x4 DUP3 ADD MSTORE PUSH1 0x10 PUSH1 0x24 DUP3 ADD MSTORE PUSH16 0x111BD8DD1BDC881B9BDD08199BDD5B99 PUSH1 0x82 SHL PUSH1 0x44 DUP3 ADD MSTORE PUSH1 0x64 ADD PUSH2 0xAC9 JUMP JUMPDEST PUSH2 0x26ED DUP2 PUSH1 0x7 ADD PUSH2 0x35AD JUMP JUMPDEST DUP2 PUSH1 0x9 ADD PUSH2 0x26FD DUP4 PUSH1 0xB ADD PUSH2 0x35AD JUMP JUMPDEST PUSH2 0x2709 DUP5 PUSH1 0x11 ADD PUSH2 0x35AD JUMP JUMPDEST DUP3 DUP1 SLOAD DUP1 PUSH1 0x20 MUL PUSH1 0x20 ADD PUSH1 0x40 MLOAD SWAP1 DUP2 ADD PUSH1 0x40 MSTORE DUP1 SWAP3 SWAP2 SWAP1 DUP2 DUP2 MSTORE PUSH1 0x20 ADD PUSH1 0x0 SWAP1 JUMPDEST DUP3 DUP3 LT ISZERO PUSH2 0x27D6 JUMPI DUP4 DUP3 SWAP1 PUSH1 0x0 MSTORE PUSH1 0x20 PUSH1 0x0 KECCAK256 ADD DUP1 SLOAD PUSH2 0x2749 SWAP1 PUSH2 0x4247 JUMP JUMPDEST DUP1 PUSH1 0x1F ADD PUSH1 0x20 DUP1 SWAP2 DIV MUL PUSH1 0x20 ADD PUSH1 0x40 MLOAD SWAP1 DUP2 ADD PUSH1 0x40 MSTORE DUP1 SWAP3 SWAP2 SWAP1 DUP2 DUP2 MSTORE PUSH1 0x20 ADD DUP3 DUP1 SLOAD PUSH2 0x2775 SWAP1 PUSH2 0x4247 JUMP JUMPDEST DUP1 ISZERO PUSH2 0x27C2 JUMPI DUP1 PUSH1 0x1F LT PUSH2 0x2797 JUMPI PUSH2 0x100 DUP1 DUP4 SLOAD DIV MUL DUP4 MSTORE SWAP2 PUSH1 0x20 ADD SWAP2 PUSH2 0x27C2 JUMP JUMPDEST DUP3 ADD SWAP2 SWAP1 PUSH1 0x0 MSTORE PUSH1 0x20 PUSH1 0x0 KECCAK256 SWAP1 JUMPDEST DUP2 SLOAD DUP2 MSTORE SWAP1 PUSH1 0x1 ADD SWAP1 PUSH1 0x20 ADD DUP1 DUP4 GT PUSH2 0x27A5 JUMPI DUP3 SWAP1 SUB PUSH1 0x1F AND DUP3 ADD SWAP2 JUMPDEST POP POP POP POP POP DUP2 MSTORE PUSH1 0x20 ADD SWAP1 PUSH1 0x1 ADD SWAP1 PUSH2 0x272A JUMP JUMPDEST POP POP POP POP SWAP3 POP SWAP5 POP SWAP5 POP SWAP5 POP SWAP5 POP POP SWAP2 SWAP4 POP SWAP2 SWAP4 JUMP JUMPDEST CALLER PUSH1 0x0 DUP2 DUP2 MSTORE PUSH1 0xA PUSH1 0x20 MSTORE PUSH1 0x40 SWAP1 KECCAK256 PUSH1 0x6 ADD SLOAD PUSH1 0xFF AND ISZERO PUSH2 0x285D JUMPI PUSH1 0x40 MLOAD PUSH3 0x461BCD PUSH1 0xE5 SHL DUP2 MSTORE PUSH1 0x20 PUSH1 0x4 DUP3 ADD MSTORE PUSH1 0x25 PUSH1 0x24 DUP3 ADD MSTORE PUSH32 0x596F75206861766520616C7265616479206372656174656420796F7572207072 PUSH1 0x44 DUP3 ADD MSTORE PUSH5 0x6F66696C65 PUSH1 0xD8 SHL PUSH1 0x64 DUP3 ADD MSTORE PUSH1 0x84 ADD PUSH2 0xAC9 JUMP JUMPDEST PUSH1 0x1 PUSH1 0x1 PUSH1 0xA0 SHL SUB DUP2 AND PUSH1 0x0 DUP2 DUP2 MSTORE PUSH1 0xA PUSH1 0x20 SWAP1 DUP2 MSTORE PUSH1 0x40 DUP1 DUP4 KECCAK256 DUP1 SLOAD PUSH1 0x1 PUSH1 0x1 PUSH1 0xA0 SHL SUB NOT AND SWAP1 SWAP5 OR DUP5 SSTORE PUSH1 0x1 DUP1 DUP6 ADD DUP14 SWAP1 SSTORE PUSH1 0x2 DUP6 ADD DUP13 SWAP1 SSTORE PUSH1 0x3 DUP6 ADD DUP12 SWAP1 SSTORE PUSH1 0x4 DUP6 ADD DUP11 SWAP1 SSTORE PUSH1 0x9 SWAP1 SWAP3 MSTORE DUP3 KECCAK256 PUSH1 0x5 SWAP1 DUP2 SWAP1 SSTORE DUP4 ADD DUP8 SWAP1 SSTORE PUSH1 0x6 DUP4 ADD DUP1 SLOAD PUSH1 0xFF NOT AND SWAP1 SWAP2 OR SWAP1 SSTORE PUSH7 0x14185D1A595B9D PUSH1 0xCA SHL PUSH1 0x7 DUP4 ADD SSTORE PUSH1 0x12 DUP3 ADD DUP6 SWAP1 SSTORE PUSH1 0x13 DUP3 ADD DUP5 SWAP1 SSTORE DUP1 SLOAD PUSH1 0xFF AND SWAP1 DUP1 PUSH2 0x2120 DUP4 PUSH2 0x4514 JUMP JUMPDEST PUSH1 0x40 DUP1 MLOAD PUSH1 0xA0 DUP2 ADD DUP3 MSTORE PUSH1 0x0 DUP1 DUP3 MSTORE PUSH1 0x20 DUP1 DUP4 ADD DUP3 SWAP1 MSTORE DUP3 DUP5 ADD DUP3 SWAP1 MSTORE PUSH1 0x60 DUP4 ADD DUP3 SWAP1 MSTORE PUSH1 0x80 DUP4 ADD DUP3 SWAP1 MSTORE PUSH1 0x1 PUSH1 0x1 PUSH1 0xA0 SHL SUB DUP6 AND DUP3 MSTORE PUSH1 0x9 SWAP1 MSTORE SWAP2 SWAP1 SWAP2 KECCAK256 SLOAD PUSH1 0x0 NOT DUP2 ADD PUSH2 0x299C JUMPI PUSH1 0x1 PUSH1 0x1 PUSH1 0xA0 SHL SUB DUP1 DUP5 AND PUSH1 0x0 SWAP1 DUP2 MSTORE PUSH1 0xB PUSH1 0x20 SWAP1 DUP2 MSTORE PUSH1 0x40 SWAP2 DUP3 SWAP1 KECCAK256 DUP3 MLOAD PUSH1 0xA0 DUP2 ADD DUP5 MSTORE PUSH1 0xD DUP3 ADD SLOAD DUP2 MSTORE DUP2 SLOAD SWAP1 SWAP5 AND SWAP2 DUP5 ADD SWAP2 SWAP1 SWAP2 MSTORE PUSH1 0x1 DUP2 ADD SLOAD SWAP2 DUP4 ADD SWAP2 SWAP1 SWAP2 MSTORE PUSH1 0x2 DUP2 ADD SLOAD PUSH1 0x60 DUP4 ADD MSTORE PUSH1 0x13 ADD SLOAD PUSH1 0x80 DUP3 ADD MSTORE SWAP2 POP PUSH2 0x13C1 JUMP JUMPDEST PUSH1 0x3 DUP2 SUB PUSH2 0x2A02 JUMPI PUSH1 0x1 PUSH1 0x1 PUSH1 0xA0 SHL SUB DUP1 DUP5 AND PUSH1 0x0 SWAP1 DUP2 MSTORE PUSH1 0xF PUSH1 0x20 SWAP1 DUP2 MSTORE PUSH1 0x40 SWAP2 DUP3 SWAP1 KECCAK256 DUP3 MLOAD PUSH1 0xA0 DUP2 ADD DUP5 MSTORE PUSH1 0x8 DUP3 ADD SLOAD DUP2 MSTORE DUP2 SLOAD SWAP1 SWAP5 AND SWAP2 DUP5 ADD SWAP2 SWAP1 SWAP2 MSTORE PUSH1 0x1 DUP2 ADD SLOAD SWAP2 DUP4 ADD SWAP2 SWAP1 SWAP2 MSTORE PUSH1 0x2 DUP2 ADD SLOAD PUSH1 0x60 DUP4 ADD MSTORE PUSH1 0xA ADD SLOAD PUSH1 0x80 DUP3 ADD MSTORE SWAP2 POP PUSH2 0x13C1 JUMP JUMPDEST PUSH1 0x4 DUP2 SUB PUSH2 0x13C1 JUMPI POP POP PUSH1 0x1 PUSH1 0x1 PUSH1 0xA0 SHL SUB SWAP1 DUP2 AND PUSH1 0x0 SWAP1 DUP2 MSTORE PUSH1 0x10 PUSH1 0x20 SWAP1 DUP2 MSTORE PUSH1 0x40 SWAP2 DUP3 SWAP1 KECCAK256 DUP3 MLOAD PUSH1 0xA0 DUP2 ADD DUP5 MSTORE PUSH1 0x7 DUP3 ADD SLOAD DUP2 MSTORE DUP2 SLOAD SWAP1 SWAP5 AND SWAP2 DUP5 ADD SWAP2 SWAP1 SWAP2 MSTORE PUSH1 0x1 DUP2 ADD SLOAD SWAP2 DUP4 ADD SWAP2 SWAP1 SWAP2 MSTORE PUSH1 0x2 DUP2 ADD SLOAD PUSH1 0x60 DUP4 ADD MSTORE PUSH1 0xA ADD SLOAD PUSH1 0x80 DUP3 ADD MSTORE SWAP1 JUMP JUMPDEST PUSH2 0x2B09 PUSH1 0x40 DUP1 MLOAD PUSH2 0x1A0 DUP2 ADD DUP3 MSTORE PUSH1 0x0 DUP1 DUP3 MSTORE PUSH1 0x20 DUP1 DUP4 ADD DUP3 SWAP1 MSTORE DUP3 DUP5 ADD DUP3 SWAP1 MSTORE PUSH1 0x60 DUP1 DUP5 ADD DUP4 SWAP1 MSTORE PUSH1 0x80 DUP1 DUP6 ADD DUP5 SWAP1 MSTORE PUSH1 0xA0 DUP1 DUP7 ADD DUP6 SWAP1 MSTORE PUSH1 0xC0 DUP1 DUP8 ADD DUP7 SWAP1 MSTORE PUSH1 0xE0 DUP1 DUP9 ADD DUP8 SWAP1 MSTORE PUSH2 0x100 DUP1 DUP10 ADD DUP7 SWAP1 MSTORE DUP10 MLOAD SWAP1 DUP2 ADD DUP11 MSTORE DUP8 DUP2 MSTORE SWAP6 DUP7 ADD DUP8 SWAP1 MSTORE SWAP8 DUP6 ADD DUP7 SWAP1 MSTORE SWAP3 DUP5 ADD DUP6 SWAP1 MSTORE SWAP1 DUP4 ADD DUP5 SWAP1 MSTORE DUP3 ADD DUP4 SWAP1 MSTORE DUP2 ADD DUP3 SWAP1 MSTORE SWAP3 DUP4 ADD MSTORE SWAP1 PUSH2 0x120 DUP3 ADD SWAP1 DUP2 MSTORE PUSH1 0x60 PUSH1 0x20 DUP3 ADD DUP2 SWAP1 MSTORE PUSH1 0x0 PUSH1 0x40 DUP4 ADD DUP2 SWAP1 MSTORE SWAP2 ADD MSTORE SWAP1 JUMP JUMPDEST PUSH1 0x1 PUSH1 0x1 PUSH1 0xA0 SHL SUB DUP3 AND PUSH1 0x0 SWAP1 DUP2 MSTORE PUSH1 0xA PUSH1 0x20 MSTORE PUSH1 0x40 SWAP1 KECCAK256 PUSH1 0x6 ADD SLOAD PUSH1 0xFF AND PUSH2 0x2B34 JUMPI PUSH2 0x2B34 PUSH2 0x4533 JUMP JUMPDEST PUSH1 0x1 PUSH1 0x1 PUSH1 0xA0 SHL SUB DUP1 DUP4 AND PUSH1 0x0 SWAP1 DUP2 MSTORE PUSH1 0xA PUSH1 0x20 SWAP1 DUP2 MSTORE PUSH1 0x40 DUP1 DUP4 KECCAK256 DUP2 MLOAD PUSH2 0x1A0 DUP2 ADD DUP4 MSTORE DUP2 SLOAD SWAP1 SWAP6 AND DUP6 MSTORE PUSH1 0x1 DUP2 ADD SLOAD DUP6 DUP5 ADD MSTORE PUSH1 0x2 DUP2 ADD SLOAD DUP6 DUP4 ADD MSTORE PUSH1 0x3 DUP2 ADD SLOAD PUSH1 0x60 DUP7 ADD MSTORE PUSH1 0x4 DUP2 ADD SLOAD PUSH1 0x80 DUP7 ADD MSTORE PUSH1 0x5 DUP2 ADD SLOAD PUSH1 0xA0 DUP7 ADD MSTORE PUSH1 0x6 DUP2 ADD SLOAD PUSH1 0xFF AND ISZERO ISZERO PUSH1 0xC0 DUP7 ADD MSTORE PUSH1 0x7 DUP2 ADD SLOAD PUSH1 0xE0 DUP7 ADD MSTORE PUSH1 0x8 DUP2 ADD DUP1 SLOAD DUP4 MLOAD DUP2 DUP7 MUL DUP2 ADD DUP7 ADD SWAP1 SWAP5 MSTORE DUP1 DUP5 MSTORE SWAP2 SWAP5 PUSH2 0x100 DUP8 ADD SWAP5 SWAP2 SWAP3 SWAP2 DUP5 ADD JUMPDEST DUP3 DUP3 LT ISZERO PUSH2 0x2C78 JUMPI DUP4 DUP3 SWAP1 PUSH1 0x0 MSTORE PUSH1 0x20 PUSH1 0x0 KECCAK256 ADD DUP1 SLOAD PUSH2 0x2BEB SWAP1 PUSH2 0x4247 JUMP JUMPDEST DUP1 PUSH1 0x1F ADD PUSH1 0x20 DUP1 SWAP2 DIV MUL PUSH1 0x20 ADD PUSH1 0x40 MLOAD SWAP1 DUP2 ADD PUSH1 0x40 MSTORE DUP1 SWAP3 SWAP2 SWAP1 DUP2 DUP2 MSTORE PUSH1 0x20 ADD DUP3 DUP1 SLOAD PUSH2 0x2C17 SWAP1 PUSH2 0x4247 JUMP JUMPDEST DUP1 ISZERO PUSH2 0x2C64 JUMPI DUP1 PUSH1 0x1F LT PUSH2 0x2C39 JUMPI PUSH2 0x100 DUP1 DUP4 SLOAD DIV MUL DUP4 MSTORE SWAP2 PUSH1 0x20 ADD SWAP2 PUSH2 0x2C64 JUMP JUMPDEST DUP3 ADD SWAP2 SWAP1 PUSH1 0x0 MSTORE PUSH1 0x20 PUSH1 0x0 KECCAK256 SWAP1 JUMPDEST DUP2 SLOAD DUP2 MSTORE SWAP1 PUSH1 0x1 ADD SWAP1 PUSH1 0x20 ADD DUP1 DUP4 GT PUSH2 0x2C47 JUMPI DUP3 SWAP1 SUB PUSH1 0x1F AND DUP3 ADD SWAP2 JUMPDEST POP POP POP POP POP DUP2 MSTORE PUSH1 0x20 ADD SWAP1 PUSH1 0x1 ADD SWAP1 PUSH2 0x2BCC JUMP JUMPDEST POP POP POP POP DUP2 MSTORE PUSH1 0x20 ADD PUSH1 0x9 DUP3 ADD PUSH1 0x40 MLOAD DUP1 PUSH2 0x100 ADD PUSH1 0x40 MSTORE SWAP1 DUP2 PUSH1 0x0 DUP3 ADD SLOAD DUP2 MSTORE PUSH1 0x20 ADD PUSH1 0x1 DUP3 ADD SLOAD DUP2 MSTORE PUSH1 0x20 ADD PUSH1 0x2 DUP3 ADD SLOAD DUP2 MSTORE PUSH1 0x20 ADD PUSH1 0x3 DUP3 ADD SLOAD DUP2 MSTORE PUSH1 0x20 ADD PUSH1 0x4 DUP3 ADD SLOAD DUP2 MSTORE PUSH1 0x20 ADD PUSH1 0x5 DUP3 ADD SLOAD DUP2 MSTORE PUSH1 0x20 ADD PUSH1 0x6 DUP3 ADD SLOAD DUP2 MSTORE PUSH1 0x20 ADD PUSH1 0x7 DUP3 ADD SLOAD DUP2 MSTORE POP POP DUP2 MSTORE PUSH1 0x20 ADD PUSH1 0x11 DUP3 ADD DUP1 SLOAD PUSH2 0x2CF5 SWAP1 PUSH2 0x4247 JUMP JUMPDEST DUP1 PUSH1 0x1F ADD PUSH1 0x20 DUP1 SWAP2 DIV MUL PUSH1 0x20 ADD PUSH1 0x40 MLOAD SWAP1 DUP2 ADD PUSH1 0x40 MSTORE DUP1 SWAP3 SWAP2 SWAP1 DUP2 DUP2 MSTORE PUSH1 0x20 ADD DUP3 DUP1 SLOAD PUSH2 0x2D21 SWAP1 PUSH2 0x4247 JUMP JUMPDEST DUP1 ISZERO PUSH2 0x2D6E JUMPI DUP1 PUSH1 0x1F LT PUSH2 0x2D43 JUMPI PUSH2 0x100 DUP1 DUP4 SLOAD DIV MUL DUP4 MSTORE SWAP2 PUSH1 0x20 ADD SWAP2 PUSH2 0x2D6E JUMP JUMPDEST DUP3 ADD SWAP2 SWAP1 PUSH1 0x0 MSTORE PUSH1 0x20 PUSH1 0x0 KECCAK256 SWAP1 JUMPDEST DUP2 SLOAD DUP2 MSTORE SWAP1 PUSH1 0x1 ADD SWAP1 PUSH1 0x20 ADD DUP1 DUP4 GT PUSH2 0x2D51 JUMPI DUP3 SWAP1 SUB PUSH1 0x1F AND DUP3 ADD SWAP2 JUMPDEST POP POP POP POP POP DUP2 MSTORE PUSH1 0x20 ADD PUSH1 0x12 DUP3 ADD SLOAD DUP2 MSTORE PUSH1 0x20 ADD PUSH1 0x13 DUP3 ADD SLOAD DUP2 MSTORE POP POP SWAP1 POP SWAP2 SWAP1 POP JUMP JUMPDEST CALLER PUSH1 0x0 DUP2 DUP2 MSTORE PUSH1 0xE PUSH1 0x20 MSTORE PUSH1 0x40 SWAP1 KECCAK256 PUSH1 0x6 ADD SLOAD PUSH1 0xFF AND ISZERO PUSH2 0x2DC5 JUMPI PUSH1 0x40 MLOAD PUSH3 0x461BCD PUSH1 0xE5 SHL DUP2 MSTORE PUSH1 0x4 ADD PUSH2 0xAC9 SWAP1 PUSH2 0x44DD JUMP JUMPDEST PUSH1 0x1 PUSH1 0x1 PUSH1 0xA0 SHL SUB DUP2 AND PUSH1 0x0 DUP2 DUP2 MSTORE PUSH1 0xE PUSH1 0x20 SWAP1 DUP2 MSTORE PUSH1 0x40 DUP1 DUP4 KECCAK256 DUP1 SLOAD PUSH1 0x1 PUSH1 0x1 PUSH1 0xA0 SHL SUB NOT AND SWAP1 SWAP5 OR DUP5 SSTORE PUSH1 0x1 DUP1 DUP6 ADD DUP14 SWAP1 SSTORE PUSH1 0x2 DUP1 DUP7 ADD DUP14 SWAP1 SSTORE PUSH1 0x3 DUP7 ADD DUP13 SWAP1 SSTORE PUSH1 0x4 DUP7 ADD DUP12 SWAP1 SSTORE PUSH1 0x5 DUP7 ADD DUP11 SWAP1 SSTORE PUSH1 0x9 SWAP1 SWAP4 MSTORE SWAP1 DUP4 KECCAK256 DUP3 SWAP1 SSTORE PUSH1 0x6 DUP5 ADD DUP1 SLOAD PUSH1 0xFF NOT AND SWAP1 SWAP2 OR SWAP1 SSTORE PUSH11 0x14185D1A1BDB1BD9DA5CDD PUSH1 0xAA SHL PUSH1 0xA DUP5 ADD SSTORE PUSH1 0xC DUP4 ADD DUP7 SWAP1 SSTORE PUSH1 0x10 DUP4 ADD DUP6 SWAP1 SSTORE DUP2 SLOAD PUSH3 0x10000 SWAP1 DIV PUSH1 0xFF AND SWAP2 SWAP1 PUSH2 0x2120 DUP4 PUSH2 0x4514 JUMP JUMPDEST PUSH1 0x5 CALLER PUSH1 0x0 SWAP1 DUP2 MSTORE PUSH1 0x9 PUSH1 0x20 MSTORE PUSH1 0x40 SWAP1 KECCAK256 SLOAD SUB PUSH2 0x31A1 JUMPI PUSH1 0x1 PUSH1 0x1 PUSH1 0x1 PUSH1 0xA0 SHL SUB DUP3 AND PUSH1 0x0 SWAP1 DUP2 MSTORE PUSH1 0x9 PUSH1 0x20 MSTORE PUSH1 0x40 SWAP1 KECCAK256 SLOAD SUB PUSH2 0x2F58 JUMPI PUSH1 0x1 PUSH1 0x1 PUSH1 0xA0 SHL SUB DUP2 AND PUSH1 0x0 SWAP1 DUP2 MSTORE PUSH1 0xB PUSH1 0x20 MSTORE PUSH1 0x40 DUP2 KECCAK256 SWAP1 PUSH2 0x2EC5 PUSH1 0x7 DUP4 ADD CALLER PUSH2 0x35BA JUMP JUMPDEST ISZERO PUSH2 0x2ECE JUMPI POP PUSH1 0x1 JUMPDEST DUP1 ISZERO PUSH2 0x2F2A JUMPI PUSH1 0x40 MLOAD PUSH3 0x461BCD PUSH1 0xE5 SHL DUP2 MSTORE PUSH1 0x20 PUSH1 0x4 DUP3 ADD MSTORE PUSH1 0x25 PUSH1 0x24 DUP3 ADD MSTORE PUSH32 0x4461746120616C72656164792073686172656420207769746820746869732064 PUSH1 0x44 DUP3 ADD MSTORE PUSH5 0x37B1BA37B9 PUSH1 0xD9 SHL PUSH1 0x64 DUP3 ADD MSTORE PUSH1 0x84 ADD PUSH2 0xAC9 JUMP JUMPDEST PUSH2 0x2F37 PUSH1 0x7 DUP4 ADD CALLER PUSH2 0x35DC JUMP JUMPDEST POP CALLER PUSH1 0x0 SWAP1 DUP2 MSTORE PUSH1 0x3 PUSH1 0x20 MSTORE PUSH1 0x40 SWAP1 KECCAK256 PUSH2 0x2F51 SWAP1 DUP5 PUSH2 0x35DC JUMP JUMPDEST POP JUMPDEST POP POP POP JUMP JUMPDEST PUSH1 0x6 PUSH1 0x1 PUSH1 0x1 PUSH1 0xA0 SHL SUB DUP3 AND PUSH1 0x0 SWAP1 DUP2 MSTORE PUSH1 0x9 PUSH1 0x20 MSTORE PUSH1 0x40 SWAP1 KECCAK256 SLOAD SUB PUSH2 0x314A JUMPI PUSH1 0x1 PUSH1 0x1 PUSH1 0xA0 SHL SUB DUP2 AND PUSH1 0x0 SWAP1 DUP2 MSTORE PUSH1 0x1 PUSH1 0x20 MSTORE PUSH1 0x40 DUP2 KECCAK256 PUSH2 0x2F9A SWAP1 CALLER PUSH2 0x35BA JUMP JUMPDEST ISZERO PUSH2 0x2FA3 JUMPI POP PUSH1 0x1 JUMPDEST DUP1 ISZERO PUSH2 0x2FFD JUMPI PUSH1 0x40 MLOAD PUSH3 0x461BCD PUSH1 0xE5 SHL DUP2 MSTORE PUSH1 0x20 PUSH1 0x4 DUP3 ADD MSTORE PUSH1 0x23 PUSH1 0x24 DUP3 ADD MSTORE PUSH32 0x4461746120616C72656164792073686172656420776974682074686973206164 PUSH1 0x44 DUP3 ADD MSTORE PUSH3 0x36B4B7 PUSH1 0xE9 SHL PUSH1 0x64 DUP3 ADD MSTORE PUSH1 0x84 ADD PUSH2 0xAC9 JUMP JUMPDEST PUSH1 0x1 PUSH1 0x1 PUSH1 0xA0 SHL SUB DUP3 AND PUSH1 0x0 SWAP1 DUP2 MSTORE PUSH1 0x1 PUSH1 0x20 MSTORE PUSH1 0x40 SWAP1 KECCAK256 PUSH2 0x301F SWAP1 CALLER PUSH2 0x35DC JUMP JUMPDEST POP CALLER PUSH1 0x0 SWAP1 DUP2 MSTORE PUSH1 0xA PUSH1 0x20 SWAP1 DUP2 MSTORE PUSH1 0x40 DUP1 DUP4 KECCAK256 PUSH1 0x1 PUSH1 0x1 PUSH1 0xA0 SHL SUB DUP7 AND DUP5 MSTORE PUSH1 0xD SWAP1 SWAP3 MSTORE DUP3 KECCAK256 PUSH1 0x5 ADD SLOAD PUSH1 0x8 SWAP1 SWAP2 ADD SWAP2 SUB PUSH2 0x30D5 JUMPI DUP1 SLOAD PUSH8 0xFFFFFFFFFFFFFFFF DUP2 GT ISZERO PUSH2 0x306E JUMPI PUSH2 0x306E PUSH2 0x3A52 JUMP JUMPDEST PUSH1 0x40 MLOAD SWAP1 DUP1 DUP3 MSTORE DUP1 PUSH1 0x20 MUL PUSH1 0x20 ADD DUP3 ADD PUSH1 0x40 MSTORE DUP1 ISZERO PUSH2 0x30A1 JUMPI DUP2 PUSH1 0x20 ADD JUMPDEST PUSH1 0x60 DUP2 MSTORE PUSH1 0x20 ADD SWAP1 PUSH1 0x1 SWAP1 SUB SWAP1 DUP2 PUSH2 0x308C JUMPI SWAP1 POP JUMPDEST POP PUSH1 0x1 PUSH1 0x1 PUSH1 0xA0 SHL SUB DUP5 AND PUSH1 0x0 SWAP1 DUP2 MSTORE PUSH1 0xD PUSH1 0x20 SWAP1 DUP2 MSTORE PUSH1 0x40 SWAP1 SWAP2 KECCAK256 DUP3 MLOAD PUSH2 0x30D3 SWAP4 PUSH1 0x5 SWAP1 SWAP3 ADD SWAP3 SWAP2 SWAP1 SWAP2 ADD SWAP1 PUSH2 0x37C9 JUMP JUMPDEST POP JUMPDEST PUSH1 0x0 JUMPDEST DUP2 SLOAD DUP2 LT ISZERO PUSH2 0x2F51 JUMPI PUSH1 0xD PUSH1 0x0 DUP6 PUSH1 0x1 PUSH1 0x1 PUSH1 0xA0 SHL SUB AND PUSH1 0x1 PUSH1 0x1 PUSH1 0xA0 SHL SUB AND DUP2 MSTORE PUSH1 0x20 ADD SWAP1 DUP2 MSTORE PUSH1 0x20 ADD PUSH1 0x0 KECCAK256 PUSH1 0x5 ADD DUP3 DUP3 DUP2 SLOAD DUP2 LT PUSH2 0x311B JUMPI PUSH2 0x311B PUSH2 0x43D6 JUMP JUMPDEST PUSH1 0x0 SWAP2 DUP3 MSTORE PUSH1 0x20 DUP1 DUP4 KECCAK256 DUP5 SLOAD PUSH1 0x1 DUP2 ADD DUP7 SSTORE SWAP5 DUP5 MSTORE SWAP3 KECCAK256 SWAP1 SWAP3 ADD SWAP2 PUSH2 0x3141 SWAP2 ADD DUP3 PUSH2 0x43EC JUMP JUMPDEST POP PUSH1 0x1 ADD PUSH2 0x30D8 JUMP JUMPDEST PUSH1 0x40 MLOAD PUSH3 0x461BCD PUSH1 0xE5 SHL DUP2 MSTORE PUSH1 0x20 PUSH1 0x4 DUP3 ADD MSTORE PUSH1 0x26 PUSH1 0x24 DUP3 ADD MSTORE PUSH32 0x496E76616C696420656E74697479206F72207472616E73666572206E6F742061 PUSH1 0x44 DUP3 ADD MSTORE PUSH6 0x1B1B1BDDD959 PUSH1 0xD2 SHL PUSH1 0x64 DUP3 ADD MSTORE PUSH1 0x84 ADD PUSH2 0xAC9 JUMP JUMPDEST PUSH1 0x6 CALLER PUSH1 0x0 SWAP1 DUP2 MSTORE PUSH1 0x9 PUSH1 0x20 MSTORE PUSH1 0x40 SWAP1 KECCAK256 SLOAD SUB PUSH2 0x7BE JUMPI PUSH1 0x3 PUSH1 0x1 PUSH1 0x1 PUSH1 0xA0 SHL SUB DUP3 AND PUSH1 0x0 SWAP1 DUP2 MSTORE PUSH1 0x9 PUSH1 0x20 MSTORE PUSH1 0x40 SWAP1 KECCAK256 SLOAD SUB PUSH2 0x329A JUMPI PUSH1 0x1 PUSH1 0x1 PUSH1 0xA0 SHL SUB DUP2 AND PUSH1 0x0 SWAP1 DUP2 MSTORE PUSH1 0x6 PUSH1 0x20 MSTORE PUSH1 0x40 DUP2 KECCAK256 PUSH2 0x31FA SWAP1 CALLER PUSH2 0x35BA JUMP JUMPDEST ISZERO PUSH2 0x3203 JUMPI POP PUSH1 0x1 JUMPDEST DUP1 ISZERO PUSH2 0x326C JUMPI PUSH1 0x40 MLOAD PUSH3 0x461BCD PUSH1 0xE5 SHL DUP2 MSTORE PUSH1 0x20 PUSH1 0x4 DUP3 ADD MSTORE PUSH1 0x32 PUSH1 0x24 DUP3 ADD MSTORE PUSH32 0x4461746120616C72656164792073686172656420776974682074686973206D65 PUSH1 0x44 DUP3 ADD MSTORE PUSH18 0x3234B1B0B6103932B9B2B0B931B4103630B1 PUSH1 0x71 SHL PUSH1 0x64 DUP3 ADD MSTORE PUSH1 0x84 ADD PUSH2 0xAC9 JUMP JUMPDEST PUSH1 0x1 PUSH1 0x1 PUSH1 0xA0 SHL SUB DUP3 AND PUSH1 0x0 SWAP1 DUP2 MSTORE PUSH1 0x6 PUSH1 0x20 MSTORE PUSH1 0x40 SWAP1 KECCAK256 PUSH2 0x328E SWAP1 CALLER PUSH2 0x35DC JUMP JUMPDEST POP PUSH2 0x2F53 PUSH1 0x4 DUP4 PUSH2 0x35DC JUMP JUMPDEST PUSH1 0x4 PUSH1 0x1 PUSH1 0x1 PUSH1 0xA0 SHL SUB DUP3 AND PUSH1 0x0 SWAP1 DUP2 MSTORE PUSH1 0x9 PUSH1 0x20 MSTORE PUSH1 0x40 SWAP1 KECCAK256 SLOAD SUB PUSH2 0x314A JUMPI PUSH1 0x1 PUSH1 0x1 PUSH1 0xA0 SHL SUB DUP2 AND PUSH1 0x0 SWAP1 DUP2 MSTORE PUSH1 0x7 PUSH1 0x20 MSTORE PUSH1 0x40 DUP2 KECCAK256 PUSH2 0x32DC SWAP1 CALLER PUSH2 0x35BA JUMP JUMPDEST ISZERO PUSH2 0x32E5 JUMPI POP PUSH1 0x1 JUMPDEST DUP1 ISZERO PUSH2 0x334A JUMPI PUSH1 0x40 MLOAD PUSH3 0x461BCD PUSH1 0xE5 SHL DUP2 MSTORE PUSH1 0x20 PUSH1 0x4 DUP3 ADD MSTORE PUSH1 0x2E PUSH1 0x24 DUP3 ADD MSTORE PUSH32 0x4461746120616C72656164792073686172656420776974682074686973207068 PUSH1 0x44 DUP3 ADD MSTORE PUSH14 0x61726D61637920636F6D70616E79 PUSH1 0x90 SHL PUSH1 0x64 DUP3 ADD MSTORE PUSH1 0x84 ADD PUSH2 0xAC9 JUMP JUMPDEST PUSH1 0x1 PUSH1 0x1 PUSH1 0xA0 SHL SUB DUP3 AND PUSH1 0x0 SWAP1 DUP2 MSTORE PUSH1 0x7 PUSH1 0x20 MSTORE PUSH1 0x40 SWAP1 KECCAK256 PUSH2 0x328E SWAP1 CALLER PUSH2 0x35DC JUMP JUMPDEST CALLER PUSH1 0x0 SWAP1 DUP2 MSTORE PUSH1 0x3 PUSH1 0x20 MSTORE PUSH1 0x40 SWAP1 KECCAK256 PUSH1 0x60 SWAP1 PUSH2 0x1709 SWAP1 PUSH2 0x35AD JUMP JUMPDEST PUSH1 0x40 DUP1 MLOAD PUSH2 0x160 DUP2 ADD DUP3 MSTORE PUSH1 0x0 DUP1 DUP3 MSTORE PUSH1 0x20 DUP1 DUP4 ADD DUP3 SWAP1 MSTORE DUP3 DUP5 ADD DUP3 SWAP1 MSTORE PUSH1 0x60 DUP1 DUP5 ADD DUP4 SWAP1 MSTORE PUSH1 0x80 DUP5 ADD DUP4 SWAP1 MSTORE PUSH1 0xA0 DUP5 ADD DUP4 SWAP1 MSTORE PUSH1 0xC0 DUP5 ADD DUP4 SWAP1 MSTORE PUSH1 0xE0 DUP5 ADD DUP2 SWAP1 MSTORE PUSH2 0x100 DUP5 ADD DUP4 SWAP1 MSTORE PUSH2 0x120 DUP5 ADD MSTORE PUSH2 0x140 DUP4 ADD DUP3 SWAP1 MSTORE PUSH1 0x1 PUSH1 0x1 PUSH1 0xA0 SHL SUB DUP6 AND DUP3 MSTORE PUSH1 0xF SWAP1 MSTORE SWAP2 SWAP1 SWAP2 KECCAK256 PUSH1 0x6 ADD SLOAD PUSH1 0xFF AND PUSH2 0x3406 JUMPI PUSH2 0x3406 PUSH2 0x4533 JUMP JUMPDEST PUSH1 0x1 PUSH1 0x1 PUSH1 0xA0 SHL SUB DUP1 DUP4 AND PUSH1 0x0 SWAP1 DUP2 MSTORE PUSH1 0xF PUSH1 0x20 SWAP1 DUP2 MSTORE PUSH1 0x40 DUP1 DUP4 KECCAK256 DUP2 MLOAD PUSH2 0x160 DUP2 ADD DUP4 MSTORE DUP2 SLOAD SWAP1 SWAP6 AND DUP6 MSTORE PUSH1 0x1 DUP2 ADD SLOAD DUP6 DUP5 ADD MSTORE PUSH1 0x2 DUP2 ADD SLOAD DUP6 DUP4 ADD MSTORE PUSH1 0x3 DUP2 ADD SLOAD PUSH1 0x60 DUP7 ADD MSTORE PUSH1 0x4 DUP2 ADD SLOAD PUSH1 0x80 DUP7 ADD MSTORE PUSH1 0x5 DUP2 ADD SLOAD PUSH1 0xA0 DUP7 ADD MSTORE PUSH1 0x6 DUP2 ADD SLOAD PUSH1 0xFF AND ISZERO ISZERO PUSH1 0xC0 DUP7 ADD MSTORE PUSH1 0x7 DUP2 ADD DUP1 SLOAD DUP4 MLOAD DUP2 DUP7 MUL DUP2 ADD DUP7 ADD SWAP1 SWAP5 MSTORE DUP1 DUP5 MSTORE SWAP2 SWAP5 PUSH1 0xE0 DUP8 ADD SWAP5 SWAP2 SWAP3 SWAP2 DUP5 ADD JUMPDEST DUP3 DUP3 LT ISZERO PUSH2 0x353F JUMPI DUP4 DUP3 SWAP1 PUSH1 0x0 MSTORE PUSH1 0x20 PUSH1 0x0 KECCAK256 ADD DUP1 SLOAD PUSH2 0x34B2 SWAP1 PUSH2 0x4247 JUMP JUMPDEST DUP1 PUSH1 0x1F ADD PUSH1 0x20 DUP1 SWAP2 DIV MUL PUSH1 0x20 ADD PUSH1 0x40 MLOAD SWAP1 DUP2 ADD PUSH1 0x40 MSTORE DUP1 SWAP3 SWAP2 SWAP1 DUP2 DUP2 MSTORE PUSH1 0x20 ADD DUP3 DUP1 SLOAD PUSH2 0x34DE SWAP1 PUSH2 0x4247 JUMP JUMPDEST DUP1 ISZERO PUSH2 0x352B JUMPI DUP1 PUSH1 0x1F LT PUSH2 0x3500 JUMPI PUSH2 0x100 DUP1 DUP4 SLOAD DIV MUL DUP4 MSTORE SWAP2 PUSH1 0x20 ADD SWAP2 PUSH2 0x352B JUMP JUMPDEST DUP3 ADD SWAP2 SWAP1 PUSH1 0x0 MSTORE PUSH1 0x20 PUSH1 0x0 KECCAK256 SWAP1 JUMPDEST DUP2 SLOAD DUP2 MSTORE SWAP1 PUSH1 0x1 ADD SWAP1 PUSH1 0x20 ADD DUP1 DUP4 GT PUSH2 0x350E JUMPI DUP3 SWAP1 SUB PUSH1 0x1F AND DUP3 ADD SWAP2 JUMPDEST POP POP POP POP POP DUP2 MSTORE PUSH1 0x20 ADD SWAP1 PUSH1 0x1 ADD SWAP1 PUSH2 0x3493 JUMP JUMPDEST POP POP POP POP DUP2 MSTORE PUSH1 0x20 ADD PUSH1 0x8 DUP3 ADD SLOAD DUP2 MSTORE PUSH1 0x20 ADD PUSH1 0x9 DUP3 ADD DUP1 SLOAD PUSH2 0x25CB SWAP1 PUSH2 0x4247 JUMP JUMPDEST PUSH1 0x60 PUSH2 0x1709 PUSH1 0x4 PUSH2 0x35AD JUMP JUMPDEST PUSH1 0x1 PUSH1 0x1 PUSH1 0xA0 SHL SUB DUP2 AND PUSH1 0x0 SWAP1 DUP2 MSTORE PUSH1 0x1 PUSH1 0x20 MSTORE PUSH1 0x40 SWAP1 KECCAK256 PUSH1 0x60 SWAP1 PUSH2 0x957 SWAP1 PUSH2 0x35AD JUMP JUMPDEST PUSH1 0x0 PUSH2 0x35A6 DUP4 PUSH1 0x1 PUSH1 0x1 PUSH1 0xA0 SHL SUB DUP5 AND PUSH2 0x35F1 JUMP JUMPDEST SWAP4 SWAP3 POP POP POP JUMP JUMPDEST PUSH1 0x60 PUSH1 0x0 PUSH2 0x35A6 DUP4 PUSH2 0x36E4 JUMP JUMPDEST PUSH1 0x1 PUSH1 0x1 PUSH1 0xA0 SHL SUB DUP2 AND PUSH1 0x0 SWAP1 DUP2 MSTORE PUSH1 0x1 DUP4 ADD PUSH1 0x20 MSTORE PUSH1 0x40 DUP2 KECCAK256 SLOAD ISZERO ISZERO PUSH2 0x35A6 JUMP JUMPDEST PUSH1 0x0 PUSH2 0x35A6 DUP4 PUSH1 0x1 PUSH1 0x1 PUSH1 0xA0 SHL SUB DUP5 AND PUSH2 0x3740 JUMP JUMPDEST PUSH1 0x0 DUP2 DUP2 MSTORE PUSH1 0x1 DUP4 ADD PUSH1 0x20 MSTORE PUSH1 0x40 DUP2 KECCAK256 SLOAD DUP1 ISZERO PUSH2 0x36DA JUMPI PUSH1 0x0 PUSH2 0x3615 PUSH1 0x1 DUP4 PUSH2 0x43A1 JUMP JUMPDEST DUP6 SLOAD SWAP1 SWAP2 POP PUSH1 0x0 SWAP1 PUSH2 0x3629 SWAP1 PUSH1 0x1 SWAP1 PUSH2 0x43A1 JUMP JUMPDEST SWAP1 POP DUP1 DUP3 EQ PUSH2 0x368E JUMPI PUSH1 0x0 DUP7 PUSH1 0x0 ADD DUP3 DUP2 SLOAD DUP2 LT PUSH2 0x3649 JUMPI PUSH2 0x3649 PUSH2 0x43D6 JUMP JUMPDEST SWAP1 PUSH1 0x0 MSTORE PUSH1 0x20 PUSH1 0x0 KECCAK256 ADD SLOAD SWAP1 POP DUP1 DUP8 PUSH1 0x0 ADD DUP5 DUP2 SLOAD DUP2 LT PUSH2 0x366C JUMPI PUSH2 0x366C PUSH2 0x43D6 JUMP JUMPDEST PUSH1 0x0 SWAP2 DUP3 MSTORE PUSH1 0x20 DUP1 DUP4 KECCAK256 SWAP1 SWAP2 ADD SWAP3 SWAP1 SWAP3 SSTORE SWAP2 DUP3 MSTORE PUSH1 0x1 DUP9 ADD SWAP1 MSTORE PUSH1 0x40 SWAP1 KECCAK256 DUP4 SWAP1 SSTORE JUMPDEST DUP6 SLOAD DUP7 SWAP1 DUP1 PUSH2 0x369F JUMPI PUSH2 0x369F PUSH2 0x44C7 JUMP JUMPDEST PUSH1 0x1 SWAP1 SUB DUP2 DUP2 SWAP1 PUSH1 0x0 MSTORE PUSH1 0x20 PUSH1 0x0 KECCAK256 ADD PUSH1 0x0 SWAP1 SSTORE SWAP1 SSTORE DUP6 PUSH1 0x1 ADD PUSH1 0x0 DUP7 DUP2 MSTORE PUSH1 0x20 ADD SWAP1 DUP2 MSTORE PUSH1 0x20 ADD PUSH1 0x0 KECCAK256 PUSH1 0x0 SWAP1 SSTORE PUSH1 0x1 SWAP4 POP POP POP POP PUSH2 0x957 JUMP JUMPDEST PUSH1 0x0 SWAP2 POP POP PUSH2 0x957 JUMP JUMPDEST PUSH1 0x60 DUP2 PUSH1 0x0 ADD DUP1 SLOAD DUP1 PUSH1 0x20 MUL PUSH1 0x20 ADD PUSH1 0x40 MLOAD SWAP1 DUP2 ADD PUSH1 0x40 MSTORE DUP1 SWAP3 SWAP2 SWAP1 DUP2 DUP2 MSTORE PUSH1 0x20 ADD DUP3 DUP1 SLOAD DUP1 ISZERO PUSH2 0x3734 JUMPI PUSH1 0x20 MUL DUP3 ADD SWAP2 SWAP1 PUSH1 0x0 MSTORE PUSH1 0x20 PUSH1 0x0 KECCAK256 SWAP1 JUMPDEST DUP2 SLOAD DUP2 MSTORE PUSH1 0x20 ADD SWAP1 PUSH1 0x1 ADD SWAP1 DUP1 DUP4 GT PUSH2 0x3720 JUMPI JUMPDEST POP POP POP POP POP SWAP1 POP SWAP2 SWAP1 POP JUMP JUMPDEST PUSH1 0x0 DUP2 DUP2 MSTORE PUSH1 0x1 DUP4 ADD PUSH1 0x20 MSTORE PUSH1 0x40 DUP2 KECCAK256 SLOAD PUSH2 0x3787 JUMPI POP DUP2 SLOAD PUSH1 0x1 DUP2 DUP2 ADD DUP5 SSTORE PUSH1 0x0 DUP5 DUP2 MSTORE PUSH1 0x20 DUP1 DUP3 KECCAK256 SWAP1 SWAP4 ADD DUP5 SWAP1 SSTORE DUP5 SLOAD DUP5 DUP3 MSTORE DUP3 DUP7 ADD SWAP1 SWAP4 MSTORE PUSH1 0x40 SWAP1 KECCAK256 SWAP2 SWAP1 SWAP2 SSTORE PUSH2 0x957 JUMP JUMPDEST POP PUSH1 0x0 PUSH2 0x957 JUMP JUMPDEST POP DUP1 SLOAD PUSH2 0x379B SWAP1 PUSH2 0x4247 JUMP JUMPDEST PUSH1 0x0 DUP3 SSTORE DUP1 PUSH1 0x1F LT PUSH2 0x37AB JUMPI POP POP JUMP JUMPDEST PUSH1 0x1F ADD PUSH1 0x20 SWAP1 DIV SWAP1 PUSH1 0x0 MSTORE PUSH1 0x20 PUSH1 0x0 KECCAK256 SWAP1 DUP2 ADD SWAP1 PUSH2 0x7BE SWAP2 SWAP1 PUSH2 0x381F JUMP JUMPDEST DUP3 DUP1 SLOAD DUP3 DUP3 SSTORE SWAP1 PUSH1 0x0 MSTORE PUSH1 0x20 PUSH1 0x0 KECCAK256 SWAP1 DUP2 ADD SWAP3 DUP3 ISZERO PUSH2 0x380F JUMPI SWAP2 PUSH1 0x20 MUL DUP3 ADD JUMPDEST DUP3 DUP2 GT ISZERO PUSH2 0x380F JUMPI DUP3 MLOAD DUP3 SWAP1 PUSH2 0x37FF SWAP1 DUP3 PUSH2 0x42CB JUMP JUMPDEST POP SWAP2 PUSH1 0x20 ADD SWAP2 SWAP1 PUSH1 0x1 ADD SWAP1 PUSH2 0x37E9 JUMP JUMPDEST POP PUSH2 0x381B SWAP3 SWAP2 POP PUSH2 0x3834 JUMP JUMPDEST POP SWAP1 JUMP JUMPDEST JUMPDEST DUP1 DUP3 GT ISZERO PUSH2 0x381B JUMPI PUSH1 0x0 DUP2 SSTORE PUSH1 0x1 ADD PUSH2 0x3820 JUMP JUMPDEST DUP1 DUP3 GT ISZERO PUSH2 0x381B JUMPI PUSH1 0x0 PUSH2 0x3848 DUP3 DUP3 PUSH2 0x378F JUMP JUMPDEST POP PUSH1 0x1 ADD PUSH2 0x3834 JUMP JUMPDEST DUP1 CALLDATALOAD PUSH1 0x1 PUSH1 0x1 PUSH1 0xA0 SHL SUB DUP2 AND DUP2 EQ PUSH2 0x3868 JUMPI PUSH1 0x0 DUP1 REVERT JUMPDEST SWAP2 SWAP1 POP JUMP JUMPDEST PUSH1 0x0 PUSH1 0x20 DUP3 DUP5 SUB SLT ISZERO PUSH2 0x387F JUMPI PUSH1 0x0 DUP1 REVERT JUMPDEST PUSH2 0x35A6 DUP3 PUSH2 0x3851 JUMP JUMPDEST PUSH1 0x0 DUP1 PUSH1 0x40 DUP4 DUP6 SUB SLT ISZERO PUSH2 0x389B JUMPI PUSH1 0x0 DUP1 REVERT JUMPDEST PUSH2 0x38A4 DUP4 PUSH2 0x3851 JUMP JUMPDEST SWAP2 POP PUSH2 0x38B2 PUSH1 0x20 DUP5 ADD PUSH2 0x3851 JUMP JUMPDEST SWAP1 POP SWAP3 POP SWAP3 SWAP1 POP JUMP JUMPDEST PUSH1 0x0 DUP2 MLOAD DUP1 DUP5 MSTORE PUSH1 0x0 JUMPDEST DUP2 DUP2 LT ISZERO PUSH2 0x38E1 JUMPI PUSH1 0x20 DUP2 DUP6 ADD DUP2 ADD MLOAD DUP7 DUP4 ADD DUP3 ADD MSTORE ADD PUSH2 0x38C5 JUMP JUMPDEST POP PUSH1 0x0 PUSH1 0x20 DUP3 DUP7 ADD ADD MSTORE PUSH1 0x20 PUSH1 0x1F NOT PUSH1 0x1F DUP4 ADD AND DUP6 ADD ADD SWAP2 POP POP SWAP3 SWAP2 POP POP JUMP JUMPDEST PUSH1 0x0 DUP3 DUP3 MLOAD DUP1 DUP6 MSTORE PUSH1 0x20 DUP1 DUP7 ADD SWAP6 POP PUSH1 0x20 DUP3 PUSH1 0x5 SHL DUP5 ADD ADD PUSH1 0x20 DUP7 ADD PUSH1 0x0 JUMPDEST DUP5 DUP2 LT ISZERO PUSH2 0x394E JUMPI PUSH1 0x1F NOT DUP7 DUP5 SUB ADD DUP10 MSTORE PUSH2 0x393C DUP4 DUP4 MLOAD PUSH2 0x38BB JUMP JUMPDEST SWAP9 DUP5 ADD SWAP9 SWAP3 POP SWAP1 DUP4 ADD SWAP1 PUSH1 0x1 ADD PUSH2 0x3920 JUMP JUMPDEST POP SWAP1 SWAP8 SWAP7 POP POP POP POP POP POP POP JUMP JUMPDEST PUSH1 0x20 DUP2 MSTORE PUSH1 0x0 PUSH2 0x35A6 PUSH1 0x20 DUP4 ADD DUP5 PUSH2 0x3901 JUMP JUMPDEST PUSH1 0x0 DUP2 MLOAD DUP1 DUP5 MSTORE PUSH1 0x20 DUP1 DUP6 ADD SWAP5 POP PUSH1 0x20 DUP5 ADD PUSH1 0x0 JUMPDEST DUP4 DUP2 LT ISZERO PUSH2 0x39A8 JUMPI DUP2 MLOAD PUSH1 0x1 PUSH1 0x1 PUSH1 0xA0 SHL SUB AND DUP8 MSTORE SWAP6 DUP3 ADD SWAP6 SWAP1 DUP3 ADD SWAP1 PUSH1 0x1 ADD PUSH2 0x3983 JUMP JUMPDEST POP SWAP5 SWAP6 SWAP5 POP POP POP POP POP JUMP JUMPDEST PUSH1 0x0 PUSH2 0x180 PUSH1 0x1 DUP1 PUSH1 0xA0 SHL SUB DUP16 AND DUP4 MSTORE DUP14 PUSH1 0x20 DUP5 ADD MSTORE DUP13 PUSH1 0x40 DUP5 ADD MSTORE DUP12 PUSH1 0x60 DUP5 ADD MSTORE DUP11 PUSH1 0x80 DUP5 ADD MSTORE DUP10 PUSH1 0xA0 DUP5 ADD MSTORE DUP1 PUSH1 0xC0 DUP5 ADD MSTORE PUSH2 0x39F3 DUP2 DUP5 ADD DUP11 PUSH2 0x396E JUMP JUMPDEST SWAP1 POP DUP3 DUP2 SUB PUSH1 0xE0 DUP5 ADD MSTORE PUSH2 0x3A07 DUP2 DUP10 PUSH2 0x3901 JUMP JUMPDEST SWAP1 POP DUP7 PUSH2 0x100 DUP5 ADD MSTORE DUP3 DUP2 SUB PUSH2 0x120 DUP5 ADD MSTORE PUSH2 0x3A23 DUP2 DUP8 PUSH2 0x38BB JUMP JUMPDEST SWAP1 POP DUP5 PUSH2 0x140 DUP5 ADD MSTORE DUP3 DUP2 SUB PUSH2 0x160 DUP5 ADD MSTORE PUSH2 0x3A3F DUP2 DUP6 PUSH2 0x396E JUMP JUMPDEST SWAP16 SWAP15 POP POP POP POP POP POP POP POP POP POP POP POP POP POP POP JUMP JUMPDEST PUSH4 0x4E487B71 PUSH1 0xE0 SHL PUSH1 0x0 MSTORE PUSH1 0x41 PUSH1 0x4 MSTORE PUSH1 0x24 PUSH1 0x0 REVERT JUMPDEST PUSH1 0x40 MLOAD PUSH1 0x1F DUP3 ADD PUSH1 0x1F NOT AND DUP2 ADD PUSH8 0xFFFFFFFFFFFFFFFF DUP2 GT DUP3 DUP3 LT OR ISZERO PUSH2 0x3A91 JUMPI PUSH2 0x3A91 PUSH2 0x3A52 JUMP JUMPDEST PUSH1 0x40 MSTORE SWAP2 SWAP1 POP JUMP JUMPDEST PUSH1 0x0 DUP3 PUSH1 0x1F DUP4 ADD SLT PUSH2 0x3AAA JUMPI PUSH1 0x0 DUP1 REVERT JUMPDEST DUP2 CALLDATALOAD PUSH8 0xFFFFFFFFFFFFFFFF DUP2 GT ISZERO PUSH2 0x3AC4 JUMPI PUSH2 0x3AC4 PUSH2 0x3A52 JUMP JUMPDEST PUSH2 0x3AD7 PUSH1 0x1F DUP3 ADD PUSH1 0x1F NOT AND PUSH1 0x20 ADD PUSH2 0x3A68 JUMP JUMPDEST DUP2 DUP2 MSTORE DUP5 PUSH1 0x20 DUP4 DUP7 ADD ADD GT ISZERO PUSH2 0x3AEC JUMPI PUSH1 0x0 DUP1 REVERT JUMPDEST DUP2 PUSH1 0x20 DUP6 ADD PUSH1 0x20 DUP4 ADD CALLDATACOPY PUSH1 0x0 SWAP2 DUP2 ADD PUSH1 0x20 ADD SWAP2 SWAP1 SWAP2 MSTORE SWAP4 SWAP3 POP POP POP JUMP JUMPDEST PUSH1 0x0 PUSH1 0x20 DUP3 DUP5 SUB SLT ISZERO PUSH2 0x3B1B JUMPI PUSH1 0x0 DUP1 REVERT JUMPDEST DUP2 CALLDATALOAD PUSH8 0xFFFFFFFFFFFFFFFF DUP2 GT ISZERO PUSH2 0x3B32 JUMPI PUSH1 0x0 DUP1 REVERT JUMPDEST PUSH2 0x3B3E DUP5 DUP3 DUP6 ADD PUSH2 0x3A99 JUMP JUMPDEST SWAP5 SWAP4 POP POP POP POP JUMP JUMPDEST PUSH1 0x0 DUP1 PUSH1 0x40 DUP4 DUP6 SUB SLT ISZERO PUSH2 0x3B59 JUMPI PUSH1 0x0 DUP1 REVERT JUMPDEST DUP3 CALLDATALOAD SWAP2 POP PUSH2 0x38B2 PUSH1 0x20 DUP5 ADD PUSH2 0x3851 JUMP JUMPDEST PUSH1 0x0 DUP1 PUSH1 0x0 PUSH1 0x60 DUP5 DUP7 SUB SLT ISZERO PUSH2 0x3B7E JUMPI PUSH1 0x0 DUP1 REVERT JUMPDEST POP POP DUP2 CALLDATALOAD SWAP4 PUSH1 0x20 DUP4 ADD CALLDATALOAD SWAP4 POP PUSH1 0x40 SWAP1 SWAP3 ADD CALLDATALOAD SWAP2 SWAP1 POP JUMP JUMPDEST PUSH1 0x0 DUP1 PUSH1 0x0 DUP1 PUSH1 0x0 PUSH1 0xA0 DUP7 DUP9 SUB SLT ISZERO PUSH2 0x3BAD JUMPI PUSH1 0x0 DUP1 REVERT JUMPDEST POP POP DUP4 CALLDATALOAD SWAP6 PUSH1 0x20 DUP6 ADD CALLDATALOAD SWAP6 POP PUSH1 0x40 DUP6 ADD CALLDATALOAD SWAP5 PUSH1 0x60 DUP2 ADD CALLDATALOAD SWAP5 POP PUSH1 0x80 ADD CALLDATALOAD SWAP3 POP SWAP1 POP JUMP JUMPDEST PUSH1 0x0 PUSH2 0x160 PUSH1 0x1 DUP1 PUSH1 0xA0 SHL SUB DUP15 AND DUP4 MSTORE DUP13 PUSH1 0x20 DUP5 ADD MSTORE DUP12 PUSH1 0x40 DUP5 ADD MSTORE DUP11 PUSH1 0x60 DUP5 ADD MSTORE DUP10 PUSH1 0x80 DUP5 ADD MSTORE DUP9 PUSH1 0xA0 DUP5 ADD MSTORE DUP8 PUSH1 0xC0 DUP5 ADD MSTORE DUP7 PUSH1 0xE0 DUP5 ADD MSTORE DUP1 PUSH2 0x100 DUP5 ADD MSTORE PUSH2 0x3C1D DUP2 DUP5 ADD DUP8 PUSH2 0x38BB JUMP JUMPDEST PUSH2 0x120 DUP5 ADD SWAP6 SWAP1 SWAP6 MSTORE POP POP PUSH2 0x140 ADD MSTORE SWAP10 SWAP9 POP POP POP POP POP POP POP POP POP JUMP JUMPDEST PUSH1 0x20 DUP2 MSTORE PUSH1 0x0 PUSH2 0x35A6 PUSH1 0x20 DUP4 ADD DUP5 PUSH2 0x396E JUMP JUMPDEST PUSH1 0x0 DUP1 PUSH1 0x40 DUP4 DUP6 SUB SLT ISZERO PUSH2 0x3C60 JUMPI PUSH1 0x0 DUP1 REVERT JUMPDEST PUSH2 0x3C69 DUP4 PUSH2 0x3851 JUMP JUMPDEST SWAP2 POP PUSH1 0x20 DUP1 DUP5 ADD CALLDATALOAD PUSH8 0xFFFFFFFFFFFFFFFF DUP1 DUP3 GT ISZERO PUSH2 0x3C87 JUMPI PUSH1 0x0 DUP1 REVERT JUMPDEST DUP2 DUP7 ADD SWAP2 POP DUP7 PUSH1 0x1F DUP4 ADD SLT PUSH2 0x3C9B JUMPI PUSH1 0x0 DUP1 REVERT JUMPDEST DUP2 CALLDATALOAD DUP2 DUP2 GT ISZERO PUSH2 0x3CAD JUMPI PUSH2 0x3CAD PUSH2 0x3A52 JUMP JUMPDEST DUP1 PUSH1 0x5 SHL PUSH2 0x3CBC DUP6 DUP3 ADD PUSH2 0x3A68 JUMP JUMPDEST SWAP2 DUP3 MSTORE DUP4 DUP2 ADD DUP6 ADD SWAP2 DUP6 DUP2 ADD SWAP1 DUP11 DUP5 GT ISZERO PUSH2 0x3CD6 JUMPI PUSH1 0x0 DUP1 REVERT JUMPDEST DUP7 DUP7 ADD SWAP3 POP JUMPDEST DUP4 DUP4 LT ISZERO PUSH2 0x3D12 JUMPI DUP3 CALLDATALOAD DUP6 DUP2 GT ISZERO PUSH2 0x3CF4 JUMPI PUSH1 0x0 DUP1 DUP2 REVERT JUMPDEST PUSH2 0x3D02 DUP13 DUP10 DUP4 DUP11 ADD ADD PUSH2 0x3A99 JUMP JUMPDEST DUP4 MSTORE POP SWAP2 DUP7 ADD SWAP2 SWAP1 DUP7 ADD SWAP1 PUSH2 0x3CDC JUMP JUMPDEST DUP1 SWAP8 POP POP POP POP POP POP POP POP SWAP3 POP SWAP3 SWAP1 POP JUMP JUMPDEST PUSH1 0x0 DUP3 DUP3 MLOAD DUP1 DUP6 MSTORE PUSH1 0x20 DUP1 DUP7 ADD SWAP6 POP PUSH1 0x20 DUP3 PUSH1 0x5 SHL DUP5 ADD ADD PUSH1 0x20 DUP7 ADD PUSH1 0x0 JUMPDEST DUP5 DUP2 LT ISZERO PUSH2 0x394E JUMPI PUSH1 0x1F NOT DUP7 DUP5 SUB ADD DUP10 MSTORE PUSH2 0x3D5E DUP4 DUP4 MLOAD PUSH2 0x38BB JUMP JUMPDEST SWAP9 DUP5 ADD SWAP9 SWAP3 POP SWAP1 DUP4 ADD SWAP1 PUSH1 0x1 ADD PUSH2 0x3D42 JUMP JUMPDEST PUSH1 0x20 DUP2 MSTORE PUSH1 0x1 DUP1 PUSH1 0xA0 SHL SUB DUP3 MLOAD AND PUSH1 0x20 DUP3 ADD MSTORE PUSH1 0x20 DUP3 ADD MLOAD PUSH1 0x40 DUP3 ADD MSTORE PUSH1 0x40 DUP3 ADD MLOAD PUSH1 0x60 DUP3 ADD MSTORE PUSH1 0x60 DUP3 ADD MLOAD PUSH1 0x80 DUP3 ADD MSTORE PUSH1 0x0 PUSH1 0x80 DUP4 ADD MLOAD PUSH1 0xE0 PUSH1 0xA0 DUP5 ADD MSTORE PUSH2 0x3DBD PUSH2 0x100 DUP5 ADD DUP3 PUSH2 0x38BB JUMP JUMPDEST SWAP1 POP PUSH1 0xA0 DUP5 ADD MLOAD PUSH1 0x1F NOT DUP5 DUP4 SUB ADD PUSH1 0xC0 DUP6 ADD MSTORE PUSH2 0x3DDA DUP3 DUP3 PUSH2 0x3D23 JUMP JUMPDEST SWAP2 POP POP PUSH1 0xC0 DUP5 ADD MLOAD ISZERO ISZERO PUSH1 0xE0 DUP5 ADD MSTORE DUP1 SWAP2 POP POP SWAP3 SWAP2 POP POP JUMP JUMPDEST PUSH1 0x0 DUP1 PUSH1 0x0 DUP1 PUSH1 0x0 DUP1 PUSH1 0x0 PUSH1 0xE0 DUP9 DUP11 SUB SLT ISZERO PUSH2 0x3E0E JUMPI PUSH1 0x0 DUP1 REVERT JUMPDEST POP POP DUP6 CALLDATALOAD SWAP8 PUSH1 0x20 DUP8 ADD CALLDATALOAD SWAP8 POP PUSH1 0x40 DUP8 ADD CALLDATALOAD SWAP7 PUSH1 0x60 DUP2 ADD CALLDATALOAD SWAP7 POP PUSH1 0x80 DUP2 ADD CALLDATALOAD SWAP6 POP PUSH1 0xA0 DUP2 ADD CALLDATALOAD SWAP5 POP PUSH1 0xC0 ADD CALLDATALOAD SWAP3 POP SWAP1 POP JUMP JUMPDEST PUSH1 0x0 DUP1 PUSH1 0x0 DUP1 PUSH1 0x0 DUP1 PUSH1 0x0 DUP1 PUSH2 0x100 DUP10 DUP12 SUB SLT ISZERO PUSH2 0x3E5C JUMPI PUSH1 0x0 DUP1 REVERT JUMPDEST POP POP DUP7 CALLDATALOAD SWAP9 PUSH1 0x20 DUP9 ADD CALLDATALOAD SWAP9 POP PUSH1 0x40 DUP9 ADD CALLDATALOAD SWAP8 PUSH1 0x60 DUP2 ADD CALLDATALOAD SWAP8 POP PUSH1 0x80 DUP2 ADD CALLDATALOAD SWAP7 POP PUSH1 0xA0 DUP2 ADD CALLDATALOAD SWAP6 POP PUSH1 0xC0 DUP2 ADD CALLDATALOAD SWAP5 POP PUSH1 0xE0 ADD CALLDATALOAD SWAP3 POP SWAP1 POP JUMP JUMPDEST DUP2 MLOAD PUSH1 0xFF AND DUP2 MSTORE PUSH2 0x140 DUP2 ADD PUSH1 0x20 DUP4 ADD MLOAD PUSH2 0x3EB4 PUSH1 0x20 DUP5 ADD DUP3 PUSH1 0xFF AND SWAP1 MSTORE JUMP JUMPDEST POP PUSH1 0x40 DUP4 ADD MLOAD PUSH2 0x3EC9 PUSH1 0x40 DUP5 ADD DUP3 PUSH1 0xFF AND SWAP1 MSTORE JUMP JUMPDEST POP PUSH1 0x60 DUP4 ADD MLOAD PUSH2 0x3EDE PUSH1 0x60 DUP5 ADD DUP3 PUSH1 0xFF AND SWAP1 MSTORE JUMP JUMPDEST POP PUSH1 0x80 DUP4 ADD MLOAD PUSH2 0x3EF3 PUSH1 0x80 DUP5 ADD DUP3 PUSH1 0xFF AND SWAP1 MSTORE JUMP JUMPDEST POP PUSH1 0xA0 DUP4 ADD MLOAD PUSH2 0x3F08 PUSH1 0xA0 DUP5 ADD DUP3 PUSH1 0xFF AND SWAP1 MSTORE JUMP JUMPDEST POP PUSH1 0xC0 DUP4 ADD MLOAD PUSH2 0x3F1D PUSH1 0xC0 DUP5 ADD DUP3 PUSH1 0xFF AND SWAP1 MSTORE JUMP JUMPDEST POP PUSH1 0xE0 DUP4 ADD MLOAD PUSH2 0x3F32 PUSH1 0xE0 DUP5 ADD DUP3 PUSH1 0xFF AND SWAP1 MSTORE JUMP JUMPDEST POP PUSH2 0x100 DUP4 DUP2 ADD MLOAD PUSH1 0xFF SWAP1 DUP2 AND SWAP2 DUP5 ADD SWAP2 SWAP1 SWAP2 MSTORE PUSH2 0x120 SWAP4 DUP5 ADD MLOAD AND SWAP3 SWAP1 SWAP2 ADD SWAP2 SWAP1 SWAP2 MSTORE SWAP1 JUMP JUMPDEST PUSH1 0x20 DUP2 MSTORE PUSH2 0x3F73 PUSH1 0x20 DUP3 ADD DUP4 MLOAD PUSH1 0x1 PUSH1 0x1 PUSH1 0xA0 SHL SUB AND SWAP1 MSTORE JUMP JUMPDEST PUSH1 0x20 DUP3 ADD MLOAD PUSH1 0x40 DUP3 ADD MSTORE PUSH1 0x40 DUP3 ADD MLOAD PUSH1 0x60 DUP3 ADD MSTORE PUSH1 0x60 DUP3 ADD MLOAD PUSH1 0x80 DUP3 ADD MSTORE PUSH1 0x80 DUP3 ADD MLOAD PUSH1 0xA0 DUP3 ADD MSTORE PUSH1 0xA0 DUP3 ADD MLOAD PUSH1 0xC0 DUP3 ADD MSTORE PUSH1 0x0 PUSH1 0xC0 DUP4 ADD MLOAD PUSH2 0x3FBA PUSH1 0xE0 DUP5 ADD DUP3 ISZERO ISZERO SWAP1 MSTORE JUMP JUMPDEST POP PUSH1 0xE0 DUP4 ADD MLOAD PUSH2 0x100 DUP4 DUP2 ADD SWAP2 SWAP1 SWAP2 MSTORE DUP4 ADD MLOAD PUSH2 0x160 PUSH2 0x120 DUP1 DUP6 ADD DUP3 SWAP1 MSTORE PUSH2 0x3FE7 PUSH2 0x180 DUP7 ADD DUP5 PUSH2 0x3D23 JUMP JUMPDEST SWAP3 POP DUP1 DUP7 ADD MLOAD SWAP1 POP PUSH2 0x140 PUSH1 0x1F NOT DUP7 DUP6 SUB ADD DUP2 DUP8 ADD MSTORE PUSH2 0x4007 DUP5 DUP4 PUSH2 0x38BB JUMP JUMPDEST SWAP7 ADD MLOAD SWAP2 SWAP1 SWAP5 ADD MSTORE POP SWAP2 SWAP3 SWAP2 POP POP JUMP JUMPDEST PUSH1 0x80 DUP2 MSTORE PUSH1 0x0 PUSH2 0x402A PUSH1 0x80 DUP4 ADD DUP8 PUSH2 0x396E JUMP JUMPDEST DUP3 DUP2 SUB PUSH1 0x20 DUP5 ADD MSTORE PUSH2 0x403C DUP2 DUP8 PUSH2 0x3901 JUMP JUMPDEST SWAP1 POP DUP3 DUP2 SUB PUSH1 0x40 DUP5 ADD MSTORE PUSH2 0x4050 DUP2 DUP7 PUSH2 0x396E JUMP JUMPDEST SWAP1 POP DUP3 DUP2 SUB PUSH1 0x60 DUP5 ADD MSTORE PUSH2 0x4064 DUP2 DUP6 PUSH2 0x396E JUMP JUMPDEST SWAP8 SWAP7 POP POP POP POP POP POP POP JUMP JUMPDEST PUSH1 0x20 DUP2 MSTORE PUSH2 0x4089 PUSH1 0x20 DUP3 ADD DUP4 MLOAD PUSH1 0x1 PUSH1 0x1 PUSH1 0xA0 SHL SUB AND SWAP1 MSTORE JUMP JUMPDEST PUSH1 0x20 DUP3 ADD MLOAD PUSH1 0x40 DUP3 ADD MSTORE PUSH1 0x40 DUP3 ADD MLOAD PUSH1 0x60 DUP3 ADD MSTORE PUSH1 0x60 DUP3 ADD MLOAD PUSH1 0x80 DUP3 ADD MSTORE PUSH1 0x80 DUP3 ADD MLOAD PUSH1 0xA0 DUP3 ADD MSTORE PUSH1 0xA0 DUP3 ADD MLOAD PUSH1 0xC0 DUP3 ADD MSTORE PUSH1 0x0 PUSH1 0xC0 DUP4 ADD MLOAD PUSH2 0x40D0 PUSH1 0xE0 DUP5 ADD DUP3 ISZERO ISZERO SWAP1 MSTORE JUMP JUMPDEST POP PUSH1 0xE0 DUP4 ADD MLOAD PUSH2 0x100 DUP4 DUP2 ADD SWAP2 SWAP1 SWAP2 MSTORE DUP4 ADD MLOAD PUSH2 0x280 PUSH2 0x120 DUP1 DUP6 ADD DUP3 SWAP1 MSTORE PUSH2 0x40FD PUSH2 0x2A0 DUP7 ADD DUP5 PUSH2 0x3D23 JUMP JUMPDEST SWAP1 DUP7 ADD MLOAD SWAP1 SWAP3 POP PUSH2 0x140 PUSH2 0x415C DUP7 DUP3 ADD DUP4 DUP1 MLOAD DUP3 MSTORE PUSH1 0x20 DUP2 ADD MLOAD PUSH1 0x20 DUP4 ADD MSTORE PUSH1 0x40 DUP2 ADD MLOAD PUSH1 0x40 DUP4 ADD MSTORE PUSH1 0x60 DUP2 ADD MLOAD PUSH1 0x60 DUP4 ADD MSTORE PUSH1 0x80 DUP2 ADD MLOAD PUSH1 0x80 DUP4 ADD MSTORE PUSH1 0xA0 DUP2 ADD MLOAD PUSH1 0xA0 DUP4 ADD MSTORE PUSH1 0xC0 DUP2 ADD MLOAD PUSH1 0xC0 DUP4 ADD MSTORE PUSH1 0xE0 DUP2 ADD MLOAD PUSH1 0xE0 DUP4 ADD MSTORE POP POP JUMP JUMPDEST DUP7 ADD MLOAD DUP6 DUP5 SUB PUSH1 0x1F NOT ADD PUSH2 0x240 DUP8 ADD MSTORE SWAP1 POP PUSH2 0x4178 DUP4 DUP3 PUSH2 0x38BB JUMP JUMPDEST PUSH2 0x160 DUP8 ADD MLOAD PUSH2 0x260 DUP8 ADD MSTORE PUSH2 0x180 SWAP1 SWAP7 ADD MLOAD SWAP2 SWAP1 SWAP5 ADD MSTORE POP SWAP2 SWAP3 SWAP2 POP POP JUMP JUMPDEST PUSH1 0x20 DUP2 MSTORE PUSH2 0x41B2 PUSH1 0x20 DUP3 ADD DUP4 MLOAD PUSH1 0x1 PUSH1 0x1 PUSH1 0xA0 SHL SUB AND SWAP1 MSTORE JUMP JUMPDEST PUSH1 0x20 DUP3 ADD MLOAD PUSH1 0x40 DUP3 ADD MSTORE PUSH1 0x40 DUP3 ADD MLOAD PUSH1 0x60 DUP3 ADD MSTORE PUSH1 0x60 DUP3 ADD MLOAD PUSH1 0x80 DUP3 ADD MSTORE PUSH1 0x80 DUP3 ADD MLOAD PUSH1 0xA0 DUP3 ADD MSTORE PUSH1 0xA0 DUP3 ADD MLOAD PUSH1 0xC0 DUP3 ADD MSTORE PUSH1 0x0 PUSH1 0xC0 DUP4 ADD MLOAD PUSH2 0x41F9 PUSH1 0xE0 DUP5 ADD DUP3 ISZERO ISZERO SWAP1 MSTORE JUMP JUMPDEST POP PUSH1 0xE0 DUP4 ADD MLOAD PUSH2 0x160 PUSH2 0x100 DUP2 DUP2 DUP7 ADD MSTORE PUSH2 0x4218 PUSH2 0x180 DUP7 ADD DUP5 PUSH2 0x3D23 JUMP JUMPDEST SWAP3 POP DUP1 DUP7 ADD MLOAD SWAP1 POP PUSH2 0x120 DUP2 DUP2 DUP8 ADD MSTORE DUP1 DUP8 ADD MLOAD SWAP2 POP POP PUSH2 0x140 PUSH1 0x1F NOT DUP7 DUP6 SUB ADD DUP2 DUP8 ADD MSTORE PUSH2 0x4007 DUP5 DUP4 PUSH2 0x38BB JUMP JUMPDEST PUSH1 0x1 DUP2 DUP2 SHR SWAP1 DUP3 AND DUP1 PUSH2 0x425B JUMPI PUSH1 0x7F DUP3 AND SWAP2 POP JUMPDEST PUSH1 0x20 DUP3 LT DUP2 SUB PUSH2 0x13C1 JUMPI PUSH4 0x4E487B71 PUSH1 0xE0 SHL PUSH1 0x0 MSTORE PUSH1 0x22 PUSH1 0x4 MSTORE PUSH1 0x24 PUSH1 0x0 REVERT JUMPDEST PUSH1 0x1F DUP3 GT ISZERO PUSH2 0x2F53 JUMPI PUSH1 0x0 DUP2 PUSH1 0x0 MSTORE PUSH1 0x20 PUSH1 0x0 KECCAK256 PUSH1 0x1F DUP6 ADD PUSH1 0x5 SHR DUP2 ADD PUSH1 0x20 DUP7 LT ISZERO PUSH2 0x42A4 JUMPI POP DUP1 JUMPDEST PUSH1 0x1F DUP6 ADD PUSH1 0x5 SHR DUP3 ADD SWAP2 POP JUMPDEST DUP2 DUP2 LT ISZERO PUSH2 0x42C3 JUMPI DUP3 DUP2 SSTORE PUSH1 0x1 ADD PUSH2 0x42B0 JUMP JUMPDEST POP POP POP POP POP POP JUMP JUMPDEST DUP2 MLOAD PUSH8 0xFFFFFFFFFFFFFFFF DUP2 GT ISZERO PUSH2 0x42E5 JUMPI PUSH2 0x42E5 PUSH2 0x3A52 JUMP JUMPDEST PUSH2 0x42F9 DUP2 PUSH2 0x42F3 DUP5 SLOAD PUSH2 0x4247 JUMP JUMPDEST DUP5 PUSH2 0x427B JUMP JUMPDEST PUSH1 0x20 DUP1 PUSH1 0x1F DUP4 GT PUSH1 0x1 DUP2 EQ PUSH2 0x432E JUMPI PUSH1 0x0 DUP5 ISZERO PUSH2 0x4316 JUMPI POP DUP6 DUP4 ADD MLOAD JUMPDEST PUSH1 0x0 NOT PUSH1 0x3 DUP7 SWAP1 SHL SHR NOT AND PUSH1 0x1 DUP6 SWAP1 SHL OR DUP6 SSTORE PUSH2 0x42C3 JUMP JUMPDEST PUSH1 0x0 DUP6 DUP2 MSTORE PUSH1 0x20 DUP2 KECCAK256 PUSH1 0x1F NOT DUP7 AND SWAP2 JUMPDEST DUP3 DUP2 LT ISZERO PUSH2 0x435D JUMPI DUP9 DUP7 ADD MLOAD DUP3 SSTORE SWAP5 DUP5 ADD SWAP5 PUSH1 0x1 SWAP1 SWAP2 ADD SWAP1 DUP5 ADD PUSH2 0x433E JUMP JUMPDEST POP DUP6 DUP3 LT ISZERO PUSH2 0x437B JUMPI DUP8 DUP6 ADD MLOAD PUSH1 0x0 NOT PUSH1 0x3 DUP9 SWAP1 SHL PUSH1 0xF8 AND SHR NOT AND DUP2 SSTORE JUMPDEST POP POP POP POP POP PUSH1 0x1 SWAP1 DUP2 SHL ADD SWAP1 SSTORE POP JUMP JUMPDEST PUSH4 0x4E487B71 PUSH1 0xE0 SHL PUSH1 0x0 MSTORE PUSH1 0x11 PUSH1 0x4 MSTORE PUSH1 0x24 PUSH1 0x0 REVERT JUMPDEST DUP2 DUP2 SUB DUP2 DUP2 GT ISZERO PUSH2 0x957 JUMPI PUSH2 0x957 PUSH2 0x438B JUMP JUMPDEST PUSH1 0x0 DUP3 PUSH2 0x43D1 JUMPI PUSH4 0x4E487B71 PUSH1 0xE0 SHL PUSH1 0x0 MSTORE PUSH1 0x12 PUSH1 0x4 MSTORE PUSH1 0x24 PUSH1 0x0 REVERT JUMPDEST POP DIV SWAP1 JUMP JUMPDEST PUSH4 0x4E487B71 PUSH1 0xE0 SHL PUSH1 0x0 MSTORE PUSH1 0x32 PUSH1 0x4 MSTORE PUSH1 0x24 PUSH1 0x0 REVERT JUMPDEST DUP2 DUP2 SUB PUSH2 0x43F7 JUMPI POP POP JUMP JUMPDEST PUSH2 0x4401 DUP3 SLOAD PUSH2 0x4247 JUMP JUMPDEST PUSH8 0xFFFFFFFFFFFFFFFF DUP2 GT ISZERO PUSH2 0x4419 JUMPI PUSH2 0x4419 PUSH2 0x3A52 JUMP JUMPDEST PUSH2 0x4427 DUP2 PUSH2 0x42F3 DUP5 SLOAD PUSH2 0x4247 JUMP JUMPDEST PUSH1 0x0 PUSH1 0x1F DUP3 GT PUSH1 0x1 DUP2 EQ PUSH2 0x445B JUMPI PUSH1 0x0 DUP4 ISZERO PUSH2 0x4443 JUMPI POP DUP5 DUP3 ADD SLOAD JUMPDEST PUSH1 0x0 NOT PUSH1 0x3 DUP6 SWAP1 SHL SHR NOT AND PUSH1 0x1 DUP5 SWAP1 SHL OR DUP5 SSTORE PUSH2 0x44C0 JUMP JUMPDEST PUSH1 0x0 DUP6 DUP2 MSTORE PUSH1 0x20 SWAP1 KECCAK256 PUSH1 0x1F NOT DUP5 AND SWAP1 PUSH1 0x0 DUP7 DUP2 MSTORE PUSH1 0x20 SWAP1 KECCAK256 DUP5 JUMPDEST DUP4 DUP2 LT ISZERO PUSH2 0x4495 JUMPI DUP3 DUP7 ADD SLOAD DUP3 SSTORE PUSH1 0x1 SWAP6 DUP7 ADD SWAP6 SWAP1 SWAP2 ADD SWAP1 PUSH1 0x20 ADD PUSH2 0x4475 JUMP JUMPDEST POP DUP6 DUP4 LT ISZERO PUSH2 0x44B3 JUMPI DUP2 DUP6 ADD SLOAD PUSH1 0x0 NOT PUSH1 0x3 DUP9 SWAP1 SHL PUSH1 0xF8 AND SHR NOT AND DUP2 SSTORE JUMPDEST POP POP POP PUSH1 0x1 DUP4 PUSH1 0x1 SHL ADD DUP5 SSTORE JUMPDEST POP POP POP POP POP JUMP JUMPDEST PUSH4 0x4E487B71 PUSH1 0xE0 SHL PUSH1 0x0 MSTORE PUSH1 0x31 PUSH1 0x4 MSTORE PUSH1 0x24 PUSH1 0x0 REVERT JUMPDEST PUSH1 0x20 DUP1 DUP3 MSTORE PUSH1 0x1F SWAP1 DUP3 ADD MSTORE PUSH32 0x596F7520616C72656164792063726561746520796F75722070726F66696C6500 PUSH1 0x40 DUP3 ADD MSTORE PUSH1 0x60 ADD SWAP1 JUMP JUMPDEST PUSH1 0x0 PUSH1 0xFF DUP3 AND PUSH1 0xFF DUP2 SUB PUSH2 0x452A JUMPI PUSH2 0x452A PUSH2 0x438B JUMP JUMPDEST PUSH1 0x1 ADD SWAP3 SWAP2 POP POP JUMP JUMPDEST PUSH4 0x4E487B71 PUSH1 0xE0 SHL PUSH1 0x0 MSTORE PUSH1 0x1 PUSH1 0x4 MSTORE PUSH1 0x24 PUSH1 0x0 REVERT JUMPDEST DUP1 DUP3 ADD DUP1 DUP3 GT ISZERO PUSH2 0x957 JUMPI PUSH2 0x957 PUSH2 0x438B JUMP INVALID LOG2 PUSH5 0x6970667358 0x22 SLT KECCAK256 DUP11 0xA6 TIMESTAMP 0xB6 0x4B PUSH19 0x3769C06F6447B4B75A505BD502591915D0080D 0x25 SWAP16 EQ PUSH28 0xD9952164736F6C634300081800330000000000000000000000000000 "
        },
        "methodIdentifiers": {
          "ConnectedAccountType(address)": "2a1ebd01",
          "accounts(address)": "5e5c06e2",
          "addPrescription(address,string[])": "60c61d0c",
          "addProfilePic(string)": "1a5aa676",
          "addTopMedichine(string)": "6bc071a5",
          "cancelSubscription()": "24e9edb0",
          "deletePrecription(uint256,address)": "2138ba84",
          "getAdmin(address)": "64efb22b",
          "getAdminData()": "8f7a844b",
          "getAlluserTypeData(address)": "b12e2e84",
          "getDoctor(address)": "2f04e064",
          "getDoctorAnotherData(address)": "9c0f1c7c",
          "getDoctorDataFromPathologist(address,address)": "8043ce00",
          "getMedicalResearchLab(address)": "ea8c9e04",
          "getPathologist(address)": "16ecfa84",
          "getPathologistDataFromDoctor(address,address)": "0b916f14",
          "getPatient(address)": "b5368e20",
          "getPatientDataFromDoctor(address,address)": "080bc2b1",
          "getPatientToAdmin(address)": "ff9ffc07",
          "getPatientToPharmacy()": "7e339968",
          "getPersonalDoctor()": "9824a07a",
          "getPharmacyCompany(address)": "9059229b",
          "getSubscriptionStatus(address)": "1ddda9b6",
          "getSubscriptionTransactions(address)": "509a5e13",
          "getadminToMedRcLab()": "5842e6e5",
          "getsharedAllDoctorAddress()": "d680288b",
          "getsharedAllUsersAddress()": "f7332c03",
          "revokeAccessData(address)": "07eda2cc",
          "setAdmin(uint256,bytes32,bytes32)": "27ccc00e",
          "setDoctor(uint256,bytes32,bytes32,uint256,uint256,uint256,bytes32)": "80f1310a",
          "setMedicalResearchLab(uint256,bytes32,uint256,bytes32,uint256)": "2856d1e8",
          "setPathologist(uint256,bytes32,uint256,bytes32,uint256,bytes32,bytes32)": "b5593251",
          "setPatient(uint256,bytes32,bytes32,uint256,bytes32,bytes32,bytes32)": "abb4d51f",
          "setPatientPersonalData(bytes32,bytes32,bytes32,bytes32,bytes32,bytes32,bytes32,bytes32)": "8bb115b7",
          "setPharmacyCompany(uint256,bytes32,uint256,bytes32,uint256)": "55da65f4",
          "shareData(address)": "d3701a7b",
          "showSharedPrescription(address)": "887f6f8d",
          "subscription(string)": "8e80e0e0",
          "subscriptionExpiration(address)": "55bf3b33"
        }
      }
    }
  }
}